{
  "address": "0x5aeD6D560C3e6dDf0aB318360421B04937F76973",
  "abi": [
    {
      "anonymous": false,
      "inputs": [
        {
          "indexed": true,
          "internalType": "bytes32",
          "name": "_transactionHash",
          "type": "bytes32"
        },
        {
          "indexed": true,
          "internalType": "address",
          "name": "_originalTokenAddress",
          "type": "address"
        },
        {
          "indexed": true,
          "internalType": "address",
          "name": "_to",
          "type": "address"
        },
        {
          "indexed": false,
          "internalType": "address",
          "name": "_from",
          "type": "address"
        },
        {
          "indexed": false,
          "internalType": "uint256",
          "name": "_tokenId",
          "type": "uint256"
        },
        {
          "indexed": false,
          "internalType": "bytes32",
          "name": "_blockHash",
          "type": "bytes32"
        },
        {
          "indexed": false,
          "internalType": "uint256",
          "name": "_logIndex",
          "type": "uint256"
        }
      ],
      "name": "AcceptedNFTCrossTransfer",
      "type": "event"
    },
    {
      "anonymous": false,
      "inputs": [
        {
          "indexed": false,
          "internalType": "address",
          "name": "_newAllowTokens",
          "type": "address"
        }
      ],
      "name": "AllowTokensChanged",
      "type": "event"
    },
    {
      "anonymous": false,
      "inputs": [
        {
          "indexed": true,
          "internalType": "bytes32",
          "name": "_transactionHash",
          "type": "bytes32"
        },
        {
          "indexed": true,
          "internalType": "address",
          "name": "_originalTokenAddress",
          "type": "address"
        },
        {
          "indexed": true,
          "internalType": "address",
          "name": "_to",
          "type": "address"
        },
        {
          "indexed": false,
          "internalType": "address",
          "name": "_sender",
          "type": "address"
        },
        {
          "indexed": false,
          "internalType": "uint256",
          "name": "_tokenId",
          "type": "uint256"
        },
        {
          "indexed": false,
          "internalType": "bytes32",
          "name": "_blockHash",
          "type": "bytes32"
        },
        {
          "indexed": false,
          "internalType": "uint256",
          "name": "_logIndex",
          "type": "uint256"
        },
        {
          "indexed": false,
          "internalType": "address",
          "name": "_receiver",
          "type": "address"
        }
      ],
      "name": "ClaimedNFTToken",
      "type": "event"
    },
    {
      "anonymous": false,
      "inputs": [
        {
          "indexed": true,
          "internalType": "address",
          "name": "_originalTokenAddress",
          "type": "address"
        },
        {
          "indexed": true,
          "internalType": "address",
          "name": "_from",
          "type": "address"
        },
        {
          "indexed": true,
          "internalType": "address",
          "name": "_to",
          "type": "address"
        },
        {
          "indexed": false,
          "internalType": "address",
          "name": "_tokenCreator",
          "type": "address"
        },
        {
          "indexed": false,
          "internalType": "bytes",
          "name": "_userData",
          "type": "bytes"
        },
        {
          "indexed": false,
          "internalType": "uint256",
          "name": "_totalSupply",
          "type": "uint256"
        },
        {
          "indexed": false,
          "internalType": "uint256",
          "name": "_tokenId",
          "type": "uint256"
        },
        {
          "indexed": false,
          "internalType": "string",
          "name": "_tokenURI",
          "type": "string"
        }
      ],
      "name": "Cross",
      "type": "event"
    },
    {
      "anonymous": false,
      "inputs": [
        {
          "indexed": false,
          "internalType": "address",
          "name": "_newFederation",
          "type": "address"
        }
      ],
      "name": "FederationChanged",
      "type": "event"
    },
    {
      "anonymous": false,
      "inputs": [
        {
          "indexed": false,
          "internalType": "uint256",
          "name": "_amount",
          "type": "uint256"
        }
      ],
      "name": "FixedFeeNFTChanged",
      "type": "event"
    },
    {
      "anonymous": false,
      "inputs": [
        {
          "indexed": true,
          "internalType": "address",
          "name": "_newSideNFTTokenAddress",
          "type": "address"
        },
        {
          "indexed": true,
          "internalType": "address",
          "name": "_originalTokenAddress",
          "type": "address"
        },
        {
          "indexed": false,
          "internalType": "string",
          "name": "_newSymbol",
          "type": "string"
        }
      ],
      "name": "NewSideNFTToken",
      "type": "event"
    },
    {
      "anonymous": false,
      "inputs": [
        {
          "indexed": true,
          "internalType": "address",
          "name": "previousOwner",
          "type": "address"
        },
        {
          "indexed": true,
          "internalType": "address",
          "name": "newOwner",
          "type": "address"
        }
      ],
      "name": "OwnershipTransferred",
      "type": "event"
    },
    {
      "anonymous": false,
      "inputs": [
        {
          "indexed": false,
          "internalType": "address",
          "name": "account",
          "type": "address"
        }
      ],
      "name": "Paused",
      "type": "event"
    },
    {
      "anonymous": false,
      "inputs": [
        {
          "indexed": true,
          "internalType": "address",
          "name": "account",
          "type": "address"
        }
      ],
      "name": "PauserAdded",
      "type": "event"
    },
    {
      "anonymous": false,
      "inputs": [
        {
          "indexed": true,
          "internalType": "address",
          "name": "account",
          "type": "address"
        }
      ],
      "name": "PauserRemoved",
      "type": "event"
    },
    {
      "anonymous": false,
      "inputs": [
        {
          "indexed": false,
          "internalType": "address",
          "name": "_newSideNFTTokenFactory",
          "type": "address"
        }
      ],
      "name": "SideTokenFactoryChanged",
      "type": "event"
    },
    {
      "anonymous": false,
      "inputs": [
        {
          "indexed": false,
          "internalType": "address",
          "name": "account",
          "type": "address"
        }
      ],
      "name": "Unpaused",
      "type": "event"
    },
    {
      "anonymous": false,
      "inputs": [
        {
          "indexed": false,
          "internalType": "bool",
          "name": "_isUpgrading",
          "type": "bool"
        }
      ],
      "name": "Upgrading",
      "type": "event"
    },
    {
      "inputs": [],
      "name": "CLAIM_TYPEHASH",
      "outputs": [
        {
          "internalType": "bytes32",
          "name": "",
          "type": "bytes32"
        }
      ],
      "stateMutability": "view",
      "type": "function"
    },
    {
      "inputs": [
        {
          "internalType": "address",
          "name": "sender",
          "type": "address"
        }
      ],
      "name": "__Pausable_init",
      "outputs": [],
      "stateMutability": "nonpayable",
      "type": "function"
    },
    {
      "inputs": [
        {
          "internalType": "address",
          "name": "sender",
          "type": "address"
        }
      ],
      "name": "__PauserRol_init",
      "outputs": [],
      "stateMutability": "nonpayable",
      "type": "function"
    },
    {
      "inputs": [
        {
          "internalType": "address",
          "name": "_tokenAddress",
          "type": "address"
        },
        {
          "internalType": "address payable",
          "name": "_from",
          "type": "address"
        },
        {
          "internalType": "address payable",
          "name": "_to",
          "type": "address"
        },
        {
          "internalType": "uint256",
          "name": "_tokenId",
          "type": "uint256"
        },
        {
          "internalType": "bytes32",
          "name": "_blockHash",
          "type": "bytes32"
        },
        {
          "internalType": "bytes32",
          "name": "_transactionHash",
          "type": "bytes32"
        },
        {
          "internalType": "uint32",
          "name": "_logIndex",
          "type": "uint32"
        }
      ],
      "name": "acceptTransfer",
      "outputs": [],
      "stateMutability": "nonpayable",
      "type": "function"
    },
    {
      "inputs": [
        {
          "internalType": "address",
          "name": "account",
          "type": "address"
        }
      ],
      "name": "addPauser",
      "outputs": [],
      "stateMutability": "nonpayable",
      "type": "function"
    },
    {
      "inputs": [],
      "name": "allowTokens",
      "outputs": [
        {
          "internalType": "contract IAllowTokens",
          "name": "",
          "type": "address"
        }
      ],
      "stateMutability": "view",
      "type": "function"
    },
    {
      "inputs": [
        {
          "internalType": "address",
          "name": "newAllowTokens",
          "type": "address"
        }
      ],
      "name": "changeAllowTokens",
      "outputs": [],
      "stateMutability": "nonpayable",
      "type": "function"
    },
    {
      "inputs": [
        {
          "internalType": "address payable",
          "name": "newFederation",
          "type": "address"
        }
      ],
      "name": "changeFederation",
      "outputs": [],
      "stateMutability": "nonpayable",
      "type": "function"
    },
    {
      "inputs": [
        {
          "internalType": "address",
          "name": "newSideNFTTokenFactory",
          "type": "address"
        }
      ],
      "name": "changeSideTokenFactory",
      "outputs": [],
      "stateMutability": "nonpayable",
      "type": "function"
    },
    {
      "inputs": [
        {
          "components": [
            {
              "internalType": "address payable",
              "name": "to",
              "type": "address"
            },
            {
              "internalType": "address",
              "name": "from",
              "type": "address"
            },
            {
              "internalType": "uint256",
              "name": "tokenId",
              "type": "uint256"
            },
            {
              "internalType": "address",
              "name": "tokenAddress",
              "type": "address"
            },
            {
              "internalType": "bytes32",
              "name": "blockHash",
              "type": "bytes32"
            },
            {
              "internalType": "bytes32",
              "name": "transactionHash",
              "type": "bytes32"
            },
            {
              "internalType": "uint32",
              "name": "logIndex",
              "type": "uint32"
            }
          ],
          "internalType": "struct INFTBridge.NFTClaimData",
          "name": "_claimData",
          "type": "tuple"
        }
      ],
      "name": "claim",
      "outputs": [],
      "stateMutability": "nonpayable",
      "type": "function"
    },
    {
      "inputs": [
        {
          "components": [
            {
              "internalType": "address payable",
              "name": "to",
              "type": "address"
            },
            {
              "internalType": "address",
              "name": "from",
              "type": "address"
            },
            {
              "internalType": "uint256",
              "name": "tokenId",
              "type": "uint256"
            },
            {
              "internalType": "address",
              "name": "tokenAddress",
              "type": "address"
            },
            {
              "internalType": "bytes32",
              "name": "blockHash",
              "type": "bytes32"
            },
            {
              "internalType": "bytes32",
              "name": "transactionHash",
              "type": "bytes32"
            },
            {
              "internalType": "uint32",
              "name": "logIndex",
              "type": "uint32"
            }
          ],
          "internalType": "struct INFTBridge.NFTClaimData",
          "name": "_claimData",
          "type": "tuple"
        }
      ],
      "name": "claimFallback",
      "outputs": [],
      "stateMutability": "nonpayable",
      "type": "function"
    },
    {
      "inputs": [
        {
          "internalType": "bytes32",
          "name": "",
          "type": "bytes32"
        }
      ],
      "name": "claimed",
      "outputs": [
        {
          "internalType": "bool",
          "name": "",
          "type": "bool"
        }
      ],
      "stateMutability": "view",
      "type": "function"
    },
    {
      "inputs": [
        {
          "internalType": "address",
          "name": "_originalTokenAddress",
          "type": "address"
        },
        {
          "internalType": "string",
          "name": "_originalTokenSymbol",
          "type": "string"
        },
        {
          "internalType": "string",
          "name": "_originalTokenName",
          "type": "string"
        },
        {
          "internalType": "string",
          "name": "_baseURI",
          "type": "string"
        },
        {
          "internalType": "string",
          "name": "_contractURI",
          "type": "string"
        }
      ],
      "name": "createSideNFTToken",
      "outputs": [],
      "stateMutability": "nonpayable",
      "type": "function"
    },
    {
      "inputs": [],
      "name": "domainSeparator",
      "outputs": [
        {
          "internalType": "bytes32",
          "name": "",
          "type": "bytes32"
        }
      ],
      "stateMutability": "view",
      "type": "function"
    },
    {
      "inputs": [],
      "name": "getFederation",
      "outputs": [
        {
          "internalType": "address",
          "name": "",
          "type": "address"
        }
      ],
      "stateMutability": "view",
      "type": "function"
    },
    {
      "inputs": [],
      "name": "getFixedFee",
      "outputs": [
        {
          "internalType": "uint256",
          "name": "",
          "type": "uint256"
        }
      ],
      "stateMutability": "view",
      "type": "function"
    },
    {
      "inputs": [
        {
          "internalType": "address",
          "name": "tokenAddress",
          "type": "address"
        },
        {
          "internalType": "uint256",
          "name": "tokenId",
          "type": "uint256"
        }
      ],
      "name": "getTokenCreator",
      "outputs": [
        {
          "internalType": "address",
          "name": "",
          "type": "address"
        }
      ],
      "stateMutability": "view",
      "type": "function"
    },
    {
      "inputs": [
        {
          "internalType": "address",
          "name": "_to",
          "type": "address"
        },
        {
          "internalType": "address",
          "name": "_from",
          "type": "address"
        },
        {
          "internalType": "uint256",
          "name": "_tokenId",
          "type": "uint256"
        },
        {
          "internalType": "address",
          "name": "_tokenAddress",
          "type": "address"
        },
        {
          "internalType": "bytes32",
          "name": "_blockHash",
          "type": "bytes32"
        },
        {
          "internalType": "bytes32",
          "name": "_transactionHash",
          "type": "bytes32"
        },
        {
          "internalType": "uint32",
          "name": "_logIndex",
          "type": "uint32"
        }
      ],
      "name": "getTransactionDataHash",
      "outputs": [
        {
          "internalType": "bytes32",
          "name": "",
          "type": "bytes32"
        }
      ],
      "stateMutability": "pure",
      "type": "function"
    },
    {
      "inputs": [
        {
          "internalType": "bytes32",
          "name": "transactionHash",
          "type": "bytes32"
        }
      ],
      "name": "hasBeenClaimed",
      "outputs": [
        {
          "internalType": "bool",
          "name": "",
          "type": "bool"
        }
      ],
      "stateMutability": "view",
      "type": "function"
    },
    {
      "inputs": [
        {
          "internalType": "bytes32",
          "name": "transactionHash",
          "type": "bytes32"
        }
      ],
      "name": "hasCrossed",
      "outputs": [
        {
          "internalType": "bool",
          "name": "",
          "type": "bool"
        }
      ],
      "stateMutability": "view",
      "type": "function"
    },
    {
      "inputs": [],
      "name": "initDomainSeparator",
      "outputs": [],
      "stateMutability": "nonpayable",
      "type": "function"
    },
    {
      "inputs": [
        {
          "internalType": "address",
          "name": "_manager",
          "type": "address"
        },
        {
          "internalType": "address payable",
          "name": "_federation",
          "type": "address"
        },
        {
          "internalType": "address",
          "name": "_allowTokens",
          "type": "address"
        },
        {
          "internalType": "address",
          "name": "_sideTokenFactory",
          "type": "address"
        },
        {
          "internalType": "string",
          "name": "_symbolPrefix",
          "type": "string"
        }
      ],
      "name": "initialize",
      "outputs": [],
      "stateMutability": "nonpayable",
      "type": "function"
    },
    {
      "inputs": [],
      "name": "initialize",
      "outputs": [],
      "stateMutability": "nonpayable",
      "type": "function"
    },
    {
      "inputs": [
        {
          "internalType": "address",
          "name": "sender",
          "type": "address"
        }
      ],
      "name": "initialize",
      "outputs": [],
      "stateMutability": "nonpayable",
      "type": "function"
    },
    {
      "inputs": [
        {
          "internalType": "address",
          "name": "",
          "type": "address"
        }
      ],
      "name": "isAddressFromCrossedOriginalToken",
      "outputs": [
        {
          "internalType": "bool",
          "name": "",
          "type": "bool"
        }
      ],
      "stateMutability": "view",
      "type": "function"
    },
    {
      "inputs": [],
      "name": "isOwner",
      "outputs": [
        {
          "internalType": "bool",
          "name": "",
          "type": "bool"
        }
      ],
      "stateMutability": "view",
      "type": "function"
    },
    {
      "inputs": [
        {
          "internalType": "address",
          "name": "account",
          "type": "address"
        }
      ],
      "name": "isPauser",
      "outputs": [
        {
          "internalType": "bool",
          "name": "",
          "type": "bool"
        }
      ],
      "stateMutability": "view",
      "type": "function"
    },
    {
      "inputs": [],
      "name": "isUpgrading",
      "outputs": [
        {
          "internalType": "bool",
          "name": "",
          "type": "bool"
        }
      ],
      "stateMutability": "view",
      "type": "function"
    },
    {
      "inputs": [
        {
          "internalType": "address",
          "name": "",
          "type": "address"
        }
      ],
      "name": "nonces",
      "outputs": [
        {
          "internalType": "uint256",
          "name": "",
          "type": "uint256"
        }
      ],
      "stateMutability": "view",
      "type": "function"
    },
    {
      "inputs": [
        {
          "internalType": "address",
          "name": "",
          "type": "address"
        },
        {
          "internalType": "address",
          "name": "",
          "type": "address"
        },
        {
          "internalType": "uint256",
          "name": "",
          "type": "uint256"
        },
        {
          "internalType": "bytes",
          "name": "",
          "type": "bytes"
        }
      ],
      "name": "onERC721Received",
      "outputs": [
        {
          "internalType": "bytes4",
          "name": "",
          "type": "bytes4"
        }
      ],
      "stateMutability": "nonpayable",
      "type": "function"
    },
    {
      "inputs": [
        {
          "internalType": "address",
          "name": "",
          "type": "address"
        }
      ],
      "name": "originalTokenAddressBySideTokenAddress",
      "outputs": [
        {
          "internalType": "address",
          "name": "",
          "type": "address"
        }
      ],
      "stateMutability": "view",
      "type": "function"
    },
    {
      "inputs": [],
      "name": "owner",
      "outputs": [
        {
          "internalType": "address",
          "name": "",
          "type": "address"
        }
      ],
      "stateMutability": "view",
      "type": "function"
    },
    {
      "inputs": [],
      "name": "pause",
      "outputs": [],
      "stateMutability": "nonpayable",
      "type": "function"
    },
    {
      "inputs": [],
      "name": "paused",
      "outputs": [
        {
          "internalType": "bool",
          "name": "",
          "type": "bool"
        }
      ],
      "stateMutability": "view",
      "type": "function"
    },
    {
      "inputs": [
        {
          "internalType": "address",
          "name": "tokenAddress",
          "type": "address"
        },
        {
          "internalType": "address",
          "name": "to",
          "type": "address"
        },
        {
          "internalType": "uint256",
          "name": "tokenId",
          "type": "uint256"
        }
      ],
      "name": "receiveTokensTo",
      "outputs": [],
      "stateMutability": "payable",
      "type": "function"
    },
    {
      "inputs": [],
      "name": "renounceOwnership",
      "outputs": [],
      "stateMutability": "nonpayable",
      "type": "function"
    },
    {
      "inputs": [],
      "name": "renouncePauser",
      "outputs": [],
      "stateMutability": "nonpayable",
      "type": "function"
    },
    {
      "inputs": [
        {
          "internalType": "uint256",
          "name": "amount",
          "type": "uint256"
        }
      ],
      "name": "setFixedFee",
      "outputs": [],
      "stateMutability": "nonpayable",
      "type": "function"
    },
    {
      "inputs": [
        {
          "internalType": "bool",
          "name": "_isUpgrading",
          "type": "bool"
        }
      ],
      "name": "setUpgrading",
      "outputs": [],
      "stateMutability": "nonpayable",
      "type": "function"
    },
    {
      "inputs": [
        {
          "internalType": "address",
          "name": "",
          "type": "address"
        }
      ],
      "name": "sideTokenAddressByOriginalTokenAddress",
      "outputs": [
        {
          "internalType": "address",
          "name": "",
          "type": "address"
        }
      ],
      "stateMutability": "view",
      "type": "function"
    },
    {
      "inputs": [],
      "name": "sideTokenFactory",
      "outputs": [
        {
          "internalType": "contract ISideNFTTokenFactory",
          "name": "",
          "type": "address"
        }
      ],
      "stateMutability": "view",
      "type": "function"
    },
    {
      "inputs": [],
      "name": "symbolPrefix",
      "outputs": [
        {
          "internalType": "string",
          "name": "",
          "type": "string"
        }
      ],
      "stateMutability": "view",
      "type": "function"
    },
    {
      "inputs": [
        {
          "internalType": "bytes32",
          "name": "",
          "type": "bytes32"
        }
      ],
      "name": "transactionDataHashes",
      "outputs": [
        {
          "internalType": "bytes32",
          "name": "",
          "type": "bytes32"
        }
      ],
      "stateMutability": "view",
      "type": "function"
    },
    {
      "inputs": [
        {
          "internalType": "address",
          "name": "newOwner",
          "type": "address"
        }
      ],
      "name": "transferOwnership",
      "outputs": [],
      "stateMutability": "nonpayable",
      "type": "function"
    },
    {
      "inputs": [],
      "name": "unpause",
      "outputs": [],
      "stateMutability": "nonpayable",
      "type": "function"
    },
    {
      "inputs": [],
      "name": "version",
      "outputs": [
        {
          "internalType": "string",
          "name": "",
          "type": "string"
        }
      ],
      "stateMutability": "pure",
      "type": "function"
    }
  ],
  "transactionHash": "0x211e676046df07bb8fcb6ddbfd47a3c9cdf345ef32c88e773047a89937296971",
  "args": [],
  "solcInputHash": "01422ba079bc0637013104a677f85dbe",
  "bytecode": "0x608060405234801561001057600080fd5b50613088806100206000396000f3fe60806040526004361061027d5760003560e01c806382dc1ec41161014f578063cc3c0f06116100c1578063eb16136f1161007a578063eb16136f14610711578063ed99f4c614610731578063f140902814610746578063f2fde38b14610766578063f698da2514610786578063fa0caa161461079b5761027d565b8063cc3c0f0614610667578063ce5f8bf214610687578063d12e825d146106a7578063d220d30a146106bc578063da677037146106dc578063ea217091146106fc5761027d565b8063a53d6e6e11610113578063a53d6e6e146105c8578063a9e4eff2146105dd578063b7947262146105fd578063b86f60d214610612578063c33c8c6114610627578063c4d66de8146106475761027d565b806382dc1ec41461053c5780638456cb591461055c5780638da5cb5b146105715780638f32d59b14610593578063916dc59d146105a85761027d565b806346fbf68e116101f35780636b0509b1116101ac5780636b0509b1146104b55780636ef8d66d146104ca578063715018a6146104df5780637813bea2146104f45780637ecebe00146105075780638129fc1c146105275761027d565b806346fbf68e1461040957806354fd4d501461042957806359a8a8671461044b5780635c975abb1461046057806366476109146104755780636a863191146104955761027d565b80632f3cca4e116102455780632f3cca4e146103545780632fb3b3611461037457806337de81061461039457806337e76109146103b45780633f4ba83a146103d457806342cdb2c6146103e95761027d565b806307c8f7b0146102825780630b2292a6146102a4578063150b7a02146102da5780631b68e6e6146103075780631c7e6efb14610327575b600080fd5b34801561028e57600080fd5b506102a261029d3660046125cf565b6107bb565b005b3480156102b057600080fd5b506102c46102bf3660046125ef565b610842565b6040516102d1919061292d565b60405180910390f35b3480156102e657600080fd5b506102fa6102f5366004612453565b610854565b6040516102d19190612936565b34801561031357600080fd5b506102a2610322366004612671565b610864565b34801561033357600080fd5b5061034761034236600461225d565b6108bf565b6040516102d19190612922565b34801561036057600080fd5b506102a261036f36600461225d565b6108d4565b34801561038057600080fd5b506102a261038f366004612312565b61095d565b3480156103a057600080fd5b506102a26103af3660046125ef565b610acd565b3480156103c057600080fd5b506103476103cf3660046125ef565b610b26565b3480156103e057600080fd5b506102a2610b4b565b3480156103f557600080fd5b506102a261040436600461225d565b610bde565b34801561041557600080fd5b5061034761042436600461225d565b610c71565b34801561043557600080fd5b5061043e610c84565b6040516102d191906129a9565b34801561045757600080fd5b5061043e610ca0565b34801561046c57600080fd5b50610347610d2e565b34801561048157600080fd5b506102a2610490366004612671565b610d37565b3480156104a157600080fd5b506102a26104b036600461229c565b610d48565b3480156104c157600080fd5b506102c4610f97565b3480156104d657600080fd5b506102a2610fbb565b3480156104eb57600080fd5b506102a2610fcd565b6102a26105023660046123ab565b611041565b34801561051357600080fd5b506102c461052236600461225d565b61118b565b34801561053357600080fd5b506102a261119d565b34801561054857600080fd5b506102a261055736600461225d565b611216565b34801561056857600080fd5b506102a2611246565b34801561057d57600080fd5b506105866112c6565b6040516102d191906127fe565b34801561059f57600080fd5b506103476112da565b3480156105b457600080fd5b506102a26105c336600461225d565b611305565b3480156105d457600080fd5b5061058661139a565b3480156105e957600080fd5b506102c46105f83660046123eb565b6113a9565b34801561060957600080fd5b506103476113eb565b34801561061e57600080fd5b506105866113fb565b34801561063357600080fd5b506102a26106423660046124d0565b61140a565b34801561065357600080fd5b506102a261066236600461225d565b6115cf565b34801561067357600080fd5b506103476106823660046125ef565b61169a565b34801561069357600080fd5b506105866106a236600461225d565b6116af565b3480156106b357600080fd5b506102a26116ca565b3480156106c857600080fd5b506105866106d73660046125a4565b611722565b3480156106e857600080fd5b506103476106f73660046125ef565b611855565b34801561070857600080fd5b50610586611869565b34801561071d57600080fd5b506102a261072c36600461225d565b611878565b34801561073d57600080fd5b506102c4611903565b34801561075257600080fd5b5061058661076136600461225d565b611909565b34801561077257600080fd5b506102a261078136600461225d565b611924565b34801561079257600080fd5b506102c4611951565b3480156107a757600080fd5b506102a26107b636600461225d565b611957565b6107c36112da565b6107e85760405162461bcd60e51b81526004016107df90612d0d565b60405180910390fd5b6040805460ff60a01b1916600160a01b83151581029190911780835591517f983e436223c000a441c2443b394ca5fb4669a513fe86dc1dd44494047b514ad9926108379260ff91041690612922565b60405180910390a150565b60416020526000908152604090205481565b630a85bd0160e11b949350505050565b610874604082016020830161225d565b6001600160a01b03166108856119f2565b6001600160a01b0316146108ab5760405162461bcd60e51b81526004016107df90612a66565b6108bc816108b76119f2565b6119f6565b50565b603d6020526000908152604090205460ff1681565b600054610100900460ff16806108ed575060005460ff16155b6109095760405162461bcd60e51b81526004016107df90612b7a565b600054610100900460ff16158015610934576000805460ff1961ff0019909116610100171660011790555b61093d82611878565b6034805460ff191690558015610959576000805461ff00191690555b5050565b600054610100900460ff1680610976575060005460ff16155b6109925760405162461bcd60e51b81526004016107df90612b7a565b600054610100900460ff161580156109bd576000805460ff1961ff0019909116610100171660011790555b6109c6866115cf565b6109cf866108d4565b81516109e2906038906020850190612123565b50603f80546001600160a01b038087166001600160a01b031992831617909255604080548684169083161781556036805493891693909216929092179055516329965a1d60e01b8152731820a4b7618bde71dce8cdc73aab6c95905fad24906329965a1d90610a799030907fb281fc8c12954d22544db45de3159a39272895b169a852b314f9cc762e44c53b9082906004016128c9565b600060405180830381600087803b158015610a9357600080fd5b505af1158015610aa7573d6000803e3d6000fd5b50505050610ab36116ca565b8015610ac5576000805461ff00191690555b505050505050565b610ad56112da565b610af15760405162461bcd60e51b81526004016107df90612d0d565b60378190556040517f5eebc59df2662862db7d6ef529ff1a264721bd7c26550f39c89a685382668f4e9061083790839061292d565b6000818152604160209081526040808320548352603e90915290205460ff165b919050565b610b566104246119f2565b610b725760405162461bcd60e51b81526004016107df90612bc2565b60345460ff16610b945760405162461bcd60e51b81526004016107df90612a01565b6034805460ff191690557f5db9ee0a495bf2e6ff9c91a7834c1ba4fdd244a5e8aa4e537bd38aeae4b073aa610bc76119f2565b604051610bd491906127fe565b60405180910390a1565b610be66112da565b610c025760405162461bcd60e51b81526004016107df90612d0d565b6001600160a01b038116610c285760405162461bcd60e51b81526004016107df90612f86565b604080546001600160a01b0319166001600160a01b038316178155517f619936bc6e3618d0b8dc69bcc70134fe9d88f9967f3a8b8304e3183692521625906108379083906127fe565b6000610c7e603383611c55565b92915050565b604080518082019091526002815261763160f01b602082015290565b6038805460408051602060026001851615610100026000190190941693909304601f81018490048402820184019092528181529291830182828015610d265780601f10610cfb57610100808354040283529160200191610d26565b820191906000526020600020905b815481529060010190602001808311610d0957829003601f168201915b505050505081565b60345460ff1690565b6108bc816108b7602082018261225d565b60345460ff1615610d6b5760405162461bcd60e51b81526004016107df90612c4e565b60358054600101908190556036546001600160a01b0316610d8a6119f2565b6001600160a01b031614610db05760405162461bcd60e51b81526004016107df90612cd6565b6001600160a01b0388166000908152603d602052604090205460ff1680610df057506001600160a01b038881166000908152603b60205260409020541615155b610e0c5760405162461bcd60e51b81526004016107df90612df2565b6001600160a01b038616610e325760405162461bcd60e51b81526004016107df90612eaa565b6001600160a01b038716610e585760405162461bcd60e51b81526004016107df90612c78565b83610e755760405162461bcd60e51b81526004016107df90612f0d565b82610e925760405162461bcd60e51b81526004016107df90612ca6565b60008381526041602052604090205415610ebe5760405162461bcd60e51b81526004016107df90612e29565b6000610ecf8789888c8989896113a9565b6000818152603e602052604090205490915060ff1615610f015760405162461bcd60e51b81526004016107df90612dbb565b806041600086815260200190815260200160002081905550866001600160a01b0316896001600160a01b0316857f68c55835fbe7c27942e2ff7632542cf70ee33ba41b292bff9cb6183e3db7e63b8b8a8a89604051610f63949392919061284f565b60405180910390a4506035548114610f8d5760405162461bcd60e51b81526004016107df906129bc565b5050505050505050565b7ff18ceda3f6355f78c234feba066041a50f6557bfb600201e2a71a89e2dd8043381565b610fcb610fc66119f2565b611c9d565b565b610fd56112da565b610ff15760405162461bcd60e51b81526004016107df90612d0d565b60345460405160009161010090046001600160a01b0316907f8be0079c531659141344cd1fd0a4f28419497f9722a3daafe3b4186f6b6457e0908390a360348054610100600160a81b0319169055565b600061104d8483611722565b905060006110596119f2565b6040516323b872dd60e01b81529091506001600160a01b038616906323b872dd9061108c90849030908890600401612812565b600060405180830381600087803b1580156110a657600080fd5b505af11580156110ba573d6000803e3d6000fd5b505050506110da8585846040518060200160405280600081525087611cdf565b60375415611184576037543410156111045760405162461bcd60e51b81526004016107df90612e60565b6036546037546040516001600160a01b039092169181156108fc0291906000818181858888f19350505050158015611140573d6000803e3d6000fd5b50603754341115611184576037546040516001600160a01b03831691340380156108fc02916000818181858888f19350505050158015610ac5573d6000803e3d6000fd5b5050505050565b60436020526000908152604090205481565b600054610100900460ff16806111b6575060005460ff16155b6111d25760405162461bcd60e51b81526004016107df90612b7a565b600054610100900460ff161580156111fd576000805460ff1961ff0019909116610100171660011790555b600160355580156108bc576000805461ff001916905550565b6112216104246119f2565b61123d5760405162461bcd60e51b81526004016107df90612bc2565b6108bc81611f69565b6112516104246119f2565b61126d5760405162461bcd60e51b81526004016107df90612bc2565b60345460ff16156112905760405162461bcd60e51b81526004016107df90612c4e565b6034805460ff191660011790557f62e78cea01bee320cd4e420270b5ea74000d11b0c9f74754ebdbfc544b05a258610bc76119f2565b60345461010090046001600160a01b031690565b60345460009061010090046001600160a01b03166112f66119f2565b6001600160a01b031614905090565b61130d6112da565b6113295760405162461bcd60e51b81526004016107df90612d0d565b6001600160a01b03811661134f5760405162461bcd60e51b81526004016107df90612ed6565b603f80546001600160a01b0319166001600160a01b0383161790556040517f5f2c1fe803fd576d8af05ea156011cc9cc8c025bda24c1e85772fc05a0b3f1e3906108379083906127fe565b603f546001600160a01b031681565b6000838389898989876040516020016113c89796959493929190612710565b604051602081830303815290604052805190602001209050979650505050505050565b604054600160a01b900460ff1681565b6040546001600160a01b031681565b6114126112da565b61142e5760405162461bcd60e51b81526004016107df90612d0d565b6001600160a01b0389166114545760405162461bcd60e51b81526004016107df90612a9d565b6001600160a01b03808a166000908152603b602052604090205416801561148d5760405162461bcd60e51b81526004016107df90612c0a565b600060388a8a6040516020016114a593929190612785565b60408051601f198184030181528282529054634423ac3360e11b83529092506001600160a01b0316906388475866906114ee908b908b9086908c908c908c908c9060040161294b565b602060405180830381600087803b15801561150857600080fd5b505af115801561151c573d6000803e3d6000fd5b505050506040513d601f19601f820116820180604052508101906115409190612280565b6001600160a01b03808d166000818152603b6020908152604080832080549587166001600160a01b03199687168117909155808452603c909252918290208054909416831790935551929450917f622ea91961d2c1c42b6f59a73d152d990066165d59f27d922ce6d1f59650638c906115ba9085906129a9565b60405180910390a35050505050505050505050565b600054610100900460ff16806115e8575060005460ff16155b6116045760405162461bcd60e51b81526004016107df90612b7a565b600054610100900460ff1615801561162f576000805460ff1961ff0019909116610100171660011790555b60348054610100600160a81b0319166101006001600160a01b0385811682029290921792839055604051920416906000907f8be0079c531659141344cd1fd0a4f28419497f9722a3daafe3b4186f6b6457e0908290a38015610959576000805461ff00191690555050565b603e6020526000908152604090205460ff1681565b603c602052600090815260409020546001600160a01b031681565b600046905061171c6040518060400160405280601081526020016f52534b20546f6b656e2042726964676560801b815250604051806040016040528060018152602001603160f81b8152508330611fab565b60425550565b60408051600481526024810182526020810180516001600160e01b03166302d05d3f60e01b1790529051600091829182916001600160a01b038716916117689190612769565b600060405180830381855afa9150503d80600081146117a3576040519150601f19603f3d011682016040523d82523d6000602084013e6117a8565b606091505b509150915081156117d057808060200190518101906117c79190612280565b92505050610c7e565b6040516331a9108f60e11b81526001600160a01b03861690636352211e906117fc90879060040161292d565b60206040518083038186803b15801561181457600080fd5b505afa158015611828573d6000803e3d6000fd5b505050506040513d601f19601f8201168201806040525081019061184c9190612280565b95945050505050565b600090815260416020526040902054151590565b6036546001600160a01b031690565b600054610100900460ff1680611891575060005460ff16155b6118ad5760405162461bcd60e51b81526004016107df90612b7a565b600054610100900460ff161580156118d8576000805460ff1961ff0019909116610100171660011790555b6118e182610c71565b6118ee576118ee82611f69565b8015610959576000805461ff00191690555050565b60375490565b603b602052600090815260409020546001600160a01b031681565b61192c6112da565b6119485760405162461bcd60e51b81526004016107df90612d0d565b6108bc81612002565b60425481565b61195f6112da565b61197b5760405162461bcd60e51b81526004016107df90612d0d565b6001600160a01b0381166119a15760405162461bcd60e51b81526004016107df90612d84565b603680546001600160a01b0319166001600160a01b0383811691909117918290556040517f4a41a4d11aaf0c0c9e4311ac1d68b2b0134556da594779a2a35b0ddf7cd1eafb926108379216906127fe565b3390565b6000611a08608084016060850161225d565b905060408301356000611a4d611a21602087018761225d565b611a31604088016020890161225d565b848660808a013560a08b01356105f860e08d0160c08e016126a0565b60a08601356000908152604160205260409020549091508114611a825760405162461bcd60e51b81526004016107df90612ae3565b6000818152603e602052604090205460ff1615611ab15760405162461bcd60e51b81526004016107df90612dbb565b6000818152603e60209081526040808320805460ff191660011790556001600160a01b0386168352603d90915290205460ff168015611b5157604051632142170760e11b81526001600160a01b038516906342842e0e90611b1a90309089908890600401612812565b600060405180830381600087803b158015611b3457600080fd5b505af1158015611b48573d6000803e3d6000fd5b50505050611bc8565b6001600160a01b038085166000908152603b6020526040908190205490516340c10f1960e01b815291169081906340c10f1990611b949089908890600401612836565b600060405180830381600087803b158015611bae57600080fd5b505af1158015611bc2573d6000803e3d6000fd5b50505050505b611bd5602087018761225d565b6001600160a01b0390811690851660a08801357f8738727192721a6f1909e42e987fa3faf27386067521caf12f11c5dc4013c2ac611c1960408b0160208c0161225d565b60408b013560808c0135611c3360e08e0160c08f016126a0565b8c604051611c459594939291906128ec565b60405180910390a4505050505050565b60006001600160a01b038216611c7d5760405162461bcd60e51b81526004016107df90612d42565b506001600160a01b03166000908152602091909152604090205460ff1690565b611ca860338261208f565b6040516001600160a01b038216907fcd265ebaf09df2871cc7bd4133404a235ba12eff2041bb89d9c714a2621c7c7e90600090a250565b604054600160a01b900460ff1615611d095760405162461bcd60e51b81526004016107df90612b1a565b60345460ff1615611d2c5760405162461bcd60e51b81526004016107df90612c4e565b603580546001908101918290556001600160a01b0387166000818152603d6020526040808220805460ff1916909417909355915163c87b56dd60e01b815288928392909163c87b56dd90611d8490889060040161292d565b60006040518083038186803b158015611d9c57600080fd5b505afa158015611db0573d6000803e3d6000fd5b505050506040513d6000823e601f3d908101601f19168201604052611dd89190810190612607565b6001600160a01b03808b166000908152603c60205260409020549192508a911615611e7057506001600160a01b03808a166000818152603c602052604090819020549051630852cd8d60e31b81529216916342966c6890611e3d90899060040161292d565b600060405180830381600087803b158015611e5757600080fd5b505af1158015611e6b573d6000803e3d6000fd5b505050505b886001600160a01b0316611e826119f2565b6001600160a01b0316826001600160a01b03167f8586062302f52eda0114687cd36998f16298ea820e0a6f8878bbbfefebc09e9f8b8b896001600160a01b03166318160ddd6040518163ffffffff1660e01b815260040160206040518083038186803b158015611ef157600080fd5b505afa158015611f05573d6000803e3d6000fd5b505050506040513d601f19601f82011682018060405250810190611f299190612688565b8c89604051611f3c95949392919061287b565b60405180910390a4505050506035548114610ac55760405162461bcd60e51b81526004016107df906129bc565b611f746033826120d7565b6040516001600160a01b038216907f6719d08c1888103bea251a4ed56406bd0c3e69723c8a1686e017e7bbe159b6f890600090a250565b8351602094850120835193850193909320604080517f8b73c3c69bb8fe3d512ecc4cf759cc79239f7b179b0ffacaa9a75d522b39400f815295860194909452928401929092526060830152608082015260a0902090565b6001600160a01b0381166120285760405162461bcd60e51b81526004016107df90612f44565b6034546040516001600160a01b0380841692610100900416907f8be0079c531659141344cd1fd0a4f28419497f9722a3daafe3b4186f6b6457e090600090a3603480546001600160a01b0390921661010002610100600160a81b0319909216919091179055565b6120998282611c55565b6120b55760405162461bcd60e51b81526004016107df90612b45565b6001600160a01b0316600090815260209190915260409020805460ff19169055565b6120e18282611c55565b156120fe5760405162461bcd60e51b81526004016107df90612a2f565b6001600160a01b0316600090815260209190915260409020805460ff19166001179055565b828054600181600116156101000203166002900490600052602060002090601f016020900481019282612159576000855561219f565b82601f1061217257805160ff191683800117855561219f565b8280016001018555821561219f579182015b8281111561219f578251825591602001919060010190612184565b506121ab9291506121af565b5090565b5b808211156121ab57600081556001016121b0565b60006121d76121d284612feb565b612fc7565b90508281528383830111156121eb57600080fd5b828260208301376000602084830101529392505050565b60008083601f840112612213578182fd5b50813567ffffffffffffffff81111561222a578182fd5b60208301915083602082850101111561224257600080fd5b9250929050565b803563ffffffff81168114610b4657600080fd5b60006020828403121561226e578081fd5b81356122798161303d565b9392505050565b600060208284031215612291578081fd5b81516122798161303d565b600080600080600080600060e0888a0312156122b6578283fd5b87356122c18161303d565b965060208801356122d18161303d565b955060408801356122e18161303d565b9450606088013593506080880135925060a0880135915061230460c08901612249565b905092959891949750929550565b600080600080600060a08688031215612329578081fd5b85356123348161303d565b945060208601356123448161303d565b935060408601356123548161303d565b925060608601356123648161303d565b9150608086013567ffffffffffffffff81111561237f578182fd5b8601601f8101881361238f578182fd5b61239e888235602084016121c4565b9150509295509295909350565b6000806000606084860312156123bf578283fd5b83356123ca8161303d565b925060208401356123da8161303d565b929592945050506040919091013590565b600080600080600080600060e0888a031215612405578081fd5b87356124108161303d565b965060208801356124208161303d565b95506040880135945060608801356124378161303d565b93506080880135925060a0880135915061230460c08901612249565b60008060008060808587031215612468578182fd5b84356124738161303d565b935060208501356124838161303d565b925060408501359150606085013567ffffffffffffffff8111156124a5578182fd5b8501601f810187136124b5578182fd5b6124c4878235602084016121c4565b91505092959194509250565b600080600080600080600080600060a08a8c0312156124ed578283fd5b89356124f88161303d565b985060208a013567ffffffffffffffff80821115612514578485fd5b6125208d838e01612202565b909a50985060408c0135915080821115612538578485fd5b6125448d838e01612202565b909850965060608c013591508082111561255c578485fd5b6125688d838e01612202565b909650945060808c0135915080821115612580578384fd5b5061258d8c828d01612202565b915080935050809150509295985092959850929598565b600080604083850312156125b6578182fd5b82356125c18161303d565b946020939093013593505050565b6000602082840312156125e0578081fd5b81358015158114612279578182fd5b600060208284031215612600578081fd5b5035919050565b600060208284031215612618578081fd5b815167ffffffffffffffff81111561262e578182fd5b8201601f8101841361263e578182fd5b805161264c6121d282612feb565b818152856020838501011115612660578384fd5b61184c82602083016020860161300d565b600060e08284031215612682578081fd5b50919050565b600060208284031215612699578081fd5b5051919050565b6000602082840312156126b1578081fd5b61227982612249565b600081518084526126d281602086016020860161300d565b601f01601f19169290920160200192915050565b60008284528282602086013780602084860101526020601f19601f85011685010190509392505050565b9687526020870195909552606093841b6bffffffffffffffffffffffff19908116604088015292841b83166054870152606886019190915290911b16608883015260e01b6001600160e01b031916609c82015260a00190565b6000825161277b81846020870161300d565b9190910192915050565b60008085546001808216600081146127a457600181146127bb576127ea565b60ff198316865260028304607f16860193506127ea565b600283048986526020808720875b838110156127e25781548a8201529085019082016127c9565b505050860193505b505050838582379092019182525092915050565b6001600160a01b0391909116815260200190565b6001600160a01b039384168152919092166020820152604081019190915260600190565b6001600160a01b03929092168252602082015260400190565b6001600160a01b039490941684526020840192909252604083015263ffffffff16606082015260800190565b6001600160a01b038616815260a06020820181905260009061289f908301876126ba565b85604084015284606084015282810360808401526128bd81856126ba565b98975050505050505050565b6001600160a01b0393841681526020810192909252909116604082015260600190565b6001600160a01b0395861681526020810194909452604084019290925263ffffffff166060830152909116608082015260a00190565b901515815260200190565b90815260200190565b6001600160e01b031991909116815260200190565b60006080825261295f60808301898b6126e6565b828103602084015261297181896126ba565b905082810360408401526129868187896126e6565b9050828103606084015261299b8185876126e6565b9a9950505050505050505050565b60006020825261227960208301846126ba565b60208082526025908201527f5265656e7472616e637947756172643a206e6f207265656e7472616e7420616c6040820152641b1bddd95960da1b606082015260800190565b60208082526014908201527314185d5cd8589b194e881b9bdd081c185d5cd95960621b604082015260600190565b6020808252601f908201527f526f6c65733a206163636f756e7420616c72656164792068617320726f6c6500604082015260600190565b60208082526019908201527f4e46544272696467653a20696e76616c69642073656e64657200000000000000604082015260600190565b60208082526026908201527f4e46544272696467653a204e756c6c206f726967696e616c20746f6b656e206160408201526564647265737360d01b606082015260800190565b6020808252601b908201527f4e46544272696467653a2057726f6e6720747844617461486173680000000000604082015260600190565b6020808252601190820152704272696467653a20557067726164696e6760781b604082015260600190565b6020808252818101527f526f6c65733a206163636f756e7420646f65736e2774206861766520726f6c65604082015260600190565b60208082526028908201527f436f6e747261637420696e7374616e636520697320616c726561647920696e696040820152671d1a585b1a5e995960c21b606082015260800190565b60208082526028908201527f506175736572526f6c653a2063616c6c657220646f65736e277420686176652060408201526774686520726f6c6560c01b606082015260800190565b60208082526024908201527f4e46544272696467653a205369646520746f6b656e20616c72656164792065786040820152636973747360e01b606082015260800190565b60208082526010908201526f14185d5cd8589b194e881c185d5cd95960821b604082015260600190565b6020808252601490820152734e46544272696467653a204e756c6c2046726f6d60601b604082015260600190565b60208082526016908201527509c8ca884e4d2c8ceca74409cead8d840a8f090c2e6d60531b604082015260600190565b60208082526019908201527f4e46544272696467653a204e6f742046656465726174696f6e00000000000000604082015260600190565b6020808252818101527f4f776e61626c653a2063616c6c6572206973206e6f7420746865206f776e6572604082015260600190565b60208082526022908201527f526f6c65733a206163636f756e7420697320746865207a65726f206164647265604082015261737360f01b606082015260800190565b6020808252601e908201527f4e46544272696467653a2046656465726174696f6e20697320656d7074790000604082015260600190565b6020808252601a908201527f4e46544272696467653a20416c726561647920636c61696d6564000000000000604082015260600190565b60208082526018908201527f4e46544272696467653a20556e6b6e6f776e20746f6b656e0000000000000000604082015260600190565b6020808252601b908201527f4e46544272696467653a20416c72656164792061636365707465640000000000604082015260600190565b6020808252602a908201527f4e46544272696467653a2076616c756520697320736d616c6c6572207468616e6040820152692066697865642066656560b01b606082015260800190565b6020808252601290820152714e46544272696467653a204e756c6c20546f60701b604082015260600190565b6020808252601f908201527f4e46544272696467653a20416c6c6f77546f6b656e7320697320656d70747900604082015260600190565b60208082526019908201527f4e46544272696467653a204e756c6c20426c6f636b4861736800000000000000604082015260600190565b60208082526022908201527f4f776e61626c653a206e6577206f776e6572206973207a65726f206164647265604082015261737360f01b606082015260800190565b60208082526021908201527f4e46544272696467653a20656d7074792053696465546f6b656e466163746f726040820152607960f81b606082015260800190565b60405181810167ffffffffffffffff81118282101715612fe357fe5b604052919050565b600067ffffffffffffffff821115612fff57fe5b50601f01601f191660200190565b60005b83811015613028578181015183820152602001613010565b83811115613037576000848401525b50505050565b6001600160a01b03811681146108bc57600080fdfea26469706673582212208d5d3f03f592f54b43b45c7542edc27eb5e0e380374fc08c52e22d8d6f02f71364736f6c63430007060033",
  "devdoc": {
    "kind": "dev",
    "methods": {
      "__Pausable_init(address)": {
        "details": "Initializes the contract in unpaused state. Assigns the Pauser role to the deployer."
      },
      "initialize(address)": {
        "details": "Initializes the contract setting the deployer as the initial owner."
      },
      "isOwner()": {
        "details": "Returns true if the caller is the current owner."
      },
      "owner()": {
        "details": "Returns the address of the current owner."
      },
      "pause()": {
        "details": "Called by a pauser to pause, triggers stopped state."
      },
      "paused()": {
        "details": "Returns true if the contract is paused, and false otherwise."
      },
      "renounceOwnership()": {
        "details": "Leaves the contract without owner. It will not be possible to call `onlyOwner` functions anymore. Can only be called by the current owner. > Note: Renouncing ownership will leave the contract without an owner, thereby removing any functionality that is only available to the owner."
      },
      "transferOwnership(address)": {
        "details": "Transfers ownership of the contract to a new account (`newOwner`). Can only be called by the current owner."
      },
      "unpause()": {
        "details": "Called by a pauser to unpause, returns to normal state."
      }
    },
    "version": 1
  },
  "userdoc": {
    "kind": "user",
    "methods": {
      "claim((address,address,uint256,address,bytes32,bytes32,uint32))": {
        "notice": "Claims the crossed transaction using the hash, this sends the token to the address specified in the claim data"
      },
      "onERC721Received(address,address,uint256,bytes)": {
        "notice": "Always returns `IERC721Receiver.onERC721Received.selector`."
      },
      "receiveTokensTo(address,address,uint256)": {
        "notice": "ERC-20 tokens approve and transferFrom pattern See https://eips.ethereum.org/EIPS/eip-20#transferfrom"
      }
    },
    "version": 1
  },
  "storageLayout": {
    "storage": [
      {
        "astId": 16061,
        "contract": "contracts/nftbridge/NFTBridge.sol:NFTBridge",
        "label": "initialized",
        "offset": 0,
        "slot": "0",
        "type": "t_bool"
      },
      {
        "astId": 16064,
        "contract": "contracts/nftbridge/NFTBridge.sol:NFTBridge",
        "label": "initializing",
        "offset": 1,
        "slot": "0",
        "type": "t_bool"
      },
      {
        "astId": 16104,
        "contract": "contracts/nftbridge/NFTBridge.sol:NFTBridge",
        "label": "______gap",
        "offset": 0,
        "slot": "1",
        "type": "t_array(t_uint256)50_storage"
      },
      {
        "astId": 16128,
        "contract": "contracts/nftbridge/NFTBridge.sol:NFTBridge",
        "label": "_pausers",
        "offset": 0,
        "slot": "51",
        "type": "t_struct(Role)10405_storage"
      },
      {
        "astId": 16250,
        "contract": "contracts/nftbridge/NFTBridge.sol:NFTBridge",
        "label": "_paused",
        "offset": 0,
        "slot": "52",
        "type": "t_bool"
      },
      {
        "astId": 16348,
        "contract": "contracts/nftbridge/NFTBridge.sol:NFTBridge",
        "label": "_owner",
        "offset": 1,
        "slot": "52",
        "type": "t_address"
      },
      {
        "astId": 17062,
        "contract": "contracts/nftbridge/NFTBridge.sol:NFTBridge",
        "label": "_guardCounter",
        "offset": 0,
        "slot": "53",
        "type": "t_uint256"
      },
      {
        "astId": 8074,
        "contract": "contracts/nftbridge/NFTBridge.sol:NFTBridge",
        "label": "federation",
        "offset": 0,
        "slot": "54",
        "type": "t_address_payable"
      },
      {
        "astId": 8076,
        "contract": "contracts/nftbridge/NFTBridge.sol:NFTBridge",
        "label": "fixedFee",
        "offset": 0,
        "slot": "55",
        "type": "t_uint256"
      },
      {
        "astId": 8078,
        "contract": "contracts/nftbridge/NFTBridge.sol:NFTBridge",
        "label": "symbolPrefix",
        "offset": 0,
        "slot": "56",
        "type": "t_string_storage"
      },
      {
        "astId": 8080,
        "contract": "contracts/nftbridge/NFTBridge.sol:NFTBridge",
        "label": "_deprecatedLastDay",
        "offset": 0,
        "slot": "57",
        "type": "t_uint256"
      },
      {
        "astId": 8082,
        "contract": "contracts/nftbridge/NFTBridge.sol:NFTBridge",
        "label": "_deprecatedSpentToday",
        "offset": 0,
        "slot": "58",
        "type": "t_uint256"
      },
      {
        "astId": 8086,
        "contract": "contracts/nftbridge/NFTBridge.sol:NFTBridge",
        "label": "sideTokenAddressByOriginalTokenAddress",
        "offset": 0,
        "slot": "59",
        "type": "t_mapping(t_address,t_address)"
      },
      {
        "astId": 8090,
        "contract": "contracts/nftbridge/NFTBridge.sol:NFTBridge",
        "label": "originalTokenAddressBySideTokenAddress",
        "offset": 0,
        "slot": "60",
        "type": "t_mapping(t_address,t_address)"
      },
      {
        "astId": 8094,
        "contract": "contracts/nftbridge/NFTBridge.sol:NFTBridge",
        "label": "isAddressFromCrossedOriginalToken",
        "offset": 0,
        "slot": "61",
        "type": "t_mapping(t_address,t_bool)"
      },
      {
        "astId": 8098,
        "contract": "contracts/nftbridge/NFTBridge.sol:NFTBridge",
        "label": "claimed",
        "offset": 0,
        "slot": "62",
        "type": "t_mapping(t_bytes32,t_bool)"
      },
      {
        "astId": 8100,
        "contract": "contracts/nftbridge/NFTBridge.sol:NFTBridge",
        "label": "allowTokens",
        "offset": 0,
        "slot": "63",
        "type": "t_contract(IAllowTokens)7210"
      },
      {
        "astId": 8102,
        "contract": "contracts/nftbridge/NFTBridge.sol:NFTBridge",
        "label": "sideTokenFactory",
        "offset": 0,
        "slot": "64",
        "type": "t_contract(ISideNFTTokenFactory)8010"
      },
      {
        "astId": 8104,
        "contract": "contracts/nftbridge/NFTBridge.sol:NFTBridge",
        "label": "isUpgrading",
        "offset": 20,
        "slot": "64",
        "type": "t_bool"
      },
      {
        "astId": 8108,
        "contract": "contracts/nftbridge/NFTBridge.sol:NFTBridge",
        "label": "transactionDataHashes",
        "offset": 0,
        "slot": "65",
        "type": "t_mapping(t_bytes32,t_bytes32)"
      },
      {
        "astId": 8110,
        "contract": "contracts/nftbridge/NFTBridge.sol:NFTBridge",
        "label": "domainSeparator",
        "offset": 0,
        "slot": "66",
        "type": "t_bytes32"
      },
      {
        "astId": 8117,
        "contract": "contracts/nftbridge/NFTBridge.sol:NFTBridge",
        "label": "nonces",
        "offset": 0,
        "slot": "67",
        "type": "t_mapping(t_address,t_uint256)"
      }
    ],
    "types": {
      "t_address": {
        "encoding": "inplace",
        "label": "address",
        "numberOfBytes": "20"
      },
      "t_address_payable": {
        "encoding": "inplace",
        "label": "address payable",
        "numberOfBytes": "20"
      },
      "t_array(t_uint256)50_storage": {
        "base": "t_uint256",
        "encoding": "inplace",
        "label": "uint256[50]",
        "numberOfBytes": "1600"
      },
      "t_bool": {
        "encoding": "inplace",
        "label": "bool",
        "numberOfBytes": "1"
      },
      "t_bytes32": {
        "encoding": "inplace",
        "label": "bytes32",
        "numberOfBytes": "32"
      },
      "t_contract(IAllowTokens)7210": {
        "encoding": "inplace",
        "label": "contract IAllowTokens",
        "numberOfBytes": "20"
      },
      "t_contract(ISideNFTTokenFactory)8010": {
        "encoding": "inplace",
        "label": "contract ISideNFTTokenFactory",
        "numberOfBytes": "20"
      },
      "t_mapping(t_address,t_address)": {
        "encoding": "mapping",
        "key": "t_address",
        "label": "mapping(address => address)",
        "numberOfBytes": "32",
        "value": "t_address"
      },
      "t_mapping(t_address,t_bool)": {
        "encoding": "mapping",
        "key": "t_address",
        "label": "mapping(address => bool)",
        "numberOfBytes": "32",
        "value": "t_bool"
      },
      "t_mapping(t_address,t_uint256)": {
        "encoding": "mapping",
        "key": "t_address",
        "label": "mapping(address => uint256)",
        "numberOfBytes": "32",
        "value": "t_uint256"
      },
      "t_mapping(t_bytes32,t_bool)": {
        "encoding": "mapping",
        "key": "t_bytes32",
        "label": "mapping(bytes32 => bool)",
        "numberOfBytes": "32",
        "value": "t_bool"
      },
      "t_mapping(t_bytes32,t_bytes32)": {
        "encoding": "mapping",
        "key": "t_bytes32",
        "label": "mapping(bytes32 => bytes32)",
        "numberOfBytes": "32",
        "value": "t_bytes32"
      },
      "t_string_storage": {
        "encoding": "bytes",
        "label": "string",
        "numberOfBytes": "32"
      },
      "t_struct(Role)10405_storage": {
        "encoding": "inplace",
        "label": "struct Roles.Role",
        "members": [
          {
            "astId": 10404,
            "contract": "contracts/nftbridge/NFTBridge.sol:NFTBridge",
            "label": "bearer",
            "offset": 0,
            "slot": "0",
            "type": "t_mapping(t_address,t_bool)"
          }
        ],
        "numberOfBytes": "32"
      },
      "t_uint256": {
        "encoding": "inplace",
        "label": "uint256",
        "numberOfBytes": "32"
      }
    }
  }
}