{
  "address": "0x04B773B88380BBA3d14BD1CC525C4263986fDca4",
  "abi": [
    {
      "anonymous": false,
      "inputs": [
        {
          "indexed": false,
          "internalType": "address",
          "name": "recipient",
          "type": "address"
        }
      ],
      "name": "PrimaryTransferred",
      "type": "event"
    },
    {
      "anonymous": false,
      "inputs": [
        {
          "indexed": true,
          "internalType": "address",
          "name": "sideTokenAddress",
          "type": "address"
        },
        {
          "indexed": false,
          "internalType": "string",
          "name": "symbol",
          "type": "string"
        },
        {
          "indexed": false,
          "internalType": "string",
          "name": "baseURI",
          "type": "string"
        },
        {
          "indexed": false,
          "internalType": "string",
          "name": "contractURI",
          "type": "string"
        }
      ],
      "name": "SideNFTTokenCreated",
      "type": "event"
    },
    {
      "inputs": [
        {
          "internalType": "string",
          "name": "name",
          "type": "string"
        },
        {
          "internalType": "string",
          "name": "symbol",
          "type": "string"
        },
        {
          "internalType": "string",
          "name": "baseURI",
          "type": "string"
        },
        {
          "internalType": "string",
          "name": "contractURI",
          "type": "string"
        }
      ],
      "name": "createSideNFTToken",
      "outputs": [
        {
          "internalType": "address",
          "name": "",
          "type": "address"
        }
      ],
      "stateMutability": "nonpayable",
      "type": "function"
    },
    {
      "inputs": [],
      "name": "primary",
      "outputs": [
        {
          "internalType": "address",
          "name": "",
          "type": "address"
        }
      ],
      "stateMutability": "view",
      "type": "function"
    },
    {
      "inputs": [
        {
          "internalType": "address",
          "name": "recipient",
          "type": "address"
        }
      ],
      "name": "transferPrimary",
      "outputs": [],
      "stateMutability": "nonpayable",
      "type": "function"
    }
  ],
  "transactionHash": "0x3f7e6e7f9711f4a7f946f61357ebfa122a1be0a30ebc5ca340eaaa78a05d3475",
  "args": [],
  "solcInputHash": "01422ba079bc0637013104a677f85dbe",
  "bytecode": "0x608060405234801561001057600080fd5b50610019610074565b600080546001600160a01b0319166001600160a01b0392831617908190556040517f4101e71e974f68df5e9730cc223280b41654676bbb052cdcc735c3337e64d2d992610067921690610078565b60405180910390a161008c565b3390565b6001600160a01b0391909116815260200190565b61327f8061009b6000396000f3fe60806040523480156200001157600080fd5b5060043610620000465760003560e01c80632348238c146200004b578063884758661462000076578063c6dbdf6114620001ff575b600080fd5b62000074600480360360208110156200006357600080fd5b50356001600160a01b031662000209565b005b620001e3600480360360808110156200008e57600080fd5b810190602081018135600160201b811115620000a957600080fd5b820183602082011115620000bc57600080fd5b803590602001918460018302840111600160201b83111715620000de57600080fd5b919390929091602081019035600160201b811115620000fc57600080fd5b8201836020820111156200010f57600080fd5b803590602001918460018302840111600160201b831117156200013157600080fd5b919390929091602081019035600160201b8111156200014f57600080fd5b8201836020820111156200016257600080fd5b803590602001918460018302840111600160201b831117156200018457600080fd5b919390929091602081019035600160201b811115620001a257600080fd5b820183602082011115620001b557600080fd5b803590602001918460018302840111600160201b83111715620001d757600080fd5b509092509050620002d8565b604080516001600160a01b039092168252519081900360200190f35b620001e3620004e8565b6000546001600160a01b03166200021f620004f7565b6001600160a01b031614620002515760405162461bcd60e51b8152600401620002489062000567565b60405180910390fd5b6001600160a01b0381166200027a5760405162461bcd60e51b815260040162000248906200051d565b600080546001600160a01b0319166001600160a01b0383811691909117918290556040517f4101e71e974f68df5e9730cc223280b41654676bbb052cdcc735c3337e64d2d992620002cd92169062000509565b60405180910390a150565b600080546001600160a01b0316620002ef620004f7565b6001600160a01b031614620003185760405162461bcd60e51b8152600401620002489062000567565b60008989898962000328620004e8565b8a8a8a8a6040516200033a90620004fb565b6001600160a01b038616604082015260a080825281018990528060208101606082016080830160c084018e8e80828437600083820152601f01601f191690910186810385528c815260200190508c8c80828437600083820152601f01601f191690910186810384528981526020019050898980828437600083820152601f01601f191690910186810383528781526020019050878780828437600081840152601f19601f8201169050808301925050509d5050505050505050505050505050604051809103906000f08015801562000416573d6000803e3d6000fd5b509050806001600160a01b03167f3d0677e9be6c322795ce7407a961a98bb2822f9ed8a66c3c11d2ac9bab6d401a8989898989896040518080602001806020018060200184810384528a8a82818152602001925080828437600083820152601f01601f191690910185810384528881526020019050888880828437600083820152601f01601f191690910185810383528681526020019050868680828437600083820152604051601f909101601f19169092018290039b50909950505050505050505050a29998505050505050505050565b6000546001600160a01b031690565b3390565b612c9680620005b483390190565b6001600160a01b0391909116815260200190565b6020808252602a908201527f5365636f6e646172793a206e6577207072696d61727920697320746865207a65604082015269726f206164647265737360b01b606082015260800190565b6020808252602c908201527f5365636f6e646172793a2063616c6c6572206973206e6f74207468652070726960408201526b1b585c9e481858d8dbdd5b9d60a21b60608201526080019056fe60806040523480156200001157600080fd5b5060405162002c9638038062002c96833981810160405260a08110156200003757600080fd5b81019080805160405193929190846401000000008211156200005857600080fd5b9083019060208201858111156200006e57600080fd5b82516401000000008111828201881017156200008957600080fd5b82525081516020918201929091019080838360005b83811015620000b85781810151838201526020016200009e565b50505050905090810190601f168015620000e65780820380516001836020036101000a031916815260200191505b50604052602001805160405193929190846401000000008211156200010a57600080fd5b9083019060208201858111156200012057600080fd5b82516401000000008111828201881017156200013b57600080fd5b82525081516020918201929091019080838360005b838110156200016a57818101518382015260200162000150565b50505050905090810190601f168015620001985780820380516001836020036101000a031916815260200191505b50604081815260208301519201805192949193919284640100000000821115620001c157600080fd5b908301906020820185811115620001d757600080fd5b8251640100000000811182820188101715620001f257600080fd5b82525081516020918201929091019080838360005b838110156200022157818101518382015260200162000207565b50505050905090810190601f1680156200024f5780820380516001836020036101000a031916815260200191505b50604052602001805160405193929190846401000000008211156200027357600080fd5b9083019060208201858111156200028957600080fd5b8251640100000000811182820188101715620002a457600080fd5b82525081516020918201929091019080838360005b83811015620002d3578181015183820152602001620002b9565b50505050905090810190601f168015620003015780820380516001836020036101000a031916815260200191505b50604052508691508590506200031e6301ffc9a760e01b62000424565b8151620003339060069060208501906200060a565b508051620003499060079060208401906200060a565b506200035c6380ac58cd60e01b62000424565b6200036e635b5e139f60e01b62000424565b6200038063780e9d6360e01b62000424565b50506001600160a01b038316620003de576040805162461bcd60e51b815260206004820152601760248201527f53696465546f6b656e3a20456d707479204d696e746572000000000000000000604482015290519081900360640190fd5b600b80546001600160a01b0319166001600160a01b0385161790556200040482620004a9565b6200040f81620004c2565b62000419620004d7565b5050505050620006b6565b6001600160e01b0319808216141562000484576040805162461bcd60e51b815260206004820152601c60248201527f4552433136353a20696e76616c696420696e7465726661636520696400000000604482015290519081900360640190fd5b6001600160e01b0319166000908152602081905260409020805460ff19166001179055565b8051620004be9060099060208401906200060a565b5050565b8051620004be90600e9060208401906200060a565b4662000513620004e662000519565b604051806040016040528060018152602001603160f81b8152508330620005b360201b620014ba1760201c565b600c5550565b60068054604080516020601f6002600019610100600188161502019095169490940493840181900481028201810190925282815260609390929091830182828015620005a95780601f106200057d57610100808354040283529160200191620005a9565b820191906000526020600020905b8154815290600101906020018083116200058b57829003601f168201915b5050505050905090565b8351602094850120835193850193909320604080517f8b73c3c69bb8fe3d512ecc4cf759cc79239f7b179b0ffacaa9a75d522b39400f815295860194909452928401929092526060830152608082015260a0902090565b828054600181600116156101000203166002900490600052602060002090601f0160209004810192826200064257600085556200068d565b82601f106200065d57805160ff19168380011785556200068d565b828001600101855582156200068d579182015b828111156200068d57825182559160200191906001019062000670565b506200069b9291506200069f565b5090565b5b808211156200069b5760008155600101620006a0565b6125d080620006c66000396000f3fe6080604052600436106101815760003560e01c80634f6ccce7116100d157806395d89b411161008a578063c87b56dd11610064578063c87b56dd146106af578063e8a3d485146106d9578063e985e9c5146106ee578063f698da251461072957610181565b806395d89b411461058c578063a22cb465146105a1578063b88d4fde146105dc57610181565b80634f6ccce7146104765780636352211e146104a05780636c0360eb146104ca57806370a08231146104df5780637ac2ff7b146105125780637ecebe001461055957610181565b806318160ddd1161013e57806330adf81f1161011857806330adf81f146103bb57806340c10f19146103d057806342842e0e1461040957806342966c681461044c57610181565b806318160ddd1461032a57806323b872dd1461033f5780632f745c591461038257610181565b806301ffc9a714610186578063029ba1fa146101ce57806306fdde031461020a5780630754617214610294578063081812fc146102c5578063095ea7b3146102ef575b600080fd5b34801561019257600080fd5b506101ba600480360360208110156101a957600080fd5b50356001600160e01b03191661073e565b604080519115158252519081900360200190f35b3480156101da57600080fd5b506101f8600480360360208110156101f157600080fd5b5035610761565b60408051918252519081900360200190f35b34801561021657600080fd5b5061021f610773565b6040805160208082528351818301528351919283929083019185019080838360005b83811015610259578181015183820152602001610241565b50505050905090810190601f1680156102865780820380516001836020036101000a031916815260200191505b509250505060405180910390f35b3480156102a057600080fd5b506102a9610809565b604080516001600160a01b039092168252519081900360200190f35b3480156102d157600080fd5b506102a9600480360360208110156102e857600080fd5b5035610818565b3480156102fb57600080fd5b506103286004803603604081101561031257600080fd5b506001600160a01b03813516906020013561087a565b005b34801561033657600080fd5b506101f8610955565b34801561034b57600080fd5b506103286004803603606081101561036257600080fd5b506001600160a01b03813581169160208101359091169060400135610966565b34801561038e57600080fd5b506101f8600480360360408110156103a557600080fd5b506001600160a01b0381351690602001356109bd565b3480156103c757600080fd5b506101f86109e8565b3480156103dc57600080fd5b50610328600480360360408110156103f357600080fd5b506001600160a01b038135169060200135610a0c565b34801561041557600080fd5b506103286004803603606081101561042c57600080fd5b506001600160a01b03813581169160208101359091169060400135610a73565b34801561045857600080fd5b506103286004803603602081101561046f57600080fd5b5035610a8e565b34801561048257600080fd5b506101f86004803603602081101561049957600080fd5b5035610ae0565b3480156104ac57600080fd5b506102a9600480360360208110156104c357600080fd5b5035610af6565b3480156104d657600080fd5b5061021f610b1e565b3480156104eb57600080fd5b506101f86004803603602081101561050257600080fd5b50356001600160a01b0316610b7f565b610328600480360360c081101561052857600080fd5b506001600160a01b038135169060208101359060408101359060ff6060820135169060808101359060a00135610be7565b34801561056557600080fd5b506101f86004803603602081101561057c57600080fd5b50356001600160a01b0316610fce565b34801561059857600080fd5b5061021f610fe0565b3480156105ad57600080fd5b50610328600480360360408110156105c457600080fd5b506001600160a01b0381351690602001351515611041565b3480156105e857600080fd5b50610328600480360360808110156105ff57600080fd5b6001600160a01b0382358116926020810135909116916040820135919081019060808101606082013564010000000081111561063a57600080fd5b82018360208201111561064c57600080fd5b8035906020019184600183028401116401000000008311171561066e57600080fd5b91908080601f016020809104026020016040519081016040528093929190818152602001838380828437600092019190915250929550611146945050505050565b3480156106bb57600080fd5b5061021f600480360360208110156106d257600080fd5b50356111a4565b3480156106e557600080fd5b5061021f611425565b3480156106fa57600080fd5b506101ba6004803603604081101561071157600080fd5b506001600160a01b0381358116916020013516611486565b34801561073557600080fd5b506101f86114b4565b6001600160e01b0319811660009081526020819052604090205460ff165b919050565b600a6020526000908152604090205481565b60068054604080516020601f60026000196101006001881615020190951694909404938401819004810282018101909252828152606093909290918301828280156107ff5780601f106107d4576101008083540402835291602001916107ff565b820191906000526020600020905b8154815290600101906020018083116107e257829003601f168201915b5050505050905090565b600b546001600160a01b031681565b600061082382611518565b61085e5760405162461bcd60e51b815260040180806020018281038252602c815260200180612472602c913960400191505060405180910390fd5b506000908152600460205260409020546001600160a01b031690565b600061088582610af6565b9050806001600160a01b0316836001600160a01b031614156108d85760405162461bcd60e51b81526004018080602001828103825260218152602001806125196021913960400191505060405180910390fd5b806001600160a01b03166108ea611525565b6001600160a01b0316148061090b575061090b81610906611525565b611486565b6109465760405162461bcd60e51b81526004018080602001828103825260388152602001806123c56038913960400191505060405180910390fd5b6109508383611529565b505050565b60006109616002611597565b905090565b610977610971611525565b826115a2565b6109b25760405162461bcd60e51b815260040180806020018281038252603181526020018061253a6031913960400191505060405180910390fd5b61095083838361163e565b6001600160a01b03821660009081526001602052604081206109df908361178a565b90505b92915050565b7f6e71edae12b1b97f4d1f60370fef10105fa2faae0126114a169c64845d6126c981565b600b546001600160a01b0316610a20611525565b6001600160a01b031614610a655760405162461bcd60e51b81526004018080602001828103825260238152602001806124f66023913960400191505060405180910390fd5b610a6f8282611796565b5050565b61095083838360405180602001604052806000815250611146565b610a99610971611525565b610ad45760405162461bcd60e51b815260040180806020018281038252603081526020018061256b6030913960400191505060405180910390fd5b610add816118c4565b50565b600080610aee600284611991565b509392505050565b60006109e28260405180606001604052806029815260200161242760299139600291906119ad565b60098054604080516020601f60026000196101006001881615020190951694909404938401819004810282018101909252828152606093909290918301828280156107ff5780601f106107d4576101008083540402835291602001916107ff565b60006001600160a01b038216610bc65760405162461bcd60e51b815260040180806020018281038252602a8152602001806123fd602a913960400191505060405180910390fd5b6001600160a01b03821660009081526001602052604090206109e290611597565b83421115610c2d576040805162461bcd60e51b815260206004820152600e60248201526d14195c9b5a5d08195e1c1a5c995960921b604482015290519081900360640190fd5b600c546000907f6e71edae12b1b97f4d1f60370fef10105fa2faae0126114a169c64845d6126c98888610c5f816119c4565b604080516020808201969096526001600160a01b03909416848201526060840192909252608083015260a08083018a90528151808403909101815260c08301825280519084012061190160f01b60e084015260e283019490945261010280830194909452805180830390940184526101229091019052815191012090506000610ce787610af6565b9050806001600160a01b0316886001600160a01b03161415610d3a5760405162461bcd60e51b815260040180806020018281038252602781526020018061234e6027913960400191505060405180910390fd5b610d43816119de565b15610eab576040805160208082018790528183018690526001600160f81b031960f889901b1660608301528251604181840301815260618301808552630b135d3f60e11b90526065830186815260858401948552815160a585015281516001600160a01b03871695631626ba7e958995919260c59091019185019080838360005b83811015610ddc578181015183820152602001610dc4565b50505050905090810190601f168015610e095780820380516001836020036101000a031916815260200191505b50935050505060206040518083038186803b158015610e2757600080fd5b505afa158015610e3b573d6000803e3d6000fd5b505050506040513d6020811015610e5157600080fd5b50516001600160e01b031916630b135d3f60e11b14610ea6576040805162461bcd60e51b815260206004820152600c60248201526b155b985d5d1a1bdc9a5e995960a21b604482015290519081900360640190fd5b610fba565b600060018387878760405160008152602001604052604051808581526020018460ff1681526020018381526020018281526020019450505050506020604051602081039080840390855afa158015610f07573d6000803e3d6000fd5b5050604051601f1901519150506001600160a01b038116610f63576040805162461bcd60e51b8152602060048201526011602482015270496e76616c6964207369676e617475726560781b604482015290519081900360640190fd5b816001600160a01b0316816001600160a01b031614610fb8576040805162461bcd60e51b815260206004820152600c60248201526b155b985d5d1a1bdc9a5e995960a21b604482015290519081900360640190fd5b505b610fc4888861087a565b5050505050505050565b600d6020526000908152604090205481565b60078054604080516020601f60026000196101006001881615020190951694909404938401819004810282018101909252828152606093909290918301828280156107ff5780601f106107d4576101008083540402835291602001916107ff565b611049611525565b6001600160a01b0316826001600160a01b031614156110af576040805162461bcd60e51b815260206004820152601960248201527f4552433732313a20617070726f766520746f2063616c6c657200000000000000604482015290519081900360640190fd5b80600560006110bc611525565b6001600160a01b03908116825260208083019390935260409182016000908120918716808252919093529120805460ff191692151592909217909155611100611525565b6001600160a01b03167f17307eab39ab6107e8899845ad3d59bd9653f200f220920489ca2b5937696c318360405180821515815260200191505060405180910390a35050565b611157611151611525565b836115a2565b6111925760405162461bcd60e51b815260040180806020018281038252603181526020018061253a6031913960400191505060405180910390fd5b61119e848484846119e4565b50505050565b60606111af82611518565b6111ea5760405162461bcd60e51b815260040180806020018281038252602f8152602001806124c7602f913960400191505060405180910390fd5b60008281526008602090815260408083208054825160026001831615610100026000190190921691909104601f81018590048502820185019093528281529290919083018282801561127d5780601f106112525761010080835404028352916020019161127d565b820191906000526020600020905b81548152906001019060200180831161126057829003601f168201915b50505050509050600061128e610b1e565b90508051600014156112a25750905061075c565b8151156113635780826040516020018083805190602001908083835b602083106112dd5780518252601f1990920191602091820191016112be565b51815160209384036101000a600019018019909216911617905285519190930192850191508083835b602083106113255780518252601f199092019160209182019101611306565b6001836020036101000a038019825116818451168082178552505050505050905001925050506040516020818303038152906040529250505061075c565b8061136d85611a36565b6040516020018083805190602001908083835b6020831061139f5780518252601f199092019160209182019101611380565b51815160209384036101000a600019018019909216911617905285519190930192850191508083835b602083106113e75780518252601f1990920191602091820191016113c8565b6001836020036101000a0380198251168184511680821785525050505050509050019250505060405160208183030381529060405292505050919050565b600e8054604080516020601f60026000196101006001881615020190951694909404938401819004810282018101909252828152606093909290918301828280156107ff5780601f106107d4576101008083540402835291602001916107ff565b6001600160a01b03918216600090815260056020908152604080832093909416825291909152205460ff1690565b600c5481565b8351602080860191909120845185830120604080517f8b73c3c69bb8fe3d512ecc4cf759cc79239f7b179b0ffacaa9a75d522b39400f81529384019290925290820152606081018390526080810182905260a090205b949350505050565b60006109e2600283611b11565b3390565b600081815260046020526040902080546001600160a01b0319166001600160a01b038416908117909155819061155e82610af6565b6001600160a01b03167f8c5be1e5ebec7d5bd14f71427d1e84f3dd0314c0f7b2291e5b200ac8c7c3b92560405160405180910390a45050565b60006109e282611b1d565b60006115ad82611518565b6115e85760405162461bcd60e51b815260040180806020018281038252602c815260200180612399602c913960400191505060405180910390fd5b60006115f383610af6565b9050806001600160a01b0316846001600160a01b0316148061162e5750836001600160a01b031661162384610818565b6001600160a01b0316145b8061151057506115108185611486565b826001600160a01b031661165182610af6565b6001600160a01b0316146116965760405162461bcd60e51b815260040180806020018281038252602981526020018061249e6029913960400191505060405180910390fd5b6001600160a01b0382166116db5760405162461bcd60e51b81526004018080602001828103825260248152602001806123756024913960400191505060405180910390fd5b6116e6838383610950565b6116f1600082611529565b6001600160a01b03831660009081526001602052604090206117139082611b21565b506001600160a01b03821660009081526001602052604090206117369082611b2d565b5061174360028284611b39565b5080826001600160a01b0316846001600160a01b03167fddf252ad1be2c89b69c2b068fc378daa952ba7f163c4a11628f55a4df523b3ef60405160405180910390a4505050565b60006109df8383611b4f565b6001600160a01b0382166117f1576040805162461bcd60e51b815260206004820181905260248201527f4552433732313a206d696e7420746f20746865207a65726f2061646472657373604482015290519081900360640190fd5b6117fa81611518565b1561184c576040805162461bcd60e51b815260206004820152601c60248201527f4552433732313a20746f6b656e20616c7265616479206d696e74656400000000604482015290519081900360640190fd5b61185860008383610950565b6001600160a01b038216600090815260016020526040902061187a9082611b2d565b5061188760028284611b39565b5060405181906001600160a01b038416906000907fddf252ad1be2c89b69c2b068fc378daa952ba7f163c4a11628f55a4df523b3ef908290a45050565b60006118cf82610af6565b90506118dd81600084610950565b6118e8600083611529565b6000828152600860205260409020546002600019610100600184161502019091160415611926576000828152600860205260408120611926916121ef565b6001600160a01b03811660009081526001602052604090206119489083611b21565b50611954600283611bb3565b5060405182906000906001600160a01b038416907fddf252ad1be2c89b69c2b068fc378daa952ba7f163c4a11628f55a4df523b3ef908390a45050565b60008080806119a08686611bbf565b9097909650945050505050565b60006119ba848484611c3a565b90505b9392505050565b6000908152600a6020526040902080546001810190915590565b3b151590565b6119ef84848461163e565b6119fb84848484611d04565b61119e5760405162461bcd60e51b815260040180806020018281038252603281526020018061231c6032913960400191505060405180910390fd5b606081611a5b57506040805180820190915260018152600360fc1b602082015261075c565b8160005b8115611a7357600101600a82049150611a5f565b60008167ffffffffffffffff81118015611a8c57600080fd5b506040519080825280601f01601f191660200182016040528015611ab7576020820181803683370190505b50859350905060001982015b8315611b0857600a840660300160f81b82828060019003935081518110611ae657fe5b60200101906001600160f81b031916908160001a905350600a84049350611ac3565b50949350505050565b60006109df8383611e6c565b5490565b60006109df8383611e84565b60006109df8383611f4a565b60006119ba84846001600160a01b038516611f94565b81546000908210611b915760405162461bcd60e51b81526004018080602001828103825260228152602001806122fa6022913960400191505060405180910390fd5b826000018281548110611ba057fe5b9060005260206000200154905092915050565b60006109df838361202b565b815460009081908310611c035760405162461bcd60e51b81526004018080602001828103825260228152602001806124506022913960400191505060405180910390fd5b6000846000018481548110611c1457fe5b906000526020600020906002020190508060000154816001015492509250509250929050565b60008281526001840160205260408120548281611cd55760405162461bcd60e51b81526004018080602001828103825283818151815260200191508051906020019080838360005b83811015611c9a578181015183820152602001611c82565b50505050905090810190601f168015611cc75780820380516001836020036101000a031916815260200191505b509250505060405180910390fd5b50846000016001820381548110611ce857fe5b9060005260206000209060020201600101549150509392505050565b6000611d18846001600160a01b03166119de565b611d2457506001611510565b6000611e32630a85bd0160e11b611d39611525565b88878760405160240180856001600160a01b03168152602001846001600160a01b0316815260200183815260200180602001828103825283818151815260200191508051906020019080838360005b83811015611da0578181015183820152602001611d88565b50505050905090810190601f168015611dcd5780820380516001836020036101000a031916815260200191505b5095505050505050604051602081830303815290604052906001600160e01b0319166020820180516001600160e01b03838183161783525050505060405180606001604052806032815260200161231c603291396001600160a01b03881691906120ff565b90506000818060200190516020811015611e4b57600080fd5b50516001600160e01b031916630a85bd0160e11b1492505050949350505050565b60009081526001919091016020526040902054151590565b60008181526001830160205260408120548015611f405783546000198083019190810190600090879083908110611eb757fe5b9060005260206000200154905080876000018481548110611ed457fe5b600091825260208083209091019290925582815260018981019092526040902090840190558654879080611f0457fe5b600190038181906000526020600020016000905590558660010160008781526020019081526020016000206000905560019450505050506109e2565b60009150506109e2565b6000611f568383611e6c565b611f8c575081546001818101845560008481526020808220909301849055845484825282860190935260409020919091556109e2565b5060006109e2565b600082815260018401602052604081205480611ff95750506040805180820182528381526020808201848152865460018181018955600089815284812095516002909302909501918255915190820155865486845281880190925292909120556119bd565b8285600001600183038154811061200c57fe5b90600052602060002090600202016001018190555060009150506119bd565b60008181526001830160205260408120548015611f40578354600019808301919081019060009087908390811061205e57fe5b906000526020600020906002020190508087600001848154811061207e57fe5b6000918252602080832084546002909302019182556001938401549184019190915583548252898301905260409020908401905586548790806120bd57fe5b60008281526020808220600260001990940193840201828155600190810183905592909355888152898201909252604082209190915594506109e29350505050565b60606119ba848460008585612118565b60405180910390fd5b612121856119de565b61213d5760405162461bcd60e51b815260040161210f90612296565b600080866001600160a01b031685876040516121599190612247565b60006040518083038185875af1925050503d8060008114612196576040519150601f19603f3d011682016040523d82523d6000602084013e61219b565b606091505b50915091506121ab8282866121b6565b979650505050505050565b606083156121c55750816119bd565b8251156121d55782518084602001fd5b8160405162461bcd60e51b815260040161210f9190612263565b50805460018160011615610100020316600290046000825580601f106122155750610add565b601f016020900490600052602060002090810190610add91905b80821115612243576000815560010161222f565b5090565b600082516122598184602087016122cd565b9190910192915050565b60006020825282518060208401526122828160408501602087016122cd565b601f01601f19169190910160400192915050565b6020808252601d908201527f416464726573733a2063616c6c20746f206e6f6e2d636f6e7472616374000000604082015260600190565b60005b838110156122e85781810151838201526020016122d0565b8381111561119e575050600091015256fe456e756d657261626c655365743a20696e646578206f7574206f6620626f756e64734552433732313a207472616e7366657220746f206e6f6e20455243373231526563656976657220696d706c656d656e7465724552433732315065726d69743a20617070726f76616c20746f2063757272656e74206f776e65724552433732313a207472616e7366657220746f20746865207a65726f20616464726573734552433732313a206f70657261746f7220717565727920666f72206e6f6e6578697374656e7420746f6b656e4552433732313a20617070726f76652063616c6c6572206973206e6f74206f776e6572206e6f7220617070726f76656420666f7220616c6c4552433732313a2062616c616e636520717565727920666f7220746865207a65726f20616464726573734552433732313a206f776e657220717565727920666f72206e6f6e6578697374656e7420746f6b656e456e756d657261626c654d61703a20696e646578206f7574206f6620626f756e64734552433732313a20617070726f76656420717565727920666f72206e6f6e6578697374656e7420746f6b656e4552433732313a207472616e73666572206f6620746f6b656e2074686174206973206e6f74206f776e4552433732314d657461646174613a2055524920717565727920666f72206e6f6e6578697374656e7420746f6b656e53696465546f6b656e3a2043616c6c6572206973206e6f7420746865206d696e7465724552433732313a20617070726f76616c20746f2063757272656e74206f776e65724552433732313a207472616e736665722063616c6c6572206973206e6f74206f776e6572206e6f7220617070726f7665644552433732314275726e61626c653a2063616c6c6572206973206e6f74206f776e6572206e6f7220617070726f766564a2646970667358221220cb43ddeff07489e1bef3947fb691f67e31f263812aa3e0d2ab9b23b83b7880da64736f6c63430007060033a26469706673582212207e467108cf14ba24c24b2823425984c1f01e2c7acff9b11c51afebcf2cab3a5064736f6c63430007060033",
  "devdoc": {
    "kind": "dev",
    "methods": {
      "primary()": {
        "returns": {
          "_0": "the address of the primary."
        }
      },
      "transferPrimary(address)": {
        "details": "Transfers contract to a new primary.",
        "params": {
          "recipient": "The address of new primary."
        }
      }
    },
    "version": 1
  },
  "userdoc": {
    "kind": "user",
    "methods": {},
    "version": 1
  },
  "storageLayout": {
    "storage": [
      {
        "astId": 11290,
        "contract": "contracts/nftbridge/SideNFTTokenFactory.sol:SideNFTTokenFactory",
        "label": "_primary",
        "offset": 0,
        "slot": "0",
        "type": "t_address"
      }
    ],
    "types": {
      "t_address": {
        "encoding": "inplace",
        "label": "address",
        "numberOfBytes": "20"
      }
    }
  }
}