{
  "address": "0x450E429c107d1E001bE4aD1F8349D9F65F0a5b9a",
  "abi": [
    {
      "anonymous": false,
      "inputs": [
        {
          "indexed": false,
          "internalType": "address",
          "name": "recipient",
          "type": "address"
        }
      ],
      "name": "PrimaryTransferred",
      "type": "event"
    },
    {
      "anonymous": false,
      "inputs": [
        {
          "indexed": true,
          "internalType": "address",
          "name": "sideToken",
          "type": "address"
        },
        {
          "indexed": false,
          "internalType": "string",
          "name": "symbol",
          "type": "string"
        },
        {
          "indexed": false,
          "internalType": "uint256",
          "name": "granularity",
          "type": "uint256"
        }
      ],
      "name": "SideTokenCreated",
      "type": "event"
    },
    {
      "inputs": [
        {
          "internalType": "string",
          "name": "name",
          "type": "string"
        },
        {
          "internalType": "string",
          "name": "symbol",
          "type": "string"
        },
        {
          "internalType": "uint256",
          "name": "granularity",
          "type": "uint256"
        }
      ],
      "name": "createSideToken",
      "outputs": [
        {
          "internalType": "address",
          "name": "",
          "type": "address"
        }
      ],
      "stateMutability": "nonpayable",
      "type": "function"
    },
    {
      "inputs": [],
      "name": "primary",
      "outputs": [
        {
          "internalType": "address",
          "name": "",
          "type": "address"
        }
      ],
      "stateMutability": "view",
      "type": "function"
    },
    {
      "inputs": [
        {
          "internalType": "address",
          "name": "recipient",
          "type": "address"
        }
      ],
      "name": "transferPrimary",
      "outputs": [],
      "stateMutability": "nonpayable",
      "type": "function"
    }
  ],
  "transactionHash": "0xb179f9238d89fe8226fb822c3f3f50768131b9540f6680698a079a47c668641d",
  "args": [],
  "solcInputHash": "01422ba079bc0637013104a677f85dbe",
  "bytecode": "0x608060405234801561001057600080fd5b50610019610074565b600080546001600160a01b0319166001600160a01b0392831617908190556040517f4101e71e974f68df5e9730cc223280b41654676bbb052cdcc735c3337e64d2d992610067921690610078565b60405180910390a161008c565b3390565b6001600160a01b0391909116815260200190565b612d628061009b6000396000f3fe60806040523480156200001157600080fd5b5060043610620000465760003560e01c80632348238c146200004b57806326d9e9631462000064578063c6dbdf611462000093575b600080fd5b620000626200005c366004620002b8565b6200009d565b005b6200007b62000075366004620002e8565b6200016c565b6040516200008a91906200038a565b60405180910390f35b6200007b6200024d565b6000546001600160a01b0316620000b36200025c565b6001600160a01b031614620000e55760405162461bcd60e51b8152600401620000dc9062000458565b60405180910390fd5b6001600160a01b0381166200010e5760405162461bcd60e51b8152600401620000dc906200040e565b600080546001600160a01b0319166001600160a01b0383811691909117918290556040517f4101e71e974f68df5e9730cc223280b41654676bbb052cdcc735c3337e64d2d992620001619216906200038a565b60405180910390a150565b600080546001600160a01b0316620001836200025c565b6001600160a01b031614620001ac5760405162461bcd60e51b8152600401620000dc9062000458565b600086868686620001bc6200024d565b87604051620001cb9062000260565b620001dc969594939291906200039e565b604051809103906000f080158015620001f9573d6000803e3d6000fd5b509050806001600160a01b03167ff57d2ded8330a4affd2fa52378069be534fe22288536537d1a1cfc06151845078686866040516200023b93929190620003e8565b60405180910390a29695505050505050565b6000546001600160a01b031690565b3390565b61288880620004a583390190565b60008083601f84011262000280578182fd5b50813567ffffffffffffffff81111562000298578182fd5b602083019150836020828501011115620002b157600080fd5b9250929050565b600060208284031215620002ca578081fd5b81356001600160a01b0381168114620002e1578182fd5b9392505050565b60008060008060006060868803121562000300578081fd5b853567ffffffffffffffff8082111562000318578283fd5b6200032689838a016200026e565b909750955060208801359150808211156200033f578283fd5b506200034e888289016200026e565b96999598509660400135949350505050565b60008284528282602086013780602084860101526020601f19601f85011685010190509392505050565b6001600160a01b0391909116815260200190565b600060808252620003b460808301888a62000360565b8281036020840152620003c981878962000360565b6001600160a01b03959095166040840152505060600152949350505050565b600060408252620003fe60408301858762000360565b9050826020830152949350505050565b6020808252602a908201527f5365636f6e646172793a206e6577207072696d61727920697320746865207a65604082015269726f206164647265737360b01b606082015260800190565b6020808252602c908201527f5365636f6e646172793a2063616c6c6572206973206e6f74207468652070726960408201526b1b585c9e481858d8dbdd5b9d60a21b60608201526080019056fe60806040523480156200001157600080fd5b506040516200288838038062002888833981016040819052620000349162000561565b60408051600081526020808201909252855186928692916200005d9160029190860190620003c2565b50815162000073906003906020850190620003c2565b5080516200008990600490602084019062000457565b5060005b600454811015620000e95760016005600060048481548110620000ac57fe5b6000918252602080832091909101546001600160a01b031683528201929092526040019020805460ff19169115159190911790556001016200008d565b506040516329965a1d60e01b8152731820a4b7618bde71dce8cdc73aab6c95905fad24906329965a1d90620001479030907fac7fbab5f54a3ca8194167523c6753bfeb96a445279294b6125b68cce2177054908290600401620005f0565b600060405180830381600087803b1580156200016257600080fd5b505af115801562000177573d6000803e3d6000fd5b50506040516329965a1d60e01b8152731820a4b7618bde71dce8cdc73aab6c95905fad2492506329965a1d9150620001d89030907faea199e31a596269b42cdafd93407f14436db6e4cad65417994c2eb37381e05a908290600401620005f0565b600060405180830381600087803b158015620001f357600080fd5b505af115801562000208573d6000803e3d6000fd5b50505050506001600160a01b038416151591506200024590505760405162461bcd60e51b81526004016200023c9062000613565b60405180910390fd5b6001811015620002695760405162461bcd60e51b81526004016200023c906200064a565b600980546001600160a01b0319166001600160a01b038416179055600a81905546620002c562000298620002d4565b604051806040016040528060018152602001603160f81b81525083306200036b60201b62000fa41760201c565b600b5550620006819350505050565b60028054604080516020601f6000196101006001871615020190941685900493840181900481028201810190925282815260609390929091830182828015620003615780601f10620003355761010080835404028352916020019162000361565b820191906000526020600020905b8154815290600101906020018083116200034357829003601f168201915b5050505050905090565b8351602094850120835193850193909320604080517f8b73c3c69bb8fe3d512ecc4cf759cc79239f7b179b0ffacaa9a75d522b39400f815295860194909452928401929092526060830152608082015260a0902090565b828054600181600116156101000203166002900490600052602060002090601f016020900481019282620003fa576000855562000445565b82601f106200041557805160ff191683800117855562000445565b8280016001018555821562000445579182015b828111156200044557825182559160200191906001019062000428565b5062000453929150620004af565b5090565b82805482825590600052602060002090810192821562000445579160200282015b828111156200044557825182546001600160a01b0319166001600160a01b0390911617825560209092019160019091019062000478565b5b80821115620004535760008155600101620004b0565b600082601f830112620004d7578081fd5b81516001600160401b0380821115620004ec57fe5b6040516020601f8401601f19168201810183811183821017156200050c57fe5b604052838252858401810187101562000523578485fd5b8492505b8383101562000546578583018101518284018201529182019162000527565b838311156200055757848185840101525b5095945050505050565b6000806000806080858703121562000577578384fd5b84516001600160401b03808211156200058e578586fd5b6200059c88838901620004c6565b95506020870151915080821115620005b2578485fd5b50620005c187828801620004c6565b604087015190945090506001600160a01b0381168114620005e0578283fd5b6060959095015193969295505050565b6001600160a01b0393841681526020810192909252909116604082015260600190565b60208082526017908201527f53696465546f6b656e3a20456d707479204d696e746572000000000000000000604082015260600190565b6020808252601a908201527f53696465546f6b656e3a204772616e756c6172697479203c2031000000000000604082015260600190565b6121f780620006916000396000f3fe608060405234801561001057600080fd5b50600436106101735760003560e01c80637ecebe00116100de578063d95b637111610097578063f698da2511610071578063f698da2514610308578063fad8b32a14610310578063fc673c4f14610323578063fe9d93031461033657610173565b8063d95b6371146102cf578063dcdc7dd0146102e2578063dd62ed3e146102f557610173565b80637ecebe0014610268578063959b8c3f1461027b57806395d89b411461028e5780639bd9bbc614610296578063a9059cbb146102a9578063d505accf146102bc57610173565b806330adf81f1161013057806330adf81f14610208578063313ce567146102105780634000aea014610225578063556f0dc71461023857806362ad1b831461024057806370a082311461025557610173565b806306e485381461017857806306fdde031461019657806307546172146101ab578063095ea7b3146101c057806318160ddd146101e057806323b872dd146101f5575b600080fd5b610180610349565b60405161018d9190611c97565b60405180910390f35b61019e6103ab565b60405161018d9190611d4a565b6101b3610435565b60405161018d9190611b9f565b6101d36101ce3660046119d2565b610444565b60405161018d9190611ce4565b6101e8610466565b60405161018d9190611cef565b6101d3610203366004611881565b61046c565b6101e86105b4565b6102186105d8565b60405161018d9190612128565b6101d36102333660046119fd565b6105dd565b6101e86106eb565b61025361024e3660046118c1565b6106f1565b005b6101e8610263366004611811565b6107a8565b6101e8610276366004611811565b6107c3565b610253610289366004611811565b6107d5565b61019e610902565b6102536102a43660046119fd565b610963565b6101d36102b73660046119d2565b6109cb565b6102536102ca36600461195d565b610a85565b6101d36102dd366004611849565b610bd8565b6102536102f0366004611a57565b610c7a565b6101e8610303366004611849565b610d39565b6101e8610d64565b61025361031e366004611811565b610d6a565b610253610331366004611a57565b610e97565b610253610344366004611ae0565b610f41565b606060048054806020026020016040519081016040528092919081815260200182805480156103a157602002820191906000526020600020905b81546001600160a01b03168152600190910190602001808311610383575b5050505050905090565b60028054604080516020601f60001961010060018716150201909416859004938401819004810282018101909252828152606093909290918301828280156103a15780601f10610409576101008083540402835291602001916103a1565b820191906000526020600020905b81548152906001019060200180831161041757509395945050505050565b6009546001600160a01b031681565b60008061044f610ffb565b905061045c818585610fff565b5060019392505050565b60015490565b60006001600160a01b03831661049d5760405162461bcd60e51b815260040161049490611e50565b60405180910390fd5b6001600160a01b0384166104c35760405162461bcd60e51b815260040161049490612043565b60006104cd610ffb565b90506104fb81868686604051806020016040528060008152506040518060200160405280600081525061108d565b6105278186868660405180602001604052806000815250604051806020016040528060008152506111bb565b61057b858261057686604051806060016040528060298152602001612176602991396001600160a01b03808c166000908152600860209081526040808320938b168352929052205491906112db565b610fff565b6105a98186868660405180602001604052806000815250604051806020016040528060008152506000611307565b506001949350505050565b7f6e71edae12b1b97f4d1f60370fef10105fa2faae0126114a169c64845d6126c981565b601290565b6000806105e8610ffb565b905061063c8182888888888080601f016020809104026020016040519081016040528093929190818152602001838380828437600092018290525060408051602081019091528181529350915061146e9050565b7fe19260aff97b920c7df27010903aeb9c8d2be5d310a2c67824cf3f15396e4c168187878787604051610673959493929190611c0d565b60405180910390a1604051635260769b60e11b81526001600160a01b0387169063a4c0ed36906106ad908490899089908990600401611c65565b600060405180830381600087803b1580156106c757600080fd5b505af11580156106db573d6000803e3d6000fd5b5060019998505050505050505050565b600a5490565b6107026106fc610ffb565b88610bd8565b61071e5760405162461bcd60e51b815260040161049490612085565b61079f610729610ffb565b88888888888080601f01602080910402602001604051908101604052809392919081815260200183838082843760009201919091525050604080516020601f8c018190048102820181019092528a815292508a91508990819084018382808284376000920191909152506001925061146e915050565b50505050505050565b6001600160a01b031660009081526020819052604090205490565b600c6020526000908152604090205481565b806001600160a01b03166107e7610ffb565b6001600160a01b0316141561080e5760405162461bcd60e51b815260040161049490611dcb565b6001600160a01b03811660009081526005602052604090205460ff1615610871576007600061083b610ffb565b6001600160a01b03908116825260208083019390935260409182016000908120918516815292529020805460ff191690556108b8565b60016006600061087f610ffb565b6001600160a01b03908116825260208083019390935260409182016000908120918616815292529020805460ff19169115159190911790555b6108c0610ffb565b6001600160a01b0316816001600160a01b03167ff4caeb2d6ca8932a215a353d0703c326ec2d81fc68170f320eb2ab49e9df61f960405160405180910390a350565b60038054604080516020601f60026000196101006001881615020190951694909404938401819004810282018101909252828152606093909290918301828280156103a15780601f10610409576101008083540402835291602001916103a1565b6109c561096e610ffb565b610976610ffb565b868686868080601f0160208091040260200160405190810160405280939291908181526020018383808284376000920182905250604080516020810190915290815292506001915061146e9050565b50505050565b60006001600160a01b0383166109f35760405162461bcd60e51b815260040161049490611e50565b60006109fd610ffb565b9050610a2b81828686604051806020016040528060008152506040518060200160405280600081525061108d565b610a578182868660405180602001604052806000815250604051806020016040528060008152506111bb565b61045c8182868660405180602001604052806000815250604051806020016040528060008152506000611307565b42841015610aa55760405162461bcd60e51b815260040161049490611fa9565b600b546001600160a01b0388166000908152600c6020908152604080832080546001810190915590519293610b27939092610b0c927f6e71edae12b1b97f4d1f60370fef10105fa2faae0126114a169c64845d6126c9928e928e928e9290918e9101611cf8565b604051602081830303815290604052805190602001206114e5565b9050600060018286868660405160008152602001604052604051610b4e9493929190611d2c565b6020604051602081039080840390855afa158015610b70573d6000803e3d6000fd5b5050604051601f1901519150506001600160a01b03811615801590610ba65750886001600160a01b0316816001600160a01b0316145b610bc25760405162461bcd60e51b815260040161049490611f2f565b610bcd898989610fff565b505050505050505050565b6000816001600160a01b0316836001600160a01b03161480610c4357506001600160a01b03831660009081526005602052604090205460ff168015610c4357506001600160a01b0380831660009081526007602090815260408083209387168352929052205460ff16155b80610c7357506001600160a01b0380831660009081526006602090815260408083209387168352929052205460ff165b9392505050565b6009546001600160a01b0316610c8e610ffb565b6001600160a01b031614610cb45760405162461bcd60e51b815260040161049490611f66565b610d31610cbf610ffb565b878787878080601f01602080910402602001604051908101604052809392919081815260200183838082843760009201919091525050604080516020601f8b01819004810282018101909252898152925089915088908190840183828082843760009201919091525061150492505050565b505050505050565b6001600160a01b03918216600090815260086020908152604080832093909416825291909152205490565b600b5481565b610d72610ffb565b6001600160a01b0316816001600160a01b03161415610da35760405162461bcd60e51b815260040161049490611e0f565b6001600160a01b03811660009081526005602052604090205460ff1615610e0f57600160076000610dd2610ffb565b6001600160a01b03908116825260208083019390935260409182016000908120918616815292529020805460ff1916911515919091179055610e4d565b60066000610e1b610ffb565b6001600160a01b03908116825260208083019390935260409182016000908120918516815292529020805460ff191690555b610e55610ffb565b6001600160a01b0316816001600160a01b03167f50546e66e5f44d728365dc3908c63bc5cfeeab470722c1677e3073a6ac294aa160405160405180910390a350565b610ea8610ea2610ffb565b87610bd8565b610ec45760405162461bcd60e51b815260040161049490612085565b610d31610ecf610ffb565b878787878080601f01602080910402602001604051908101604052809392919081815260200183838082843760009201919091525050604080516020601f8b01819004810282018101909252898152925089915088908190840183828082843760009201919091525061162c92505050565b610f9f610f4c610ffb565b610f54610ffb565b8585858080601f01602080910402602001604051908101604052809392919081815260200183838082843760009201829052506040805160208101909152908152925061162c915050565b505050565b8351602094850120835193850193909320604080517f8b73c3c69bb8fe3d512ecc4cf759cc79239f7b179b0ffacaa9a75d522b39400f815295860194909452928401929092526060830152608082015260a0902090565b3390565b6001600160a01b0382166110255760405162461bcd60e51b8152600401610494906120c6565b6001600160a01b0380841660008181526008602090815260408083209487168084529490915290819020849055517f8c5be1e5ebec7d5bd14f71427d1e84f3dd0314c0f7b2291e5b200ac8c7c3b92590611080908590611cef565b60405180910390a3505050565b60405163555ddc6560e11b8152600090731820a4b7618bde71dce8cdc73aab6c95905fad249063aabbb8ca906110e99089907f29ddb589b1fb5fc7cf394961c1adf5f8c6454761adf795e67fe149f658abe89590600401611c4c565b60206040518083038186803b15801561110157600080fd5b505afa158015611115573d6000803e3d6000fd5b505050506040513d601f19601f82011682018060405250810190611139919061182d565b90506001600160a01b0381161561079f57604051633ad5cbc160e11b81526001600160a01b038216906375ab978290611180908a908a908a908a908a908a90600401611bb3565b600060405180830381600087803b15801561119a57600080fd5b505af11580156111ae573d6000803e3d6000fd5b5050505050505050505050565b6111f88360405180606001604052806027815260200161214f602791396001600160a01b03881660009081526020819052604090205491906112db565b6001600160a01b038087166000908152602081905260408082209390935590861681522054611227908461175d565b6001600160a01b0380861660008181526020819052604090819020939093559151878216918916907f06b541ddaa720db2b10a4d0cdac39b8d360425fc073085fac19bc8261467798790611280908890889088906120fd565b60405180910390a4836001600160a01b0316856001600160a01b03167fddf252ad1be2c89b69c2b068fc378daa952ba7f163c4a11628f55a4df523b3ef856040516112cb9190611cef565b60405180910390a3505050505050565b600081848411156112ff5760405162461bcd60e51b81526004016104949190611d4a565b505050900390565b60405163555ddc6560e11b8152600090731820a4b7618bde71dce8cdc73aab6c95905fad249063aabbb8ca906113639089907fb281fc8c12954d22544db45de3159a39272895b169a852b314f9cc762e44c53b90600401611c4c565b60206040518083038186803b15801561137b57600080fd5b505afa15801561138f573d6000803e3d6000fd5b505050506040513d601f19601f820116820180604052508101906113b3919061182d565b90506001600160a01b0381161561142f576040516223de2960e01b81526001600160a01b038216906223de29906113f8908b908b908b908b908b908b90600401611bb3565b600060405180830381600087803b15801561141257600080fd5b505af1158015611426573d6000803e3d6000fd5b50505050611464565b811561146457611447866001600160a01b0316611782565b156114645760405162461bcd60e51b815260040161049490611ebc565b5050505050505050565b6001600160a01b0386166114945760405162461bcd60e51b815260040161049490611fd5565b6001600160a01b0385166114ba5760405162461bcd60e51b81526004016104949061200c565b6114c887878787878761108d565b6114d68787878787876111bb565b61079f87878787878787611307565b60405161190160f01b8152600281019290925260228201526042902090565b6001600160a01b03841661152a5760405162461bcd60e51b815260040161049490611e85565b600154611537908461175d565b6001556001600160a01b03841660009081526020819052604090205461155d908461175d565b6001600160a01b03851660009081526020819052604081209190915561158a908690868686866001611307565b836001600160a01b0316856001600160a01b03167f2fe5be0146f74c5bce36c0b80911af6c7d86ff27e89d5cfa61fc681327954e5d8585856040516115d1939291906120fd565b60405180910390a3836001600160a01b031660006001600160a01b03167fddf252ad1be2c89b69c2b068fc378daa952ba7f163c4a11628f55a4df523b3ef8560405161161d9190611cef565b60405180910390a35050505050565b6001600160a01b0384166116525760405162461bcd60e51b815260040161049490611d94565b6116618585600086868661108d565b61169e8360405180606001604052806023815260200161219f602391396001600160a01b03871660009081526020819052604090205491906112db565b6001600160a01b0385166000908152602081905260409020556001546116c49084611788565b600181905550836001600160a01b0316856001600160a01b03167fa78a9be3a7b862d26933ad85fb11d80ef66b8f972d7cbba06621d583943a4098858585604051611711939291906120fd565b60405180910390a360006001600160a01b0316846001600160a01b03167fddf252ad1be2c89b69c2b068fc378daa952ba7f163c4a11628f55a4df523b3ef8560405161161d9190611cef565b600082820183811015610c735760405162461bcd60e51b815260040161049490611d5d565b3b151590565b6000610c7383836040518060400160405280601e81526020017f536166654d6174683a207375627472616374696f6e206f766572666c6f7700008152506112db565b60008083601f8401126117db578182fd5b50813567ffffffffffffffff8111156117f2578182fd5b60208301915083602082850101111561180a57600080fd5b9250929050565b600060208284031215611822578081fd5b8135610c7381612136565b60006020828403121561183e578081fd5b8151610c7381612136565b6000806040838503121561185b578081fd5b823561186681612136565b9150602083013561187681612136565b809150509250929050565b600080600060608486031215611895578081fd5b83356118a081612136565b925060208401356118b081612136565b929592945050506040919091013590565b600080600080600080600060a0888a0312156118db578283fd5b87356118e681612136565b965060208801356118f681612136565b955060408801359450606088013567ffffffffffffffff80821115611919578485fd5b6119258b838c016117ca565b909650945060808a013591508082111561193d578384fd5b5061194a8a828b016117ca565b989b979a50959850939692959293505050565b600080600080600080600060e0888a031215611977578283fd5b873561198281612136565b9650602088013561199281612136565b95506040880135945060608801359350608088013560ff811681146119b5578384fd5b9699959850939692959460a0840135945060c09093013592915050565b600080604083850312156119e4578182fd5b82356119ef81612136565b946020939093013593505050565b60008060008060608587031215611a12578384fd5b8435611a1d81612136565b935060208501359250604085013567ffffffffffffffff811115611a3f578283fd5b611a4b878288016117ca565b95989497509550505050565b60008060008060008060808789031215611a6f578182fd5b8635611a7a81612136565b955060208701359450604087013567ffffffffffffffff80821115611a9d578384fd5b611aa98a838b016117ca565b90965094506060890135915080821115611ac1578384fd5b50611ace89828a016117ca565b979a9699509497509295939492505050565b600080600060408486031215611af4578283fd5b83359250602084013567ffffffffffffffff811115611b11578283fd5b611b1d868287016117ca565b9497909650939450505050565b60008284528282602086013780602084860101526020601f19601f85011685010190509392505050565b60008151808452815b81811015611b7957602081850181015186830182015201611b5d565b81811115611b8a5782602083870101525b50601f01601f19169290920160200192915050565b6001600160a01b0391909116815260200190565b6001600160a01b0387811682528681166020830152851660408201526060810184905260c060808201819052600090611bee90830185611b54565b82810360a0840152611c008185611b54565b9998505050505050505050565b6001600160a01b0386811682528516602082015260408101849052608060608201819052600090611c419083018486611b2a565b979650505050505050565b6001600160a01b03929092168252602082015260400190565b600060018060a01b038616825284602083015260606040830152611c8d606083018486611b2a565b9695505050505050565b6020808252825182820181905260009190848201906040850190845b81811015611cd85783516001600160a01b031683529284019291840191600101611cb3565b50909695505050505050565b901515815260200190565b90815260200190565b9586526001600160a01b0394851660208701529290931660408501526060840152608083019190915260a082015260c00190565b93845260ff9290921660208401526040830152606082015260800190565b600060208252610c736020830184611b54565b6020808252601b908201527f536166654d6174683a206164646974696f6e206f766572666c6f770000000000604082015260600190565b6020808252601e908201527f4552433737373a206275726e2066726f6d207a65726f20616464726573730000604082015260600190565b60208082526024908201527f4552433737373a20617574686f72697a696e672073656c66206173206f70657260408201526330ba37b960e11b606082015260800190565b60208082526021908201527f4552433737373a207265766f6b696e672073656c66206173206f70657261746f6040820152603960f91b606082015260800190565b6020808252818101527f4552433737373a207472616e7366657220746f207a65726f2061646472657373604082015260600190565b6020808252601c908201527f4552433737373a206d696e7420746f207a65726f206164647265737300000000604082015260600190565b6020808252604d908201527f4552433737373a20746f6b656e20726563697069656e7420636f6e747261637460408201527f20686173206e6f20696d706c656d656e74657220666f7220455243373737546f60608201526c1ad95b9cd49958da5c1a595b9d609a1b608082015260a00190565b6020808252601c908201527f53696465546f6b656e3a20494e56414c49445f5349474e415455524500000000604082015260600190565b60208082526023908201527f53696465546f6b656e3a2043616c6c6572206973206e6f7420746865206d696e6040820152623a32b960e91b606082015260800190565b60208082526012908201527114da5919551bdad95b8e881156141254915160721b604082015260600190565b6020808252601e908201527f4552433737373a2073656e642066726f6d207a65726f20616464726573730000604082015260600190565b6020808252601c908201527f4552433737373a2073656e6420746f207a65726f206164647265737300000000604082015260600190565b60208082526022908201527f4552433737373a207472616e736665722066726f6d207a65726f206164647265604082015261737360f01b606082015260800190565b60208082526021908201527f4552433737373a2063616c6c6572206973206e6f7420616e206f70657261746f6040820152603960f91b606082015260800190565b6020808252601f908201527f4552433737373a20617070726f766520746f207a65726f206164647265737300604082015260600190565b6000848252606060208301526121166060830185611b54565b8281036040840152611c8d8185611b54565b60ff91909116815260200190565b6001600160a01b038116811461214b57600080fd5b5056fe4552433737373a207472616e7366657220616d6f756e7420657863656564732062616c616e63654552433737373a207472616e7366657220616d6f756e74206578636565647320616c6c6f77616e63654552433737373a206275726e20616d6f756e7420657863656564732062616c616e6365a2646970667358221220e96305596548c1ccf5a73d7bede36fbfaeee3f672cbf14157179325f27c57bf764736f6c63430007060033a26469706673582212204cc330cf5079dbaee9f34fb1607540a3d5891d5eeb955ff8beaa47811a8c189964736f6c63430007060033",
  "devdoc": {
    "kind": "dev",
    "methods": {
      "primary()": {
        "returns": {
          "_0": "the address of the primary."
        }
      },
      "transferPrimary(address)": {
        "details": "Transfers contract to a new primary.",
        "params": {
          "recipient": "The address of new primary."
        }
      }
    },
    "version": 1
  },
  "userdoc": {
    "kind": "user",
    "methods": {},
    "version": 1
  },
  "storageLayout": {
    "storage": [
      {
        "astId": 11290,
        "contract": "contracts/SideTokenFactory/SideTokenFactory.sol:SideTokenFactory",
        "label": "_primary",
        "offset": 0,
        "slot": "0",
        "type": "t_address"
      }
    ],
    "types": {
      "t_address": {
        "encoding": "inplace",
        "label": "address",
        "numberOfBytes": "20"
      }
    }
  }
}