{
  "address": "0x500f602F60B6d223F50aAc3750625Ec771ED3C57",
  "abi": [
    {
      "anonymous": false,
      "inputs": [
        {
          "indexed": true,
          "internalType": "bytes32",
          "name": "_transactionHash",
          "type": "bytes32"
        },
        {
          "indexed": true,
          "internalType": "address",
          "name": "_originalTokenAddress",
          "type": "address"
        },
        {
          "indexed": true,
          "internalType": "address",
          "name": "_to",
          "type": "address"
        },
        {
          "indexed": false,
          "internalType": "address",
          "name": "_from",
          "type": "address"
        },
        {
          "indexed": false,
          "internalType": "uint256",
          "name": "_amount",
          "type": "uint256"
        },
        {
          "indexed": false,
          "internalType": "bytes32",
          "name": "_blockHash",
          "type": "bytes32"
        },
        {
          "indexed": false,
          "internalType": "uint256",
          "name": "_logIndex",
          "type": "uint256"
        }
      ],
      "name": "AcceptedCrossTransfer",
      "type": "event"
    },
    {
      "anonymous": false,
      "inputs": [
        {
          "indexed": false,
          "internalType": "address",
          "name": "_newAllowTokens",
          "type": "address"
        }
      ],
      "name": "AllowTokensChanged",
      "type": "event"
    },
    {
      "anonymous": false,
      "inputs": [
        {
          "indexed": true,
          "internalType": "bytes32",
          "name": "_transactionHash",
          "type": "bytes32"
        },
        {
          "indexed": true,
          "internalType": "address",
          "name": "_originalTokenAddress",
          "type": "address"
        },
        {
          "indexed": true,
          "internalType": "address",
          "name": "_to",
          "type": "address"
        },
        {
          "indexed": false,
          "internalType": "address",
          "name": "_sender",
          "type": "address"
        },
        {
          "indexed": false,
          "internalType": "uint256",
          "name": "_amount",
          "type": "uint256"
        },
        {
          "indexed": false,
          "internalType": "bytes32",
          "name": "_blockHash",
          "type": "bytes32"
        },
        {
          "indexed": false,
          "internalType": "uint256",
          "name": "_logIndex",
          "type": "uint256"
        },
        {
          "indexed": false,
          "internalType": "address",
          "name": "_reciever",
          "type": "address"
        },
        {
          "indexed": false,
          "internalType": "address",
          "name": "_relayer",
          "type": "address"
        },
        {
          "indexed": false,
          "internalType": "uint256",
          "name": "_fee",
          "type": "uint256"
        }
      ],
      "name": "Claimed",
      "type": "event"
    },
    {
      "anonymous": false,
      "inputs": [
        {
          "indexed": true,
          "internalType": "address",
          "name": "_tokenAddress",
          "type": "address"
        },
        {
          "indexed": true,
          "internalType": "address",
          "name": "_from",
          "type": "address"
        },
        {
          "indexed": true,
          "internalType": "address",
          "name": "_to",
          "type": "address"
        },
        {
          "indexed": false,
          "internalType": "uint256",
          "name": "_amount",
          "type": "uint256"
        },
        {
          "indexed": false,
          "internalType": "bytes",
          "name": "_userData",
          "type": "bytes"
        }
      ],
      "name": "Cross",
      "type": "event"
    },
    {
      "anonymous": false,
      "inputs": [
        {
          "indexed": false,
          "internalType": "address",
          "name": "_newFederation",
          "type": "address"
        }
      ],
      "name": "FederationChanged",
      "type": "event"
    },
    {
      "anonymous": false,
      "inputs": [
        {
          "indexed": false,
          "internalType": "uint256",
          "name": "_amount",
          "type": "uint256"
        }
      ],
      "name": "FeePercentageChanged",
      "type": "event"
    },
    {
      "anonymous": false,
      "inputs": [
        {
          "indexed": true,
          "internalType": "address",
          "name": "_newSideTokenAddress",
          "type": "address"
        },
        {
          "indexed": true,
          "internalType": "address",
          "name": "_originalTokenAddress",
          "type": "address"
        },
        {
          "indexed": false,
          "internalType": "string",
          "name": "_newSymbol",
          "type": "string"
        },
        {
          "indexed": false,
          "internalType": "uint256",
          "name": "_granularity",
          "type": "uint256"
        }
      ],
      "name": "NewSideToken",
      "type": "event"
    },
    {
      "anonymous": false,
      "inputs": [
        {
          "indexed": true,
          "internalType": "address",
          "name": "previousOwner",
          "type": "address"
        },
        {
          "indexed": true,
          "internalType": "address",
          "name": "newOwner",
          "type": "address"
        }
      ],
      "name": "OwnershipTransferred",
      "type": "event"
    },
    {
      "anonymous": false,
      "inputs": [
        {
          "indexed": false,
          "internalType": "address",
          "name": "account",
          "type": "address"
        }
      ],
      "name": "Paused",
      "type": "event"
    },
    {
      "anonymous": false,
      "inputs": [
        {
          "indexed": true,
          "internalType": "address",
          "name": "account",
          "type": "address"
        }
      ],
      "name": "PauserAdded",
      "type": "event"
    },
    {
      "anonymous": false,
      "inputs": [
        {
          "indexed": true,
          "internalType": "address",
          "name": "account",
          "type": "address"
        }
      ],
      "name": "PauserRemoved",
      "type": "event"
    },
    {
      "anonymous": false,
      "inputs": [
        {
          "indexed": false,
          "internalType": "address",
          "name": "_newSideTokenFactory",
          "type": "address"
        }
      ],
      "name": "SideTokenFactoryChanged",
      "type": "event"
    },
    {
      "anonymous": false,
      "inputs": [
        {
          "indexed": false,
          "internalType": "address",
          "name": "account",
          "type": "address"
        }
      ],
      "name": "Unpaused",
      "type": "event"
    },
    {
      "anonymous": false,
      "inputs": [
        {
          "indexed": false,
          "internalType": "bool",
          "name": "_isUpgrading",
          "type": "bool"
        }
      ],
      "name": "Upgrading",
      "type": "event"
    },
    {
      "anonymous": false,
      "inputs": [
        {
          "indexed": false,
          "internalType": "address",
          "name": "_wrappedCurrency",
          "type": "address"
        }
      ],
      "name": "WrappedCurrencyChanged",
      "type": "event"
    },
    {
      "inputs": [],
      "name": "CLAIM_TYPEHASH",
      "outputs": [
        {
          "internalType": "bytes32",
          "name": "",
          "type": "bytes32"
        }
      ],
      "stateMutability": "view",
      "type": "function"
    },
    {
      "inputs": [
        {
          "internalType": "address",
          "name": "sender",
          "type": "address"
        }
      ],
      "name": "__Pausable_init",
      "outputs": [],
      "stateMutability": "nonpayable",
      "type": "function"
    },
    {
      "inputs": [
        {
          "internalType": "address",
          "name": "sender",
          "type": "address"
        }
      ],
      "name": "__PauserRol_init",
      "outputs": [],
      "stateMutability": "nonpayable",
      "type": "function"
    },
    {
      "inputs": [
        {
          "internalType": "address",
          "name": "_originalTokenAddress",
          "type": "address"
        },
        {
          "internalType": "address payable",
          "name": "_from",
          "type": "address"
        },
        {
          "internalType": "address payable",
          "name": "_to",
          "type": "address"
        },
        {
          "internalType": "uint256",
          "name": "_amount",
          "type": "uint256"
        },
        {
          "internalType": "bytes32",
          "name": "_blockHash",
          "type": "bytes32"
        },
        {
          "internalType": "bytes32",
          "name": "_transactionHash",
          "type": "bytes32"
        },
        {
          "internalType": "uint32",
          "name": "_logIndex",
          "type": "uint32"
        }
      ],
      "name": "acceptTransfer",
      "outputs": [],
      "stateMutability": "nonpayable",
      "type": "function"
    },
    {
      "inputs": [
        {
          "internalType": "address",
          "name": "account",
          "type": "address"
        }
      ],
      "name": "addPauser",
      "outputs": [],
      "stateMutability": "nonpayable",
      "type": "function"
    },
    {
      "inputs": [],
      "name": "allowTokens",
      "outputs": [
        {
          "internalType": "contract IAllowTokens",
          "name": "",
          "type": "address"
        }
      ],
      "stateMutability": "view",
      "type": "function"
    },
    {
      "inputs": [
        {
          "internalType": "address",
          "name": "newAllowTokens",
          "type": "address"
        }
      ],
      "name": "changeAllowTokens",
      "outputs": [],
      "stateMutability": "nonpayable",
      "type": "function"
    },
    {
      "inputs": [
        {
          "internalType": "address",
          "name": "newFederation",
          "type": "address"
        }
      ],
      "name": "changeFederation",
      "outputs": [],
      "stateMutability": "nonpayable",
      "type": "function"
    },
    {
      "inputs": [
        {
          "internalType": "address",
          "name": "newSideTokenFactory",
          "type": "address"
        }
      ],
      "name": "changeSideTokenFactory",
      "outputs": [],
      "stateMutability": "nonpayable",
      "type": "function"
    },
    {
      "inputs": [
        {
          "components": [
            {
              "internalType": "address payable",
              "name": "to",
              "type": "address"
            },
            {
              "internalType": "uint256",
              "name": "amount",
              "type": "uint256"
            },
            {
              "internalType": "bytes32",
              "name": "blockHash",
              "type": "bytes32"
            },
            {
              "internalType": "bytes32",
              "name": "transactionHash",
              "type": "bytes32"
            },
            {
              "internalType": "uint32",
              "name": "logIndex",
              "type": "uint32"
            }
          ],
          "internalType": "struct IBridge.ClaimData",
          "name": "_claimData",
          "type": "tuple"
        }
      ],
      "name": "claim",
      "outputs": [
        {
          "internalType": "uint256",
          "name": "receivedAmount",
          "type": "uint256"
        }
      ],
      "stateMutability": "nonpayable",
      "type": "function"
    },
    {
      "inputs": [
        {
          "components": [
            {
              "internalType": "address payable",
              "name": "to",
              "type": "address"
            },
            {
              "internalType": "uint256",
              "name": "amount",
              "type": "uint256"
            },
            {
              "internalType": "bytes32",
              "name": "blockHash",
              "type": "bytes32"
            },
            {
              "internalType": "bytes32",
              "name": "transactionHash",
              "type": "bytes32"
            },
            {
              "internalType": "uint32",
              "name": "logIndex",
              "type": "uint32"
            }
          ],
          "internalType": "struct IBridge.ClaimData",
          "name": "_claimData",
          "type": "tuple"
        }
      ],
      "name": "claimFallback",
      "outputs": [
        {
          "internalType": "uint256",
          "name": "receivedAmount",
          "type": "uint256"
        }
      ],
      "stateMutability": "nonpayable",
      "type": "function"
    },
    {
      "inputs": [
        {
          "components": [
            {
              "internalType": "address payable",
              "name": "to",
              "type": "address"
            },
            {
              "internalType": "uint256",
              "name": "amount",
              "type": "uint256"
            },
            {
              "internalType": "bytes32",
              "name": "blockHash",
              "type": "bytes32"
            },
            {
              "internalType": "bytes32",
              "name": "transactionHash",
              "type": "bytes32"
            },
            {
              "internalType": "uint32",
              "name": "logIndex",
              "type": "uint32"
            }
          ],
          "internalType": "struct IBridge.ClaimData",
          "name": "_claimData",
          "type": "tuple"
        },
        {
          "internalType": "address payable",
          "name": "_relayer",
          "type": "address"
        },
        {
          "internalType": "uint256",
          "name": "_fee",
          "type": "uint256"
        },
        {
          "internalType": "uint256",
          "name": "_deadline",
          "type": "uint256"
        },
        {
          "internalType": "uint8",
          "name": "_v",
          "type": "uint8"
        },
        {
          "internalType": "bytes32",
          "name": "_r",
          "type": "bytes32"
        },
        {
          "internalType": "bytes32",
          "name": "_s",
          "type": "bytes32"
        }
      ],
      "name": "claimGasless",
      "outputs": [
        {
          "internalType": "uint256",
          "name": "receivedAmount",
          "type": "uint256"
        }
      ],
      "stateMutability": "nonpayable",
      "type": "function"
    },
    {
      "inputs": [
        {
          "internalType": "bytes32",
          "name": "",
          "type": "bytes32"
        }
      ],
      "name": "claimed",
      "outputs": [
        {
          "internalType": "bool",
          "name": "",
          "type": "bool"
        }
      ],
      "stateMutability": "view",
      "type": "function"
    },
    {
      "inputs": [
        {
          "internalType": "uint256",
          "name": "_typeId",
          "type": "uint256"
        },
        {
          "internalType": "address",
          "name": "_originalTokenAddress",
          "type": "address"
        },
        {
          "internalType": "uint8",
          "name": "_originalTokenDecimals",
          "type": "uint8"
        },
        {
          "internalType": "string",
          "name": "_originalTokenSymbol",
          "type": "string"
        },
        {
          "internalType": "string",
          "name": "_originalTokenName",
          "type": "string"
        }
      ],
      "name": "createSideToken",
      "outputs": [],
      "stateMutability": "nonpayable",
      "type": "function"
    },
    {
      "inputs": [
        {
          "internalType": "address",
          "name": "to",
          "type": "address"
        }
      ],
      "name": "depositTo",
      "outputs": [],
      "stateMutability": "payable",
      "type": "function"
    },
    {
      "inputs": [],
      "name": "domainSeparator",
      "outputs": [
        {
          "internalType": "bytes32",
          "name": "",
          "type": "bytes32"
        }
      ],
      "stateMutability": "view",
      "type": "function"
    },
    {
      "inputs": [],
      "name": "feePercentageDivider",
      "outputs": [
        {
          "internalType": "uint256",
          "name": "",
          "type": "uint256"
        }
      ],
      "stateMutability": "view",
      "type": "function"
    },
    {
      "inputs": [],
      "name": "getFederation",
      "outputs": [
        {
          "internalType": "address",
          "name": "",
          "type": "address"
        }
      ],
      "stateMutability": "view",
      "type": "function"
    },
    {
      "inputs": [],
      "name": "getFeePercentage",
      "outputs": [
        {
          "internalType": "uint256",
          "name": "",
          "type": "uint256"
        }
      ],
      "stateMutability": "view",
      "type": "function"
    },
    {
      "inputs": [
        {
          "internalType": "address",
          "name": "_to",
          "type": "address"
        },
        {
          "internalType": "uint256",
          "name": "_amount",
          "type": "uint256"
        },
        {
          "internalType": "bytes32",
          "name": "_blockHash",
          "type": "bytes32"
        },
        {
          "internalType": "bytes32",
          "name": "_transactionHash",
          "type": "bytes32"
        },
        {
          "internalType": "uint32",
          "name": "_logIndex",
          "type": "uint32"
        }
      ],
      "name": "getTransactionDataHash",
      "outputs": [
        {
          "internalType": "bytes32",
          "name": "",
          "type": "bytes32"
        }
      ],
      "stateMutability": "pure",
      "type": "function"
    },
    {
      "inputs": [
        {
          "internalType": "bytes32",
          "name": "transactionHash",
          "type": "bytes32"
        }
      ],
      "name": "hasBeenClaimed",
      "outputs": [
        {
          "internalType": "bool",
          "name": "",
          "type": "bool"
        }
      ],
      "stateMutability": "view",
      "type": "function"
    },
    {
      "inputs": [
        {
          "internalType": "bytes32",
          "name": "transactionHash",
          "type": "bytes32"
        }
      ],
      "name": "hasCrossed",
      "outputs": [
        {
          "internalType": "bool",
          "name": "",
          "type": "bool"
        }
      ],
      "stateMutability": "view",
      "type": "function"
    },
    {
      "inputs": [],
      "name": "initDomainSeparator",
      "outputs": [],
      "stateMutability": "nonpayable",
      "type": "function"
    },
    {
      "inputs": [
        {
          "internalType": "address",
          "name": "_manager",
          "type": "address"
        },
        {
          "internalType": "address",
          "name": "_federation",
          "type": "address"
        },
        {
          "internalType": "address",
          "name": "_allowTokens",
          "type": "address"
        },
        {
          "internalType": "address",
          "name": "_sideTokenFactory",
          "type": "address"
        },
        {
          "internalType": "string",
          "name": "_symbolPrefix",
          "type": "string"
        }
      ],
      "name": "initialize",
      "outputs": [],
      "stateMutability": "nonpayable",
      "type": "function"
    },
    {
      "inputs": [],
      "name": "initialize",
      "outputs": [],
      "stateMutability": "nonpayable",
      "type": "function"
    },
    {
      "inputs": [
        {
          "internalType": "address",
          "name": "sender",
          "type": "address"
        }
      ],
      "name": "initialize",
      "outputs": [],
      "stateMutability": "nonpayable",
      "type": "function"
    },
    {
      "inputs": [],
      "name": "isOwner",
      "outputs": [
        {
          "internalType": "bool",
          "name": "",
          "type": "bool"
        }
      ],
      "stateMutability": "view",
      "type": "function"
    },
    {
      "inputs": [
        {
          "internalType": "address",
          "name": "account",
          "type": "address"
        }
      ],
      "name": "isPauser",
      "outputs": [
        {
          "internalType": "bool",
          "name": "",
          "type": "bool"
        }
      ],
      "stateMutability": "view",
      "type": "function"
    },
    {
      "inputs": [],
      "name": "isUpgrading",
      "outputs": [
        {
          "internalType": "bool",
          "name": "",
          "type": "bool"
        }
      ],
      "stateMutability": "view",
      "type": "function"
    },
    {
      "inputs": [
        {
          "internalType": "address",
          "name": "",
          "type": "address"
        }
      ],
      "name": "knownTokens",
      "outputs": [
        {
          "internalType": "bool",
          "name": "",
          "type": "bool"
        }
      ],
      "stateMutability": "view",
      "type": "function"
    },
    {
      "inputs": [
        {
          "internalType": "address",
          "name": "",
          "type": "address"
        }
      ],
      "name": "mappedTokens",
      "outputs": [
        {
          "internalType": "address",
          "name": "",
          "type": "address"
        }
      ],
      "stateMutability": "view",
      "type": "function"
    },
    {
      "inputs": [
        {
          "internalType": "address",
          "name": "",
          "type": "address"
        }
      ],
      "name": "nonces",
      "outputs": [
        {
          "internalType": "uint256",
          "name": "",
          "type": "uint256"
        }
      ],
      "stateMutability": "view",
      "type": "function"
    },
    {
      "inputs": [
        {
          "internalType": "bytes32",
          "name": "",
          "type": "bytes32"
        }
      ],
      "name": "originalTokenAddresses",
      "outputs": [
        {
          "internalType": "address",
          "name": "",
          "type": "address"
        }
      ],
      "stateMutability": "view",
      "type": "function"
    },
    {
      "inputs": [
        {
          "internalType": "address",
          "name": "",
          "type": "address"
        }
      ],
      "name": "originalTokens",
      "outputs": [
        {
          "internalType": "address",
          "name": "",
          "type": "address"
        }
      ],
      "stateMutability": "view",
      "type": "function"
    },
    {
      "inputs": [],
      "name": "owner",
      "outputs": [
        {
          "internalType": "address",
          "name": "",
          "type": "address"
        }
      ],
      "stateMutability": "view",
      "type": "function"
    },
    {
      "inputs": [],
      "name": "pause",
      "outputs": [],
      "stateMutability": "nonpayable",
      "type": "function"
    },
    {
      "inputs": [],
      "name": "paused",
      "outputs": [
        {
          "internalType": "bool",
          "name": "",
          "type": "bool"
        }
      ],
      "stateMutability": "view",
      "type": "function"
    },
    {
      "inputs": [
        {
          "internalType": "address",
          "name": "tokenToUse",
          "type": "address"
        },
        {
          "internalType": "address",
          "name": "to",
          "type": "address"
        },
        {
          "internalType": "uint256",
          "name": "amount",
          "type": "uint256"
        }
      ],
      "name": "receiveTokensTo",
      "outputs": [],
      "stateMutability": "nonpayable",
      "type": "function"
    },
    {
      "inputs": [],
      "name": "renounceOwnership",
      "outputs": [],
      "stateMutability": "nonpayable",
      "type": "function"
    },
    {
      "inputs": [],
      "name": "renouncePauser",
      "outputs": [],
      "stateMutability": "nonpayable",
      "type": "function"
    },
    {
      "inputs": [
        {
          "internalType": "bytes32",
          "name": "",
          "type": "bytes32"
        }
      ],
      "name": "senderAddresses",
      "outputs": [
        {
          "internalType": "address",
          "name": "",
          "type": "address"
        }
      ],
      "stateMutability": "view",
      "type": "function"
    },
    {
      "inputs": [
        {
          "internalType": "uint256",
          "name": "amount",
          "type": "uint256"
        }
      ],
      "name": "setFeePercentage",
      "outputs": [],
      "stateMutability": "nonpayable",
      "type": "function"
    },
    {
      "inputs": [
        {
          "internalType": "bool",
          "name": "_isUpgrading",
          "type": "bool"
        }
      ],
      "name": "setUpgrading",
      "outputs": [],
      "stateMutability": "nonpayable",
      "type": "function"
    },
    {
      "inputs": [
        {
          "internalType": "address",
          "name": "_wrappedCurrency",
          "type": "address"
        }
      ],
      "name": "setWrappedCurrency",
      "outputs": [],
      "stateMutability": "nonpayable",
      "type": "function"
    },
    {
      "inputs": [],
      "name": "sideTokenFactory",
      "outputs": [
        {
          "internalType": "contract ISideTokenFactory",
          "name": "",
          "type": "address"
        }
      ],
      "stateMutability": "view",
      "type": "function"
    },
    {
      "inputs": [],
      "name": "symbolPrefix",
      "outputs": [
        {
          "internalType": "string",
          "name": "",
          "type": "string"
        }
      ],
      "stateMutability": "view",
      "type": "function"
    },
    {
      "inputs": [
        {
          "internalType": "address",
          "name": "operator",
          "type": "address"
        },
        {
          "internalType": "address",
          "name": "from",
          "type": "address"
        },
        {
          "internalType": "address",
          "name": "to",
          "type": "address"
        },
        {
          "internalType": "uint256",
          "name": "amount",
          "type": "uint256"
        },
        {
          "internalType": "bytes",
          "name": "userData",
          "type": "bytes"
        },
        {
          "internalType": "bytes",
          "name": "",
          "type": "bytes"
        }
      ],
      "name": "tokensReceived",
      "outputs": [],
      "stateMutability": "nonpayable",
      "type": "function"
    },
    {
      "inputs": [
        {
          "internalType": "bytes32",
          "name": "",
          "type": "bytes32"
        }
      ],
      "name": "transactionsDataHashes",
      "outputs": [
        {
          "internalType": "bytes32",
          "name": "",
          "type": "bytes32"
        }
      ],
      "stateMutability": "view",
      "type": "function"
    },
    {
      "inputs": [
        {
          "internalType": "address",
          "name": "newOwner",
          "type": "address"
        }
      ],
      "name": "transferOwnership",
      "outputs": [],
      "stateMutability": "nonpayable",
      "type": "function"
    },
    {
      "inputs": [],
      "name": "unpause",
      "outputs": [],
      "stateMutability": "nonpayable",
      "type": "function"
    },
    {
      "inputs": [],
      "name": "version",
      "outputs": [
        {
          "internalType": "string",
          "name": "",
          "type": "string"
        }
      ],
      "stateMutability": "pure",
      "type": "function"
    },
    {
      "inputs": [],
      "name": "wrappedCurrency",
      "outputs": [
        {
          "internalType": "contract IWrapped",
          "name": "",
          "type": "address"
        }
      ],
      "stateMutability": "view",
      "type": "function"
    },
    {
      "stateMutability": "payable",
      "type": "receive"
    }
  ],
  "transactionHash": "0x7111b46dbf037ef022e30d1a6cd54d8ca58737e3e950ace1a53c001ada1c2075",
  "args": [],
  "solcInputHash": "f57b3a626f709a0447a665aac92698b7",
  "bytecode": "0x608060405234801561001057600080fd5b506141d0806100206000396000f3fe6080604052600436106103025760003560e01c80638456cb5911610190578063c4d66de8116100dc578063e6fc774411610095578063f2fde38b1161006f578063f2fde38b146108b0578063f698da25146108d0578063f74032f0146108e5578063fa0caa16146109055761034c565b8063e6fc774414610866578063ea2170911461087b578063eb16136f146108905761034c565b8063c4d66de8146107b1578063ca07140c146107d1578063cc3c0f06146107f1578063d12e825d14610811578063da67703714610826578063e6ede14d146108465761034c565b8063ae06c1b711610149578063b50277bb11610123578063b50277bb14610754578063b760faf914610774578063b794726214610787578063b86f60d21461079c5761034c565b8063ae06c1b7146106ff578063afad80ac1461071f578063b0e1268e1461073f5761034c565b80638456cb591461066b5780638da5cb5b146106805780638f32d59b14610695578063916dc59d146106aa578063a53d6e6e146106ca578063adc5fb64146106df5761034c565b80634beea5061161024f5780636b0509b1116102085780637813bea2116101e25780637813bea2146105f65780637ecebe00146106165780638129fc1c1461063657806382dc1ec41461064b5761034c565b80636b0509b1146105b75780636ef8d66d146105cc578063715018a6146105e15761034c565b80634beea5061461050b57806354fd4d501461052b57806359a8a8671461054d5780635c975abb146105625780635d447129146105775780636a863191146105975761034c565b80632fb3b361116102bc5780633cf3058b116102965780633cf3058b146104895780633f4ba83a146104b657806342cdb2c6146104cb57806346fbf68e146104eb5761034c565b80632fb3b3611461041c5780633500c1dc1461043c57806337e761091461045c5761034c565b806223de2914610351578063026976191461037157806307c8f7b0146103a757806311efbf61146103c757806320e3bb00146103dc5780632f3cca4e146103fc5761034c565b3661034c576041546001600160a01b031661031b610925565b6001600160a01b03161461034a5760405162461bcd60e51b815260040161034190613e39565b60405180910390fd5b005b600080fd5b34801561035d57600080fd5b5061034a61036c3660046130c0565b610929565b34801561037d57600080fd5b5061039161038c366004613237565b610b20565b60405161039e9190613693565b60405180910390f35b3480156103b357600080fd5b5061034a6103c23660046131ff565b610b32565b3480156103d357600080fd5b50610391610bb0565b3480156103e857600080fd5b5061034a6103f7366004613368565b610bb6565b34801561040857600080fd5b5061034a610417366004612f3e565b610df1565b34801561042857600080fd5b5061034a610437366004612fec565b610e7a565b34801561044857600080fd5b5061034a610457366004612f3e565b610fea565b34801561046857600080fd5b5061047c610477366004613237565b61107f565b60405161039e9190613688565b34801561049557600080fd5b506104a96104a4366004613237565b6110a4565b60405161039e919061351f565b3480156104c257600080fd5b5061034a6110bf565b3480156104d757600080fd5b5061034a6104e6366004612f3e565b611152565b3480156104f757600080fd5b5061047c610506366004612f3e565b6111e5565b34801561051757600080fd5b5061039161052636600461326a565b6111f8565b34801561053757600080fd5b50610540611312565b60405161039e919061374f565b34801561055957600080fd5b5061054061132e565b34801561056e57600080fd5b5061047c6113bc565b34801561058357600080fd5b5061047c610592366004612f3e565b6113c5565b3480156105a357600080fd5b5061034a6105b2366004612f76565b6113da565b3480156105c357600080fd5b5061039161163e565b3480156105d857600080fd5b5061034a611662565b3480156105ed57600080fd5b5061034a611674565b34801561060257600080fd5b5061034a61061136600461316e565b6116e8565b34801561062257600080fd5b50610391610631366004612f3e565b61172b565b34801561064257600080fd5b5061034a61173d565b34801561065757600080fd5b5061034a610666366004612f3e565b6117b7565b34801561067757600080fd5b5061034a6117e7565b34801561068c57600080fd5b506104a9611867565b3480156106a157600080fd5b5061047c61187b565b3480156106b657600080fd5b5061034a6106c5366004612f3e565b6118a6565b3480156106d657600080fd5b506104a961193b565b3480156106eb57600080fd5b506103916106fa36600461324f565b61194a565b34801561070b57600080fd5b5061034a61071a366004613237565b6119a9565b34801561072b57600080fd5b5061039161073a3660046131ae565b611a23565b34801561074b57600080fd5b506104a9611a5f565b34801561076057600080fd5b5061039161076f36600461324f565b611a6e565b61034a610782366004612f3e565b611a81565b34801561079357600080fd5b5061047c611b50565b3480156107a857600080fd5b506104a9611b60565b3480156107bd57600080fd5b5061034a6107cc366004612f3e565b611b6f565b3480156107dd57600080fd5b506104a96107ec366004613237565b611c3a565b3480156107fd57600080fd5b5061047c61080c366004613237565b611c55565b34801561081d57600080fd5b5061034a611c6a565b34801561083257600080fd5b5061047c610841366004613237565b611cc2565b34801561085257600080fd5b506104a9610861366004612f3e565b611cd6565b34801561087257600080fd5b50610391611cf1565b34801561088757600080fd5b506104a9611cf7565b34801561089c57600080fd5b5061034a6108ab366004612f3e565b611d06565b3480156108bc57600080fd5b5061034a6108cb366004612f3e565b611d91565b3480156108dc57600080fd5b50610391611dbe565b3480156108f157600080fd5b506104a9610900366004612f3e565b611dc4565b34801561091157600080fd5b5061034a610920366004612f3e565b611ddf565b3390565b6001600160a01b03881630141561093f57610b16565b6001600160a01b03861630146109675760405162461bcd60e51b815260040161034190613b0d565b6000610971610925565b60405163555ddc6560e11b8152909150600090731820a4b7618bde71dce8cdc73aab6c95905fad249063aabbb8ca906109d09085907fac7fbab5f54a3ca8194167523c6753bfeb96a445279294b6125b68cce217705490600401613627565b60206040518083038186803b1580156109e857600080fd5b505afa1580156109fc573d6000803e3d6000fd5b505050506040513d601f19601f82011682018060405250810190610a209190612f5a565b6001600160a01b03161415610a475760405162461bcd60e51b815260040161034190613f0e565b83151580610a645750610a62886001600160a01b0316611e7a565b155b610a805760405162461bcd60e51b815260040161034190613b74565b60008415610acc57610ac786868080601f016020809104026020016040519081016040528093929190818152602001838380828437600092019190915250611e8092505050565b610ace565b885b9050610b13828a838a8a8a8080601f016020809104026020016040519081016040528093929190818152602001838380828437600092019190915250611e8792505050565b50505b5050505050505050565b60426020526000908152604090205481565b610b3a61187b565b610b565760405162461bcd60e51b815260040161034190613d8b565b6040805460ff60a01b1916600160a01b83151581029190911780835591517f983e436223c000a441c2443b394ca5fb4669a513fe86dc1dd44494047b514ad992610ba59260ff91041690613688565b60405180910390a150565b60375490565b610bbe61187b565b610bda5760405162461bcd60e51b815260040161034190613d8b565b6001600160a01b038616610c005760405162461bcd60e51b815260040161034190613d5f565b6001600160a01b038087166000908152603b6020526040902054168015610c395760405162461bcd60e51b81526004016103419061402f565b6000610c448761213a565b9050600060388787604051602001610c5e939291906134a6565b60408051601f1981840301815282825290546326d9e96360e01b83529092506001600160a01b0316906326d9e96390610ca1908890889086908890600401613700565b602060405180830381600087803b158015610cbb57600080fd5b505af1158015610ccf573d6000803e3d6000fd5b505050506040513d601f19601f82011682018060405250810190610cf39190612f5a565b6001600160a01b03808b166000818152603b6020908152604080832080548688166001600160a01b03199182168117909255908452603c909252918290208054909116909217909155603f5490516378bf2b5360e01b815292955016906378bf2b5390610d669086908e90600401613627565b600060405180830381600087803b158015610d8057600080fd5b505af1158015610d94573d6000803e3d6000fd5b50505050886001600160a01b0316836001600160a01b03167f2ef93c4e96a4ef0b19497ff60c9e7360a8734f3d2cd27ae5318e43851734d17f8385604051610ddd929190613762565b60405180910390a350505050505050505050565b600054610100900460ff1680610e0a575060005460ff16155b610e265760405162461bcd60e51b8152600401610341906139bd565b600054610100900460ff16158015610e51576000805460ff1961ff0019909116610100171660011790555b610e5a82611d06565b6034805460ff191690558015610e76576000805461ff00191690555b5050565b600054610100900460ff1680610e93575060005460ff16155b610eaf5760405162461bcd60e51b8152600401610341906139bd565b600054610100900460ff16158015610eda576000805460ff1961ff0019909116610100171660011790555b610ee386611b6f565b610eec86610df1565b8151610eff906038906020850190612e1a565b50603f80546001600160a01b038087166001600160a01b031992831617909255604080548684169083161781556036805493891693909216929092179055516329965a1d60e01b8152731820a4b7618bde71dce8cdc73aab6c95905fad24906329965a1d90610f969030907fb281fc8c12954d22544db45de3159a39272895b169a852b314f9cc762e44c53b908290600401613533565b600060405180830381600087803b158015610fb057600080fd5b505af1158015610fc4573d6000803e3d6000fd5b50505050610fd0611c6a565b8015610fe2576000805461ff00191690555b505050505050565b610ff261187b565b61100e5760405162461bcd60e51b815260040161034190613d8b565b6001600160a01b0381166110345760405162461bcd60e51b815260040161034190613aae565b604180546001600160a01b0319166001600160a01b0383161790556040517f0966c958966f6fac9ff807af074f8117eb2e9ce2b76390db7a158e9bdeb2485c90610ba590839061351f565b6000818152604260209081526040808320548352603e90915290205460ff165b919050565b6044602052600090815260409020546001600160a01b031681565b6110ca610506610925565b6110e65760405162461bcd60e51b815260040161034190613a05565b60345460ff166111085760405162461bcd60e51b8152600401610341906137c9565b6034805460ff191690557f5db9ee0a495bf2e6ff9c91a7834c1ba4fdd244a5e8aa4e537bd38aeae4b073aa61113b610925565b604051611148919061351f565b60405180910390a1565b61115a61187b565b6111765760405162461bcd60e51b815260040161034190613d8b565b6001600160a01b03811661119c5760405162461bcd60e51b815260040161034190613ca6565b604080546001600160a01b0319166001600160a01b038316178155517f619936bc6e3618d0b8dc69bcc70134fe9d88f9967f3a8b8304e318369252162590610ba590839061351f565b60006111f260338361216d565b92915050565b60004285101561121a5760405162461bcd60e51b815260040161034190613c7d565b600061123661122e368b90038b018b6132da565b8989896121b5565b905060006001828787876040516000815260200160405260405161125d94939291906136e2565b6020604051602081039080840390855afa15801561127f573d6000803e3d6000fd5b5050604051601f19015191506000905061129c60208c018c612f3e565b6001600160a01b0316141580156112d057506112bb60208b018b612f3e565b6001600160a01b0316816001600160a01b0316145b6112ec5760405162461bcd60e51b815260040161034190613a4d565b6113048a6112fd6020820182612f3e565b8b8b61224a565b9a9950505050505050505050565b604080518082019091526002815261763360f01b602082015290565b6038805460408051602060026001851615610100026000190190941693909304601f810184900484028201840190925281815292918301828280156113b45780601f10611389576101008083540402835291602001916113b4565b820191906000526020600020905b81548152906001019060200180831161139757829003601f168201915b505050505081565b60345460ff1690565b603d6020526000908152604090205460ff1681565b60345460ff16156113fd5760405162461bcd60e51b815260040161034190613c1c565b60358054600101908190556036546001600160a01b031661141c610925565b6001600160a01b0316146114425760405162461bcd60e51b815260040161034190613b44565b6001600160a01b0388166000908152603d602052604090205460ff168061148257506001600160a01b038881166000908152603b60205260409020541615155b61149e5760405162461bcd60e51b815260040161034190613ade565b6001600160a01b0386166114c45760405162461bcd60e51b815260040161034190613bf3565b600085116114e45760405162461bcd60e51b815260040161034190613a84565b836115015760405162461bcd60e51b815260040161034190613ea7565b8261151e5760405162461bcd60e51b815260040161034190613926565b6000838152604260205260409020541561154a5760405162461bcd60e51b815260040161034190613e70565b60006115598787878787611a23565b6000818152603e602052604090205490915060ff161561158b5760405162461bcd60e51b815260040161034190613e02565b60008481526042602090815260408083208490556043825280832080546001600160a01b03199081166001600160a01b038f811691821790935560449094529382902080549094168c821617909355519189169186907f2858b8803acb87882fd2de49ce7572ae3e741fb8073cbe772fa50ce00bdfba2290611614908d908c908c908b90613556565b60405180910390a4506035548114610b165760405162461bcd60e51b815260040161034190613784565b7ff18ceda3f6355f78c234feba066041a50f6557bfb600201e2a71a89e2dd8043381565b61167261166d610925565b612463565b565b61167c61187b565b6116985760405162461bcd60e51b815260040161034190613d8b565b60345460405160009161010090046001600160a01b0316907f8be0079c531659141344cd1fd0a4f28419497f9722a3daafe3b4186f6b6457e0908390a360348054610100600160a81b0319169055565b60006116f2610925565b90506117096001600160a01b0385168230856124a5565b6117258482858560405180602001604052806000815250611e87565b50505050565b60456020526000908152604090205481565b600054610100900460ff1680611756575060005460ff16155b6117725760405162461bcd60e51b8152600401610341906139bd565b600054610100900460ff1615801561179d576000805460ff1961ff0019909116610100171660011790555b600160355580156117b4576000805461ff00191690555b50565b6117c2610506610925565b6117de5760405162461bcd60e51b815260040161034190613a05565b6117b4816124fd565b6117f2610506610925565b61180e5760405162461bcd60e51b815260040161034190613a05565b60345460ff16156118315760405162461bcd60e51b815260040161034190613c1c565b6034805460ff191660011790557f62e78cea01bee320cd4e420270b5ea74000d11b0c9f74754ebdbfc544b05a25861113b610925565b60345461010090046001600160a01b031690565b60345460009061010090046001600160a01b0316611897610925565b6001600160a01b031614905090565b6118ae61187b565b6118ca5760405162461bcd60e51b815260040161034190613d8b565b6001600160a01b0381166118f05760405162461bcd60e51b815260040161034190613ed7565b603f80546001600160a01b0319166001600160a01b0383161790556040517f5f2c1fe803fd576d8af05ea156011cc9cc8c025bda24c1e85772fc05a0b3f1e390610ba590839061351f565b603f546001600160a01b031681565b60608101356000908152604460205260408120546001600160a01b031661196f610925565b6001600160a01b0316146119955760405162461bcd60e51b8152600401610341906138f6565b6111f2826119a1610925565b60008061224a565b6119b161187b565b6119cd5760405162461bcd60e51b815260040161034190613d8b565b6103e881106119ee5760405162461bcd60e51b81526004016103419061405f565b60378190556040517f97e97c577f03bda90e2c9739011ec065ed5fbfb36ae217d20bb0d9be95e160cd90610ba5908390613693565b60008383878785604051602001611a3e959493929190613448565b60405160208183030381529060405280519060200120905095945050505050565b6041546001600160a01b031681565b60006111f2826119a16020820182612f3e565b6000611a8b610925565b6041549091506001600160a01b0316611ab65760405162461bcd60e51b815260040161034190613c46565b604160009054906101000a90046001600160a01b03166001600160a01b031663d0e30db0346040518263ffffffff1660e01b81526004016000604051808303818588803b158015611b0657600080fd5b505af1158015611b1a573d6000803e3d6000fd5b5050505050610e76604160009054906101000a90046001600160a01b031682843460405180602001604052806000815250611e87565b604054600160a01b900460ff1681565b6040546001600160a01b031681565b600054610100900460ff1680611b88575060005460ff16155b611ba45760405162461bcd60e51b8152600401610341906139bd565b600054610100900460ff16158015611bcf576000805460ff1961ff0019909116610100171660011790555b60348054610100600160a81b0319166101006001600160a01b0385811682029290921792839055604051920416906000907f8be0079c531659141344cd1fd0a4f28419497f9722a3daafe3b4186f6b6457e0908290a38015610e76576000805461ff00191690555050565b6043602052600090815260409020546001600160a01b031681565b603e6020526000908152604090205460ff1681565b6000469050611cbc6040518060400160405280601081526020016f52534b20546f6b656e2042726964676560801b815250604051806040016040528060018152602001603160f81b815250833061253f565b60395550565b600090815260426020526040902054151590565b603b602052600090815260409020546001600160a01b031681565b61271081565b6036546001600160a01b031690565b600054610100900460ff1680611d1f575060005460ff16155b611d3b5760405162461bcd60e51b8152600401610341906139bd565b600054610100900460ff16158015611d66576000805460ff1961ff0019909116610100171660011790555b611d6f826111e5565b611d7c57611d7c826124fd565b8015610e76576000805461ff00191690555050565b611d9961187b565b611db55760405162461bcd60e51b815260040161034190613d8b565b6117b481612596565b60395481565b603c602052600090815260409020546001600160a01b031681565b611de761187b565b611e035760405162461bcd60e51b815260040161034190613d8b565b6001600160a01b038116611e295760405162461bcd60e51b81526004016103419061385d565b603680546001600160a01b0319166001600160a01b0383811691909117918290556040517f4a41a4d11aaf0c0c9e4311ac1d68b2b0134556da594779a2a35b0ddf7cd1eafb92610ba592169061351f565b3b151590565b6014015190565b604054600160a01b900460ff1615611eb15760405162461bcd60e51b8152600401610341906138cb565b60345460ff1615611ed45760405162461bcd60e51b815260040161034190613c1c565b603580546001908101918290556001600160a01b0387166000908152603d60205260408120805460ff1916909217909155603754611f219061271090611f1b908790612623565b90612664565b90506000611f2f85836126a6565b90506000611f3c896126e8565b905085601260ff831614611f6157611f5e8760ff601285900316600a0a612623565b90505b603f54604051638c34bc5560e01b81526001600160a01b0390911690638c34bc5590611f93908d908590600401613627565b600060405180830381600087803b158015611fad57600080fd5b505af1158015611fc1573d6000803e3d6000fd5b5050506001600160a01b03808c166000908152603c60205260409020548c9250161561209b57506001600160a01b03808b166000908152603c60205260408120549091169061200f8c6127ac565b9050600061201d8683612854565b90506120298782612896565b965061203586826126a6565b60405163fe9d930360e01b81529096506001600160a01b038e169063fe9d9303906120669089908d9060040161410e565b600060405180830381600087803b15801561208057600080fd5b505af1158015612094573d6000803e3d6000fd5b5050505050505b886001600160a01b03168a6001600160a01b0316826001600160a01b03167f1e90de9ae4d02420648a650f45f089a1be18fbca324092544ea626f9833212b0878b6040516120ea92919061410e565b60405180910390a4841561211457612114612103611867565b6001600160a01b038d1690876128bb565b50505050506035548114610fe25760405162461bcd60e51b815260040161034190613784565b600060128260ff1611156121605760405162461bcd60e51b815260040161034190613ce7565b5060120360ff16600a0a90565b60006001600160a01b0382166121955760405162461bcd60e51b815260040161034190613dc0565b506001600160a01b03166000908152602091909152604090205460ff1690565b603954845160208087015160608801516001600160a01b038416600090815260458452604080822080546001810190915590519196612241969095612226957ff18ceda3f6355f78c234feba066041a50f6557bfb600201e2a71a89e2dd8043395929490938d928d928d910161369c565b604051602081830303815290604052805190602001206128df565b95945050505050565b603580546001019081905560608501356000908152604360205260408120549091906001600160a01b0316806122925760405162461bcd60e51b815260040161034190613f45565b60006122c36122a460208a018a612f3e565b60208a013560408b013560608c013561073a60a08e0160808f01613402565b606089013560009081526042602052604090205490915081146122f85760405162461bcd60e51b8152600401610341906140cd565b6000818152603e602052604090205460ff16156123275760405162461bcd60e51b815260040161034190613e02565b6000818152603e60209081526040808320805460ff191660011790556001600160a01b0385168352603d90915290205460ff16156123775761237082888a6020013589896128fe565b935061238b565b61238882888a602001358989612a74565b93505b6123986020890189612f3e565b6001600160a01b0316826001600160a01b031689606001357f42b1cb6263e8da47edf0583516eda1de16f729d26282f5791dc5b7af1010e925604460008d60600135815260200190815260200160002060009054906101000a90046001600160a01b03168c602001358d604001358e60800160208101906124199190613402565b8e8e8e60405161242f9796959493929190613640565b60405180910390a45050603554811461245a5760405162461bcd60e51b815260040161034190613784565b50949350505050565b61246e603382612c0b565b6040516001600160a01b038216907fcd265ebaf09df2871cc7bd4133404a235ba12eff2041bb89d9c714a2621c7c7e90600090a250565b611725846323b872dd60e01b8585856040516024016124c693929190613603565b60408051601f198184030181529190526020810180516001600160e01b03166001600160e01b031990931692909217909152612c53565b612508603382612d37565b6040516001600160a01b038216907f6719d08c1888103bea251a4ed56406bd0c3e69723c8a1686e017e7bbe159b6f890600090a250565b8351602094850120835193850193909320604080517f8b73c3c69bb8fe3d512ecc4cf759cc79239f7b179b0ffacaa9a75d522b39400f815295860194909452928401929092526060830152608082015260a0902090565b6001600160a01b0381166125bc5760405162461bcd60e51b815260040161034190613fa3565b6034546040516001600160a01b0380841692610100900416907f8be0079c531659141344cd1fd0a4f28419497f9722a3daafe3b4186f6b6457e090600090a3603480546001600160a01b0390921661010002610100600160a81b0319909216919091179055565b600082612632575060006111f2565b8282028284828161263f57fe5b041461265d5760405162461bcd60e51b815260040161034190613d1e565b9392505050565b600061265d83836040518060400160405280601a81526020017f536166654d6174683a206469766973696f6e206279207a65726f000000000000815250612d83565b600061265d83836040518060400160405280601e81526020017f536166654d6174683a207375627472616374696f6e206f766572666c6f770000815250612dba565b60408051600481526024810182526020810180516001600160e01b031663313ce56760e01b1790529051600091829182916001600160a01b0386169161272e919061348a565b600060405180830381855afa9150503d8060008114612769576040519150601f19603f3d011682016040523d82523d6000602084013e61276e565b606091505b5091509150816127905760405162461bcd60e51b81526004016103419061382e565b808060200190518101906127a49190613350565b949350505050565b60408051600481526024810182526020810180516001600160e01b031663556f0dc760e01b1790529051600091829182916001600160a01b038616916127f2919061348a565b600060405180830381855afa9150503d806000811461282d576040519150601f19603f3d011682016040523d82523d6000602084013e612832565b606091505b5091509150816127905760405162461bcd60e51b815260040161034190613bbc565b600061265d83836040518060400160405280601881526020017f536166654d6174683a206d6f64756c6f206279207a65726f0000000000000000815250612de6565b60008282018381101561265d5760405162461bcd60e51b815260040161034190613894565b6128da8363a9059cbb60e01b84846040516024016124c6929190613627565b505050565b60405161190160f01b8152600281019290925260228201526042902090565b60008061290a876126e8565b60ff1690506000612922866012849003600a0a612664565b9050808411156129445760405162461bcd60e51b815260040161034190613f75565b60415484820393506001600160a01b0389811691161415612a3b57604154604051632e1a7d4d60e01b81526001600160a01b0390911690632e1a7d4d9061298f908490600401613693565b600060405180830381600087803b1580156129a957600080fd5b505af11580156129bd573d6000803e3d6000fd5b50506040516001600160a01b038a16925085156108fc02915085906000818181858888f193505050501580156129f7573d6000803e3d6000fd5b508315612a36576040516001600160a01b0386169085156108fc029086906000818181858888f19350505050158015612a34573d6000803e3d6000fd5b505b612a69565b612a4f6001600160a01b03891688856128bb565b8315612a6957612a696001600160a01b03891686866128bb565b505095945050505050565b6001600160a01b038086166000908152603b6020908152604080832054815163556f0dc760e01b81529151939416928492849263556f0dc79260048083019392829003018186803b158015612ac857600080fd5b505afa158015612adc573d6000803e3d6000fd5b505050506040513d601f19601f82011682018060405250810190612b009190613350565b90506000612b0e8783612623565b905080851115612b305760405162461bcd60e51b815260040161034190613f75565b604051630dcdc7dd60e41b815285820394506001600160a01b0384169063dcdc7dd090612b63908b9088906004016135cd565b600060405180830381600087803b158015612b7d57600080fd5b505af1158015612b91573d6000803e3d6000fd5b505050506000851115612bff57604051630dcdc7dd60e41b81526001600160a01b0384169063dcdc7dd090612bcc9089908990600401613582565b600060405180830381600087803b158015612be657600080fd5b505af1158015612bfa573d6000803e3d6000fd5b505050505b50505095945050505050565b612c15828261216d565b612c315760405162461bcd60e51b815260040161034190613953565b6001600160a01b0316600090815260209190915260409020805460ff19169055565b612c65826001600160a01b0316611e7a565b612c815760405162461bcd60e51b815260040161034190614096565b600080836001600160a01b031683604051612c9c919061348a565b6000604051808303816000865af19150503d8060008114612cd9576040519150601f19603f3d011682016040523d82523d6000602084013e612cde565b606091505b509150915081612d005760405162461bcd60e51b815260040161034190613988565b8051156117255780806020019051810190612d1b919061321b565b6117255760405162461bcd60e51b815260040161034190613fe5565b612d41828261216d565b15612d5e5760405162461bcd60e51b8152600401610341906137f7565b6001600160a01b0316600090815260209190915260409020805460ff19166001179055565b60008183612da45760405162461bcd60e51b8152600401610341919061374f565b506000838581612db057fe5b0495945050505050565b60008184841115612dde5760405162461bcd60e51b8152600401610341919061374f565b505050900390565b60008183612e075760405162461bcd60e51b8152600401610341919061374f565b50828481612e1157fe5b06949350505050565b828054600181600116156101000203166002900490600052602060002090601f016020900481019282612e505760008555612e96565b82601f10612e6957805160ff1916838001178555612e96565b82800160010185558215612e96579182015b82811115612e96578251825591602001919060010190612e7b565b50612ea2929150612ea6565b5090565b5b80821115612ea25760008155600101612ea7565b60008083601f840112612ecc578182fd5b50813567ffffffffffffffff811115612ee3578182fd5b602083019150836020828501011115612efb57600080fd5b9250929050565b600060a08284031215612f13578081fd5b50919050565b803563ffffffff8116811461109f57600080fd5b803560ff8116811461109f57600080fd5b600060208284031215612f4f578081fd5b813561265d81614177565b600060208284031215612f6b578081fd5b815161265d81614177565b600080600080600080600060e0888a031215612f90578283fd5b8735612f9b81614177565b96506020880135612fab81614177565b95506040880135612fbb81614177565b9450606088013593506080880135925060a08801359150612fde60c08901612f19565b905092959891949750929550565b600080600080600060a08688031215613003578081fd5b853561300e81614177565b945060208681013561301f81614177565b9450604087013561302f81614177565b9350606087013561303f81614177565b9250608087013567ffffffffffffffff8082111561305b578384fd5b818901915089601f83011261306e578384fd5b81358181111561307a57fe5b61308c601f8201601f19168501614127565b91508082528a848285010111156130a1578485fd5b8084840185840137810190920192909252949793965091945092919050565b60008060008060008060008060c0898b0312156130db578081fd5b88356130e681614177565b975060208901356130f681614177565b9650604089013561310681614177565b955060608901359450608089013567ffffffffffffffff80821115613129578283fd5b6131358c838d01612ebb565b909650945060a08b013591508082111561314d578283fd5b5061315a8b828c01612ebb565b999c989b5096995094979396929594505050565b600080600060608486031215613182578081fd5b833561318d81614177565b9250602084013561319d81614177565b929592945050506040919091013590565b600080600080600060a086880312156131c5578283fd5b85356131d081614177565b94506020860135935060408601359250606086013591506131f360808701612f19565b90509295509295909350565b600060208284031215613210578081fd5b813561265d8161418c565b60006020828403121561322c578081fd5b815161265d8161418c565b600060208284031215613248578081fd5b5035919050565b600060a08284031215613260578081fd5b61265d8383612f02565b6000806000806000806000610160888a031215613285578081fd5b61328f8989612f02565b965060a088013561329f81614177565b955060c0880135945060e088013593506132bc6101008901612f2d565b92506101208801359150610140880135905092959891949750929550565b600060a082840312156132eb578081fd5b60405160a0810181811067ffffffffffffffff8211171561330857fe5b604052823561331681614177565b8082525060208301356020820152604083013560408201526060830135606082015261334460808401612f19565b60808201529392505050565b600060208284031215613361578081fd5b5051919050565b600080600080600080600060a0888a031215613382578081fd5b87359650602088013561339481614177565b95506133a260408901612f2d565b9450606088013567ffffffffffffffff808211156133be578283fd5b6133ca8b838c01612ebb565b909650945060808a01359150808211156133e2578283fd5b506133ef8a828b01612ebb565b989b979a50959850939692959293505050565b600060208284031215613413578081fd5b61265d82612f19565b6000815180845261343481602086016020860161414b565b601f01601f19169290920160200192915050565b948552602085019390935260609190911b6bffffffffffffffffffffffff19166040840152605483015260e01b6001600160e01b031916607482015260780190565b6000825161349c81846020870161414b565b9190910192915050565b60008085546001808216600081146134c557600181146134dc5761350b565b60ff198316865260028304607f168601935061350b565b600283048986526020808720875b838110156135035781548a8201529085019082016134ea565b505050860193505b505050838582379092019182525092915050565b6001600160a01b0391909116815260200190565b6001600160a01b0393841681526020810192909252909116604082015260600190565b6001600160a01b039490941684526020840192909252604083015263ffffffff16606082015260800190565b6001600160a01b03929092168252602082015260806040820181905260009082015260a060608201819052600b908201526a72656c617965722066656560a81b60c082015260e00190565b6001600160a01b039290921682526020820152608060408201819052600090820181905260a06060830181905282015260c00190565b6001600160a01b039384168152919092166020820152604081019190915260600190565b6001600160a01b03929092168252602082015260400190565b6001600160a01b0397881681526020810196909652604086019490945263ffffffff9290921660608501528416608084015290921660a082015260c081019190915260e00190565b901515815260200190565b90815260200190565b9788526001600160a01b039687166020890152604088019590955260608701939093529316608085015260a084019290925260c083019190915260e08201526101000190565b93845260ff9290921660208401526040830152606082015260800190565b600060608252846060830152848660808401378060808684010152601f19601f8601168201608083820301602084015261373d608082018661341c565b91505082604083015295945050505050565b60006020825261265d602083018461341c565b600060408252613775604083018561341c565b90508260208301529392505050565b60208082526025908201527f5265656e7472616e637947756172643a206e6f207265656e7472616e7420616c6040820152641b1bddd95960da1b606082015260800190565b60208082526014908201527314185d5cd8589b194e881b9bdd081c185d5cd95960621b604082015260600190565b6020808252601f908201527f526f6c65733a206163636f756e7420616c72656164792068617320726f6c6500604082015260600190565b6020808252601590820152744c69625574696c733a204e6f20646563696d616c7360581b604082015260600190565b6020808252601b908201527f4272696467653a2046656465726174696f6e20697320656d7074790000000000604082015260600190565b6020808252601b908201527f536166654d6174683a206164646974696f6e206f766572666c6f770000000000604082015260600190565b6020808252601190820152704272696467653a20557067726164696e6760781b604082015260600190565b602080825260169082015275213934b233b29d1034b73b30b634b21039b2b73232b960511b604082015260600190565b602080825260139082015272084e4d2c8ceca74409cead8d840a8f090c2e6d606b1b604082015260600190565b6020808252818101527f526f6c65733a206163636f756e7420646f65736e2774206861766520726f6c65604082015260600190565b6020808252818101527f5361666545524332303a206c6f772d6c6576656c2063616c6c206661696c6564604082015260600190565b60208082526028908201527f436f6e747261637420696e7374616e636520697320616c726561647920696e696040820152671d1a585b1a5e995960c21b606082015260800190565b60208082526028908201527f506175736572526f6c653a2063616c6c657220646f65736e277420686176652060408201526774686520726f6c6560c01b606082015260800190565b60208082526019908201527f4272696467653a20494e56414c49445f5349474e415455524500000000000000604082015260600190565b60208082526010908201526f04272696467653a20416d6f756e7420360841b604082015260600190565b6020808252601690820152754272696467653a20777261707020697320656d70747960501b604082015260600190565b602080825260159082015274213934b233b29d102ab735b737bbb7103a37b5b2b760591b604082015260600190565b6020808252601b908201527f4272696467653a204e6f7420746f207468697320616464726573730000000000604082015260600190565b602080825260169082015275213934b233b29d102737ba102332b232b930ba34b7b760511b604082015260600190565b60208082526028908201527f4272696467653a2053706563696679207265636569766572206164647265737360408201526720696e206461746160c01b606082015260800190565b60208082526018908201527f4c69625574696c733a204e6f206772616e756c61726974790000000000000000604082015260600190565b6020808252600f908201526e4272696467653a204e756c6c20546f60881b604082015260600190565b60208082526010908201526f14185d5cd8589b194e881c185d5cd95960821b604082015260600190565b6020808252601d908201527f4272696467653a207772617070656443757272656e637920656d707479000000604082015260600190565b6020808252600f908201526e109c9a5919d94e8811561412549151608a1b604082015260600190565b60208082526021908201527f4272696467653a2053696465546f6b656e466163746f727920697320656d70746040820152607960f81b606082015260800190565b6020808252601c908201527f4c69625574696c733a20446563696d616c73206e6f74203c3d20313800000000604082015260600190565b60208082526021908201527f536166654d6174683a206d756c7469706c69636174696f6e206f766572666c6f6040820152607760f81b606082015260800190565b602080825260129082015271213934b233b29d10273ab636103a37b5b2b760711b604082015260600190565b6020808252818101527f4f776e61626c653a2063616c6c6572206973206e6f7420746865206f776e6572604082015260600190565b60208082526022908201527f526f6c65733a206163636f756e7420697320746865207a65726f206164647265604082015261737360f01b606082015260800190565b60208082526017908201527f4272696467653a20416c726561647920636c61696d6564000000000000000000604082015260600190565b6020808252601b908201527f4272696467653a206e6f74207772617070656443757272656e63790000000000604082015260600190565b60208082526018908201527f4272696467653a20416c72656164792061636365707465640000000000000000604082015260600190565b602080825260169082015275084e4d2c8ceca74409cead8d84084d8dec6d690c2e6d60531b604082015260600190565b6020808252601c908201527f4272696467653a20416c6c6f77546f6b656e7320697320656d70747900000000604082015260600190565b60208082526018908201527f4272696467653a204e6f742045524337373720746f6b656e0000000000000000604082015260600190565b602080825260169082015275109c9a5919d94e88151e081b9bdd0818dc9bdcdcd95960521b604082015260600190565b602080825260149082015273084e4d2c8ceca7440cccaca40e8dede40d0d2ced60631b604082015260600190565b60208082526022908201527f4f776e61626c653a206e6577206f776e6572206973207a65726f206164647265604082015261737360f01b606082015260800190565b6020808252602a908201527f5361666545524332303a204552433230206f7065726174696f6e20646964206e6040820152691bdd081cdd58d8d9595960b21b606082015260800190565b6020808252601690820152754272696467653a20416c72656164792065786973747360501b604082015260600190565b60208082526017908201527f4272696467653a20626967676572207468616e20313025000000000000000000604082015260600190565b6020808252601f908201527f5361666545524332303a2063616c6c20746f206e6f6e2d636f6e747261637400604082015260600190565b60208082526021908201527f4272696467653a2057726f6e67207472616e73616374696f6e446174614861736040820152600d60fb1b606082015260800190565b6000838252604060208301526127a4604083018461341c565b60405181810167ffffffffffffffff8111828210171561414357fe5b604052919050565b60005b8381101561416657818101518382015260200161414e565b838111156117255750506000910152565b6001600160a01b03811681146117b457600080fd5b80151581146117b457600080fdfea26469706673582212204c589b204ecd046fc7fe66efcbaa8add03eceef2a33bb84785a9a9e908cd5c5664736f6c63430007060033",
  "devdoc": {
    "kind": "dev",
    "methods": {
      "__Pausable_init(address)": {
        "details": "Initializes the contract in unpaused state. Assigns the Pauser role to the deployer."
      },
      "initialize(address)": {
        "details": "Initializes the contract setting the deployer as the initial owner."
      },
      "isOwner()": {
        "details": "Returns true if the caller is the current owner."
      },
      "owner()": {
        "details": "Returns the address of the current owner."
      },
      "pause()": {
        "details": "Called by a pauser to pause, triggers stopped state."
      },
      "paused()": {
        "details": "Returns true if the contract is paused, and false otherwise."
      },
      "renounceOwnership()": {
        "details": "Leaves the contract without owner. It will not be possible to call `onlyOwner` functions anymore. Can only be called by the current owner. > Note: Renouncing ownership will leave the contract without an owner, thereby removing any functionality that is only available to the owner."
      },
      "transferOwnership(address)": {
        "details": "Transfers ownership of the contract to a new account (`newOwner`). Can only be called by the current owner."
      },
      "unpause()": {
        "details": "Called by a pauser to unpause, returns to normal state."
      }
    },
    "version": 1
  },
  "userdoc": {
    "kind": "user",
    "methods": {
      "acceptTransfer(address,address,address,uint256,bytes32,bytes32,uint32)": {
        "notice": "Accepts the transaction from the other chain that was voted and sent by the Federation contract"
      },
      "claim((address,uint256,bytes32,bytes32,uint32))": {
        "notice": "Claims the crossed transaction using the hash, this sends the funds to the address indicated in"
      },
      "depositTo(address)": {
        "notice": "Use network currency and cross it."
      },
      "receiveTokensTo(address,address,uint256)": {
        "notice": "ERC-20 tokens approve and transferFrom pattern See https://eips.ethereum.org/EIPS/eip-20#transferfrom"
      },
      "tokensReceived(address,address,address,uint256,bytes,bytes)": {
        "notice": "ERC-777 tokensReceived hook allows to send tokens to a contract and notify it in a single transaction See https://eips.ethereum.org/EIPS/eip-777#motivation for details"
      }
    },
    "version": 1
  },
  "storageLayout": {
    "storage": [
      {
        "astId": 15789,
        "contract": "contracts/Bridge/Bridge.sol:Bridge",
        "label": "initialized",
        "offset": 0,
        "slot": "0",
        "type": "t_bool"
      },
      {
        "astId": 15792,
        "contract": "contracts/Bridge/Bridge.sol:Bridge",
        "label": "initializing",
        "offset": 1,
        "slot": "0",
        "type": "t_bool"
      },
      {
        "astId": 15832,
        "contract": "contracts/Bridge/Bridge.sol:Bridge",
        "label": "______gap",
        "offset": 0,
        "slot": "1",
        "type": "t_array(t_uint256)50_storage"
      },
      {
        "astId": 15856,
        "contract": "contracts/Bridge/Bridge.sol:Bridge",
        "label": "_pausers",
        "offset": 0,
        "slot": "51",
        "type": "t_struct(Role)10133_storage"
      },
      {
        "astId": 15978,
        "contract": "contracts/Bridge/Bridge.sol:Bridge",
        "label": "_paused",
        "offset": 0,
        "slot": "52",
        "type": "t_bool"
      },
      {
        "astId": 16076,
        "contract": "contracts/Bridge/Bridge.sol:Bridge",
        "label": "_owner",
        "offset": 1,
        "slot": "52",
        "type": "t_address"
      },
      {
        "astId": 16790,
        "contract": "contracts/Bridge/Bridge.sol:Bridge",
        "label": "_guardCounter",
        "offset": 0,
        "slot": "53",
        "type": "t_uint256"
      },
      {
        "astId": 1282,
        "contract": "contracts/Bridge/Bridge.sol:Bridge",
        "label": "federation",
        "offset": 0,
        "slot": "54",
        "type": "t_address"
      },
      {
        "astId": 1284,
        "contract": "contracts/Bridge/Bridge.sol:Bridge",
        "label": "feePercentage",
        "offset": 0,
        "slot": "55",
        "type": "t_uint256"
      },
      {
        "astId": 1286,
        "contract": "contracts/Bridge/Bridge.sol:Bridge",
        "label": "symbolPrefix",
        "offset": 0,
        "slot": "56",
        "type": "t_string_storage"
      },
      {
        "astId": 1288,
        "contract": "contracts/Bridge/Bridge.sol:Bridge",
        "label": "domainSeparator",
        "offset": 0,
        "slot": "57",
        "type": "t_bytes32"
      },
      {
        "astId": 1290,
        "contract": "contracts/Bridge/Bridge.sol:Bridge",
        "label": "_deprecatedSpentToday",
        "offset": 0,
        "slot": "58",
        "type": "t_uint256"
      },
      {
        "astId": 1294,
        "contract": "contracts/Bridge/Bridge.sol:Bridge",
        "label": "mappedTokens",
        "offset": 0,
        "slot": "59",
        "type": "t_mapping(t_address,t_address)"
      },
      {
        "astId": 1298,
        "contract": "contracts/Bridge/Bridge.sol:Bridge",
        "label": "originalTokens",
        "offset": 0,
        "slot": "60",
        "type": "t_mapping(t_address,t_address)"
      },
      {
        "astId": 1302,
        "contract": "contracts/Bridge/Bridge.sol:Bridge",
        "label": "knownTokens",
        "offset": 0,
        "slot": "61",
        "type": "t_mapping(t_address,t_bool)"
      },
      {
        "astId": 1306,
        "contract": "contracts/Bridge/Bridge.sol:Bridge",
        "label": "claimed",
        "offset": 0,
        "slot": "62",
        "type": "t_mapping(t_bytes32,t_bool)"
      },
      {
        "astId": 1308,
        "contract": "contracts/Bridge/Bridge.sol:Bridge",
        "label": "allowTokens",
        "offset": 0,
        "slot": "63",
        "type": "t_contract(IAllowTokens)7210"
      },
      {
        "astId": 1310,
        "contract": "contracts/Bridge/Bridge.sol:Bridge",
        "label": "sideTokenFactory",
        "offset": 0,
        "slot": "64",
        "type": "t_contract(ISideTokenFactory)7607"
      },
      {
        "astId": 1312,
        "contract": "contracts/Bridge/Bridge.sol:Bridge",
        "label": "isUpgrading",
        "offset": 20,
        "slot": "64",
        "type": "t_bool"
      },
      {
        "astId": 1322,
        "contract": "contracts/Bridge/Bridge.sol:Bridge",
        "label": "wrappedCurrency",
        "offset": 0,
        "slot": "65",
        "type": "t_contract(IWrapped)7660"
      },
      {
        "astId": 1326,
        "contract": "contracts/Bridge/Bridge.sol:Bridge",
        "label": "transactionsDataHashes",
        "offset": 0,
        "slot": "66",
        "type": "t_mapping(t_bytes32,t_bytes32)"
      },
      {
        "astId": 1330,
        "contract": "contracts/Bridge/Bridge.sol:Bridge",
        "label": "originalTokenAddresses",
        "offset": 0,
        "slot": "67",
        "type": "t_mapping(t_bytes32,t_address)"
      },
      {
        "astId": 1334,
        "contract": "contracts/Bridge/Bridge.sol:Bridge",
        "label": "senderAddresses",
        "offset": 0,
        "slot": "68",
        "type": "t_mapping(t_bytes32,t_address)"
      },
      {
        "astId": 1341,
        "contract": "contracts/Bridge/Bridge.sol:Bridge",
        "label": "nonces",
        "offset": 0,
        "slot": "69",
        "type": "t_mapping(t_address,t_uint256)"
      }
    ],
    "types": {
      "t_address": {
        "encoding": "inplace",
        "label": "address",
        "numberOfBytes": "20"
      },
      "t_array(t_uint256)50_storage": {
        "base": "t_uint256",
        "encoding": "inplace",
        "label": "uint256[50]",
        "numberOfBytes": "1600"
      },
      "t_bool": {
        "encoding": "inplace",
        "label": "bool",
        "numberOfBytes": "1"
      },
      "t_bytes32": {
        "encoding": "inplace",
        "label": "bytes32",
        "numberOfBytes": "32"
      },
      "t_contract(IAllowTokens)7210": {
        "encoding": "inplace",
        "label": "contract IAllowTokens",
        "numberOfBytes": "20"
      },
      "t_contract(ISideTokenFactory)7607": {
        "encoding": "inplace",
        "label": "contract ISideTokenFactory",
        "numberOfBytes": "20"
      },
      "t_contract(IWrapped)7660": {
        "encoding": "inplace",
        "label": "contract IWrapped",
        "numberOfBytes": "20"
      },
      "t_mapping(t_address,t_address)": {
        "encoding": "mapping",
        "key": "t_address",
        "label": "mapping(address => address)",
        "numberOfBytes": "32",
        "value": "t_address"
      },
      "t_mapping(t_address,t_bool)": {
        "encoding": "mapping",
        "key": "t_address",
        "label": "mapping(address => bool)",
        "numberOfBytes": "32",
        "value": "t_bool"
      },
      "t_mapping(t_address,t_uint256)": {
        "encoding": "mapping",
        "key": "t_address",
        "label": "mapping(address => uint256)",
        "numberOfBytes": "32",
        "value": "t_uint256"
      },
      "t_mapping(t_bytes32,t_address)": {
        "encoding": "mapping",
        "key": "t_bytes32",
        "label": "mapping(bytes32 => address)",
        "numberOfBytes": "32",
        "value": "t_address"
      },
      "t_mapping(t_bytes32,t_bool)": {
        "encoding": "mapping",
        "key": "t_bytes32",
        "label": "mapping(bytes32 => bool)",
        "numberOfBytes": "32",
        "value": "t_bool"
      },
      "t_mapping(t_bytes32,t_bytes32)": {
        "encoding": "mapping",
        "key": "t_bytes32",
        "label": "mapping(bytes32 => bytes32)",
        "numberOfBytes": "32",
        "value": "t_bytes32"
      },
      "t_string_storage": {
        "encoding": "bytes",
        "label": "string",
        "numberOfBytes": "32"
      },
      "t_struct(Role)10133_storage": {
        "encoding": "inplace",
        "label": "struct Roles.Role",
        "members": [
          {
            "astId": 10132,
            "contract": "contracts/Bridge/Bridge.sol:Bridge",
            "label": "bearer",
            "offset": 0,
            "slot": "0",
            "type": "t_mapping(t_address,t_bool)"
          }
        ],
        "numberOfBytes": "32"
      },
      "t_uint256": {
        "encoding": "inplace",
        "label": "uint256",
        "numberOfBytes": "32"
      }
    }
  }
}