{
  "address": "0xebD27fD00Eb737D91c1a66B750a45361D234Eb74",
  "abi": [
    {
      "anonymous": false,
      "inputs": [
        {
          "indexed": true,
          "internalType": "bytes32",
          "name": "_transactionHash",
          "type": "bytes32"
        },
        {
          "indexed": true,
          "internalType": "address",
          "name": "_originalTokenAddress",
          "type": "address"
        },
        {
          "indexed": true,
          "internalType": "address",
          "name": "_to",
          "type": "address"
        },
        {
          "indexed": false,
          "internalType": "address",
          "name": "_from",
          "type": "address"
        },
        {
          "indexed": false,
          "internalType": "uint256",
          "name": "_tokenId",
          "type": "uint256"
        },
        {
          "indexed": false,
          "internalType": "bytes32",
          "name": "_blockHash",
          "type": "bytes32"
        },
        {
          "indexed": false,
          "internalType": "uint256",
          "name": "_logIndex",
          "type": "uint256"
        }
      ],
      "name": "AcceptedNFTCrossTransfer",
      "type": "event"
    },
    {
      "anonymous": false,
      "inputs": [
        {
          "indexed": false,
          "internalType": "address",
          "name": "_newAllowTokens",
          "type": "address"
        }
      ],
      "name": "AllowTokensChanged",
      "type": "event"
    },
    {
      "anonymous": false,
      "inputs": [
        {
          "indexed": true,
          "internalType": "bytes32",
          "name": "_transactionHash",
          "type": "bytes32"
        },
        {
          "indexed": true,
          "internalType": "address",
          "name": "_originalTokenAddress",
          "type": "address"
        },
        {
          "indexed": true,
          "internalType": "address",
          "name": "_to",
          "type": "address"
        },
        {
          "indexed": false,
          "internalType": "address",
          "name": "_sender",
          "type": "address"
        },
        {
          "indexed": false,
          "internalType": "uint256",
          "name": "_tokenId",
          "type": "uint256"
        },
        {
          "indexed": false,
          "internalType": "bytes32",
          "name": "_blockHash",
          "type": "bytes32"
        },
        {
          "indexed": false,
          "internalType": "uint256",
          "name": "_logIndex",
          "type": "uint256"
        },
        {
          "indexed": false,
          "internalType": "address",
          "name": "_receiver",
          "type": "address"
        }
      ],
      "name": "ClaimedNFTToken",
      "type": "event"
    },
    {
      "anonymous": false,
      "inputs": [
        {
          "indexed": true,
          "internalType": "address",
          "name": "_originalTokenAddress",
          "type": "address"
        },
        {
          "indexed": true,
          "internalType": "address",
          "name": "_from",
          "type": "address"
        },
        {
          "indexed": true,
          "internalType": "address",
          "name": "_to",
          "type": "address"
        },
        {
          "indexed": false,
          "internalType": "address",
          "name": "_tokenCreator",
          "type": "address"
        },
        {
          "indexed": false,
          "internalType": "bytes",
          "name": "_userData",
          "type": "bytes"
        },
        {
          "indexed": false,
          "internalType": "uint256",
          "name": "_totalSupply",
          "type": "uint256"
        },
        {
          "indexed": false,
          "internalType": "uint256",
          "name": "_tokenId",
          "type": "uint256"
        },
        {
          "indexed": false,
          "internalType": "string",
          "name": "_tokenURI",
          "type": "string"
        }
      ],
      "name": "Cross",
      "type": "event"
    },
    {
      "anonymous": false,
      "inputs": [
        {
          "indexed": false,
          "internalType": "address",
          "name": "_newFederation",
          "type": "address"
        }
      ],
      "name": "FederationChanged",
      "type": "event"
    },
    {
      "anonymous": false,
      "inputs": [
        {
          "indexed": false,
          "internalType": "uint256",
          "name": "_amount",
          "type": "uint256"
        }
      ],
      "name": "FixedFeeNFTChanged",
      "type": "event"
    },
    {
      "anonymous": false,
      "inputs": [
        {
          "indexed": true,
          "internalType": "address",
          "name": "_newSideNFTTokenAddress",
          "type": "address"
        },
        {
          "indexed": true,
          "internalType": "address",
          "name": "_originalTokenAddress",
          "type": "address"
        },
        {
          "indexed": false,
          "internalType": "string",
          "name": "_newSymbol",
          "type": "string"
        }
      ],
      "name": "NewSideNFTToken",
      "type": "event"
    },
    {
      "anonymous": false,
      "inputs": [
        {
          "indexed": true,
          "internalType": "address",
          "name": "previousOwner",
          "type": "address"
        },
        {
          "indexed": true,
          "internalType": "address",
          "name": "newOwner",
          "type": "address"
        }
      ],
      "name": "OwnershipTransferred",
      "type": "event"
    },
    {
      "anonymous": false,
      "inputs": [
        {
          "indexed": false,
          "internalType": "address",
          "name": "account",
          "type": "address"
        }
      ],
      "name": "Paused",
      "type": "event"
    },
    {
      "anonymous": false,
      "inputs": [
        {
          "indexed": true,
          "internalType": "address",
          "name": "account",
          "type": "address"
        }
      ],
      "name": "PauserAdded",
      "type": "event"
    },
    {
      "anonymous": false,
      "inputs": [
        {
          "indexed": true,
          "internalType": "address",
          "name": "account",
          "type": "address"
        }
      ],
      "name": "PauserRemoved",
      "type": "event"
    },
    {
      "anonymous": false,
      "inputs": [
        {
          "indexed": false,
          "internalType": "address",
          "name": "_newSideNFTTokenFactory",
          "type": "address"
        }
      ],
      "name": "SideTokenFactoryChanged",
      "type": "event"
    },
    {
      "anonymous": false,
      "inputs": [
        {
          "indexed": false,
          "internalType": "address",
          "name": "account",
          "type": "address"
        }
      ],
      "name": "Unpaused",
      "type": "event"
    },
    {
      "anonymous": false,
      "inputs": [
        {
          "indexed": false,
          "internalType": "bool",
          "name": "_isUpgrading",
          "type": "bool"
        }
      ],
      "name": "Upgrading",
      "type": "event"
    },
    {
      "inputs": [
        {
          "internalType": "address",
          "name": "sender",
          "type": "address"
        }
      ],
      "name": "__Pausable_init",
      "outputs": [],
      "stateMutability": "nonpayable",
      "type": "function"
    },
    {
      "inputs": [
        {
          "internalType": "address",
          "name": "sender",
          "type": "address"
        }
      ],
      "name": "__PauserRol_init",
      "outputs": [],
      "stateMutability": "nonpayable",
      "type": "function"
    },
    {
      "inputs": [
        {
          "internalType": "address",
          "name": "_tokenAddress",
          "type": "address"
        },
        {
          "internalType": "address payable",
          "name": "_from",
          "type": "address"
        },
        {
          "internalType": "address payable",
          "name": "_to",
          "type": "address"
        },
        {
          "internalType": "uint256",
          "name": "_tokenId",
          "type": "uint256"
        },
        {
          "internalType": "bytes32",
          "name": "_blockHash",
          "type": "bytes32"
        },
        {
          "internalType": "bytes32",
          "name": "_transactionHash",
          "type": "bytes32"
        },
        {
          "internalType": "uint32",
          "name": "_logIndex",
          "type": "uint32"
        }
      ],
      "name": "acceptTransfer",
      "outputs": [],
      "stateMutability": "nonpayable",
      "type": "function"
    },
    {
      "inputs": [
        {
          "internalType": "address",
          "name": "account",
          "type": "address"
        }
      ],
      "name": "addPauser",
      "outputs": [],
      "stateMutability": "nonpayable",
      "type": "function"
    },
    {
      "inputs": [],
      "name": "allowTokens",
      "outputs": [
        {
          "internalType": "contract IAllowTokens",
          "name": "",
          "type": "address"
        }
      ],
      "stateMutability": "view",
      "type": "function"
    },
    {
      "inputs": [
        {
          "internalType": "address",
          "name": "newAllowTokens",
          "type": "address"
        }
      ],
      "name": "changeAllowTokens",
      "outputs": [],
      "stateMutability": "nonpayable",
      "type": "function"
    },
    {
      "inputs": [
        {
          "internalType": "address payable",
          "name": "newFederation",
          "type": "address"
        }
      ],
      "name": "changeFederation",
      "outputs": [],
      "stateMutability": "nonpayable",
      "type": "function"
    },
    {
      "inputs": [
        {
          "internalType": "address",
          "name": "newSideNFTTokenFactory",
          "type": "address"
        }
      ],
      "name": "changeSideTokenFactory",
      "outputs": [],
      "stateMutability": "nonpayable",
      "type": "function"
    },
    {
      "inputs": [
        {
          "components": [
            {
              "internalType": "address payable",
              "name": "to",
              "type": "address"
            },
            {
              "internalType": "address",
              "name": "from",
              "type": "address"
            },
            {
              "internalType": "uint256",
              "name": "tokenId",
              "type": "uint256"
            },
            {
              "internalType": "address",
              "name": "tokenAddress",
              "type": "address"
            },
            {
              "internalType": "bytes32",
              "name": "blockHash",
              "type": "bytes32"
            },
            {
              "internalType": "bytes32",
              "name": "transactionHash",
              "type": "bytes32"
            },
            {
              "internalType": "uint32",
              "name": "logIndex",
              "type": "uint32"
            }
          ],
          "internalType": "struct INFTBridge.NFTClaimData",
          "name": "_claimData",
          "type": "tuple"
        }
      ],
      "name": "claim",
      "outputs": [],
      "stateMutability": "nonpayable",
      "type": "function"
    },
    {
      "inputs": [
        {
          "components": [
            {
              "internalType": "address payable",
              "name": "to",
              "type": "address"
            },
            {
              "internalType": "address",
              "name": "from",
              "type": "address"
            },
            {
              "internalType": "uint256",
              "name": "tokenId",
              "type": "uint256"
            },
            {
              "internalType": "address",
              "name": "tokenAddress",
              "type": "address"
            },
            {
              "internalType": "bytes32",
              "name": "blockHash",
              "type": "bytes32"
            },
            {
              "internalType": "bytes32",
              "name": "transactionHash",
              "type": "bytes32"
            },
            {
              "internalType": "uint32",
              "name": "logIndex",
              "type": "uint32"
            }
          ],
          "internalType": "struct INFTBridge.NFTClaimData",
          "name": "_claimData",
          "type": "tuple"
        }
      ],
      "name": "claimFallback",
      "outputs": [],
      "stateMutability": "nonpayable",
      "type": "function"
    },
    {
      "inputs": [
        {
          "internalType": "bytes32",
          "name": "",
          "type": "bytes32"
        }
      ],
      "name": "claimed",
      "outputs": [
        {
          "internalType": "bool",
          "name": "",
          "type": "bool"
        }
      ],
      "stateMutability": "view",
      "type": "function"
    },
    {
      "inputs": [
        {
          "internalType": "address",
          "name": "_originalTokenAddress",
          "type": "address"
        },
        {
          "internalType": "string",
          "name": "_originalTokenSymbol",
          "type": "string"
        },
        {
          "internalType": "string",
          "name": "_originalTokenName",
          "type": "string"
        },
        {
          "internalType": "string",
          "name": "_baseURI",
          "type": "string"
        },
        {
          "internalType": "string",
          "name": "_contractURI",
          "type": "string"
        }
      ],
      "name": "createSideNFTToken",
      "outputs": [],
      "stateMutability": "nonpayable",
      "type": "function"
    },
    {
      "inputs": [],
      "name": "getFederation",
      "outputs": [
        {
          "internalType": "address",
          "name": "",
          "type": "address"
        }
      ],
      "stateMutability": "view",
      "type": "function"
    },
    {
      "inputs": [],
      "name": "getFixedFee",
      "outputs": [
        {
          "internalType": "uint256",
          "name": "",
          "type": "uint256"
        }
      ],
      "stateMutability": "view",
      "type": "function"
    },
    {
      "inputs": [
        {
          "internalType": "address",
          "name": "tokenAddress",
          "type": "address"
        },
        {
          "internalType": "uint256",
          "name": "tokenId",
          "type": "uint256"
        }
      ],
      "name": "getTokenCreator",
      "outputs": [
        {
          "internalType": "address",
          "name": "",
          "type": "address"
        }
      ],
      "stateMutability": "view",
      "type": "function"
    },
    {
      "inputs": [
        {
          "internalType": "address",
          "name": "_to",
          "type": "address"
        },
        {
          "internalType": "address",
          "name": "_from",
          "type": "address"
        },
        {
          "internalType": "uint256",
          "name": "_tokenId",
          "type": "uint256"
        },
        {
          "internalType": "address",
          "name": "_tokenAddress",
          "type": "address"
        },
        {
          "internalType": "bytes32",
          "name": "_blockHash",
          "type": "bytes32"
        },
        {
          "internalType": "bytes32",
          "name": "_transactionHash",
          "type": "bytes32"
        },
        {
          "internalType": "uint32",
          "name": "_logIndex",
          "type": "uint32"
        }
      ],
      "name": "getTransactionDataHash",
      "outputs": [
        {
          "internalType": "bytes32",
          "name": "",
          "type": "bytes32"
        }
      ],
      "stateMutability": "pure",
      "type": "function"
    },
    {
      "inputs": [
        {
          "internalType": "bytes32",
          "name": "transactionHash",
          "type": "bytes32"
        }
      ],
      "name": "hasBeenClaimed",
      "outputs": [
        {
          "internalType": "bool",
          "name": "",
          "type": "bool"
        }
      ],
      "stateMutability": "view",
      "type": "function"
    },
    {
      "inputs": [
        {
          "internalType": "bytes32",
          "name": "transactionHash",
          "type": "bytes32"
        }
      ],
      "name": "hasCrossed",
      "outputs": [
        {
          "internalType": "bool",
          "name": "",
          "type": "bool"
        }
      ],
      "stateMutability": "view",
      "type": "function"
    },
    {
      "inputs": [
        {
          "internalType": "address",
          "name": "_manager",
          "type": "address"
        },
        {
          "internalType": "address payable",
          "name": "_federation",
          "type": "address"
        },
        {
          "internalType": "address",
          "name": "_allowTokens",
          "type": "address"
        },
        {
          "internalType": "address",
          "name": "_sideTokenFactory",
          "type": "address"
        },
        {
          "internalType": "string",
          "name": "_symbolPrefix",
          "type": "string"
        }
      ],
      "name": "initialize",
      "outputs": [],
      "stateMutability": "nonpayable",
      "type": "function"
    },
    {
      "inputs": [],
      "name": "initialize",
      "outputs": [],
      "stateMutability": "nonpayable",
      "type": "function"
    },
    {
      "inputs": [
        {
          "internalType": "address",
          "name": "sender",
          "type": "address"
        }
      ],
      "name": "initialize",
      "outputs": [],
      "stateMutability": "nonpayable",
      "type": "function"
    },
    {
      "inputs": [
        {
          "internalType": "address",
          "name": "",
          "type": "address"
        }
      ],
      "name": "isAddressFromCrossedOriginalToken",
      "outputs": [
        {
          "internalType": "bool",
          "name": "",
          "type": "bool"
        }
      ],
      "stateMutability": "view",
      "type": "function"
    },
    {
      "inputs": [],
      "name": "isOwner",
      "outputs": [
        {
          "internalType": "bool",
          "name": "",
          "type": "bool"
        }
      ],
      "stateMutability": "view",
      "type": "function"
    },
    {
      "inputs": [
        {
          "internalType": "address",
          "name": "account",
          "type": "address"
        }
      ],
      "name": "isPauser",
      "outputs": [
        {
          "internalType": "bool",
          "name": "",
          "type": "bool"
        }
      ],
      "stateMutability": "view",
      "type": "function"
    },
    {
      "inputs": [],
      "name": "isUpgrading",
      "outputs": [
        {
          "internalType": "bool",
          "name": "",
          "type": "bool"
        }
      ],
      "stateMutability": "view",
      "type": "function"
    },
    {
      "inputs": [
        {
          "internalType": "address",
          "name": "",
          "type": "address"
        },
        {
          "internalType": "address",
          "name": "",
          "type": "address"
        },
        {
          "internalType": "uint256",
          "name": "",
          "type": "uint256"
        },
        {
          "internalType": "bytes",
          "name": "",
          "type": "bytes"
        }
      ],
      "name": "onERC721Received",
      "outputs": [
        {
          "internalType": "bytes4",
          "name": "",
          "type": "bytes4"
        }
      ],
      "stateMutability": "nonpayable",
      "type": "function"
    },
    {
      "inputs": [
        {
          "internalType": "address",
          "name": "",
          "type": "address"
        }
      ],
      "name": "originalTokenAddressBySideTokenAddress",
      "outputs": [
        {
          "internalType": "address",
          "name": "",
          "type": "address"
        }
      ],
      "stateMutability": "view",
      "type": "function"
    },
    {
      "inputs": [],
      "name": "owner",
      "outputs": [
        {
          "internalType": "address",
          "name": "",
          "type": "address"
        }
      ],
      "stateMutability": "view",
      "type": "function"
    },
    {
      "inputs": [],
      "name": "pause",
      "outputs": [],
      "stateMutability": "nonpayable",
      "type": "function"
    },
    {
      "inputs": [],
      "name": "paused",
      "outputs": [
        {
          "internalType": "bool",
          "name": "",
          "type": "bool"
        }
      ],
      "stateMutability": "view",
      "type": "function"
    },
    {
      "inputs": [
        {
          "internalType": "address",
          "name": "tokenAddress",
          "type": "address"
        },
        {
          "internalType": "address",
          "name": "to",
          "type": "address"
        },
        {
          "internalType": "uint256",
          "name": "tokenId",
          "type": "uint256"
        }
      ],
      "name": "receiveTokensTo",
      "outputs": [],
      "stateMutability": "payable",
      "type": "function"
    },
    {
      "inputs": [],
      "name": "renounceOwnership",
      "outputs": [],
      "stateMutability": "nonpayable",
      "type": "function"
    },
    {
      "inputs": [],
      "name": "renouncePauser",
      "outputs": [],
      "stateMutability": "nonpayable",
      "type": "function"
    },
    {
      "inputs": [
        {
          "internalType": "uint256",
          "name": "amount",
          "type": "uint256"
        }
      ],
      "name": "setFixedFee",
      "outputs": [],
      "stateMutability": "nonpayable",
      "type": "function"
    },
    {
      "inputs": [
        {
          "internalType": "bool",
          "name": "_isUpgrading",
          "type": "bool"
        }
      ],
      "name": "setUpgrading",
      "outputs": [],
      "stateMutability": "nonpayable",
      "type": "function"
    },
    {
      "inputs": [
        {
          "internalType": "address",
          "name": "",
          "type": "address"
        }
      ],
      "name": "sideTokenAddressByOriginalTokenAddress",
      "outputs": [
        {
          "internalType": "address",
          "name": "",
          "type": "address"
        }
      ],
      "stateMutability": "view",
      "type": "function"
    },
    {
      "inputs": [],
      "name": "sideTokenFactory",
      "outputs": [
        {
          "internalType": "contract ISideNFTTokenFactory",
          "name": "",
          "type": "address"
        }
      ],
      "stateMutability": "view",
      "type": "function"
    },
    {
      "inputs": [],
      "name": "symbolPrefix",
      "outputs": [
        {
          "internalType": "string",
          "name": "",
          "type": "string"
        }
      ],
      "stateMutability": "view",
      "type": "function"
    },
    {
      "inputs": [
        {
          "internalType": "bytes32",
          "name": "",
          "type": "bytes32"
        }
      ],
      "name": "transactionDataHashes",
      "outputs": [
        {
          "internalType": "bytes32",
          "name": "",
          "type": "bytes32"
        }
      ],
      "stateMutability": "view",
      "type": "function"
    },
    {
      "inputs": [
        {
          "internalType": "address",
          "name": "newOwner",
          "type": "address"
        }
      ],
      "name": "transferOwnership",
      "outputs": [],
      "stateMutability": "nonpayable",
      "type": "function"
    },
    {
      "inputs": [],
      "name": "unpause",
      "outputs": [],
      "stateMutability": "nonpayable",
      "type": "function"
    },
    {
      "inputs": [],
      "name": "version",
      "outputs": [
        {
          "internalType": "string",
          "name": "",
          "type": "string"
        }
      ],
      "stateMutability": "pure",
      "type": "function"
    }
  ],
  "transactionHash": "0xfa20c7187d9322927281b4bd46784e56890f4d6e0efd72ee45b4277b4a0d8f29",
  "args": [],
  "solcInputHash": "f57b3a626f709a0447a665aac92698b7",
  "bytecode": "0x608060405234801561001057600080fd5b50612f91806100206000396000f3fe6080604052600436106102515760003560e01c806382dc1ec411610139578063c4d66de8116100b6578063ea2170911161007a578063ea21709114610686578063eb16136f1461069b578063ed99f4c6146106bb578063f1409028146106d0578063f2fde38b146106f0578063fa0caa161461071057610251565b8063c4d66de8146105e6578063cc3c0f0614610606578063ce5f8bf214610626578063d220d30a14610646578063da6770371461066657610251565b8063a53d6e6e116100fd578063a53d6e6e14610567578063a9e4eff21461057c578063b79472621461059c578063b86f60d2146105b1578063c33c8c61146105c657610251565b806382dc1ec4146104db5780638456cb59146104fb5780638da5cb5b146105105780638f32d59b14610532578063916dc59d1461054757610251565b806342cdb2c6116101d2578063664761091161019657806366476109146104495780636a863191146104695780636ef8d66d14610489578063715018a61461049e5780637813bea2146104b35780638129fc1c146104c657610251565b806342cdb2c6146103bd57806346fbf68e146103dd57806354fd4d50146103fd57806359a8a8671461041f5780635c975abb1461043457610251565b80632f3cca4e116102195780632f3cca4e146103285780632fb3b3611461034857806337de81061461036857806337e76109146103885780633f4ba83a146103a857610251565b806307c8f7b0146102565780630b2292a614610278578063150b7a02146102ae5780631b68e6e6146102db5780631c7e6efb146102fb575b600080fd5b34801561026257600080fd5b506102766102713660046124d8565b610730565b005b34801561028457600080fd5b506102986102933660046124f8565b6107b9565b6040516102a59190612836565b60405180910390f35b3480156102ba57600080fd5b506102ce6102c936600461235c565b6107cb565b6040516102a5919061283f565b3480156102e757600080fd5b506102766102f636600461257a565b6107db565b34801561030757600080fd5b5061031b61031636600461216d565b610836565b6040516102a5919061282b565b34801561033457600080fd5b5061027661034336600461216d565b61084b565b34801561035457600080fd5b5061027661036336600461221b565b6108d4565b34801561037457600080fd5b506102766103833660046124f8565b610a3e565b34801561039457600080fd5b5061031b6103a33660046124f8565b610a97565b3480156103b457600080fd5b50610276610abc565b3480156103c957600080fd5b506102766103d836600461216d565b610b4f565b3480156103e957600080fd5b5061031b6103f836600461216d565b610be4565b34801561040957600080fd5b50610412610bf7565b6040516102a591906128b2565b34801561042b57600080fd5b50610412610c13565b34801561044057600080fd5b5061031b610ca1565b34801561045557600080fd5b5061027661046436600461257a565b610caa565b34801561047557600080fd5b506102766104843660046121a5565b610cbb565b34801561049557600080fd5b50610276610f0a565b3480156104aa57600080fd5b50610276610f1c565b6102766104c13660046122b4565b610f90565b3480156104d257600080fd5b506102766110eb565b3480156104e757600080fd5b506102766104f636600461216d565b611164565b34801561050757600080fd5b50610276611194565b34801561051c57600080fd5b50610525611214565b6040516102a59190612707565b34801561053e57600080fd5b5061031b611228565b34801561055357600080fd5b5061027661056236600461216d565b611253565b34801561057357600080fd5b506105256112e8565b34801561058857600080fd5b506102986105973660046122f4565b6112f7565b3480156105a857600080fd5b5061031b611339565b3480156105bd57600080fd5b50610525611349565b3480156105d257600080fd5b506102766105e13660046123d9565b611358565b3480156105f257600080fd5b5061027661060136600461216d565b61151f565b34801561061257600080fd5b5061031b6106213660046124f8565b6115ea565b34801561063257600080fd5b5061052561064136600461216d565b6115ff565b34801561065257600080fd5b506105256106613660046124ad565b61161a565b34801561067257600080fd5b5061031b6106813660046124f8565b61174d565b34801561069257600080fd5b50610525611761565b3480156106a757600080fd5b506102766106b636600461216d565b611770565b3480156106c757600080fd5b506102986117fb565b3480156106dc57600080fd5b506105256106eb36600461216d565b611801565b3480156106fc57600080fd5b5061027661070b36600461216d565b61181c565b34801561071c57600080fd5b5061027661072b36600461216d565b611849565b610738611228565b61075d5760405162461bcd60e51b815260040161075490612c16565b60405180910390fd5b603e805460ff60a01b1916600160a01b831515810291909117918290556040517f983e436223c000a441c2443b394ca5fb4669a513fe86dc1dd44494047b514ad9926107ae9260ff9104169061282b565b60405180910390a150565b603f6020526000908152604090205481565b630a85bd0160e11b949350505050565b6107eb604082016020830161216d565b6001600160a01b03166107fc6118e4565b6001600160a01b0316146108225760405162461bcd60e51b81526004016107549061296f565b6108338161082e6118e4565b6118e8565b50565b603b6020526000908152604090205460ff1681565b600054610100900460ff1680610864575060005460ff16155b6108805760405162461bcd60e51b815260040161075490612a83565b600054610100900460ff161580156108ab576000805460ff1961ff0019909116610100171660011790555b6108b482611770565b6034805460ff1916905580156108d0576000805461ff00191690555b5050565b600054610100900460ff16806108ed575060005460ff16155b6109095760405162461bcd60e51b815260040161075490612a83565b600054610100900460ff16158015610934576000805460ff1961ff0019909116610100171660011790555b61093d8661151f565b6109468661084b565b8151610959906038906020850190612033565b50603d80546001600160a01b038087166001600160a01b031992831617909255603e805486841690831617905560368054928816929091169190911790556040516329965a1d60e01b8152731820a4b7618bde71dce8cdc73aab6c95905fad24906329965a1d906109f29030907fb281fc8c12954d22544db45de3159a39272895b169a852b314f9cc762e44c53b9082906004016127d2565b600060405180830381600087803b158015610a0c57600080fd5b505af1158015610a20573d6000803e3d6000fd5b505050508015610a36576000805461ff00191690555b505050505050565b610a46611228565b610a625760405162461bcd60e51b815260040161075490612c16565b60378190556040517f5eebc59df2662862db7d6ef529ff1a264721bd7c26550f39c89a685382668f4e906107ae908390612836565b6000818152603f60209081526040808320548352603c90915290205460ff165b919050565b610ac76103f86118e4565b610ae35760405162461bcd60e51b815260040161075490612acb565b60345460ff16610b055760405162461bcd60e51b81526004016107549061290a565b6034805460ff191690557f5db9ee0a495bf2e6ff9c91a7834c1ba4fdd244a5e8aa4e537bd38aeae4b073aa610b386118e4565b604051610b459190612707565b60405180910390a1565b610b57611228565b610b735760405162461bcd60e51b815260040161075490612c16565b6001600160a01b038116610b995760405162461bcd60e51b815260040161075490612e8f565b603e80546001600160a01b0319166001600160a01b0383161790556040517f619936bc6e3618d0b8dc69bcc70134fe9d88f9967f3a8b8304e3183692521625906107ae908390612707565b6000610bf1603383611b47565b92915050565b604080518082019091526002815261763160f01b602082015290565b6038805460408051602060026001851615610100026000190190941693909304601f81018490048402820184019092528181529291830182828015610c995780601f10610c6e57610100808354040283529160200191610c99565b820191906000526020600020905b815481529060010190602001808311610c7c57829003601f168201915b505050505081565b60345460ff1690565b6108338161082e602082018261216d565b60345460ff1615610cde5760405162461bcd60e51b815260040161075490612b57565b60358054600101908190556036546001600160a01b0316610cfd6118e4565b6001600160a01b031614610d235760405162461bcd60e51b815260040161075490612bdf565b6001600160a01b0388166000908152603b602052604090205460ff1680610d6357506001600160a01b038881166000908152603960205260409020541615155b610d7f5760405162461bcd60e51b815260040161075490612cfb565b6001600160a01b038616610da55760405162461bcd60e51b815260040161075490612db3565b6001600160a01b038716610dcb5760405162461bcd60e51b815260040161075490612b81565b83610de85760405162461bcd60e51b815260040161075490612e16565b82610e055760405162461bcd60e51b815260040161075490612baf565b6000838152603f602052604090205415610e315760405162461bcd60e51b815260040161075490612d32565b6000610e428789888c8989896112f7565b6000818152603c602052604090205490915060ff1615610e745760405162461bcd60e51b815260040161075490612cc4565b80603f600086815260200190815260200160002081905550866001600160a01b0316896001600160a01b0316857f68c55835fbe7c27942e2ff7632542cf70ee33ba41b292bff9cb6183e3db7e63b8b8a8a89604051610ed69493929190612758565b60405180910390a4506035548114610f005760405162461bcd60e51b8152600401610754906128c5565b5050505050505050565b610f1a610f156118e4565b611b8f565b565b610f24611228565b610f405760405162461bcd60e51b815260040161075490612c16565b60345460405160009161010090046001600160a01b0316907f8be0079c531659141344cd1fd0a4f28419497f9722a3daafe3b4186f6b6457e0908390a360348054610100600160a81b0319169055565b6000610f9c848361161a565b90506000610fa86118e4565b6040516323b872dd60e01b81529091506001600160a01b038616906323b872dd90610fdb9084903090889060040161271b565b600060405180830381600087803b158015610ff557600080fd5b505af1158015611009573d6000803e3d6000fd5b505050506110298585846040518060200160405280600081525087611bd1565b603754156110e4576037543410156110535760405162461bcd60e51b815260040161075490612d69565b6036546037546040516001600160a01b039092169181156108fc0291906000818181858888f1935050505015801561108f573d6000803e3d6000fd5b506037543411156110e457806001600160a01b03166108fc6110bc60375434611e5b90919063ffffffff16565b6040518115909202916000818181858888f19350505050158015610a36573d6000803e3d6000fd5b5050505050565b600054610100900460ff1680611104575060005460ff16155b6111205760405162461bcd60e51b815260040161075490612a83565b600054610100900460ff1615801561114b576000805460ff1961ff0019909116610100171660011790555b60016035558015610833576000805461ff001916905550565b61116f6103f86118e4565b61118b5760405162461bcd60e51b815260040161075490612acb565b61083381611ea4565b61119f6103f86118e4565b6111bb5760405162461bcd60e51b815260040161075490612acb565b60345460ff16156111de5760405162461bcd60e51b815260040161075490612b57565b6034805460ff191660011790557f62e78cea01bee320cd4e420270b5ea74000d11b0c9f74754ebdbfc544b05a258610b386118e4565b60345461010090046001600160a01b031690565b60345460009061010090046001600160a01b03166112446118e4565b6001600160a01b031614905090565b61125b611228565b6112775760405162461bcd60e51b815260040161075490612c16565b6001600160a01b03811661129d5760405162461bcd60e51b815260040161075490612ddf565b603d80546001600160a01b0319166001600160a01b0383161790556040517f5f2c1fe803fd576d8af05ea156011cc9cc8c025bda24c1e85772fc05a0b3f1e3906107ae908390612707565b603d546001600160a01b031681565b6000838389898989876040516020016113169796959493929190612619565b604051602081830303815290604052805190602001209050979650505050505050565b603e54600160a01b900460ff1681565b603e546001600160a01b031681565b611360611228565b61137c5760405162461bcd60e51b815260040161075490612c16565b6001600160a01b0389166113a25760405162461bcd60e51b8152600401610754906129a6565b6001600160a01b03808a166000908152603960205260409020541680156113db5760405162461bcd60e51b815260040161075490612b13565b600060388a8a6040516020016113f39392919061268e565b60408051601f1981840301815290829052603e54634423ac3360e11b83529092506001600160a01b03169063884758669061143e908b908b9086908c908c908c908c90600401612854565b602060405180830381600087803b15801561145857600080fd5b505af115801561146c573d6000803e3d6000fd5b505050506040513d601f19601f820116820180604052508101906114909190612189565b6001600160a01b03808d16600081815260396020908152604080832080549587166001600160a01b03199687168117909155808452603a909252918290208054909416831790935551929450917f622ea91961d2c1c42b6f59a73d152d990066165d59f27d922ce6d1f59650638c9061150a9085906128b2565b60405180910390a35050505050505050505050565b600054610100900460ff1680611538575060005460ff16155b6115545760405162461bcd60e51b815260040161075490612a83565b600054610100900460ff1615801561157f576000805460ff1961ff0019909116610100171660011790555b60348054610100600160a81b0319166101006001600160a01b0385811682029290921792839055604051920416906000907f8be0079c531659141344cd1fd0a4f28419497f9722a3daafe3b4186f6b6457e0908290a380156108d0576000805461ff00191690555050565b603c6020526000908152604090205460ff1681565b603a602052600090815260409020546001600160a01b031681565b60408051600481526024810182526020810180516001600160e01b03166302d05d3f60e01b1790529051600091829182916001600160a01b038716916116609190612672565b600060405180830381855afa9150503d806000811461169b576040519150601f19603f3d011682016040523d82523d6000602084013e6116a0565b606091505b509150915081156116c857808060200190518101906116bf9190612189565b92505050610bf1565b6040516331a9108f60e11b81526001600160a01b03861690636352211e906116f4908790600401612836565b60206040518083038186803b15801561170c57600080fd5b505afa158015611720573d6000803e3d6000fd5b505050506040513d601f19601f820116820180604052508101906117449190612189565b95945050505050565b6000908152603f6020526040902054151590565b6036546001600160a01b031690565b600054610100900460ff1680611789575060005460ff16155b6117a55760405162461bcd60e51b815260040161075490612a83565b600054610100900460ff161580156117d0576000805460ff1961ff0019909116610100171660011790555b6117d982610be4565b6117e6576117e682611ea4565b80156108d0576000805461ff00191690555050565b60375490565b6039602052600090815260409020546001600160a01b031681565b611824611228565b6118405760405162461bcd60e51b815260040161075490612c16565b61083381611ee6565b611851611228565b61186d5760405162461bcd60e51b815260040161075490612c16565b6001600160a01b0381166118935760405162461bcd60e51b815260040161075490612c8d565b603680546001600160a01b0319166001600160a01b0383811691909117918290556040517f4a41a4d11aaf0c0c9e4311ac1d68b2b0134556da594779a2a35b0ddf7cd1eafb926107ae921690612707565b3390565b60006118fa608084016060850161216d565b90506040830135600061193f611913602087018761216d565b611923604088016020890161216d565b848660808a013560a08b013561059760e08d0160c08e016125a9565b60a08601356000908152603f602052604090205490915081146119745760405162461bcd60e51b8152600401610754906129ec565b6000818152603c602052604090205460ff16156119a35760405162461bcd60e51b815260040161075490612cc4565b6000818152603c60209081526040808320805460ff191660011790556001600160a01b0386168352603b90915290205460ff168015611a4357604051632142170760e11b81526001600160a01b038516906342842e0e90611a0c9030908990889060040161271b565b600060405180830381600087803b158015611a2657600080fd5b505af1158015611a3a573d6000803e3d6000fd5b50505050611aba565b6001600160a01b03808516600090815260396020526040908190205490516340c10f1960e01b815291169081906340c10f1990611a86908990889060040161273f565b600060405180830381600087803b158015611aa057600080fd5b505af1158015611ab4573d6000803e3d6000fd5b50505050505b611ac7602087018761216d565b6001600160a01b0390811690851660a08801357f8738727192721a6f1909e42e987fa3faf27386067521caf12f11c5dc4013c2ac611b0b60408b0160208c0161216d565b60408b013560808c0135611b2560e08e0160c08f016125a9565b8c604051611b379594939291906127f5565b60405180910390a4505050505050565b60006001600160a01b038216611b6f5760405162461bcd60e51b815260040161075490612c4b565b506001600160a01b03166000908152602091909152604090205460ff1690565b611b9a603382611f73565b6040516001600160a01b038216907fcd265ebaf09df2871cc7bd4133404a235ba12eff2041bb89d9c714a2621c7c7e90600090a250565b603e54600160a01b900460ff1615611bfb5760405162461bcd60e51b815260040161075490612a23565b60345460ff1615611c1e5760405162461bcd60e51b815260040161075490612b57565b603580546001908101918290556001600160a01b0387166000818152603b6020526040808220805460ff1916909417909355915163c87b56dd60e01b815288928392909163c87b56dd90611c76908890600401612836565b60006040518083038186803b158015611c8e57600080fd5b505afa158015611ca2573d6000803e3d6000fd5b505050506040513d6000823e601f3d908101601f19168201604052611cca9190810190612510565b6001600160a01b03808b166000908152603a60205260409020549192508a911615611d6257506001600160a01b03808a166000818152603a602052604090819020549051630852cd8d60e31b81529216916342966c6890611d2f908990600401612836565b600060405180830381600087803b158015611d4957600080fd5b505af1158015611d5d573d6000803e3d6000fd5b505050505b886001600160a01b0316611d746118e4565b6001600160a01b0316826001600160a01b03167f8586062302f52eda0114687cd36998f16298ea820e0a6f8878bbbfefebc09e9f8b8b896001600160a01b03166318160ddd6040518163ffffffff1660e01b815260040160206040518083038186803b158015611de357600080fd5b505afa158015611df7573d6000803e3d6000fd5b505050506040513d601f19601f82011682018060405250810190611e1b9190612591565b8c89604051611e2e959493929190612784565b60405180910390a4505050506035548114610a365760405162461bcd60e51b8152600401610754906128c5565b6000611e9d83836040518060400160405280601e81526020017f536166654d6174683a207375627472616374696f6e206f766572666c6f770000815250611fbb565b9392505050565b611eaf603382611fe7565b6040516001600160a01b038216907f6719d08c1888103bea251a4ed56406bd0c3e69723c8a1686e017e7bbe159b6f890600090a250565b6001600160a01b038116611f0c5760405162461bcd60e51b815260040161075490612e4d565b6034546040516001600160a01b0380841692610100900416907f8be0079c531659141344cd1fd0a4f28419497f9722a3daafe3b4186f6b6457e090600090a3603480546001600160a01b0390921661010002610100600160a81b0319909216919091179055565b611f7d8282611b47565b611f995760405162461bcd60e51b815260040161075490612a4e565b6001600160a01b0316600090815260209190915260409020805460ff19169055565b60008184841115611fdf5760405162461bcd60e51b815260040161075491906128b2565b505050900390565b611ff18282611b47565b1561200e5760405162461bcd60e51b815260040161075490612938565b6001600160a01b0316600090815260209190915260409020805460ff19166001179055565b828054600181600116156101000203166002900490600052602060002090601f01602090048101928261206957600085556120af565b82601f1061208257805160ff19168380011785556120af565b828001600101855582156120af579182015b828111156120af578251825591602001919060010190612094565b506120bb9291506120bf565b5090565b5b808211156120bb57600081556001016120c0565b60006120e76120e284612ef4565b612ed0565b90508281528383830111156120fb57600080fd5b828260208301376000602084830101529392505050565b60008083601f840112612123578182fd5b50813567ffffffffffffffff81111561213a578182fd5b60208301915083602082850101111561215257600080fd5b9250929050565b803563ffffffff81168114610ab757600080fd5b60006020828403121561217e578081fd5b8135611e9d81612f46565b60006020828403121561219a578081fd5b8151611e9d81612f46565b600080600080600080600060e0888a0312156121bf578283fd5b87356121ca81612f46565b965060208801356121da81612f46565b955060408801356121ea81612f46565b9450606088013593506080880135925060a0880135915061220d60c08901612159565b905092959891949750929550565b600080600080600060a08688031215612232578081fd5b853561223d81612f46565b9450602086013561224d81612f46565b9350604086013561225d81612f46565b9250606086013561226d81612f46565b9150608086013567ffffffffffffffff811115612288578182fd5b8601601f81018813612298578182fd5b6122a7888235602084016120d4565b9150509295509295909350565b6000806000606084860312156122c8578283fd5b83356122d381612f46565b925060208401356122e381612f46565b929592945050506040919091013590565b600080600080600080600060e0888a03121561230e578081fd5b873561231981612f46565b9650602088013561232981612f46565b955060408801359450606088013561234081612f46565b93506080880135925060a0880135915061220d60c08901612159565b60008060008060808587031215612371578182fd5b843561237c81612f46565b9350602085013561238c81612f46565b925060408501359150606085013567ffffffffffffffff8111156123ae578182fd5b8501601f810187136123be578182fd5b6123cd878235602084016120d4565b91505092959194509250565b600080600080600080600080600060a08a8c0312156123f6578283fd5b893561240181612f46565b985060208a013567ffffffffffffffff8082111561241d578485fd5b6124298d838e01612112565b909a50985060408c0135915080821115612441578485fd5b61244d8d838e01612112565b909850965060608c0135915080821115612465578485fd5b6124718d838e01612112565b909650945060808c0135915080821115612489578384fd5b506124968c828d01612112565b915080935050809150509295985092959850929598565b600080604083850312156124bf578182fd5b82356124ca81612f46565b946020939093013593505050565b6000602082840312156124e9578081fd5b81358015158114611e9d578182fd5b600060208284031215612509578081fd5b5035919050565b600060208284031215612521578081fd5b815167ffffffffffffffff811115612537578182fd5b8201601f81018413612547578182fd5b80516125556120e282612ef4565b818152856020838501011115612569578384fd5b611744826020830160208601612f16565b600060e0828403121561258b578081fd5b50919050565b6000602082840312156125a2578081fd5b5051919050565b6000602082840312156125ba578081fd5b611e9d82612159565b600081518084526125db816020860160208601612f16565b601f01601f19169290920160200192915050565b60008284528282602086013780602084860101526020601f19601f85011685010190509392505050565b9687526020870195909552606093841b6bffffffffffffffffffffffff19908116604088015292841b83166054870152606886019190915290911b16608883015260e01b6001600160e01b031916609c82015260a00190565b60008251612684818460208701612f16565b9190910192915050565b60008085546001808216600081146126ad57600181146126c4576126f3565b60ff198316865260028304607f16860193506126f3565b600283048986526020808720875b838110156126eb5781548a8201529085019082016126d2565b505050860193505b505050838582379092019182525092915050565b6001600160a01b0391909116815260200190565b6001600160a01b039384168152919092166020820152604081019190915260600190565b6001600160a01b03929092168252602082015260400190565b6001600160a01b039490941684526020840192909252604083015263ffffffff16606082015260800190565b6001600160a01b038616815260a0602082018190526000906127a8908301876125c3565b85604084015284606084015282810360808401526127c681856125c3565b98975050505050505050565b6001600160a01b0393841681526020810192909252909116604082015260600190565b6001600160a01b0395861681526020810194909452604084019290925263ffffffff166060830152909116608082015260a00190565b901515815260200190565b90815260200190565b6001600160e01b031991909116815260200190565b60006080825261286860808301898b6125ef565b828103602084015261287a81896125c3565b9050828103604084015261288f8187896125ef565b905082810360608401526128a48185876125ef565b9a9950505050505050505050565b600060208252611e9d60208301846125c3565b60208082526025908201527f5265656e7472616e637947756172643a206e6f207265656e7472616e7420616c6040820152641b1bddd95960da1b606082015260800190565b60208082526014908201527314185d5cd8589b194e881b9bdd081c185d5cd95960621b604082015260600190565b6020808252601f908201527f526f6c65733a206163636f756e7420616c72656164792068617320726f6c6500604082015260600190565b60208082526019908201527f4e46544272696467653a20696e76616c69642073656e64657200000000000000604082015260600190565b60208082526026908201527f4e46544272696467653a204e756c6c206f726967696e616c20746f6b656e206160408201526564647265737360d01b606082015260800190565b6020808252601b908201527f4e46544272696467653a2057726f6e6720747844617461486173680000000000604082015260600190565b6020808252601190820152704272696467653a20557067726164696e6760781b604082015260600190565b6020808252818101527f526f6c65733a206163636f756e7420646f65736e2774206861766520726f6c65604082015260600190565b60208082526028908201527f436f6e747261637420696e7374616e636520697320616c726561647920696e696040820152671d1a585b1a5e995960c21b606082015260800190565b60208082526028908201527f506175736572526f6c653a2063616c6c657220646f65736e277420686176652060408201526774686520726f6c6560c01b606082015260800190565b60208082526024908201527f4e46544272696467653a205369646520746f6b656e20616c72656164792065786040820152636973747360e01b606082015260800190565b60208082526010908201526f14185d5cd8589b194e881c185d5cd95960821b604082015260600190565b6020808252601490820152734e46544272696467653a204e756c6c2046726f6d60601b604082015260600190565b60208082526016908201527509c8ca884e4d2c8ceca74409cead8d840a8f090c2e6d60531b604082015260600190565b60208082526019908201527f4e46544272696467653a204e6f742046656465726174696f6e00000000000000604082015260600190565b6020808252818101527f4f776e61626c653a2063616c6c6572206973206e6f7420746865206f776e6572604082015260600190565b60208082526022908201527f526f6c65733a206163636f756e7420697320746865207a65726f206164647265604082015261737360f01b606082015260800190565b6020808252601e908201527f4e46544272696467653a2046656465726174696f6e20697320656d7074790000604082015260600190565b6020808252601a908201527f4e46544272696467653a20416c726561647920636c61696d6564000000000000604082015260600190565b60208082526018908201527f4e46544272696467653a20556e6b6e6f776e20746f6b656e0000000000000000604082015260600190565b6020808252601b908201527f4e46544272696467653a20416c72656164792061636365707465640000000000604082015260600190565b6020808252602a908201527f4e46544272696467653a2076616c756520697320736d616c6c6572207468616e6040820152692066697865642066656560b01b606082015260800190565b6020808252601290820152714e46544272696467653a204e756c6c20546f60701b604082015260600190565b6020808252601f908201527f4e46544272696467653a20416c6c6f77546f6b656e7320697320656d70747900604082015260600190565b60208082526019908201527f4e46544272696467653a204e756c6c20426c6f636b4861736800000000000000604082015260600190565b60208082526022908201527f4f776e61626c653a206e6577206f776e6572206973207a65726f206164647265604082015261737360f01b606082015260800190565b60208082526021908201527f4e46544272696467653a20656d7074792053696465546f6b656e466163746f726040820152607960f81b606082015260800190565b60405181810167ffffffffffffffff81118282101715612eec57fe5b604052919050565b600067ffffffffffffffff821115612f0857fe5b50601f01601f191660200190565b60005b83811015612f31578181015183820152602001612f19565b83811115612f40576000848401525b50505050565b6001600160a01b038116811461083357600080fdfea2646970667358221220c2db86366b65f97c4730018c60c95ed2c68e7f2ccd8332c152047ef6d532db2764736f6c63430007060033",
  "devdoc": {
    "kind": "dev",
    "methods": {
      "__Pausable_init(address)": {
        "details": "Initializes the contract in unpaused state. Assigns the Pauser role to the deployer."
      },
      "initialize(address)": {
        "details": "Initializes the contract setting the deployer as the initial owner."
      },
      "isOwner()": {
        "details": "Returns true if the caller is the current owner."
      },
      "owner()": {
        "details": "Returns the address of the current owner."
      },
      "pause()": {
        "details": "Called by a pauser to pause, triggers stopped state."
      },
      "paused()": {
        "details": "Returns true if the contract is paused, and false otherwise."
      },
      "renounceOwnership()": {
        "details": "Leaves the contract without owner. It will not be possible to call `onlyOwner` functions anymore. Can only be called by the current owner. > Note: Renouncing ownership will leave the contract without an owner, thereby removing any functionality that is only available to the owner."
      },
      "transferOwnership(address)": {
        "details": "Transfers ownership of the contract to a new account (`newOwner`). Can only be called by the current owner."
      },
      "unpause()": {
        "details": "Called by a pauser to unpause, returns to normal state."
      }
    },
    "version": 1
  },
  "userdoc": {
    "kind": "user",
    "methods": {
      "claim((address,address,uint256,address,bytes32,bytes32,uint32))": {
        "notice": "Claims the crossed transaction using the hash, this sends the token to the address specified in the claim data"
      },
      "onERC721Received(address,address,uint256,bytes)": {
        "notice": "Always returns `IERC721Receiver.onERC721Received.selector`."
      },
      "receiveTokensTo(address,address,uint256)": {
        "notice": "ERC-20 tokens approve and transferFrom pattern See https://eips.ethereum.org/EIPS/eip-20#transferfrom"
      }
    },
    "version": 1
  },
  "storageLayout": {
    "storage": [
      {
        "astId": 15789,
        "contract": "contracts/nftbridge/NFTBridge.sol:NFTBridge",
        "label": "initialized",
        "offset": 0,
        "slot": "0",
        "type": "t_bool"
      },
      {
        "astId": 15792,
        "contract": "contracts/nftbridge/NFTBridge.sol:NFTBridge",
        "label": "initializing",
        "offset": 1,
        "slot": "0",
        "type": "t_bool"
      },
      {
        "astId": 15832,
        "contract": "contracts/nftbridge/NFTBridge.sol:NFTBridge",
        "label": "______gap",
        "offset": 0,
        "slot": "1",
        "type": "t_array(t_uint256)50_storage"
      },
      {
        "astId": 15856,
        "contract": "contracts/nftbridge/NFTBridge.sol:NFTBridge",
        "label": "_pausers",
        "offset": 0,
        "slot": "51",
        "type": "t_struct(Role)10133_storage"
      },
      {
        "astId": 15978,
        "contract": "contracts/nftbridge/NFTBridge.sol:NFTBridge",
        "label": "_paused",
        "offset": 0,
        "slot": "52",
        "type": "t_bool"
      },
      {
        "astId": 16076,
        "contract": "contracts/nftbridge/NFTBridge.sol:NFTBridge",
        "label": "_owner",
        "offset": 1,
        "slot": "52",
        "type": "t_address"
      },
      {
        "astId": 16790,
        "contract": "contracts/nftbridge/NFTBridge.sol:NFTBridge",
        "label": "_guardCounter",
        "offset": 0,
        "slot": "53",
        "type": "t_uint256"
      },
      {
        "astId": 8062,
        "contract": "contracts/nftbridge/NFTBridge.sol:NFTBridge",
        "label": "federation",
        "offset": 0,
        "slot": "54",
        "type": "t_address_payable"
      },
      {
        "astId": 8064,
        "contract": "contracts/nftbridge/NFTBridge.sol:NFTBridge",
        "label": "fixedFee",
        "offset": 0,
        "slot": "55",
        "type": "t_uint256"
      },
      {
        "astId": 8066,
        "contract": "contracts/nftbridge/NFTBridge.sol:NFTBridge",
        "label": "symbolPrefix",
        "offset": 0,
        "slot": "56",
        "type": "t_string_storage"
      },
      {
        "astId": 8070,
        "contract": "contracts/nftbridge/NFTBridge.sol:NFTBridge",
        "label": "sideTokenAddressByOriginalTokenAddress",
        "offset": 0,
        "slot": "57",
        "type": "t_mapping(t_address,t_address)"
      },
      {
        "astId": 8074,
        "contract": "contracts/nftbridge/NFTBridge.sol:NFTBridge",
        "label": "originalTokenAddressBySideTokenAddress",
        "offset": 0,
        "slot": "58",
        "type": "t_mapping(t_address,t_address)"
      },
      {
        "astId": 8078,
        "contract": "contracts/nftbridge/NFTBridge.sol:NFTBridge",
        "label": "isAddressFromCrossedOriginalToken",
        "offset": 0,
        "slot": "59",
        "type": "t_mapping(t_address,t_bool)"
      },
      {
        "astId": 8082,
        "contract": "contracts/nftbridge/NFTBridge.sol:NFTBridge",
        "label": "claimed",
        "offset": 0,
        "slot": "60",
        "type": "t_mapping(t_bytes32,t_bool)"
      },
      {
        "astId": 8084,
        "contract": "contracts/nftbridge/NFTBridge.sol:NFTBridge",
        "label": "allowTokens",
        "offset": 0,
        "slot": "61",
        "type": "t_contract(IAllowTokens)7210"
      },
      {
        "astId": 8086,
        "contract": "contracts/nftbridge/NFTBridge.sol:NFTBridge",
        "label": "sideTokenFactory",
        "offset": 0,
        "slot": "62",
        "type": "t_contract(ISideNFTTokenFactory)7998"
      },
      {
        "astId": 8088,
        "contract": "contracts/nftbridge/NFTBridge.sol:NFTBridge",
        "label": "isUpgrading",
        "offset": 20,
        "slot": "62",
        "type": "t_bool"
      },
      {
        "astId": 8092,
        "contract": "contracts/nftbridge/NFTBridge.sol:NFTBridge",
        "label": "transactionDataHashes",
        "offset": 0,
        "slot": "63",
        "type": "t_mapping(t_bytes32,t_bytes32)"
      }
    ],
    "types": {
      "t_address": {
        "encoding": "inplace",
        "label": "address",
        "numberOfBytes": "20"
      },
      "t_address_payable": {
        "encoding": "inplace",
        "label": "address payable",
        "numberOfBytes": "20"
      },
      "t_array(t_uint256)50_storage": {
        "base": "t_uint256",
        "encoding": "inplace",
        "label": "uint256[50]",
        "numberOfBytes": "1600"
      },
      "t_bool": {
        "encoding": "inplace",
        "label": "bool",
        "numberOfBytes": "1"
      },
      "t_bytes32": {
        "encoding": "inplace",
        "label": "bytes32",
        "numberOfBytes": "32"
      },
      "t_contract(IAllowTokens)7210": {
        "encoding": "inplace",
        "label": "contract IAllowTokens",
        "numberOfBytes": "20"
      },
      "t_contract(ISideNFTTokenFactory)7998": {
        "encoding": "inplace",
        "label": "contract ISideNFTTokenFactory",
        "numberOfBytes": "20"
      },
      "t_mapping(t_address,t_address)": {
        "encoding": "mapping",
        "key": "t_address",
        "label": "mapping(address => address)",
        "numberOfBytes": "32",
        "value": "t_address"
      },
      "t_mapping(t_address,t_bool)": {
        "encoding": "mapping",
        "key": "t_address",
        "label": "mapping(address => bool)",
        "numberOfBytes": "32",
        "value": "t_bool"
      },
      "t_mapping(t_bytes32,t_bool)": {
        "encoding": "mapping",
        "key": "t_bytes32",
        "label": "mapping(bytes32 => bool)",
        "numberOfBytes": "32",
        "value": "t_bool"
      },
      "t_mapping(t_bytes32,t_bytes32)": {
        "encoding": "mapping",
        "key": "t_bytes32",
        "label": "mapping(bytes32 => bytes32)",
        "numberOfBytes": "32",
        "value": "t_bytes32"
      },
      "t_string_storage": {
        "encoding": "bytes",
        "label": "string",
        "numberOfBytes": "32"
      },
      "t_struct(Role)10133_storage": {
        "encoding": "inplace",
        "label": "struct Roles.Role",
        "members": [
          {
            "astId": 10132,
            "contract": "contracts/nftbridge/NFTBridge.sol:NFTBridge",
            "label": "bearer",
            "offset": 0,
            "slot": "0",
            "type": "t_mapping(t_address,t_bool)"
          }
        ],
        "numberOfBytes": "32"
      },
      "t_uint256": {
        "encoding": "inplace",
        "label": "uint256",
        "numberOfBytes": "32"
      }
    }
  }
}