{
  "address": "0xF0C541AB4e8b780f3e4F5E32d2bA4f2149d8baec",
  "abi": [
    {
      "inputs": [
        {
          "internalType": "string",
          "name": "name_",
          "type": "string"
        },
        {
          "internalType": "string",
          "name": "symbol_",
          "type": "string"
        }
      ],
      "stateMutability": "nonpayable",
      "type": "constructor"
    },
    {
      "anonymous": false,
      "inputs": [
        {
          "indexed": true,
          "internalType": "address",
          "name": "owner",
          "type": "address"
        },
        {
          "indexed": true,
          "internalType": "address",
          "name": "approved",
          "type": "address"
        },
        {
          "indexed": true,
          "internalType": "uint256",
          "name": "tokenId",
          "type": "uint256"
        }
      ],
      "name": "Approval",
      "type": "event"
    },
    {
      "anonymous": false,
      "inputs": [
        {
          "indexed": true,
          "internalType": "address",
          "name": "owner",
          "type": "address"
        },
        {
          "indexed": true,
          "internalType": "address",
          "name": "operator",
          "type": "address"
        },
        {
          "indexed": false,
          "internalType": "bool",
          "name": "approved",
          "type": "bool"
        }
      ],
      "name": "ApprovalForAll",
      "type": "event"
    },
    {
      "anonymous": false,
      "inputs": [
        {
          "indexed": true,
          "internalType": "address",
          "name": "from",
          "type": "address"
        },
        {
          "indexed": true,
          "internalType": "address",
          "name": "to",
          "type": "address"
        },
        {
          "indexed": true,
          "internalType": "uint256",
          "name": "tokenId",
          "type": "uint256"
        }
      ],
      "name": "Transfer",
      "type": "event"
    },
    {
      "inputs": [
        {
          "internalType": "address",
          "name": "to",
          "type": "address"
        },
        {
          "internalType": "uint256",
          "name": "tokenId",
          "type": "uint256"
        }
      ],
      "name": "approve",
      "outputs": [],
      "stateMutability": "nonpayable",
      "type": "function"
    },
    {
      "inputs": [
        {
          "internalType": "address",
          "name": "owner",
          "type": "address"
        }
      ],
      "name": "balanceOf",
      "outputs": [
        {
          "internalType": "uint256",
          "name": "",
          "type": "uint256"
        }
      ],
      "stateMutability": "view",
      "type": "function"
    },
    {
      "inputs": [],
      "name": "baseURI",
      "outputs": [
        {
          "internalType": "string",
          "name": "",
          "type": "string"
        }
      ],
      "stateMutability": "view",
      "type": "function"
    },
    {
      "inputs": [],
      "name": "contractURI",
      "outputs": [
        {
          "internalType": "string",
          "name": "",
          "type": "string"
        }
      ],
      "stateMutability": "view",
      "type": "function"
    },
    {
      "inputs": [
        {
          "internalType": "uint256",
          "name": "tokenId",
          "type": "uint256"
        }
      ],
      "name": "getApproved",
      "outputs": [
        {
          "internalType": "address",
          "name": "",
          "type": "address"
        }
      ],
      "stateMutability": "view",
      "type": "function"
    },
    {
      "inputs": [
        {
          "internalType": "address",
          "name": "owner",
          "type": "address"
        },
        {
          "internalType": "address",
          "name": "operator",
          "type": "address"
        }
      ],
      "name": "isApprovedForAll",
      "outputs": [
        {
          "internalType": "bool",
          "name": "",
          "type": "bool"
        }
      ],
      "stateMutability": "view",
      "type": "function"
    },
    {
      "inputs": [],
      "name": "name",
      "outputs": [
        {
          "internalType": "string",
          "name": "",
          "type": "string"
        }
      ],
      "stateMutability": "view",
      "type": "function"
    },
    {
      "inputs": [
        {
          "internalType": "uint256",
          "name": "tokenId",
          "type": "uint256"
        }
      ],
      "name": "ownerOf",
      "outputs": [
        {
          "internalType": "address",
          "name": "",
          "type": "address"
        }
      ],
      "stateMutability": "view",
      "type": "function"
    },
    {
      "inputs": [
        {
          "internalType": "address",
          "name": "to",
          "type": "address"
        },
        {
          "internalType": "uint256",
          "name": "tokenId",
          "type": "uint256"
        }
      ],
      "name": "safeMint",
      "outputs": [],
      "stateMutability": "nonpayable",
      "type": "function"
    },
    {
      "inputs": [
        {
          "internalType": "address",
          "name": "from",
          "type": "address"
        },
        {
          "internalType": "address",
          "name": "to",
          "type": "address"
        },
        {
          "internalType": "uint256",
          "name": "tokenId",
          "type": "uint256"
        }
      ],
      "name": "safeTransferFrom",
      "outputs": [],
      "stateMutability": "nonpayable",
      "type": "function"
    },
    {
      "inputs": [
        {
          "internalType": "address",
          "name": "from",
          "type": "address"
        },
        {
          "internalType": "address",
          "name": "to",
          "type": "address"
        },
        {
          "internalType": "uint256",
          "name": "tokenId",
          "type": "uint256"
        },
        {
          "internalType": "bytes",
          "name": "_data",
          "type": "bytes"
        }
      ],
      "name": "safeTransferFrom",
      "outputs": [],
      "stateMutability": "nonpayable",
      "type": "function"
    },
    {
      "inputs": [
        {
          "internalType": "address",
          "name": "operator",
          "type": "address"
        },
        {
          "internalType": "bool",
          "name": "approved",
          "type": "bool"
        }
      ],
      "name": "setApprovalForAll",
      "outputs": [],
      "stateMutability": "nonpayable",
      "type": "function"
    },
    {
      "inputs": [
        {
          "internalType": "string",
          "name": "baseURI",
          "type": "string"
        }
      ],
      "name": "setBaseURI",
      "outputs": [],
      "stateMutability": "nonpayable",
      "type": "function"
    },
    {
      "inputs": [
        {
          "internalType": "string",
          "name": "contractURI_",
          "type": "string"
        }
      ],
      "name": "setContractURI",
      "outputs": [],
      "stateMutability": "nonpayable",
      "type": "function"
    },
    {
      "inputs": [
        {
          "internalType": "uint256",
          "name": "tokenId",
          "type": "uint256"
        },
        {
          "internalType": "string",
          "name": "_tokenURI",
          "type": "string"
        }
      ],
      "name": "setTokenURI",
      "outputs": [],
      "stateMutability": "nonpayable",
      "type": "function"
    },
    {
      "inputs": [
        {
          "internalType": "bytes4",
          "name": "interfaceId",
          "type": "bytes4"
        }
      ],
      "name": "supportsInterface",
      "outputs": [
        {
          "internalType": "bool",
          "name": "",
          "type": "bool"
        }
      ],
      "stateMutability": "view",
      "type": "function"
    },
    {
      "inputs": [],
      "name": "symbol",
      "outputs": [
        {
          "internalType": "string",
          "name": "",
          "type": "string"
        }
      ],
      "stateMutability": "view",
      "type": "function"
    },
    {
      "inputs": [
        {
          "internalType": "uint256",
          "name": "index",
          "type": "uint256"
        }
      ],
      "name": "tokenByIndex",
      "outputs": [
        {
          "internalType": "uint256",
          "name": "",
          "type": "uint256"
        }
      ],
      "stateMutability": "view",
      "type": "function"
    },
    {
      "inputs": [
        {
          "internalType": "address",
          "name": "owner",
          "type": "address"
        },
        {
          "internalType": "uint256",
          "name": "index",
          "type": "uint256"
        }
      ],
      "name": "tokenOfOwnerByIndex",
      "outputs": [
        {
          "internalType": "uint256",
          "name": "",
          "type": "uint256"
        }
      ],
      "stateMutability": "view",
      "type": "function"
    },
    {
      "inputs": [
        {
          "internalType": "uint256",
          "name": "tokenId",
          "type": "uint256"
        }
      ],
      "name": "tokenURI",
      "outputs": [
        {
          "internalType": "string",
          "name": "",
          "type": "string"
        }
      ],
      "stateMutability": "view",
      "type": "function"
    },
    {
      "inputs": [],
      "name": "totalSupply",
      "outputs": [
        {
          "internalType": "uint256",
          "name": "",
          "type": "uint256"
        }
      ],
      "stateMutability": "view",
      "type": "function"
    },
    {
      "inputs": [
        {
          "internalType": "address",
          "name": "from",
          "type": "address"
        },
        {
          "internalType": "address",
          "name": "to",
          "type": "address"
        },
        {
          "internalType": "uint256",
          "name": "tokenId",
          "type": "uint256"
        }
      ],
      "name": "transferFrom",
      "outputs": [],
      "stateMutability": "nonpayable",
      "type": "function"
    }
  ],
  "transactionHash": "0xf33df5c1fba0c36fcc5913c0f1b3dc9207e6279088c5f4afdcf905b42764824b",
  "args": [
    "The Drops",
    "drop"
  ],
  "solcInputHash": "f57b3a626f709a0447a665aac92698b7",
  "bytecode": "0x60806040523480156200001157600080fd5b50604051620022da380380620022da833981810160405260408110156200003757600080fd5b81019080805160405193929190846401000000008211156200005857600080fd5b9083019060208201858111156200006e57600080fd5b82516401000000008111828201881017156200008957600080fd5b82525081516020918201929091019080838360005b83811015620000b85781810151838201526020016200009e565b50505050905090810190601f168015620000e65780820380516001836020036101000a031916815260200191505b50604052602001805160405193929190846401000000008211156200010a57600080fd5b9083019060208201858111156200012057600080fd5b82516401000000008111828201881017156200013b57600080fd5b82525081516020918201929091019080838360005b838110156200016a57818101518382015260200162000150565b50505050905090810190601f168015620001985780820380516001836020036101000a031916815260200191505b5060405250839150829050620001b56301ffc9a760e01b62000221565b8151620001ca906006906020850190620002a6565b508051620001e0906007906020840190620002a6565b50620001f36380ac58cd60e01b62000221565b62000205635b5e139f60e01b62000221565b6200021763780e9d6360e01b62000221565b5050505062000352565b6001600160e01b0319808216141562000281576040805162461bcd60e51b815260206004820152601c60248201527f4552433136353a20696e76616c696420696e7465726661636520696400000000604482015290519081900360640190fd5b6001600160e01b0319166000908152602081905260409020805460ff19166001179055565b828054600181600116156101000203166002900490600052602060002090601f016020900481019282620002de576000855562000329565b82601f10620002f957805160ff191683800117855562000329565b8280016001018555821562000329579182015b82811115620003295782518255916020019190600101906200030c565b50620003379291506200033b565b5090565b5b808211156200033757600081556001016200033c565b611f7880620003626000396000f3fe608060405234801561001057600080fd5b50600436106101425760003560e01c80636352211e116100b8578063a14481941161007c578063a14481941461057b578063a22cb465146105a7578063b88d4fde146105d5578063c87b56dd14610699578063e8a3d485146106b6578063e985e9c5146106be57610142565b80636352211e146104845780636c0360eb146104a157806370a08231146104a9578063938e3d7b146104cf57806395d89b411461057357610142565b806318160ddd1161010a57806318160ddd1461031157806323b872dd1461032b5780632f745c591461036157806342842e0e1461038d5780634f6ccce7146103c357806355f804b3146103e057610142565b806301ffc9a71461014757806306fdde0314610182578063081812fc146101ff578063095ea7b314610238578063162094c414610266575b600080fd5b61016e6004803603602081101561015d57600080fd5b50356001600160e01b0319166106ec565b604080519115158252519081900360200190f35b61018a61070f565b6040805160208082528351818301528351919283929083019185019080838360005b838110156101c45781810151838201526020016101ac565b50505050905090810190601f1680156101f15780820380516001836020036101000a031916815260200191505b509250505060405180910390f35b61021c6004803603602081101561021557600080fd5b50356107a5565b604080516001600160a01b039092168252519081900360200190f35b6102646004803603604081101561024e57600080fd5b506001600160a01b038135169060200135610807565b005b6102646004803603604081101561027c57600080fd5b81359190810190604081016020820135600160201b81111561029d57600080fd5b8201836020820111156102af57600080fd5b803590602001918460018302840111600160201b831117156102d057600080fd5b91908080601f0160208091040260200160405190810160405280939291908181526020018383808284376000920191909152509295506108e2945050505050565b6103196108f0565b60408051918252519081900360200190f35b6102646004803603606081101561034157600080fd5b506001600160a01b03813581169160208101359091169060400135610901565b6103196004803603604081101561037757600080fd5b506001600160a01b038135169060200135610958565b610264600480360360608110156103a357600080fd5b506001600160a01b03813581169160208101359091169060400135610983565b610319600480360360208110156103d957600080fd5b503561099e565b610264600480360360208110156103f657600080fd5b810190602081018135600160201b81111561041057600080fd5b82018360208201111561042257600080fd5b803590602001918460018302840111600160201b8311171561044357600080fd5b91908080601f0160208091040260200160405190810160405280939291908181526020018383808284376000920191909152509295506109b4945050505050565b61021c6004803603602081101561049a57600080fd5b50356109c0565b61018a6109e8565b610319600480360360208110156104bf57600080fd5b50356001600160a01b0316610a49565b610264600480360360208110156104e557600080fd5b810190602081018135600160201b8111156104ff57600080fd5b82018360208201111561051157600080fd5b803590602001918460018302840111600160201b8311171561053257600080fd5b91908080601f016020809104026020016040519081016040528093929190818152602001838380828437600092019190915250929550610ab1945050505050565b61018a610ac4565b6102646004803603604081101561059157600080fd5b506001600160a01b038135169060200135610b25565b610264600480360360408110156105bd57600080fd5b506001600160a01b0381351690602001351515610b2f565b610264600480360360808110156105eb57600080fd5b6001600160a01b03823581169260208101359091169160408201359190810190608081016060820135600160201b81111561062557600080fd5b82018360208201111561063757600080fd5b803590602001918460018302840111600160201b8311171561065857600080fd5b91908080601f016020809104026020016040519081016040528093929190818152602001838380828437600092019190915250929550610c34945050505050565b61018a600480360360208110156106af57600080fd5b5035610c92565b61018a610f13565b61016e600480360360408110156106d457600080fd5b506001600160a01b0381358116916020013516610f74565b6001600160e01b0319811660009081526020819052604090205460ff165b919050565b60068054604080516020601f600260001961010060018816150201909516949094049384018190048102820181019092528281526060939092909183018282801561079b5780601f106107705761010080835404028352916020019161079b565b820191906000526020600020905b81548152906001019060200180831161077e57829003601f168201915b5050505050905090565b60006107b082610fa2565b6107eb5760405162461bcd60e51b815260040180806020018281038252602c815260200180611e41602c913960400191505060405180910390fd5b506000908152600460205260409020546001600160a01b031690565b6000610812826109c0565b9050806001600160a01b0316836001600160a01b031614156108655760405162461bcd60e51b8152600401808060200182810382526021815260200180611ef16021913960400191505060405180910390fd5b806001600160a01b0316610877610faf565b6001600160a01b03161480610898575061089881610893610faf565b610f74565b6108d35760405162461bcd60e51b8152600401808060200182810382526038815260200180611d946038913960400191505060405180910390fd5b6108dd8383610fb3565b505050565b6108ec8282611021565b5050565b60006108fc6002611084565b905090565b61091261090c610faf565b8261108f565b61094d5760405162461bcd60e51b8152600401808060200182810382526031815260200180611f126031913960400191505060405180910390fd5b6108dd838383611133565b6001600160a01b038216600090815260016020526040812061097a908361127f565b90505b92915050565b6108dd83838360405180602001604052806000815250610c34565b6000806109ac60028461128b565b509392505050565b6109bd816112a7565b50565b600061097d82604051806060016040528060298152602001611df660299139600291906112ba565b60098054604080516020601f600260001961010060018816150201909516949094049384018190048102820181019092528281526060939092909183018282801561079b5780601f106107705761010080835404028352916020019161079b565b60006001600160a01b038216610a905760405162461bcd60e51b815260040180806020018281038252602a815260200180611dcc602a913960400191505060405180910390fd5b6001600160a01b038216600090815260016020526040902061097d90611084565b80516108ec90600a906020840190611b9c565b60078054604080516020601f600260001961010060018816150201909516949094049384018190048102820181019092528281526060939092909183018282801561079b5780601f106107705761010080835404028352916020019161079b565b6108ec82826112d1565b610b37610faf565b6001600160a01b0316826001600160a01b03161415610b9d576040805162461bcd60e51b815260206004820152601960248201527f4552433732313a20617070726f766520746f2063616c6c657200000000000000604482015290519081900360640190fd5b8060056000610baa610faf565b6001600160a01b03908116825260208083019390935260409182016000908120918716808252919093529120805460ff191692151592909217909155610bee610faf565b6001600160a01b03167f17307eab39ab6107e8899845ad3d59bd9653f200f220920489ca2b5937696c318360405180821515815260200191505060405180910390a35050565b610c45610c3f610faf565b8361108f565b610c805760405162461bcd60e51b8152600401808060200182810382526031815260200180611f126031913960400191505060405180910390fd5b610c8c848484846112eb565b50505050565b6060610c9d82610fa2565b610cd85760405162461bcd60e51b815260040180806020018281038252602f815260200180611ec2602f913960400191505060405180910390fd5b60008281526008602090815260408083208054825160026001831615610100026000190190921691909104601f810185900485028201850190935282815292909190830182828015610d6b5780601f10610d4057610100808354040283529160200191610d6b565b820191906000526020600020905b815481529060010190602001808311610d4e57829003601f168201915b505050505090506000610d7c6109e8565b9050805160001415610d905750905061070a565b815115610e515780826040516020018083805190602001908083835b60208310610dcb5780518252601f199092019160209182019101610dac565b51815160209384036101000a600019018019909216911617905285519190930192850191508083835b60208310610e135780518252601f199092019160209182019101610df4565b6001836020036101000a038019825116818451168082178552505050505050905001925050506040516020818303038152906040529250505061070a565b80610e5b8561133d565b6040516020018083805190602001908083835b60208310610e8d5780518252601f199092019160209182019101610e6e565b51815160209384036101000a600019018019909216911617905285519190930192850191508083835b60208310610ed55780518252601f199092019160209182019101610eb6565b6001836020036101000a0380198251168184511680821785525050505050509050019250505060405160208183030381529060405292505050919050565b600a8054604080516020601f600260001961010060018816150201909516949094049384018190048102820181019092528281526060939092909183018282801561079b5780601f106107705761010080835404028352916020019161079b565b6001600160a01b03918216600090815260056020908152604080832093909416825291909152205460ff1690565b600061097d600283611418565b3390565b600081815260046020526040902080546001600160a01b0319166001600160a01b0384169081179091558190610fe8826109c0565b6001600160a01b03167f8c5be1e5ebec7d5bd14f71427d1e84f3dd0314c0f7b2291e5b200ac8c7c3b92560405160405180910390a45050565b61102a82610fa2565b6110655760405162461bcd60e51b815260040180806020018281038252602c815260200180611e6d602c913960400191505060405180910390fd5b600082815260086020908152604090912082516108dd92840190611b9c565b600061097d82611424565b600061109a82610fa2565b6110d55760405162461bcd60e51b815260040180806020018281038252602c815260200180611d68602c913960400191505060405180910390fd5b60006110e0836109c0565b9050806001600160a01b0316846001600160a01b0316148061111b5750836001600160a01b0316611110846107a5565b6001600160a01b0316145b8061112b575061112b8185610f74565b949350505050565b826001600160a01b0316611146826109c0565b6001600160a01b03161461118b5760405162461bcd60e51b8152600401808060200182810382526029815260200180611e996029913960400191505060405180910390fd5b6001600160a01b0382166111d05760405162461bcd60e51b8152600401808060200182810382526024815260200180611d446024913960400191505060405180910390fd5b6111db8383836108dd565b6111e6600082610fb3565b6001600160a01b03831660009081526001602052604090206112089082611428565b506001600160a01b038216600090815260016020526040902061122b9082611434565b5061123860028284611440565b5080826001600160a01b0316846001600160a01b03167fddf252ad1be2c89b69c2b068fc378daa952ba7f163c4a11628f55a4df523b3ef60405160405180910390a4505050565b600061097a8383611456565b600080808061129a86866114ba565b9097909650945050505050565b80516108ec906009906020840190611b9c565b60006112c7848484611535565b90505b9392505050565b6108ec8282604051806020016040528060008152506115ff565b6112f6848484611133565b61130284848484611651565b610c8c5760405162461bcd60e51b8152600401808060200182810382526032815260200180611d126032913960400191505060405180910390fd5b60608161136257506040805180820190915260018152600360fc1b602082015261070a565b8160005b811561137a57600101600a82049150611366565b60008167ffffffffffffffff8111801561139357600080fd5b506040519080825280601f01601f1916602001820160405280156113be576020820181803683370190505b50859350905060001982015b831561140f57600a840660300160f81b828280600190039350815181106113ed57fe5b60200101906001600160f81b031916908160001a905350600a840493506113ca565b50949350505050565b600061097a83836117b9565b5490565b600061097a83836117d1565b600061097a8383611897565b60006112c784846001600160a01b0385166118e1565b815460009082106114985760405162461bcd60e51b8152600401808060200182810382526022815260200180611cf06022913960400191505060405180910390fd5b8260000182815481106114a757fe5b9060005260206000200154905092915050565b8154600090819083106114fe5760405162461bcd60e51b8152600401808060200182810382526022815260200180611e1f6022913960400191505060405180910390fd5b600084600001848154811061150f57fe5b906000526020600020906002020190508060000154816001015492509250509250929050565b600082815260018401602052604081205482816115d05760405162461bcd60e51b81526004018080602001828103825283818151815260200191508051906020019080838360005b8381101561159557818101518382015260200161157d565b50505050905090810190601f1680156115c25780820380516001836020036101000a031916815260200191505b509250505060405180910390fd5b508460000160018203815481106115e357fe5b9060005260206000209060020201600101549150509392505050565b6116098383611978565b6116166000848484611651565b6108dd5760405162461bcd60e51b8152600401808060200182810382526032815260200180611d126032913960400191505060405180910390fd5b6000611665846001600160a01b0316611aa6565b6116715750600161112b565b600061177f630a85bd0160e11b611686610faf565b88878760405160240180856001600160a01b03168152602001846001600160a01b0316815260200183815260200180602001828103825283818151815260200191508051906020019080838360005b838110156116ed5781810151838201526020016116d5565b50505050905090810190601f16801561171a5780820380516001836020036101000a031916815260200191505b5095505050505050604051602081830303815290604052906001600160e01b0319166020820180516001600160e01b038381831617835250505050604051806060016040528060328152602001611d12603291396001600160a01b0388169190611aac565b9050600081806020019051602081101561179857600080fd5b50516001600160e01b031916630a85bd0160e11b1492505050949350505050565b60009081526001919091016020526040902054151590565b6000818152600183016020526040812054801561188d578354600019808301919081019060009087908390811061180457fe5b906000526020600020015490508087600001848154811061182157fe5b60009182526020808320909101929092558281526001898101909252604090209084019055865487908061185157fe5b6001900381819060005260206000200160009055905586600101600087815260200190815260200160002060009055600194505050505061097d565b600091505061097d565b60006118a383836117b9565b6118d95750815460018181018455600084815260208082209093018490558454848252828601909352604090209190915561097d565b50600061097d565b6000828152600184016020526040812054806119465750506040805180820182528381526020808201848152865460018181018955600089815284812095516002909302909501918255915190820155865486845281880190925292909120556112ca565b8285600001600183038154811061195957fe5b90600052602060002090600202016001018190555060009150506112ca565b6001600160a01b0382166119d3576040805162461bcd60e51b815260206004820181905260248201527f4552433732313a206d696e7420746f20746865207a65726f2061646472657373604482015290519081900360640190fd5b6119dc81610fa2565b15611a2e576040805162461bcd60e51b815260206004820152601c60248201527f4552433732313a20746f6b656e20616c7265616479206d696e74656400000000604482015290519081900360640190fd5b611a3a600083836108dd565b6001600160a01b0382166000908152600160205260409020611a5c9082611434565b50611a6960028284611440565b5060405181906001600160a01b038416906000907fddf252ad1be2c89b69c2b068fc378daa952ba7f163c4a11628f55a4df523b3ef908290a45050565b3b151590565b60606112c7848460008585611ac5565b60405180910390fd5b611ace85611aa6565b611aea5760405162461bcd60e51b8152600401611abc90611c8c565b600080866001600160a01b03168587604051611b069190611c3d565b60006040518083038185875af1925050503d8060008114611b43576040519150601f19603f3d011682016040523d82523d6000602084013e611b48565b606091505b5091509150611b58828286611b63565b979650505050505050565b60608315611b725750816112ca565b825115611b825782518084602001fd5b8160405162461bcd60e51b8152600401611abc9190611c59565b828054600181600116156101000203166002900490600052602060002090601f016020900481019282611bd25760008555611c18565b82601f10611beb57805160ff1916838001178555611c18565b82800160010185558215611c18579182015b82811115611c18578251825591602001919060010190611bfd565b50611c24929150611c28565b5090565b5b80821115611c245760008155600101611c29565b60008251611c4f818460208701611cc3565b9190910192915050565b6000602082528251806020840152611c78816040850160208701611cc3565b601f01601f19169190910160400192915050565b6020808252601d908201527f416464726573733a2063616c6c20746f206e6f6e2d636f6e7472616374000000604082015260600190565b60005b83811015611cde578181015183820152602001611cc6565b83811115610c8c575050600091015256fe456e756d657261626c655365743a20696e646578206f7574206f6620626f756e64734552433732313a207472616e7366657220746f206e6f6e20455243373231526563656976657220696d706c656d656e7465724552433732313a207472616e7366657220746f20746865207a65726f20616464726573734552433732313a206f70657261746f7220717565727920666f72206e6f6e6578697374656e7420746f6b656e4552433732313a20617070726f76652063616c6c6572206973206e6f74206f776e6572206e6f7220617070726f76656420666f7220616c6c4552433732313a2062616c616e636520717565727920666f7220746865207a65726f20616464726573734552433732313a206f776e657220717565727920666f72206e6f6e6578697374656e7420746f6b656e456e756d657261626c654d61703a20696e646578206f7574206f6620626f756e64734552433732313a20617070726f76656420717565727920666f72206e6f6e6578697374656e7420746f6b656e4552433732314d657461646174613a2055524920736574206f66206e6f6e6578697374656e7420746f6b656e4552433732313a207472616e73666572206f6620746f6b656e2074686174206973206e6f74206f776e4552433732314d657461646174613a2055524920717565727920666f72206e6f6e6578697374656e7420746f6b656e4552433732313a20617070726f76616c20746f2063757272656e74206f776e65724552433732313a207472616e736665722063616c6c6572206973206e6f74206f776e6572206e6f7220617070726f766564a264697066735822122035771dce7eba2aa8f2ea7dea8aa8250633a73f64284bc80cfce60ee5b60e7f1664736f6c63430007060033",
  "devdoc": {
    "kind": "dev",
    "methods": {
      "approve(address,uint256)": {
        "details": "See {IERC721-approve}."
      },
      "balanceOf(address)": {
        "details": "See {IERC721-balanceOf}."
      },
      "baseURI()": {
        "details": "Returns the base URI set via {_setBaseURI}. This will be automatically added as a prefix in {tokenURI} to each token's URI, or to the token ID if no specific URI is set for that token ID."
      },
      "getApproved(uint256)": {
        "details": "See {IERC721-getApproved}."
      },
      "isApprovedForAll(address,address)": {
        "details": "See {IERC721-isApprovedForAll}."
      },
      "name()": {
        "details": "See {IERC721Metadata-name}."
      },
      "ownerOf(uint256)": {
        "details": "See {IERC721-ownerOf}."
      },
      "safeTransferFrom(address,address,uint256)": {
        "details": "See {IERC721-safeTransferFrom}."
      },
      "safeTransferFrom(address,address,uint256,bytes)": {
        "details": "See {IERC721-safeTransferFrom}."
      },
      "setApprovalForAll(address,bool)": {
        "details": "See {IERC721-setApprovalForAll}."
      },
      "supportsInterface(bytes4)": {
        "details": "See {IERC165-supportsInterface}. Time complexity O(1), guaranteed to always use less than 30 000 gas."
      },
      "symbol()": {
        "details": "See {IERC721Metadata-symbol}."
      },
      "tokenByIndex(uint256)": {
        "details": "See {IERC721Enumerable-tokenByIndex}."
      },
      "tokenOfOwnerByIndex(address,uint256)": {
        "details": "See {IERC721Enumerable-tokenOfOwnerByIndex}."
      },
      "tokenURI(uint256)": {
        "details": "See {IERC721Metadata-tokenURI}."
      },
      "totalSupply()": {
        "details": "See {IERC721Enumerable-totalSupply}."
      },
      "transferFrom(address,address,uint256)": {
        "details": "See {IERC721-transferFrom}."
      }
    },
    "version": 1
  },
  "userdoc": {
    "kind": "user",
    "methods": {},
    "version": 1
  },
  "storageLayout": {
    "storage": [
      {
        "astId": 10441,
        "contract": "contracts/test/nftbridge/NFTERC721TestToken.sol:NFTERC721TestToken",
        "label": "_supportedInterfaces",
        "offset": 0,
        "slot": "0",
        "type": "t_mapping(t_bytes4,t_bool)"
      },
      {
        "astId": 13327,
        "contract": "contracts/test/nftbridge/NFTERC721TestToken.sol:NFTERC721TestToken",
        "label": "_holderTokens",
        "offset": 0,
        "slot": "1",
        "type": "t_mapping(t_address,t_struct(UintSet)18075_storage)"
      },
      {
        "astId": 13329,
        "contract": "contracts/test/nftbridge/NFTERC721TestToken.sol:NFTERC721TestToken",
        "label": "_tokenOwners",
        "offset": 0,
        "slot": "2",
        "type": "t_struct(UintToAddressMap)17452_storage"
      },
      {
        "astId": 13333,
        "contract": "contracts/test/nftbridge/NFTERC721TestToken.sol:NFTERC721TestToken",
        "label": "_tokenApprovals",
        "offset": 0,
        "slot": "4",
        "type": "t_mapping(t_uint256,t_address)"
      },
      {
        "astId": 13339,
        "contract": "contracts/test/nftbridge/NFTERC721TestToken.sol:NFTERC721TestToken",
        "label": "_operatorApprovals",
        "offset": 0,
        "slot": "5",
        "type": "t_mapping(t_address,t_mapping(t_address,t_bool))"
      },
      {
        "astId": 13341,
        "contract": "contracts/test/nftbridge/NFTERC721TestToken.sol:NFTERC721TestToken",
        "label": "_name",
        "offset": 0,
        "slot": "6",
        "type": "t_string_storage"
      },
      {
        "astId": 13343,
        "contract": "contracts/test/nftbridge/NFTERC721TestToken.sol:NFTERC721TestToken",
        "label": "_symbol",
        "offset": 0,
        "slot": "7",
        "type": "t_string_storage"
      },
      {
        "astId": 13347,
        "contract": "contracts/test/nftbridge/NFTERC721TestToken.sol:NFTERC721TestToken",
        "label": "_tokenURIs",
        "offset": 0,
        "slot": "8",
        "type": "t_mapping(t_uint256,t_string_storage)"
      },
      {
        "astId": 13349,
        "contract": "contracts/test/nftbridge/NFTERC721TestToken.sol:NFTERC721TestToken",
        "label": "_baseURI",
        "offset": 0,
        "slot": "9",
        "type": "t_string_storage"
      },
      {
        "astId": 9801,
        "contract": "contracts/test/nftbridge/NFTERC721TestToken.sol:NFTERC721TestToken",
        "label": "_contractURI",
        "offset": 0,
        "slot": "10",
        "type": "t_string_storage"
      }
    ],
    "types": {
      "t_address": {
        "encoding": "inplace",
        "label": "address",
        "numberOfBytes": "20"
      },
      "t_array(t_bytes32)dyn_storage": {
        "base": "t_bytes32",
        "encoding": "dynamic_array",
        "label": "bytes32[]",
        "numberOfBytes": "32"
      },
      "t_array(t_struct(MapEntry)17126_storage)dyn_storage": {
        "base": "t_struct(MapEntry)17126_storage",
        "encoding": "dynamic_array",
        "label": "struct EnumerableMap.MapEntry[]",
        "numberOfBytes": "32"
      },
      "t_bool": {
        "encoding": "inplace",
        "label": "bool",
        "numberOfBytes": "1"
      },
      "t_bytes32": {
        "encoding": "inplace",
        "label": "bytes32",
        "numberOfBytes": "32"
      },
      "t_bytes4": {
        "encoding": "inplace",
        "label": "bytes4",
        "numberOfBytes": "4"
      },
      "t_mapping(t_address,t_bool)": {
        "encoding": "mapping",
        "key": "t_address",
        "label": "mapping(address => bool)",
        "numberOfBytes": "32",
        "value": "t_bool"
      },
      "t_mapping(t_address,t_mapping(t_address,t_bool))": {
        "encoding": "mapping",
        "key": "t_address",
        "label": "mapping(address => mapping(address => bool))",
        "numberOfBytes": "32",
        "value": "t_mapping(t_address,t_bool)"
      },
      "t_mapping(t_address,t_struct(UintSet)18075_storage)": {
        "encoding": "mapping",
        "key": "t_address",
        "label": "mapping(address => struct EnumerableSet.UintSet)",
        "numberOfBytes": "32",
        "value": "t_struct(UintSet)18075_storage"
      },
      "t_mapping(t_bytes32,t_uint256)": {
        "encoding": "mapping",
        "key": "t_bytes32",
        "label": "mapping(bytes32 => uint256)",
        "numberOfBytes": "32",
        "value": "t_uint256"
      },
      "t_mapping(t_bytes4,t_bool)": {
        "encoding": "mapping",
        "key": "t_bytes4",
        "label": "mapping(bytes4 => bool)",
        "numberOfBytes": "32",
        "value": "t_bool"
      },
      "t_mapping(t_uint256,t_address)": {
        "encoding": "mapping",
        "key": "t_uint256",
        "label": "mapping(uint256 => address)",
        "numberOfBytes": "32",
        "value": "t_address"
      },
      "t_mapping(t_uint256,t_string_storage)": {
        "encoding": "mapping",
        "key": "t_uint256",
        "label": "mapping(uint256 => string)",
        "numberOfBytes": "32",
        "value": "t_string_storage"
      },
      "t_string_storage": {
        "encoding": "bytes",
        "label": "string",
        "numberOfBytes": "32"
      },
      "t_struct(Map)17134_storage": {
        "encoding": "inplace",
        "label": "struct EnumerableMap.Map",
        "members": [
          {
            "astId": 17129,
            "contract": "contracts/test/nftbridge/NFTERC721TestToken.sol:NFTERC721TestToken",
            "label": "_entries",
            "offset": 0,
            "slot": "0",
            "type": "t_array(t_struct(MapEntry)17126_storage)dyn_storage"
          },
          {
            "astId": 17133,
            "contract": "contracts/test/nftbridge/NFTERC721TestToken.sol:NFTERC721TestToken",
            "label": "_indexes",
            "offset": 0,
            "slot": "1",
            "type": "t_mapping(t_bytes32,t_uint256)"
          }
        ],
        "numberOfBytes": "64"
      },
      "t_struct(MapEntry)17126_storage": {
        "encoding": "inplace",
        "label": "struct EnumerableMap.MapEntry",
        "members": [
          {
            "astId": 17123,
            "contract": "contracts/test/nftbridge/NFTERC721TestToken.sol:NFTERC721TestToken",
            "label": "_key",
            "offset": 0,
            "slot": "0",
            "type": "t_bytes32"
          },
          {
            "astId": 17125,
            "contract": "contracts/test/nftbridge/NFTERC721TestToken.sol:NFTERC721TestToken",
            "label": "_value",
            "offset": 0,
            "slot": "1",
            "type": "t_bytes32"
          }
        ],
        "numberOfBytes": "64"
      },
      "t_struct(Set)17689_storage": {
        "encoding": "inplace",
        "label": "struct EnumerableSet.Set",
        "members": [
          {
            "astId": 17684,
            "contract": "contracts/test/nftbridge/NFTERC721TestToken.sol:NFTERC721TestToken",
            "label": "_values",
            "offset": 0,
            "slot": "0",
            "type": "t_array(t_bytes32)dyn_storage"
          },
          {
            "astId": 17688,
            "contract": "contracts/test/nftbridge/NFTERC721TestToken.sol:NFTERC721TestToken",
            "label": "_indexes",
            "offset": 0,
            "slot": "1",
            "type": "t_mapping(t_bytes32,t_uint256)"
          }
        ],
        "numberOfBytes": "64"
      },
      "t_struct(UintSet)18075_storage": {
        "encoding": "inplace",
        "label": "struct EnumerableSet.UintSet",
        "members": [
          {
            "astId": 18074,
            "contract": "contracts/test/nftbridge/NFTERC721TestToken.sol:NFTERC721TestToken",
            "label": "_inner",
            "offset": 0,
            "slot": "0",
            "type": "t_struct(Set)17689_storage"
          }
        ],
        "numberOfBytes": "64"
      },
      "t_struct(UintToAddressMap)17452_storage": {
        "encoding": "inplace",
        "label": "struct EnumerableMap.UintToAddressMap",
        "members": [
          {
            "astId": 17451,
            "contract": "contracts/test/nftbridge/NFTERC721TestToken.sol:NFTERC721TestToken",
            "label": "_inner",
            "offset": 0,
            "slot": "0",
            "type": "t_struct(Map)17134_storage"
          }
        ],
        "numberOfBytes": "64"
      },
      "t_uint256": {
        "encoding": "inplace",
        "label": "uint256",
        "numberOfBytes": "32"
      }
    }
  }
}