{
  "address": "0x0b32Ea549AB1F9F7390442B5E9438b58A105cB5f",
  "abi": [
    {
      "anonymous": false,
      "inputs": [
        {
          "indexed": true,
          "internalType": "address",
          "name": "previousOwner",
          "type": "address"
        },
        {
          "indexed": true,
          "internalType": "address",
          "name": "newOwner",
          "type": "address"
        }
      ],
      "name": "OwnershipTransferred",
      "type": "event"
    },
    {
      "inputs": [
        {
          "internalType": "contract TransparentUpgradeableProxy",
          "name": "proxy",
          "type": "address"
        },
        {
          "internalType": "address",
          "name": "newAdmin",
          "type": "address"
        }
      ],
      "name": "changeProxyAdmin",
      "outputs": [],
      "stateMutability": "nonpayable",
      "type": "function"
    },
    {
      "inputs": [
        {
          "internalType": "contract TransparentUpgradeableProxy",
          "name": "proxy",
          "type": "address"
        }
      ],
      "name": "getProxyAdmin",
      "outputs": [
        {
          "internalType": "address",
          "name": "",
          "type": "address"
        }
      ],
      "stateMutability": "view",
      "type": "function"
    },
    {
      "inputs": [
        {
          "internalType": "contract TransparentUpgradeableProxy",
          "name": "proxy",
          "type": "address"
        }
      ],
      "name": "getProxyImplementation",
      "outputs": [
        {
          "internalType": "address",
          "name": "",
          "type": "address"
        }
      ],
      "stateMutability": "view",
      "type": "function"
    },
    {
      "inputs": [],
      "name": "isOwner",
      "outputs": [
        {
          "internalType": "bool",
          "name": "",
          "type": "bool"
        }
      ],
      "stateMutability": "view",
      "type": "function"
    },
    {
      "inputs": [],
      "name": "owner",
      "outputs": [
        {
          "internalType": "address",
          "name": "",
          "type": "address"
        }
      ],
      "stateMutability": "view",
      "type": "function"
    },
    {
      "inputs": [],
      "name": "renounceOwnership",
      "outputs": [],
      "stateMutability": "nonpayable",
      "type": "function"
    },
    {
      "inputs": [
        {
          "internalType": "address",
          "name": "newOwner",
          "type": "address"
        }
      ],
      "name": "transferOwnership",
      "outputs": [],
      "stateMutability": "nonpayable",
      "type": "function"
    },
    {
      "inputs": [
        {
          "internalType": "contract TransparentUpgradeableProxy",
          "name": "proxy",
          "type": "address"
        },
        {
          "internalType": "address",
          "name": "implementation",
          "type": "address"
        }
      ],
      "name": "upgrade",
      "outputs": [],
      "stateMutability": "nonpayable",
      "type": "function"
    },
    {
      "inputs": [
        {
          "internalType": "contract TransparentUpgradeableProxy",
          "name": "proxy",
          "type": "address"
        },
        {
          "internalType": "address",
          "name": "implementation",
          "type": "address"
        },
        {
          "internalType": "bytes",
          "name": "data",
          "type": "bytes"
        }
      ],
      "name": "upgradeAndCall",
      "outputs": [],
      "stateMutability": "payable",
      "type": "function"
    }
  ],
  "transactionHash": "0xa9f864fc2fe75d505453d69f6a7a7151db4185156e396c0cf21573663ea84280",
  "args": [],
  "solcInputHash": "f57b3a626f709a0447a665aac92698b7",
  "bytecode": "0x608060405234801561001057600080fd5b50610019610066565b600080546001600160a01b0319166001600160a01b03928316178082556040519216917f8be0079c531659141344cd1fd0a4f28419497f9722a3daafe3b4186f6b6457e0908290a361006a565b3390565b61079e806100796000396000f3fe6080604052600436106100865760003560e01c80638f32d59b116100595780638f32d59b1461010d5780639623609d1461012f57806399a88ec414610142578063f2fde38b14610162578063f3b7dead1461018257610086565b8063204e1c7a1461008b578063715018a6146100c15780637eff275e146100d85780638da5cb5b146100f8575b600080fd5b34801561009757600080fd5b506100ab6100a6366004610503565b6101a2565b6040516100b89190610656565b60405180910390f35b3480156100cd57600080fd5b506100d6610228565b005b3480156100e457600080fd5b506100d66100f3366004610542565b61029f565b34801561010457600080fd5b506100ab610325565b34801561011957600080fd5b50610122610334565b6040516100b891906106cd565b6100d661013d36600461057a565b610358565b34801561014e57600080fd5b506100d661015d366004610542565b6103e3565b34801561016e57600080fd5b506100d661017d366004610503565b610433565b34801561018e57600080fd5b506100ab61019d366004610503565b610463565b6000806000836001600160a01b03166040516101bd90610636565b600060405180830381855afa9150503d80600081146101f8576040519150601f19603f3d011682016040523d82523d6000602084013e6101fd565b606091505b50915091508161020c57600080fd5b808060200190518101906102209190610526565b949350505050565b610230610334565b6102555760405162461bcd60e51b815260040161024c9061071e565b60405180910390fd5b600080546040516001600160a01b03909116907f8be0079c531659141344cd1fd0a4f28419497f9722a3daafe3b4186f6b6457e0908390a3600080546001600160a01b0319169055565b6102a7610334565b6102c35760405162461bcd60e51b815260040161024c9061071e565b6040516308f2839760e41b81526001600160a01b03831690638f283970906102ef908490600401610656565b600060405180830381600087803b15801561030957600080fd5b505af115801561031d573d6000803e3d6000fd5b505050505050565b6000546001600160a01b031690565b600080546001600160a01b031661034961047e565b6001600160a01b031614905090565b610360610334565b61037c5760405162461bcd60e51b815260040161024c9061071e565b60405163278f794360e11b81526001600160a01b03841690634f1ef2869034906103ac908690869060040161066a565b6000604051808303818588803b1580156103c557600080fd5b505af11580156103d9573d6000803e3d6000fd5b5050505050505050565b6103eb610334565b6104075760405162461bcd60e51b815260040161024c9061071e565b604051631b2ce7f360e11b81526001600160a01b03831690633659cfe6906102ef908490600401610656565b61043b610334565b6104575760405162461bcd60e51b815260040161024c9061071e565b61046081610482565b50565b6000806000836001600160a01b03166040516101bd90610646565b3390565b6001600160a01b0381166104a85760405162461bcd60e51b815260040161024c906106d8565b600080546040516001600160a01b03808516939216917f8be0079c531659141344cd1fd0a4f28419497f9722a3daafe3b4186f6b6457e091a3600080546001600160a01b0319166001600160a01b0392909216919091179055565b600060208284031215610514578081fd5b813561051f81610753565b9392505050565b600060208284031215610537578081fd5b815161051f81610753565b60008060408385031215610554578081fd5b823561055f81610753565b9150602083013561056f81610753565b809150509250929050565b60008060006060848603121561058e578081fd5b833561059981610753565b92506020848101356105aa81610753565b9250604085013567ffffffffffffffff808211156105c6578384fd5b818701915087601f8301126105d9578384fd5b8135818111156105e557fe5b604051601f8201601f191681018501838111828210171561060257fe5b60405281815283820185018a1015610618578586fd5b81858501868301378585838301015280955050505050509250925092565b635c60da1b60e01b815260040190565b6303e1469160e61b815260040190565b6001600160a01b0391909116815260200190565b600060018060a01b038416825260206040818401528351806040850152825b818110156106a557858101830151858201606001528201610689565b818111156106b65783606083870101525b50601f01601f191692909201606001949350505050565b901515815260200190565b60208082526026908201527f4f776e61626c653a206e6577206f776e657220697320746865207a65726f206160408201526564647265737360d01b606082015260800190565b6020808252818101527f4f776e61626c653a2063616c6c6572206973206e6f7420746865206f776e6572604082015260600190565b6001600160a01b038116811461046057600080fdfea2646970667358221220ecb38947c02000e07555426acf5ccb5e5c20c0e36da0dc0eb29683cde66ca65b64736f6c63430007060033",
  "devdoc": {
    "details": "This is an auxiliary contract meant to be assigned as the admin of a {TransparentUpgradeableProxy}. For an explanation of why you would want to use this see the documentation for {TransparentUpgradeableProxy}.",
    "kind": "dev",
    "methods": {
      "changeProxyAdmin(address,address)": {
        "details": "Changes the admin of `proxy` to `newAdmin`. Requirements: - This contract must be the current admin of `proxy`."
      },
      "getProxyAdmin(address)": {
        "details": "Returns the current admin of `proxy`. Requirements: - This contract must be the admin of `proxy`."
      },
      "getProxyImplementation(address)": {
        "details": "Returns the current implementation of `proxy`. Requirements: - This contract must be the admin of `proxy`."
      },
      "isOwner()": {
        "details": "Returns true if the caller is the current owner."
      },
      "owner()": {
        "details": "Returns the address of the current owner."
      },
      "renounceOwnership()": {
        "details": "Leaves the contract without owner. It will not be possible to call `onlyOwner` functions anymore. Can only be called by the current owner. NOTE: Renouncing ownership will leave the contract without an owner, thereby removing any functionality that is only available to the owner."
      },
      "transferOwnership(address)": {
        "details": "Transfers ownership of the contract to a new account (`newOwner`). Can only be called by the current owner."
      },
      "upgrade(address,address)": {
        "details": "Upgrades `proxy` to `implementation`. See {TransparentUpgradeableProxy-upgradeTo}. Requirements: - This contract must be the admin of `proxy`."
      },
      "upgradeAndCall(address,address,bytes)": {
        "details": "Upgrades `proxy` to `implementation` and calls a function on the new implementation. See {TransparentUpgradeableProxy-upgradeToAndCall}. Requirements: - This contract must be the admin of `proxy`."
      }
    },
    "version": 1
  },
  "userdoc": {
    "kind": "user",
    "methods": {},
    "version": 1
  },
  "storageLayout": {
    "storage": [
      {
        "astId": 10891,
        "contract": "contracts/zeppelin/upgradable/proxy/ProxyAdmin.sol:ProxyAdmin",
        "label": "_owner",
        "offset": 0,
        "slot": "0",
        "type": "t_address"
      }
    ],
    "types": {
      "t_address": {
        "encoding": "inplace",
        "label": "address",
        "numberOfBytes": "20"
      }
    }
  }
}