{
  "address": "0x1e62df026FB687E4917dAA88A777366B7e550D20",
  "abi": [
    {
      "anonymous": false,
      "inputs": [
        {
          "indexed": false,
          "internalType": "address",
          "name": "recipient",
          "type": "address"
        }
      ],
      "name": "PrimaryTransferred",
      "type": "event"
    },
    {
      "anonymous": false,
      "inputs": [
        {
          "indexed": true,
          "internalType": "address",
          "name": "sideTokenAddress",
          "type": "address"
        },
        {
          "indexed": false,
          "internalType": "string",
          "name": "symbol",
          "type": "string"
        },
        {
          "indexed": false,
          "internalType": "string",
          "name": "baseURI",
          "type": "string"
        },
        {
          "indexed": false,
          "internalType": "string",
          "name": "contractURI",
          "type": "string"
        }
      ],
      "name": "SideNFTTokenCreated",
      "type": "event"
    },
    {
      "inputs": [
        {
          "internalType": "string",
          "name": "name",
          "type": "string"
        },
        {
          "internalType": "string",
          "name": "symbol",
          "type": "string"
        },
        {
          "internalType": "string",
          "name": "baseURI",
          "type": "string"
        },
        {
          "internalType": "string",
          "name": "contractURI",
          "type": "string"
        }
      ],
      "name": "createSideNFTToken",
      "outputs": [
        {
          "internalType": "address",
          "name": "",
          "type": "address"
        }
      ],
      "stateMutability": "nonpayable",
      "type": "function"
    },
    {
      "inputs": [],
      "name": "primary",
      "outputs": [
        {
          "internalType": "address",
          "name": "",
          "type": "address"
        }
      ],
      "stateMutability": "view",
      "type": "function"
    },
    {
      "inputs": [
        {
          "internalType": "address",
          "name": "recipient",
          "type": "address"
        }
      ],
      "name": "transferPrimary",
      "outputs": [],
      "stateMutability": "nonpayable",
      "type": "function"
    }
  ],
  "transactionHash": "0x69ac20b828cbf55019c1079df99add6f01ede0f71f8e90c67a66e0725c1984e6",
  "args": [],
  "solcInputHash": "f57b3a626f709a0447a665aac92698b7",
  "bytecode": "0x608060405234801561001057600080fd5b50610019610074565b600080546001600160a01b0319166001600160a01b0392831617908190556040517f4101e71e974f68df5e9730cc223280b41654676bbb052cdcc735c3337e64d2d992610067921690610078565b60405180910390a161008c565b3390565b6001600160a01b0391909116815260200190565b61286d8061009b6000396000f3fe60806040523480156200001157600080fd5b5060043610620000465760003560e01c80632348238c146200004b578063884758661462000064578063c6dbdf611462000093575b600080fd5b620000626200005c366004620002c7565b6200009d565b005b6200007b62000075366004620002f7565b6200016c565b6040516200008a9190620003ed565b60405180910390f35b6200007b6200025c565b6000546001600160a01b0316620000b36200026b565b6001600160a01b031614620000e55760405162461bcd60e51b8152600401620000dc9062000512565b60405180910390fd5b6001600160a01b0381166200010e5760405162461bcd60e51b8152600401620000dc90620004c8565b600080546001600160a01b0319166001600160a01b0383811691909117918290556040517f4101e71e974f68df5e9730cc223280b41654676bbb052cdcc735c3337e64d2d99262000161921690620003ed565b60405180910390a150565b600080546001600160a01b0316620001836200026b565b6001600160a01b031614620001ac5760405162461bcd60e51b8152600401620000dc9062000512565b600089898989620001bc6200025c565b8a8a8a8a604051620001ce906200026f565b620001e29998979695949392919062000401565b604051809103906000f080158015620001ff573d6000803e3d6000fd5b509050806001600160a01b03167f3d0677e9be6c322795ce7407a961a98bb2822f9ed8a66c3c11d2ac9bab6d401a898989898989604051620002479695949392919062000479565b60405180910390a29998505050505050505050565b6000546001600160a01b031690565b3390565b6122d9806200055f83390190565b60008083601f8401126200028f578182fd5b50813567ffffffffffffffff811115620002a7578182fd5b602083019150836020828501011115620002c057600080fd5b9250929050565b600060208284031215620002d9578081fd5b81356001600160a01b0381168114620002f0578182fd5b9392505050565b6000806000806000806000806080898b03121562000313578384fd5b883567ffffffffffffffff808211156200032b578586fd5b620003398c838d016200027d565b909a50985060208b013591508082111562000352578586fd5b620003608c838d016200027d565b909850965060408b013591508082111562000379578586fd5b620003878c838d016200027d565b909650945060608b0135915080821115620003a0578384fd5b50620003af8b828c016200027d565b999c989b5096995094979396929594505050565b60008284528282602086013780602084860101526020601f19601f85011685010190509392505050565b6001600160a01b0391909116815260200190565b600060a082526200041760a083018b8d620003c3565b82810360208401526200042c818a8c620003c3565b6001600160a01b03891660408501528381036060850152905062000452818789620003c3565b9050828103608084015262000469818587620003c3565b9c9b505050505050505050505050565b6000606082526200048f60608301888a620003c3565b8281036020840152620004a4818789620003c3565b90508281036040840152620004bb818587620003c3565b9998505050505050505050565b6020808252602a908201527f5365636f6e646172793a206e6577207072696d61727920697320746865207a65604082015269726f206164647265737360b01b606082015260800190565b6020808252602c908201527f5365636f6e646172793a2063616c6c6572206973206e6f74207468652070726960408201526b1b585c9e481858d8dbdd5b9d60a21b60608201526080019056fe60806040523480156200001157600080fd5b50604051620022d9380380620022d983398101604081905262000034916200030f565b8484620000486301ffc9a760e01b6200011a565b81516200005d906006906020850190620001c8565b50805162000073906007906020840190620001c8565b50620000866380ac58cd60e01b6200011a565b62000098635b5e139f60e01b6200011a565b620000aa63780e9d6360e01b6200011a565b50506001600160a01b038316620000de5760405162461bcd60e51b8152600401620000d590620003e4565b60405180910390fd5b600a80546001600160a01b0319166001600160a01b03851617905562000104826200019f565b6200010f81620001b8565b50505050506200041b565b6001600160e01b031980821614156200017a576040805162461bcd60e51b815260206004820152601c60248201527f4552433136353a20696e76616c696420696e7465726661636520696400000000604482015290519081900360640190fd5b6001600160e01b0319166000908152602081905260409020805460ff19166001179055565b8051620001b4906009906020840190620001c8565b5050565b8051620001b490600b9060208401905b828054600181600116156101000203166002900490600052602060002090601f0160209004810192826200020057600085556200024b565b82601f106200021b57805160ff19168380011785556200024b565b828001600101855582156200024b579182015b828111156200024b5782518255916020019190600101906200022e565b50620002599291506200025d565b5090565b5b808211156200025957600081556001016200025e565b600082601f83011262000285578081fd5b81516001600160401b03808211156200029a57fe5b6040516020601f8401601f1916820181018381118382101715620002ba57fe5b6040528382528584018101871015620002d1578485fd5b8492505b83831015620002f45785830181015182840182015291820191620002d5565b838311156200030557848185840101525b5095945050505050565b600080600080600060a0868803121562000327578081fd5b85516001600160401b03808211156200033e578283fd5b6200034c89838a0162000274565b9650602088015191508082111562000362578283fd5b6200037089838a0162000274565b604089015190965091506001600160a01b03821682146200038f578283fd5b606088015191945080821115620003a4578283fd5b620003b289838a0162000274565b93506080880151915080821115620003c8578283fd5b50620003d78882890162000274565b9150509295509295909350565b60208082526017908201527f53696465546f6b656e3a20456d707479204d696e746572000000000000000000604082015260600190565b611eae806200042b6000396000f3fe608060405234801561001057600080fd5b50600436106101375760003560e01c806342966c68116100b857806395d89b411161007c57806395d89b411461026c578063a22cb46514610274578063b88d4fde14610287578063c87b56dd1461029a578063e8a3d485146102ad578063e985e9c5146102b557610137565b806342966c68146102185780634f6ccce71461022b5780636352211e1461023e5780636c0360eb1461025157806370a082311461025957610137565b806318160ddd116100ff57806318160ddd146101b757806323b872dd146101cc5780632f745c59146101df57806340c10f19146101f257806342842e0e1461020557610137565b806301ffc9a71461013c57806306fdde0314610165578063075461721461017a578063081812fc1461018f578063095ea7b3146101a2575b600080fd5b61014f61014a366004611ac4565b6102c8565b60405161015c9190611b34565b60405180910390f35b61016d6102eb565b60405161015c9190611b3f565b610182610381565b60405161015c9190611b20565b61018261019d366004611aec565b610390565b6101b56101b0366004611a9b565b6103f2565b005b6101bf6104c8565b60405161015c9190611bec565b6101b56101da366004611966565b6104d9565b6101bf6101ed366004611a9b565b610530565b6101b5610200366004611a9b565b61055b565b6101b5610213366004611966565b6105ac565b6101b5610226366004611aec565b6105c7565b6101bf610239366004611aec565b610619565b61018261024c366004611aec565b61062f565b61016d610657565b6101bf61026736600461191a565b6106b8565b61016d610720565b6101b5610282366004611a61565b610781565b6101b56102953660046119a1565b610886565b61016d6102a8366004611aec565b6108e4565b61016d610b65565b61014f6102c3366004611934565b610bc6565b6001600160e01b0319811660009081526020819052604090205460ff165b919050565b60068054604080516020601f60026000196101006001881615020190951694909404938401819004810282018101909252828152606093909290918301828280156103775780601f1061034c57610100808354040283529160200191610377565b820191906000526020600020905b81548152906001019060200180831161035a57829003601f168201915b5050505050905090565b600a546001600160a01b031681565b600061039b82610bf4565b6103d65760405162461bcd60e51b815260040180806020018281038252602c815260200180611d73602c913960400191505060405180910390fd5b506000908152600460205260409020546001600160a01b031690565b60006103fd8261062f565b9050806001600160a01b0316836001600160a01b031614156104505760405162461bcd60e51b8152600401808060200182810382526021815260200180611df76021913960400191505060405180910390fd5b806001600160a01b0316610462610c01565b6001600160a01b0316148061047e575061047e816102c3610c01565b6104b95760405162461bcd60e51b8152600401808060200182810382526038815260200180611cc66038913960400191505060405180910390fd5b6104c38383610c05565b505050565b60006104d46002610c73565b905090565b6104ea6104e4610c01565b82610c7e565b6105255760405162461bcd60e51b8152600401808060200182810382526031815260200180611e186031913960400191505060405180910390fd5b6104c3838383610d22565b6001600160a01b03821660009081526001602052604081206105529083610e6e565b90505b92915050565b600a546001600160a01b031661056f610c01565b6001600160a01b03161461059e5760405162461bcd60e51b815260040161059590611b72565b60405180910390fd5b6105a88282610e7a565b5050565b6104c383838360405180602001604052806000815250610886565b6105d26104e4610c01565b61060d5760405162461bcd60e51b8152600401808060200182810382526030815260200180611e496030913960400191505060405180910390fd5b61061681610fa8565b50565b600080610627600284611075565b509392505050565b600061055582604051806060016040528060298152602001611d286029913960029190611091565b60098054604080516020601f60026000196101006001881615020190951694909404938401819004810282018101909252828152606093909290918301828280156103775780601f1061034c57610100808354040283529160200191610377565b60006001600160a01b0382166106ff5760405162461bcd60e51b815260040180806020018281038252602a815260200180611cfe602a913960400191505060405180910390fd5b6001600160a01b038216600090815260016020526040902061055590610c73565b60078054604080516020601f60026000196101006001881615020190951694909404938401819004810282018101909252828152606093909290918301828280156103775780601f1061034c57610100808354040283529160200191610377565b610789610c01565b6001600160a01b0316826001600160a01b031614156107ef576040805162461bcd60e51b815260206004820152601960248201527f4552433732313a20617070726f766520746f2063616c6c657200000000000000604482015290519081900360640190fd5b80600560006107fc610c01565b6001600160a01b03908116825260208083019390935260409182016000908120918716808252919093529120805460ff191692151592909217909155610840610c01565b6001600160a01b03167f17307eab39ab6107e8899845ad3d59bd9653f200f220920489ca2b5937696c318360405180821515815260200191505060405180910390a35050565b610897610891610c01565b83610c7e565b6108d25760405162461bcd60e51b8152600401808060200182810382526031815260200180611e186031913960400191505060405180910390fd5b6108de848484846110a8565b50505050565b60606108ef82610bf4565b61092a5760405162461bcd60e51b815260040180806020018281038252602f815260200180611dc8602f913960400191505060405180910390fd5b60008281526008602090815260408083208054825160026001831615610100026000190190921691909104601f8101859004850282018501909352828152929091908301828280156109bd5780601f10610992576101008083540402835291602001916109bd565b820191906000526020600020905b8154815290600101906020018083116109a057829003601f168201915b5050505050905060006109ce610657565b90508051600014156109e2575090506102e6565b815115610aa35780826040516020018083805190602001908083835b60208310610a1d5780518252601f1990920191602091820191016109fe565b51815160209384036101000a600019018019909216911617905285519190930192850191508083835b60208310610a655780518252601f199092019160209182019101610a46565b6001836020036101000a03801982511681845116808217855250505050505090500192505050604051602081830303815290604052925050506102e6565b80610aad856110fa565b6040516020018083805190602001908083835b60208310610adf5780518252601f199092019160209182019101610ac0565b51815160209384036101000a600019018019909216911617905285519190930192850191508083835b60208310610b275780518252601f199092019160209182019101610b08565b6001836020036101000a0380198251168184511680821785525050505050509050019250505060405160208183030381529060405292505050919050565b600b8054604080516020601f60026000196101006001881615020190951694909404938401819004810282018101909252828152606093909290918301828280156103775780601f1061034c57610100808354040283529160200191610377565b6001600160a01b03918216600090815260056020908152604080832093909416825291909152205460ff1690565b60006105556002836111d5565b3390565b600081815260046020526040902080546001600160a01b0319166001600160a01b0384169081179091558190610c3a8261062f565b6001600160a01b03167f8c5be1e5ebec7d5bd14f71427d1e84f3dd0314c0f7b2291e5b200ac8c7c3b92560405160405180910390a45050565b6000610555826111e1565b6000610c8982610bf4565b610cc45760405162461bcd60e51b815260040180806020018281038252602c815260200180611c9a602c913960400191505060405180910390fd5b6000610ccf8361062f565b9050806001600160a01b0316846001600160a01b03161480610d0a5750836001600160a01b0316610cff84610390565b6001600160a01b0316145b80610d1a5750610d1a8185610bc6565b949350505050565b826001600160a01b0316610d358261062f565b6001600160a01b031614610d7a5760405162461bcd60e51b8152600401808060200182810382526029815260200180611d9f6029913960400191505060405180910390fd5b6001600160a01b038216610dbf5760405162461bcd60e51b8152600401808060200182810382526024815260200180611c766024913960400191505060405180910390fd5b610dca8383836104c3565b610dd5600082610c05565b6001600160a01b0383166000908152600160205260409020610df790826111e5565b506001600160a01b0382166000908152600160205260409020610e1a90826111f1565b50610e27600282846111fd565b5080826001600160a01b0316846001600160a01b03167fddf252ad1be2c89b69c2b068fc378daa952ba7f163c4a11628f55a4df523b3ef60405160405180910390a4505050565b60006105528383611213565b6001600160a01b038216610ed5576040805162461bcd60e51b815260206004820181905260248201527f4552433732313a206d696e7420746f20746865207a65726f2061646472657373604482015290519081900360640190fd5b610ede81610bf4565b15610f30576040805162461bcd60e51b815260206004820152601c60248201527f4552433732313a20746f6b656e20616c7265616479206d696e74656400000000604482015290519081900360640190fd5b610f3c600083836104c3565b6001600160a01b0382166000908152600160205260409020610f5e90826111f1565b50610f6b600282846111fd565b5060405181906001600160a01b038416906000907fddf252ad1be2c89b69c2b068fc378daa952ba7f163c4a11628f55a4df523b3ef908290a45050565b6000610fb38261062f565b9050610fc1816000846104c3565b610fcc600083610c05565b600082815260086020526040902054600260001961010060018416150201909116041561100a57600082815260086020526040812061100a916118ab565b6001600160a01b038116600090815260016020526040902061102c90836111e5565b50611038600283611277565b5060405182906000906001600160a01b038416907fddf252ad1be2c89b69c2b068fc378daa952ba7f163c4a11628f55a4df523b3ef908390a45050565b60008080806110848686611283565b9097909650945050505050565b600061109e8484846112fe565b90505b9392505050565b6110b3848484610d22565b6110bf848484846113c8565b6108de5760405162461bcd60e51b8152600401808060200182810382526032815260200180611c446032913960400191505060405180910390fd5b60608161111f57506040805180820190915260018152600360fc1b60208201526102e6565b8160005b811561113757600101600a82049150611123565b60008167ffffffffffffffff8111801561115057600080fd5b506040519080825280601f01601f19166020018201604052801561117b576020820181803683370190505b50859350905060001982015b83156111cc57600a840660300160f81b828280600190039350815181106111aa57fe5b60200101906001600160f81b031916908160001a905350600a84049350611187565b50949350505050565b60006105528383611530565b5490565b60006105528383611548565b6000610552838361160e565b600061109e84846001600160a01b038516611658565b815460009082106112555760405162461bcd60e51b8152600401808060200182810382526022815260200180611c226022913960400191505060405180910390fd5b82600001828154811061126457fe5b9060005260206000200154905092915050565b600061055283836116ef565b8154600090819083106112c75760405162461bcd60e51b8152600401808060200182810382526022815260200180611d516022913960400191505060405180910390fd5b60008460000184815481106112d857fe5b906000526020600020906002020190508060000154816001015492509250509250929050565b600082815260018401602052604081205482816113995760405162461bcd60e51b81526004018080602001828103825283818151815260200191508051906020019080838360005b8381101561135e578181015183820152602001611346565b50505050905090810190601f16801561138b5780820380516001836020036101000a031916815260200191505b509250505060405180910390fd5b508460000160018203815481106113ac57fe5b9060005260206000209060020201600101549150509392505050565b60006113dc846001600160a01b03166117c3565b6113e857506001610d1a565b60006114f6630a85bd0160e11b6113fd610c01565b88878760405160240180856001600160a01b03168152602001846001600160a01b0316815260200183815260200180602001828103825283818151815260200191508051906020019080838360005b8381101561146457818101518382015260200161144c565b50505050905090810190601f1680156114915780820380516001836020036101000a031916815260200191505b5095505050505050604051602081830303815290604052906001600160e01b0319166020820180516001600160e01b038381831617835250505050604051806060016040528060328152602001611c44603291396001600160a01b03881691906117c9565b9050600081806020019051602081101561150f57600080fd5b50516001600160e01b031916630a85bd0160e11b1492505050949350505050565b60009081526001919091016020526040902054151590565b60008181526001830160205260408120548015611604578354600019808301919081019060009087908390811061157b57fe5b906000526020600020015490508087600001848154811061159857fe5b6000918252602080832090910192909255828152600189810190925260409020908401905586548790806115c857fe5b60019003818190600052602060002001600090559055866001016000878152602001908152602001600020600090556001945050505050610555565b6000915050610555565b600061161a8383611530565b61165057508154600181810184556000848152602080822090930184905584548482528286019093526040902091909155610555565b506000610555565b6000828152600184016020526040812054806116bd5750506040805180820182528381526020808201848152865460018181018955600089815284812095516002909302909501918255915190820155865486845281880190925292909120556110a1565b828560000160018303815481106116d057fe5b90600052602060002090600202016001018190555060009150506110a1565b60008181526001830160205260408120548015611604578354600019808301919081019060009087908390811061172257fe5b906000526020600020906002020190508087600001848154811061174257fe5b60009182526020808320845460029093020191825560019384015491840191909155835482528983019052604090209084019055865487908061178157fe5b60008281526020808220600260001990940193840201828155600190810183905592909355888152898201909252604082209190915594506105559350505050565b3b151590565b606061109e8484600085856117dd856117c3565b6117f95760405162461bcd60e51b815260040161059590611bb5565b600080866001600160a01b031685876040516118159190611b04565b60006040518083038185875af1925050503d8060008114611852576040519150601f19603f3d011682016040523d82523d6000602084013e611857565b606091505b5091509150611867828286611872565b979650505050505050565b606083156118815750816110a1565b8251156118915782518084602001fd5b8160405162461bcd60e51b81526004016105959190611b3f565b50805460018160011615610100020316600290046000825580601f106118d15750610616565b601f01602090049060005260206000209081019061061691905b808211156118ff57600081556001016118eb565b5090565b80356001600160a01b03811681146102e657600080fd5b60006020828403121561192b578081fd5b61055282611903565b60008060408385031215611946578081fd5b61194f83611903565b915061195d60208401611903565b90509250929050565b60008060006060848603121561197a578081fd5b61198384611903565b925061199160208501611903565b9150604084013590509250925092565b600080600080608085870312156119b6578081fd5b6119bf85611903565b935060206119ce818701611903565b935060408601359250606086013567ffffffffffffffff808211156119f1578384fd5b818801915088601f830112611a04578384fd5b813581811115611a1057fe5b604051601f8201601f1916810185018381118282101715611a2d57fe5b60405281815283820185018b1015611a43578586fd5b81858501868301379081019093019390935250939692955090935050565b60008060408385031215611a73578182fd5b611a7c83611903565b915060208301358015158114611a90578182fd5b809150509250929050565b60008060408385031215611aad578182fd5b611ab683611903565b946020939093013593505050565b600060208284031215611ad5578081fd5b81356001600160e01b0319811681146110a1578182fd5b600060208284031215611afd578081fd5b5035919050565b60008251611b16818460208701611bf5565b9190910192915050565b6001600160a01b0391909116815260200190565b901515815260200190565b6000602082528251806020840152611b5e816040850160208701611bf5565b601f01601f19169190910160400192915050565b60208082526023908201527f53696465546f6b656e3a2043616c6c6572206973206e6f7420746865206d696e6040820152623a32b960e91b606082015260800190565b6020808252601d908201527f416464726573733a2063616c6c20746f206e6f6e2d636f6e7472616374000000604082015260600190565b90815260200190565b60005b83811015611c10578181015183820152602001611bf8565b838111156108de575050600091015256fe456e756d657261626c655365743a20696e646578206f7574206f6620626f756e64734552433732313a207472616e7366657220746f206e6f6e20455243373231526563656976657220696d706c656d656e7465724552433732313a207472616e7366657220746f20746865207a65726f20616464726573734552433732313a206f70657261746f7220717565727920666f72206e6f6e6578697374656e7420746f6b656e4552433732313a20617070726f76652063616c6c6572206973206e6f74206f776e6572206e6f7220617070726f76656420666f7220616c6c4552433732313a2062616c616e636520717565727920666f7220746865207a65726f20616464726573734552433732313a206f776e657220717565727920666f72206e6f6e6578697374656e7420746f6b656e456e756d657261626c654d61703a20696e646578206f7574206f6620626f756e64734552433732313a20617070726f76656420717565727920666f72206e6f6e6578697374656e7420746f6b656e4552433732313a207472616e73666572206f6620746f6b656e2074686174206973206e6f74206f776e4552433732314d657461646174613a2055524920717565727920666f72206e6f6e6578697374656e7420746f6b656e4552433732313a20617070726f76616c20746f2063757272656e74206f776e65724552433732313a207472616e736665722063616c6c6572206973206e6f74206f776e6572206e6f7220617070726f7665644552433732314275726e61626c653a2063616c6c6572206973206e6f74206f776e6572206e6f7220617070726f766564a26469706673582212205307f2282cc3339095cc0f4126ed0dad47c6f8ccf92f08d8924edffb57bc62f264736f6c63430007060033a264697066735822122003345c4b244dad413e4ec6ea2b273db60207e29a100d6c2a37386abca0146aac64736f6c63430007060033",
  "devdoc": {
    "kind": "dev",
    "methods": {
      "primary()": {
        "returns": {
          "_0": "the address of the primary."
        }
      },
      "transferPrimary(address)": {
        "details": "Transfers contract to a new primary.",
        "params": {
          "recipient": "The address of new primary."
        }
      }
    },
    "version": 1
  },
  "userdoc": {
    "kind": "user",
    "methods": {},
    "version": 1
  },
  "storageLayout": {
    "storage": [
      {
        "astId": 11018,
        "contract": "contracts/nftbridge/SideNFTTokenFactory.sol:SideNFTTokenFactory",
        "label": "_primary",
        "offset": 0,
        "slot": "0",
        "type": "t_address"
      }
    ],
    "types": {
      "t_address": {
        "encoding": "inplace",
        "label": "address",
        "numberOfBytes": "20"
      }
    }
  }
}