{
  "address": "0x35EA3061df1fb9a36b5d39eeD46C93d6483dB6ED",
  "abi": [
    {
      "inputs": [
        {
          "internalType": "address",
          "name": "_wrbtcAddr",
          "type": "address"
        }
      ],
      "stateMutability": "nonpayable",
      "type": "constructor"
    },
    {
      "inputs": [],
      "name": "deposit",
      "outputs": [],
      "stateMutability": "payable",
      "type": "function"
    },
    {
      "inputs": [
        {
          "internalType": "address",
          "name": "_wrbtcAddr",
          "type": "address"
        }
      ],
      "name": "setWrbtc",
      "outputs": [],
      "stateMutability": "nonpayable",
      "type": "function"
    },
    {
      "inputs": [
        {
          "internalType": "uint256",
          "name": "wad",
          "type": "uint256"
        }
      ],
      "name": "withdraw",
      "outputs": [],
      "stateMutability": "nonpayable",
      "type": "function"
    },
    {
      "inputs": [],
      "name": "wrbtc",
      "outputs": [
        {
          "internalType": "contract IWrapped",
          "name": "",
          "type": "address"
        }
      ],
      "stateMutability": "view",
      "type": "function"
    },
    {
      "stateMutability": "payable",
      "type": "receive"
    }
  ],
  "transactionHash": "0xf70f950e6c6ac8aacdd96252843db91bac98e5d28a1b413ce58aa83cd8151e5e",
  "args": [
    "0x6EFdF00E94476188a10Ae9b1D060e0dc165f3e73"
  ],
  "solcInputHash": "1943098c6bf9125af38a0d620f61dfe2",
  "bytecode": "0x608060405234801561001057600080fd5b5060405161040d38038061040d83398101604081905261002f91610060565b6100388161003e565b5061008e565b600080546001600160a01b0319166001600160a01b0392909216919091179055565b600060208284031215610071578081fd5b81516001600160a01b0381168114610087578182fd5b9392505050565b6103708061009d6000396000f3fe6080604052600436106100435760003560e01c80632e1a7d4d14610082578063760f97e4146100a2578063d0e30db0146100c2578063d9db1a68146100ca5761007d565b3661007d576000546001600160a01b0316331461007b5760405162461bcd60e51b8152600401610072906102d0565b60405180910390fd5b005b600080fd5b34801561008e57600080fd5b5061007b61009d3660046102a1565b6100f5565b3480156100ae57600080fd5b5061007b6100bd366004610273565b6101d9565b61007b6101fb565b3480156100d657600080fd5b506100df610264565b6040516100ec91906102bc565b60405180910390f35b600054604051632e1a7d4d60e01b81526001600160a01b0390911690632e1a7d4d90610125908490600401610331565b600060405180830381600087803b15801561013f57600080fd5b505af1158015610153573d6000803e3d6000fd5b50506040513392506000915082906159d8908590610170906102b9565b600060405180830381858888f193505050503d80600081146101ae576040519150601f19603f3d011682016040523d82523d6000602084013e6101b3565b606091505b50509050806101d45760405162461bcd60e51b8152600401610072906102fa565b505050565b600080546001600160a01b0319166001600160a01b0392909216919091179055565b60008054906101000a90046001600160a01b03166001600160a01b031663d0e30db0346040518263ffffffff1660e01b81526004016000604051808303818588803b15801561024957600080fd5b505af115801561025d573d6000803e3d6000fd5b5050505050565b6000546001600160a01b031681565b600060208284031215610284578081fd5b81356001600160a01b038116811461029a578182fd5b9392505050565b6000602082840312156102b2578081fd5b5035919050565b90565b6001600160a01b0391909116815260200190565b60208082526010908201526f3bb937b733902ba9212a219030b2323960811b604082015260600190565b60208082526018908201527f43616c6c57726274633a207472616e73666572206661696c0000000000000000604082015260600190565b9081526020019056fea2646970667358221220baa1ee8e678c496a75474016beaafeeff9887751bc162884a2952972be59814264736f6c63430007060033",
  "devdoc": {
    "kind": "dev",
    "methods": {},
    "version": 1
  },
  "userdoc": {
    "kind": "user",
    "methods": {},
    "version": 1
  },
  "storageLayout": {
    "storage": [
      {
        "astId": 9187,
        "contract": "contracts/test/CallWrbtc.sol:CallWrbtc",
        "label": "wrbtc",
        "offset": 0,
        "slot": "0",
        "type": "t_contract(IWrapped)7679"
      }
    ],
    "types": {
      "t_contract(IWrapped)7679": {
        "encoding": "inplace",
        "label": "contract IWrapped",
        "numberOfBytes": "20"
      }
    }
  }
}