{
  "address": "0x12993c0Bc4A3873a4E026ae57EC6Dc830741619B",
  "abi": [
    {
      "inputs": [
        {
          "internalType": "address",
          "name": "_wrbtcAddr",
          "type": "address"
        }
      ],
      "stateMutability": "nonpayable",
      "type": "constructor"
    },
    {
      "inputs": [],
      "name": "deposit",
      "outputs": [],
      "stateMutability": "payable",
      "type": "function"
    },
    {
      "inputs": [
        {
          "internalType": "address",
          "name": "_wrbtcAddr",
          "type": "address"
        }
      ],
      "name": "setWrbtc",
      "outputs": [],
      "stateMutability": "nonpayable",
      "type": "function"
    },
    {
      "inputs": [
        {
          "internalType": "uint256",
          "name": "wad",
          "type": "uint256"
        }
      ],
      "name": "withdraw",
      "outputs": [],
      "stateMutability": "nonpayable",
      "type": "function"
    },
    {
      "inputs": [],
      "name": "wrbtc",
      "outputs": [
        {
          "internalType": "contract IWrapped",
          "name": "",
          "type": "address"
        }
      ],
      "stateMutability": "view",
      "type": "function"
    }
  ],
  "transactionHash": "0xf5718780cd3ee47e098fe9b523c25b6a6a002d1a77615c180fa201c26c140183",
  "args": [
    "0x6EFdF00E94476188a10Ae9b1D060e0dc165f3e73"
  ],
  "solcInputHash": "811884a2e0a193327d65bdc68f2b24fa",
  "bytecode": "0x608060405234801561001057600080fd5b506040516103b03803806103b083398101604081905261002f91610060565b6100388161003e565b5061008e565b600080546001600160a01b0319166001600160a01b0392909216919091179055565b600060208284031215610071578081fd5b81516001600160a01b0381168114610087578182fd5b9392505050565b6103138061009d6000396000f3fe60806040526004361061003f5760003560e01c80632e1a7d4d14610044578063760f97e414610066578063d0e30db014610086578063d9db1a681461008e575b600080fd5b34801561005057600080fd5b5061006461005f36600461026e565b6100b9565b005b34801561007257600080fd5b50610064610081366004610240565b6101a6565b6100646101c8565b34801561009a57600080fd5b506100a3610231565b6040516100b09190610289565b60405180910390f35b600054604051632e1a7d4d60e01b81526001600160a01b0390911690632e1a7d4d906100e99084906004016102d4565b600060405180830381600087803b15801561010357600080fd5b505af1158015610117573d6000803e3d6000fd5b50506040513392506000915082906159d890859061013490610286565b600060405180830381858888f193505050503d8060008114610172576040519150601f19603f3d011682016040523d82523d6000602084013e610177565b606091505b50509050806101a15760405162461bcd60e51b81526004016101989061029d565b60405180910390fd5b505050565b600080546001600160a01b0319166001600160a01b0392909216919091179055565b60008054906101000a90046001600160a01b03166001600160a01b031663d0e30db0346040518263ffffffff1660e01b81526004016000604051808303818588803b15801561021657600080fd5b505af115801561022a573d6000803e3d6000fd5b5050505050565b6000546001600160a01b031681565b600060208284031215610251578081fd5b81356001600160a01b0381168114610267578182fd5b9392505050565b60006020828403121561027f578081fd5b5035919050565b90565b6001600160a01b0391909116815260200190565b60208082526018908201527f43616c6c57726274633a207472616e73666572206661696c0000000000000000604082015260600190565b9081526020019056fea2646970667358221220de4fc35b4c8e3feac563d85ab0df38acacf8d6df4979636a9e48511f644d2ca664736f6c63430007060033",
  "devdoc": {
    "kind": "dev",
    "methods": {},
    "version": 1
  },
  "userdoc": {
    "kind": "user",
    "methods": {},
    "version": 1
  },
  "storageLayout": {
    "storage": [
      {
        "astId": 9187,
        "contract": "contracts/test/CallWrbtc.sol:CallWrbtc",
        "label": "wrbtc",
        "offset": 0,
        "slot": "0",
        "type": "t_contract(IWrapped)7679"
      }
    ],
    "types": {
      "t_contract(IWrapped)7679": {
        "encoding": "inplace",
        "label": "contract IWrapped",
        "numberOfBytes": "20"
      }
    }
  }
}