{
  "address": "0x9c36A1E78D68417396FE6c715A5515d659973cF6",
  "abi": [
    {
      "anonymous": false,
      "inputs": [
        {
          "indexed": false,
          "internalType": "address",
          "name": "bridge",
          "type": "address"
        }
      ],
      "name": "BridgeChanged",
      "type": "event"
    },
    {
      "anonymous": false,
      "inputs": [
        {
          "indexed": true,
          "internalType": "address",
          "name": "federator",
          "type": "address"
        },
        {
          "indexed": true,
          "internalType": "bytes32",
          "name": "transactionHash",
          "type": "bytes32"
        },
        {
          "indexed": true,
          "internalType": "bytes32",
          "name": "transactionId",
          "type": "bytes32"
        },
        {
          "indexed": false,
          "internalType": "address",
          "name": "originalTokenAddress",
          "type": "address"
        },
        {
          "indexed": false,
          "internalType": "address",
          "name": "sender",
          "type": "address"
        },
        {
          "indexed": false,
          "internalType": "address",
          "name": "receiver",
          "type": "address"
        },
        {
          "indexed": false,
          "internalType": "uint256",
          "name": "amount",
          "type": "uint256"
        },
        {
          "indexed": false,
          "internalType": "bytes32",
          "name": "blockHash",
          "type": "bytes32"
        },
        {
          "indexed": false,
          "internalType": "uint32",
          "name": "logIndex",
          "type": "uint32"
        }
      ],
      "name": "Executed",
      "type": "event"
    },
    {
      "anonymous": false,
      "inputs": [
        {
          "indexed": true,
          "internalType": "address",
          "name": "sender",
          "type": "address"
        },
        {
          "indexed": false,
          "internalType": "uint256",
          "name": "fedRskBlock",
          "type": "uint256"
        },
        {
          "indexed": false,
          "internalType": "uint256",
          "name": "fedEthBlock",
          "type": "uint256"
        },
        {
          "indexed": false,
          "internalType": "string",
          "name": "federatorVersion",
          "type": "string"
        },
        {
          "indexed": false,
          "internalType": "string",
          "name": "nodeRskInfo",
          "type": "string"
        },
        {
          "indexed": false,
          "internalType": "string",
          "name": "nodeEthInfo",
          "type": "string"
        }
      ],
      "name": "HeartBeat",
      "type": "event"
    },
    {
      "anonymous": false,
      "inputs": [
        {
          "indexed": true,
          "internalType": "address",
          "name": "member",
          "type": "address"
        }
      ],
      "name": "MemberAddition",
      "type": "event"
    },
    {
      "anonymous": false,
      "inputs": [
        {
          "indexed": true,
          "internalType": "address",
          "name": "member",
          "type": "address"
        }
      ],
      "name": "MemberRemoval",
      "type": "event"
    },
    {
      "anonymous": false,
      "inputs": [
        {
          "indexed": true,
          "internalType": "address",
          "name": "previousOwner",
          "type": "address"
        },
        {
          "indexed": true,
          "internalType": "address",
          "name": "newOwner",
          "type": "address"
        }
      ],
      "name": "OwnershipTransferred",
      "type": "event"
    },
    {
      "anonymous": false,
      "inputs": [
        {
          "indexed": false,
          "internalType": "uint256",
          "name": "required",
          "type": "uint256"
        }
      ],
      "name": "RequirementChange",
      "type": "event"
    },
    {
      "anonymous": false,
      "inputs": [
        {
          "indexed": true,
          "internalType": "address",
          "name": "federator",
          "type": "address"
        },
        {
          "indexed": true,
          "internalType": "bytes32",
          "name": "transactionHash",
          "type": "bytes32"
        },
        {
          "indexed": true,
          "internalType": "bytes32",
          "name": "transactionId",
          "type": "bytes32"
        },
        {
          "indexed": false,
          "internalType": "address",
          "name": "originalTokenAddress",
          "type": "address"
        },
        {
          "indexed": false,
          "internalType": "address",
          "name": "sender",
          "type": "address"
        },
        {
          "indexed": false,
          "internalType": "address",
          "name": "receiver",
          "type": "address"
        },
        {
          "indexed": false,
          "internalType": "uint256",
          "name": "amount",
          "type": "uint256"
        },
        {
          "indexed": false,
          "internalType": "bytes32",
          "name": "blockHash",
          "type": "bytes32"
        },
        {
          "indexed": false,
          "internalType": "uint32",
          "name": "logIndex",
          "type": "uint32"
        }
      ],
      "name": "Voted",
      "type": "event"
    },
    {
      "inputs": [],
      "name": "MAX_MEMBER_COUNT",
      "outputs": [
        {
          "internalType": "uint256",
          "name": "",
          "type": "uint256"
        }
      ],
      "stateMutability": "view",
      "type": "function"
    },
    {
      "inputs": [
        {
          "internalType": "address",
          "name": "_newMember",
          "type": "address"
        }
      ],
      "name": "addMember",
      "outputs": [],
      "stateMutability": "nonpayable",
      "type": "function"
    },
    {
      "inputs": [],
      "name": "bridge",
      "outputs": [
        {
          "internalType": "contract IBridge",
          "name": "",
          "type": "address"
        }
      ],
      "stateMutability": "view",
      "type": "function"
    },
    {
      "inputs": [
        {
          "internalType": "uint256",
          "name": "_required",
          "type": "uint256"
        }
      ],
      "name": "changeRequirement",
      "outputs": [],
      "stateMutability": "nonpayable",
      "type": "function"
    },
    {
      "inputs": [
        {
          "internalType": "uint256",
          "name": "fedRskBlock",
          "type": "uint256"
        },
        {
          "internalType": "uint256",
          "name": "fedEthBlock",
          "type": "uint256"
        },
        {
          "internalType": "string",
          "name": "federatorVersion",
          "type": "string"
        },
        {
          "internalType": "string",
          "name": "nodeRskInfo",
          "type": "string"
        },
        {
          "internalType": "string",
          "name": "nodeEthInfo",
          "type": "string"
        }
      ],
      "name": "emitHeartbeat",
      "outputs": [],
      "stateMutability": "nonpayable",
      "type": "function"
    },
    {
      "inputs": [],
      "name": "getMembers",
      "outputs": [
        {
          "internalType": "address[]",
          "name": "",
          "type": "address[]"
        }
      ],
      "stateMutability": "view",
      "type": "function"
    },
    {
      "inputs": [
        {
          "internalType": "bytes32",
          "name": "transactionId",
          "type": "bytes32"
        }
      ],
      "name": "getTransactionCount",
      "outputs": [
        {
          "internalType": "uint256",
          "name": "",
          "type": "uint256"
        }
      ],
      "stateMutability": "view",
      "type": "function"
    },
    {
      "inputs": [
        {
          "internalType": "address",
          "name": "originalTokenAddress",
          "type": "address"
        },
        {
          "internalType": "address",
          "name": "sender",
          "type": "address"
        },
        {
          "internalType": "address",
          "name": "receiver",
          "type": "address"
        },
        {
          "internalType": "uint256",
          "name": "amount",
          "type": "uint256"
        },
        {
          "internalType": "bytes32",
          "name": "blockHash",
          "type": "bytes32"
        },
        {
          "internalType": "bytes32",
          "name": "transactionHash",
          "type": "bytes32"
        },
        {
          "internalType": "uint32",
          "name": "logIndex",
          "type": "uint32"
        }
      ],
      "name": "getTransactionId",
      "outputs": [
        {
          "internalType": "bytes32",
          "name": "",
          "type": "bytes32"
        }
      ],
      "stateMutability": "pure",
      "type": "function"
    },
    {
      "inputs": [
        {
          "internalType": "bytes32",
          "name": "transactionId",
          "type": "bytes32"
        }
      ],
      "name": "hasVoted",
      "outputs": [
        {
          "internalType": "bool",
          "name": "",
          "type": "bool"
        }
      ],
      "stateMutability": "view",
      "type": "function"
    },
    {
      "inputs": [
        {
          "internalType": "address[]",
          "name": "_members",
          "type": "address[]"
        },
        {
          "internalType": "uint256",
          "name": "_required",
          "type": "uint256"
        },
        {
          "internalType": "address",
          "name": "_bridge",
          "type": "address"
        },
        {
          "internalType": "address",
          "name": "owner",
          "type": "address"
        }
      ],
      "name": "initialize",
      "outputs": [],
      "stateMutability": "nonpayable",
      "type": "function"
    },
    {
      "inputs": [
        {
          "internalType": "address",
          "name": "sender",
          "type": "address"
        }
      ],
      "name": "initialize",
      "outputs": [],
      "stateMutability": "nonpayable",
      "type": "function"
    },
    {
      "inputs": [
        {
          "internalType": "address",
          "name": "",
          "type": "address"
        }
      ],
      "name": "isMember",
      "outputs": [
        {
          "internalType": "bool",
          "name": "",
          "type": "bool"
        }
      ],
      "stateMutability": "view",
      "type": "function"
    },
    {
      "inputs": [],
      "name": "isOwner",
      "outputs": [
        {
          "internalType": "bool",
          "name": "",
          "type": "bool"
        }
      ],
      "stateMutability": "view",
      "type": "function"
    },
    {
      "inputs": [
        {
          "internalType": "uint256",
          "name": "",
          "type": "uint256"
        }
      ],
      "name": "members",
      "outputs": [
        {
          "internalType": "address",
          "name": "",
          "type": "address"
        }
      ],
      "stateMutability": "view",
      "type": "function"
    },
    {
      "inputs": [],
      "name": "owner",
      "outputs": [
        {
          "internalType": "address",
          "name": "",
          "type": "address"
        }
      ],
      "stateMutability": "view",
      "type": "function"
    },
    {
      "inputs": [
        {
          "internalType": "bytes32",
          "name": "",
          "type": "bytes32"
        }
      ],
      "name": "processed",
      "outputs": [
        {
          "internalType": "bool",
          "name": "",
          "type": "bool"
        }
      ],
      "stateMutability": "view",
      "type": "function"
    },
    {
      "inputs": [
        {
          "internalType": "address",
          "name": "_oldMember",
          "type": "address"
        }
      ],
      "name": "removeMember",
      "outputs": [],
      "stateMutability": "nonpayable",
      "type": "function"
    },
    {
      "inputs": [],
      "name": "renounceOwnership",
      "outputs": [],
      "stateMutability": "nonpayable",
      "type": "function"
    },
    {
      "inputs": [],
      "name": "required",
      "outputs": [
        {
          "internalType": "uint256",
          "name": "",
          "type": "uint256"
        }
      ],
      "stateMutability": "view",
      "type": "function"
    },
    {
      "inputs": [
        {
          "internalType": "address",
          "name": "_bridge",
          "type": "address"
        }
      ],
      "name": "setBridge",
      "outputs": [],
      "stateMutability": "nonpayable",
      "type": "function"
    },
    {
      "inputs": [
        {
          "internalType": "bytes32",
          "name": "transactionId",
          "type": "bytes32"
        }
      ],
      "name": "transactionWasProcessed",
      "outputs": [
        {
          "internalType": "bool",
          "name": "",
          "type": "bool"
        }
      ],
      "stateMutability": "view",
      "type": "function"
    },
    {
      "inputs": [
        {
          "internalType": "address",
          "name": "newOwner",
          "type": "address"
        }
      ],
      "name": "transferOwnership",
      "outputs": [],
      "stateMutability": "nonpayable",
      "type": "function"
    },
    {
      "inputs": [],
      "name": "version",
      "outputs": [
        {
          "internalType": "string",
          "name": "",
          "type": "string"
        }
      ],
      "stateMutability": "pure",
      "type": "function"
    },
    {
      "inputs": [
        {
          "internalType": "address",
          "name": "originalTokenAddress",
          "type": "address"
        },
        {
          "internalType": "address payable",
          "name": "sender",
          "type": "address"
        },
        {
          "internalType": "address payable",
          "name": "receiver",
          "type": "address"
        },
        {
          "internalType": "uint256",
          "name": "amount",
          "type": "uint256"
        },
        {
          "internalType": "bytes32",
          "name": "blockHash",
          "type": "bytes32"
        },
        {
          "internalType": "bytes32",
          "name": "transactionHash",
          "type": "bytes32"
        },
        {
          "internalType": "uint32",
          "name": "logIndex",
          "type": "uint32"
        }
      ],
      "name": "voteTransaction",
      "outputs": [
        {
          "internalType": "bool",
          "name": "",
          "type": "bool"
        }
      ],
      "stateMutability": "nonpayable",
      "type": "function"
    },
    {
      "inputs": [
        {
          "internalType": "bytes32",
          "name": "",
          "type": "bytes32"
        },
        {
          "internalType": "address",
          "name": "",
          "type": "address"
        }
      ],
      "name": "votes",
      "outputs": [
        {
          "internalType": "bool",
          "name": "",
          "type": "bool"
        }
      ],
      "stateMutability": "view",
      "type": "function"
    }
  ],
  "transactionHash": "0x19d064fe48152b878f3d9335a6bce717230a681f843f53eb17cbea04811f51cd",
  "args": [],
  "solcInputHash": "c9c50994c7f4ed6c6a7c2f652aca7adb",
  "bytecode": "0x608060405234801561001057600080fd5b50611afa806100206000396000f3fe608060405234801561001057600080fd5b50600436106101735760003560e01c8063a1fb4acb116100de578063c1f0808a11610097578063dc8452cd11610071578063dc8452cd14610311578063e78cea9214610319578063f2fde38b14610321578063fa6297ba1461033457610173565b8063c1f0808a146102d8578063c4d66de8146102eb578063ca6d56dc146102fe57610173565b8063a1fb4acb14610266578063a230c52414610279578063a93585f01461028c578063b9a3b9dc1461029f578063ba51a6df146102b2578063c1b4a1e3146102c557610173565b8063715018a611610130578063715018a6146102135780638da5cb5b1461021b5780638dd14802146102235780638f32d59b146102365780639386775a1461023e5780639eab52531461025157610173565b80630b1ca49a146101785780631b4613cb1461018d57806335d4aa9e146101b657806354fd4d50146101c95780635daf08ca146101de578063681fc921146101fe575b600080fd5b61018b61018636600461128b565b610347565b005b6101a061019b366004611404565b610555565b6040516101ad9190611661565b60405180910390f35b6101a06101c43660046112ae565b610591565b6101d161080b565b6040516101ad9190611675565b6101f16101ec366004611404565b610827565b6040516101ad919061157c565b610206610851565b6040516101ad919061166c565b61018b610856565b6101f16108c4565b61018b61023136600461128b565b6108d3565b6101a0610903565b6101a061024c36600461141c565b610929565b610259610949565b6040516101ad9190611614565b610206610274366004611404565b6109ab565b6101a061028736600461128b565b610a1c565b6101a061029a366004611404565b610a31565b61018b6102ad36600461144b565b610a46565b61018b6102c0366004611404565b610aeb565b61018b6102d3366004611324565b610bac565b6101a06102e6366004611404565b610e1a565b61018b6102f936600461128b565b610e2f565b61018b61030c36600461128b565b610ef4565b610206611025565b6101f161102b565b61018b61032f36600461128b565b61103a565b6102066103423660046112ae565b611067565b61034f610903565b6103745760405162461bcd60e51b815260040161036b906118f4565b60405180910390fd5b6001600160a01b03811661039a5760405162461bcd60e51b815260040161036b90611960565b6001600160a01b03811660009081526037602052604090205460ff166103d25760405162461bcd60e51b815260040161036b9061176b565b6035546001106103f45760405162461bcd60e51b815260040161036b90611997565b60365460355460001901101561041c5760405162461bcd60e51b815260040161036b906118a3565b6001600160a01b0381166000908152603760205260408120805460ff191690555b603554600019018110156104f057816001600160a01b03166035828154811061046257fe5b6000918252602090912001546001600160a01b031614156104e85760358054600019810190811061048f57fe5b600091825260209091200154603580546001600160a01b0390921691839081106104b557fe5b9060005260206000200160006101000a8154816001600160a01b0302191690836001600160a01b031602179055506104f0565b60010161043d565b5060358054806104fc57fe5b600082815260208120820160001990810180546001600160a01b03191690559091019091556040516001600160a01b038316917f270bfc616dd36d5cb6b35aac93e6ef22b089c34e6f6ad6f0892797424840897b91a250565b60008181526038602052604081208161056c6110a9565b6001600160a01b0316815260208101919091526040016000205460ff1690505b919050565b60006037600061059f6110a9565b6001600160a01b0316815260208101919091526040016000205460ff166105d85760405162461bcd60e51b815260040161036b90611a21565b60006105e989898989898989611067565b60008181526039602052604090205490915060ff161561060d576001915050610800565b6000818152603860205260408120906106246110a9565b6001600160a01b0316815260208101919091526040016000205460ff1615610650576001915050610800565b60008181526038602052604081206001916106696110a9565b6001600160a01b031681526020810191909152604001600020805460ff1916911515919091179055808461069b6110a9565b6001600160a01b03167fd22894491aaa5bb67855bcff4b9730bdf7768be1e25f66ced9a7d7ad623bf2918c8c8c8c8c8b6040516106dd969594939291906115d6565b60405180910390a460006106f0826109ab565b9050603654811015801561070d5750603554600290046001018110155b156107f95760008281526039602052604090819020805460ff191660011790556034549051636a86319160e01b81526001600160a01b0390911690636a86319190610768908d908d908d908d908d908d908d90600401611590565b600060405180830381600087803b15801561078257600080fd5b505af1158015610796573d6000803e3d6000fd5b5050505081856107a46110a9565b6001600160a01b03167fe21e4d3d66ef78424137270e65cfafe938736bb770702ab4fd630383e7820b738d8d8d8d8d8c6040516107e6969594939291906115d6565b60405180910390a4600192505050610800565b6001925050505b979650505050505050565b6040805180820190915260028152613b1960f11b602082015290565b6035818154811061083757600080fd5b6000918252602090912001546001600160a01b0316905081565b603281565b61085e610903565b61087a5760405162461bcd60e51b815260040161036b906118f4565b6033546040516000916001600160a01b0316907f8be0079c531659141344cd1fd0a4f28419497f9722a3daafe3b4186f6b6457e0908390a3603380546001600160a01b0319169055565b6033546001600160a01b031690565b6108db610903565b6108f75760405162461bcd60e51b815260040161036b906118f4565b610900816110ad565b50565b6033546000906001600160a01b031661091a6110a9565b6001600160a01b031614905090565b603860209081526000928352604080842090915290825290205460ff1681565b606060358054806020026020016040519081016040528092919081815260200182805480156109a157602002820191906000526020600020905b81546001600160a01b03168152600190910190602001808311610983575b5050505050905090565b600080805b603554811015610a1557600084815260386020526040812060358054919291849081106109d957fe5b60009182526020808320909101546001600160a01b0316835282019290925260400190205460ff1615610a0d576001820191505b6001016109b0565b5092915050565b60376020526000908152604090205460ff1681565b60009081526039602052604090205460ff1690565b60376000610a526110a9565b6001600160a01b0316815260208101919091526040016000205460ff16610a8b5760405162461bcd60e51b815260040161036b90611a21565b610a936110a9565b6001600160a01b03167fbb00e6cbdccbb5b7549e189335249187223d88583604555326aa1d7ccbcad4428989898989898989604051610ad9989796959493929190611a58565b60405180910390a25050505050505050565b610af3610903565b610b0f5760405162461bcd60e51b815260040161036b906118f4565b60355481818111801590610b2257508015155b8015610b2d57508115155b610b495760405162461bcd60e51b815260040161036b906116c8565b6002831015610b6a5760405162461bcd60e51b815260040161036b90611929565b60368390556040517fa3f1ee9126a074d9326c682f561767f710e927faa811f7a99829d49dc421797a90610b9f90859061166c565b60405180910390a1505050565b835183818111158015610bbe57508015155b8015610bc957508115155b610be55760405162461bcd60e51b815260040161036b906116c8565b600054610100900460ff1680610bfe575060005460ff16155b610c1a5760405162461bcd60e51b815260040161036b906117ac565b600054610100900460ff16158015610c45576000805460ff1961ff0019909116610100171660011790555b610c4e84610e2f565b603287511115610c705760405162461bcd60e51b815260040161036b90611734565b8651610c839060359060208a01906111ab565b5060005b8751811015610db85760376000898381518110610ca057fe5b6020908102919091018101516001600160a01b031682528101919091526040016000205460ff16158015610cfa575060006001600160a01b0316888281518110610ce657fe5b60200260200101516001600160a01b031614155b610d165760405162461bcd60e51b815260040161036b906117f4565b6001603760008a8481518110610d2857fe5b60200260200101516001600160a01b03166001600160a01b0316815260200190815260200160002060006101000a81548160ff021916908315150217905550878181518110610d7357fe5b60200260200101516001600160a01b03167f72114e270de66b9d2710ecf140403e5e99b1574767d6a8197bdc8d807a46e7c760405160405180910390a2600101610c87565b5060368690556040517fa3f1ee9126a074d9326c682f561767f710e927faa811f7a99829d49dc421797a90610dee90889061166c565b60405180910390a1610dff856110ad565b8015610e11576000805461ff00191690555b50505050505050565b60396020526000908152604090205460ff1681565b600054610100900460ff1680610e48575060005460ff16155b610e645760405162461bcd60e51b815260040161036b906117ac565b600054610100900460ff16158015610e8f576000805460ff1961ff0019909116610100171660011790555b603380546001600160a01b0319166001600160a01b0384811691909117918290556040519116906000907f8be0079c531659141344cd1fd0a4f28419497f9722a3daafe3b4186f6b6457e0908290a38015610ef0576000805461ff00191690555b5050565b610efc610903565b610f185760405162461bcd60e51b815260040161036b906118f4565b6001600160a01b038116610f3e5760405162461bcd60e51b815260040161036b90611960565b6001600160a01b03811660009081526037602052604090205460ff1615610f775760405162461bcd60e51b815260040161036b9061182b565b603554603211610f995760405162461bcd60e51b815260040161036b906116fd565b6001600160a01b038116600081815260376020526040808220805460ff1916600190811790915560358054918201815583527fcfa4bec1d3298408bb5afcfcd9c430549c5b31f8aa5c5848151c0a55f473c34d0180546001600160a01b03191684179055517f72114e270de66b9d2710ecf140403e5e99b1574767d6a8197bdc8d807a46e7c79190a250565b60365481565b6034546001600160a01b031681565b611042610903565b61105e5760405162461bcd60e51b815260040161036b906118f4565b61090081611129565b600087878787878787604051602001611086979695949392919061151e565b604051602081830303815290604052805190602001209050979650505050505050565b3390565b6001600160a01b0381166110d35760405162461bcd60e51b815260040161036b9061186c565b603480546001600160a01b0319166001600160a01b0383161790556040517f9775531310b2880b61484ed85cbb0b491c8fde3a07f289c63b925517827944979061111e90839061157c565b60405180910390a150565b6001600160a01b03811661114f5760405162461bcd60e51b815260040161036b906119df565b6033546040516001600160a01b038084169216907f8be0079c531659141344cd1fd0a4f28419497f9722a3daafe3b4186f6b6457e090600090a3603380546001600160a01b0319166001600160a01b0392909216919091179055565b828054828255906000526020600020908101928215611200579160200282015b8281111561120057825182546001600160a01b0319166001600160a01b039091161782556020909201916001909101906111cb565b5061120c929150611210565b5090565b5b8082111561120c5760008155600101611211565b803561058c81611aaf565b60008083601f840112611241578182fd5b50813567ffffffffffffffff811115611258578182fd5b60208301915083602082850101111561127057600080fd5b9250929050565b803563ffffffff8116811461058c57600080fd5b60006020828403121561129c578081fd5b81356112a781611aaf565b9392505050565b600080600080600080600060e0888a0312156112c8578283fd5b87356112d381611aaf565b965060208801356112e381611aaf565b955060408801356112f381611aaf565b9450606088013593506080880135925060a0880135915061131660c08901611277565b905092959891949750929550565b60008060008060808587031215611339578384fd5b843567ffffffffffffffff80821115611350578586fd5b818701915087601f830112611363578586fd5b813560208282111561137157fe5b8082026040518282820101818110868211171561138a57fe5b604052838152828101945085830182870184018d10156113a8578a8bfd5b8a96505b848710156113d1576113bd81611225565b8652600196909601959483019483016113ac565b5098505088013595506113eb925050604087019050611225565b91506113f960608601611225565b905092959194509250565b600060208284031215611415578081fd5b5035919050565b6000806040838503121561142e578182fd5b82359150602083013561144081611aaf565b809150509250929050565b60008060008060008060008060a0898b031215611466578081fd5b8835975060208901359650604089013567ffffffffffffffff8082111561148b578283fd5b6114978c838d01611230565b909850965060608b01359150808211156114af578283fd5b6114bb8c838d01611230565b909650945060808b01359150808211156114d3578283fd5b506114e08b828c01611230565b999c989b5096995094979396929594505050565b60008284528282602086013780602084860101526020601f19601f85011685010190509392505050565b606097881b6bffffffffffffffffffffffff19908116825296881b871660148201529490961b9094166028840152603c830191909152605c820152607c81019190915260e09190911b6001600160e01b031916609c82015260a00190565b6001600160a01b0391909116815260200190565b6001600160a01b03978816815295871660208701529390951660408501526060840191909152608083015260a082019290925263ffffffff90911660c082015260e00190565b6001600160a01b03968716815294861660208601529290941660408401526060830152608082019290925263ffffffff90911660a082015260c00190565b6020808252825182820181905260009190848201906040850190845b818110156116555783516001600160a01b031683529284019291840191600101611630565b50909695505050505050565b901515815260200190565b90815260200190565b6000602080835283518082850152825b818110156116a157858101830151858201604001528201611685565b818111156116b25783604083870101525b50601f01601f1916929092016040019392505050565b6020808252818101527f46656465726174696f6e3a20496e76616c696420726571756972656d656e7473604082015260600190565b6020808252601f908201527f46656465726174696f6e3a204d6178206d656d62657273207265616368656400604082015260600190565b6020808252601c908201527f46656465726174696f6e3a20546f6f206d616e79206d656d6265727300000000604082015260600190565b60208082526021908201527f46656465726174696f6e3a204d656d62657220646f65736e27742065786973746040820152607360f81b606082015260800190565b60208082526028908201527f436f6e747261637420696e7374616e636520697320616c726561647920696e696040820152671d1a585b1a5e995960c21b606082015260800190565b6020808252601b908201527f46656465726174696f6e3a20496e76616c6964206d656d626572730000000000604082015260600190565b60208082526021908201527f46656465726174696f6e3a204d656d62657220616c72656164792065786973746040820152607360f81b606082015260800190565b60208082526018908201527f46656465726174696f6e3a20456d707479206272696467650000000000000000604082015260600190565b60208082526031908201527f46656465726174696f6e3a2043616e27742068617665206c657373207468616e604082015270207265717569726564206d656d6265727360781b606082015260800190565b6020808252818101527f4f776e61626c653a2063616c6c6572206973206e6f7420746865206f776e6572604082015260600190565b6020808252601f908201527f46656465726174696f6e3a205265717569726573206174206c65617374203200604082015260600190565b60208082526018908201527f46656465726174696f6e3a20456d707479206d656d6265720000000000000000604082015260600190565b60208082526028908201527f46656465726174696f6e3a2043616e27742072656d6f766520616c6c20746865604082015267206d656d6265727360c01b606082015260800190565b60208082526022908201527f4f776e61626c653a206e6577206f776e6572206973207a65726f206164647265604082015261737360f01b606082015260800190565b60208082526019908201527f46656465726174696f6e3a204e6f7420466564657261746f7200000000000000604082015260600190565b600089825288602083015260a06040830152611a7860a08301888a6114f4565b8281036060840152611a8b8187896114f4565b90508281036080840152611aa08185876114f4565b9b9a5050505050505050505050565b6001600160a01b038116811461090057600080fdfea2646970667358221220128a4b4f51a83044e466d0c301c3119ae839536443710de99b33113388de820464736f6c63430007060033",
  "devdoc": {
    "kind": "dev",
    "methods": {
      "initialize(address)": {
        "details": "Initializes the contract setting the deployer as the initial owner."
      },
      "isOwner()": {
        "details": "Returns true if the caller is the current owner."
      },
      "owner()": {
        "details": "Returns the address of the current owner."
      },
      "renounceOwnership()": {
        "details": "Leaves the contract without owner. It will not be possible to call `onlyOwner` functions anymore. Can only be called by the current owner. > Note: Renouncing ownership will leave the contract without an owner, thereby removing any functionality that is only available to the owner."
      },
      "transferOwnership(address)": {
        "details": "Transfers ownership of the contract to a new account (`newOwner`). Can only be called by the current owner."
      }
    },
    "version": 1
  },
  "userdoc": {
    "kind": "user",
    "methods": {},
    "version": 1
  },
  "storageLayout": {
    "storage": [
      {
        "astId": 15785,
        "contract": "contracts/Federation/FederationV2.sol:FederationV2",
        "label": "initialized",
        "offset": 0,
        "slot": "0",
        "type": "t_bool"
      },
      {
        "astId": 15788,
        "contract": "contracts/Federation/FederationV2.sol:FederationV2",
        "label": "initializing",
        "offset": 1,
        "slot": "0",
        "type": "t_bool"
      },
      {
        "astId": 15828,
        "contract": "contracts/Federation/FederationV2.sol:FederationV2",
        "label": "______gap",
        "offset": 0,
        "slot": "1",
        "type": "t_array(t_uint256)50_storage"
      },
      {
        "astId": 16072,
        "contract": "contracts/Federation/FederationV2.sol:FederationV2",
        "label": "_owner",
        "offset": 0,
        "slot": "51",
        "type": "t_address"
      },
      {
        "astId": 5414,
        "contract": "contracts/Federation/FederationV2.sol:FederationV2",
        "label": "bridge",
        "offset": 0,
        "slot": "52",
        "type": "t_contract(IBridge)7398"
      },
      {
        "astId": 5417,
        "contract": "contracts/Federation/FederationV2.sol:FederationV2",
        "label": "members",
        "offset": 0,
        "slot": "53",
        "type": "t_array(t_address)dyn_storage"
      },
      {
        "astId": 5419,
        "contract": "contracts/Federation/FederationV2.sol:FederationV2",
        "label": "required",
        "offset": 0,
        "slot": "54",
        "type": "t_uint256"
      },
      {
        "astId": 5423,
        "contract": "contracts/Federation/FederationV2.sol:FederationV2",
        "label": "isMember",
        "offset": 0,
        "slot": "55",
        "type": "t_mapping(t_address,t_bool)"
      },
      {
        "astId": 5429,
        "contract": "contracts/Federation/FederationV2.sol:FederationV2",
        "label": "votes",
        "offset": 0,
        "slot": "56",
        "type": "t_mapping(t_bytes32,t_mapping(t_address,t_bool))"
      },
      {
        "astId": 5433,
        "contract": "contracts/Federation/FederationV2.sol:FederationV2",
        "label": "processed",
        "offset": 0,
        "slot": "57",
        "type": "t_mapping(t_bytes32,t_bool)"
      }
    ],
    "types": {
      "t_address": {
        "encoding": "inplace",
        "label": "address",
        "numberOfBytes": "20"
      },
      "t_array(t_address)dyn_storage": {
        "base": "t_address",
        "encoding": "dynamic_array",
        "label": "address[]",
        "numberOfBytes": "32"
      },
      "t_array(t_uint256)50_storage": {
        "base": "t_uint256",
        "encoding": "inplace",
        "label": "uint256[50]",
        "numberOfBytes": "1600"
      },
      "t_bool": {
        "encoding": "inplace",
        "label": "bool",
        "numberOfBytes": "1"
      },
      "t_bytes32": {
        "encoding": "inplace",
        "label": "bytes32",
        "numberOfBytes": "32"
      },
      "t_contract(IBridge)7398": {
        "encoding": "inplace",
        "label": "contract IBridge",
        "numberOfBytes": "20"
      },
      "t_mapping(t_address,t_bool)": {
        "encoding": "mapping",
        "key": "t_address",
        "label": "mapping(address => bool)",
        "numberOfBytes": "32",
        "value": "t_bool"
      },
      "t_mapping(t_bytes32,t_bool)": {
        "encoding": "mapping",
        "key": "t_bytes32",
        "label": "mapping(bytes32 => bool)",
        "numberOfBytes": "32",
        "value": "t_bool"
      },
      "t_mapping(t_bytes32,t_mapping(t_address,t_bool))": {
        "encoding": "mapping",
        "key": "t_bytes32",
        "label": "mapping(bytes32 => mapping(address => bool))",
        "numberOfBytes": "32",
        "value": "t_mapping(t_address,t_bool)"
      },
      "t_uint256": {
        "encoding": "inplace",
        "label": "uint256",
        "numberOfBytes": "32"
      }
    }
  }
}