{
    "contractName": "Bridge",
    "abi": [
        {
            "anonymous": false,
            "inputs": [
                {
                    "indexed": true,
                    "internalType": "bytes32",
                    "name": "_transactionHash",
                    "type": "bytes32"
                },
                {
                    "indexed": true,
                    "internalType": "address",
                    "name": "_originalTokenAddress",
                    "type": "address"
                },
                {
                    "indexed": true,
                    "internalType": "address",
                    "name": "_to",
                    "type": "address"
                },
                {
                    "indexed": false,
                    "internalType": "address",
                    "name": "_from",
                    "type": "address"
                },
                {
                    "indexed": false,
                    "internalType": "uint256",
                    "name": "_amount",
                    "type": "uint256"
                },
                {
                    "indexed": false,
                    "internalType": "bytes32",
                    "name": "_blockHash",
                    "type": "bytes32"
                },
                {
                    "indexed": false,
                    "internalType": "uint256",
                    "name": "_logIndex",
                    "type": "uint256"
                },
                {
                    "indexed": false,
                    "internalType": "uint256",
                    "name": "_originChainId",
                    "type": "uint256"
                },
                {
                    "indexed": false,
                    "internalType": "uint256",
                    "name": "_destinationChainId",
                    "type": "uint256"
                }
            ],
            "name": "AcceptedCrossTransfer",
            "type": "event"
        },
        {
            "anonymous": false,
            "inputs": [
                {
                    "indexed": false,
                    "internalType": "address",
                    "name": "_newAllowTokens",
                    "type": "address"
                }
            ],
            "name": "AllowTokensChanged",
            "type": "event"
        },
        {
            "anonymous": false,
            "inputs": [
                {
                    "indexed": true,
                    "internalType": "bytes32",
                    "name": "_transactionHash",
                    "type": "bytes32"
                },
                {
                    "indexed": true,
                    "internalType": "address",
                    "name": "_originalTokenAddress",
                    "type": "address"
                },
                {
                    "indexed": true,
                    "internalType": "address",
                    "name": "_to",
                    "type": "address"
                },
                {
                    "indexed": false,
                    "internalType": "address",
                    "name": "_sender",
                    "type": "address"
                },
                {
                    "indexed": false,
                    "internalType": "uint256",
                    "name": "_amount",
                    "type": "uint256"
                },
                {
                    "indexed": false,
                    "internalType": "bytes32",
                    "name": "_blockHash",
                    "type": "bytes32"
                },
                {
                    "indexed": false,
                    "internalType": "uint256",
                    "name": "_logIndex",
                    "type": "uint256"
                },
                {
                    "indexed": false,
                    "internalType": "address",
                    "name": "_reciever",
                    "type": "address"
                },
                {
                    "indexed": false,
                    "internalType": "address",
                    "name": "_relayer",
                    "type": "address"
                },
                {
                    "indexed": false,
                    "internalType": "uint256",
                    "name": "_fee",
                    "type": "uint256"
                },
                {
                    "indexed": false,
                    "internalType": "uint256",
                    "name": "_destinationChainId",
                    "type": "uint256"
                },
                {
                    "indexed": false,
                    "internalType": "uint256",
                    "name": "_originChainId",
                    "type": "uint256"
                }
            ],
            "name": "Claimed",
            "type": "event"
        },
        {
            "anonymous": false,
            "inputs": [
                {
                    "indexed": true,
                    "internalType": "address",
                    "name": "_tokenAddress",
                    "type": "address"
                },
                {
                    "indexed": true,
                    "internalType": "address",
                    "name": "_from",
                    "type": "address"
                },
                {
                    "indexed": true,
                    "internalType": "address",
                    "name": "_to",
                    "type": "address"
                },
                {
                    "indexed": false,
                    "internalType": "uint256",
                    "name": "_amount",
                    "type": "uint256"
                },
                {
                    "indexed": false,
                    "internalType": "bytes",
                    "name": "_userData",
                    "type": "bytes"
                },
                {
                    "indexed": false,
                    "internalType": "uint256",
                    "name": "originChainId",
                    "type": "uint256"
                },
                {
                    "indexed": false,
                    "internalType": "uint256",
                    "name": "destinationChainId",
                    "type": "uint256"
                }
            ],
            "name": "Cross",
            "type": "event"
        },
        {
            "anonymous": false,
            "inputs": [
                {
                    "indexed": false,
                    "internalType": "address",
                    "name": "_newFederation",
                    "type": "address"
                }
            ],
            "name": "FederationChanged",
            "type": "event"
        },
        {
            "anonymous": false,
            "inputs": [
                {
                    "indexed": false,
                    "internalType": "uint256",
                    "name": "_amount",
                    "type": "uint256"
                }
            ],
            "name": "FeePercentageChanged",
            "type": "event"
        },
        {
            "anonymous": false,
            "inputs": [
                {
                    "indexed": true,
                    "internalType": "address",
                    "name": "_newSideTokenAddress",
                    "type": "address"
                },
                {
                    "indexed": true,
                    "internalType": "address",
                    "name": "_originalTokenAddress",
                    "type": "address"
                },
                {
                    "indexed": false,
                    "internalType": "string",
                    "name": "_newSymbol",
                    "type": "string"
                },
                {
                    "indexed": false,
                    "internalType": "uint256",
                    "name": "_granularity",
                    "type": "uint256"
                },
                {
                    "indexed": false,
                    "internalType": "uint256",
                    "name": "chainId",
                    "type": "uint256"
                }
            ],
            "name": "NewSideToken",
            "type": "event"
        },
        {
            "anonymous": false,
            "inputs": [
                {
                    "indexed": true,
                    "internalType": "address",
                    "name": "previousOwner",
                    "type": "address"
                },
                {
                    "indexed": true,
                    "internalType": "address",
                    "name": "newOwner",
                    "type": "address"
                }
            ],
            "name": "OwnershipTransferred",
            "type": "event"
        },
        {
            "anonymous": false,
            "inputs": [
                {
                    "indexed": false,
                    "internalType": "address",
                    "name": "account",
                    "type": "address"
                }
            ],
            "name": "Paused",
            "type": "event"
        },
        {
            "anonymous": false,
            "inputs": [
                {
                    "indexed": true,
                    "internalType": "address",
                    "name": "account",
                    "type": "address"
                }
            ],
            "name": "PauserAdded",
            "type": "event"
        },
        {
            "anonymous": false,
            "inputs": [
                {
                    "indexed": true,
                    "internalType": "address",
                    "name": "account",
                    "type": "address"
                }
            ],
            "name": "PauserRemoved",
            "type": "event"
        },
        {
            "anonymous": false,
            "inputs": [
                {
                    "indexed": false,
                    "internalType": "address",
                    "name": "_newSideTokenFactory",
                    "type": "address"
                }
            ],
            "name": "SideTokenFactoryChanged",
            "type": "event"
        },
        {
            "anonymous": false,
            "inputs": [
                {
                    "indexed": false,
                    "internalType": "address",
                    "name": "account",
                    "type": "address"
                }
            ],
            "name": "Unpaused",
            "type": "event"
        },
        {
            "anonymous": false,
            "inputs": [
                {
                    "indexed": false,
                    "internalType": "bool",
                    "name": "_isUpgrading",
                    "type": "bool"
                }
            ],
            "name": "Upgrading",
            "type": "event"
        },
        {
            "anonymous": false,
            "inputs": [
                {
                    "indexed": false,
                    "internalType": "address",
                    "name": "_wrappedCurrency",
                    "type": "address"
                }
            ],
            "name": "WrappedCurrencyChanged",
            "type": "event"
        },
        {
            "inputs": [],
            "name": "CLAIM_TYPEHASH",
            "outputs": [
                {
                    "internalType": "bytes32",
                    "name": "",
                    "type": "bytes32"
                }
            ],
            "stateMutability": "view",
            "type": "function"
        },
        {
            "inputs": [
                {
                    "internalType": "address",
                    "name": "sender",
                    "type": "address"
                }
            ],
            "name": "__Pausable_init",
            "outputs": [],
            "stateMutability": "nonpayable",
            "type": "function"
        },
        {
            "inputs": [
                {
                    "internalType": "address",
                    "name": "sender",
                    "type": "address"
                }
            ],
            "name": "__PauserRol_init",
            "outputs": [],
            "stateMutability": "nonpayable",
            "type": "function"
        },
        {
            "inputs": [
                {
                    "internalType": "address",
                    "name": "operator",
                    "type": "address"
                },
                {
                    "internalType": "address",
                    "name": "from",
                    "type": "address"
                },
                {
                    "internalType": "address",
                    "name": "to",
                    "type": "address"
                },
                {
                    "internalType": "uint256",
                    "name": "amount",
                    "type": "uint256"
                },
                {
                    "internalType": "bytes",
                    "name": "userData",
                    "type": "bytes"
                },
                {
                    "internalType": "uint256",
                    "name": "chainId",
                    "type": "uint256"
                }
            ],
            "name": "_tokensReceived",
            "outputs": [],
            "stateMutability": "nonpayable",
            "type": "function"
        },
        {
            "inputs": [
                {
                    "internalType": "address",
                    "name": "_originalTokenAddress",
                    "type": "address"
                },
                {
                    "internalType": "address payable",
                    "name": "_from",
                    "type": "address"
                },
                {
                    "internalType": "address payable",
                    "name": "_to",
                    "type": "address"
                },
                {
                    "internalType": "uint256",
                    "name": "_amount",
                    "type": "uint256"
                },
                {
                    "internalType": "bytes32",
                    "name": "_blockHash",
                    "type": "bytes32"
                },
                {
                    "internalType": "bytes32",
                    "name": "_transactionHash",
                    "type": "bytes32"
                },
                {
                    "internalType": "uint32",
                    "name": "_logIndex",
                    "type": "uint32"
                },
                {
                    "internalType": "uint256",
                    "name": "_originChainId",
                    "type": "uint256"
                },
                {
                    "internalType": "uint256",
                    "name": "_destinationChainId",
                    "type": "uint256"
                }
            ],
            "name": "acceptTransfer",
            "outputs": [],
            "stateMutability": "nonpayable",
            "type": "function"
        },
        {
            "inputs": [
                {
                    "internalType": "address",
                    "name": "account",
                    "type": "address"
                }
            ],
            "name": "addPauser",
            "outputs": [],
            "stateMutability": "nonpayable",
            "type": "function"
        },
        {
            "inputs": [],
            "name": "allowTokens",
            "outputs": [
                {
                    "internalType": "contract IAllowTokens",
                    "name": "",
                    "type": "address"
                }
            ],
            "stateMutability": "view",
            "type": "function"
        },
        {
            "inputs": [
                {
                    "internalType": "address",
                    "name": "newAllowTokens",
                    "type": "address"
                }
            ],
            "name": "changeAllowTokens",
            "outputs": [],
            "stateMutability": "nonpayable",
            "type": "function"
        },
        {
            "inputs": [
                {
                    "internalType": "address",
                    "name": "newFederation",
                    "type": "address"
                }
            ],
            "name": "changeFederation",
            "outputs": [],
            "stateMutability": "nonpayable",
            "type": "function"
        },
        {
            "inputs": [
                {
                    "internalType": "address",
                    "name": "newSideTokenFactory",
                    "type": "address"
                }
            ],
            "name": "changeSideTokenFactory",
            "outputs": [],
            "stateMutability": "nonpayable",
            "type": "function"
        },
        {
            "inputs": [
                {
                    "components": [
                        {
                            "internalType": "address payable",
                            "name": "to",
                            "type": "address"
                        },
                        {
                            "internalType": "uint256",
                            "name": "amount",
                            "type": "uint256"
                        },
                        {
                            "internalType": "bytes32",
                            "name": "blockHash",
                            "type": "bytes32"
                        },
                        {
                            "internalType": "bytes32",
                            "name": "transactionHash",
                            "type": "bytes32"
                        },
                        {
                            "internalType": "uint32",
                            "name": "logIndex",
                            "type": "uint32"
                        },
                        {
                            "internalType": "uint256",
                            "name": "originChainId",
                            "type": "uint256"
                        }
                    ],
                    "internalType": "struct IBridge.ClaimData",
                    "name": "_claimData",
                    "type": "tuple"
                }
            ],
            "name": "claim",
            "outputs": [
                {
                    "internalType": "uint256",
                    "name": "receivedAmount",
                    "type": "uint256"
                }
            ],
            "stateMutability": "nonpayable",
            "type": "function"
        },
        {
            "inputs": [
                {
                    "components": [
                        {
                            "internalType": "address payable",
                            "name": "to",
                            "type": "address"
                        },
                        {
                            "internalType": "uint256",
                            "name": "amount",
                            "type": "uint256"
                        },
                        {
                            "internalType": "bytes32",
                            "name": "blockHash",
                            "type": "bytes32"
                        },
                        {
                            "internalType": "bytes32",
                            "name": "transactionHash",
                            "type": "bytes32"
                        },
                        {
                            "internalType": "uint32",
                            "name": "logIndex",
                            "type": "uint32"
                        },
                        {
                            "internalType": "uint256",
                            "name": "originChainId",
                            "type": "uint256"
                        }
                    ],
                    "internalType": "struct IBridge.ClaimData",
                    "name": "_claimData",
                    "type": "tuple"
                }
            ],
            "name": "claimFallback",
            "outputs": [
                {
                    "internalType": "uint256",
                    "name": "receivedAmount",
                    "type": "uint256"
                }
            ],
            "stateMutability": "nonpayable",
            "type": "function"
        },
        {
            "inputs": [
                {
                    "components": [
                        {
                            "internalType": "address payable",
                            "name": "to",
                            "type": "address"
                        },
                        {
                            "internalType": "uint256",
                            "name": "amount",
                            "type": "uint256"
                        },
                        {
                            "internalType": "bytes32",
                            "name": "blockHash",
                            "type": "bytes32"
                        },
                        {
                            "internalType": "bytes32",
                            "name": "transactionHash",
                            "type": "bytes32"
                        },
                        {
                            "internalType": "uint32",
                            "name": "logIndex",
                            "type": "uint32"
                        },
                        {
                            "internalType": "uint256",
                            "name": "originChainId",
                            "type": "uint256"
                        }
                    ],
                    "internalType": "struct IBridge.ClaimData",
                    "name": "_claimData",
                    "type": "tuple"
                },
                {
                    "internalType": "address payable",
                    "name": "_relayer",
                    "type": "address"
                },
                {
                    "internalType": "uint256",
                    "name": "_fee",
                    "type": "uint256"
                },
                {
                    "internalType": "uint256",
                    "name": "_deadline",
                    "type": "uint256"
                },
                {
                    "internalType": "uint8",
                    "name": "_v",
                    "type": "uint8"
                },
                {
                    "internalType": "bytes32",
                    "name": "_r",
                    "type": "bytes32"
                },
                {
                    "internalType": "bytes32",
                    "name": "_s",
                    "type": "bytes32"
                }
            ],
            "name": "claimGasless",
            "outputs": [
                {
                    "internalType": "uint256",
                    "name": "receivedAmount",
                    "type": "uint256"
                }
            ],
            "stateMutability": "nonpayable",
            "type": "function"
        },
        {
            "inputs": [
                {
                    "internalType": "bytes32",
                    "name": "",
                    "type": "bytes32"
                }
            ],
            "name": "claimed",
            "outputs": [
                {
                    "internalType": "bool",
                    "name": "",
                    "type": "bool"
                }
            ],
            "stateMutability": "view",
            "type": "function"
        },
        {
            "inputs": [
                {
                    "internalType": "uint256",
                    "name": "_typeId",
                    "type": "uint256"
                },
                {
                    "internalType": "address",
                    "name": "_originalTokenAddress",
                    "type": "address"
                },
                {
                    "internalType": "uint8",
                    "name": "_originalTokenDecimals",
                    "type": "uint8"
                },
                {
                    "internalType": "string",
                    "name": "_originalTokenSymbol",
                    "type": "string"
                },
                {
                    "internalType": "string",
                    "name": "_originalTokenName",
                    "type": "string"
                },
                {
                    "internalType": "uint256",
                    "name": "originChainId",
                    "type": "uint256"
                }
            ],
            "name": "createSideToken",
            "outputs": [],
            "stateMutability": "nonpayable",
            "type": "function"
        },
        {
            "inputs": [
                {
                    "internalType": "uint256",
                    "name": "chainId",
                    "type": "uint256"
                },
                {
                    "internalType": "address",
                    "name": "to",
                    "type": "address"
                }
            ],
            "name": "depositTo",
            "outputs": [],
            "stateMutability": "payable",
            "type": "function"
        },
        {
            "inputs": [
                {
                    "internalType": "address",
                    "name": "",
                    "type": "address"
                }
            ],
            "name": "deprecatedKnownTokens",
            "outputs": [
                {
                    "internalType": "bool",
                    "name": "",
                    "type": "bool"
                }
            ],
            "stateMutability": "view",
            "type": "function"
        },
        {
            "inputs": [
                {
                    "internalType": "address",
                    "name": "",
                    "type": "address"
                }
            ],
            "name": "deprecatedMappedTokens",
            "outputs": [
                {
                    "internalType": "address",
                    "name": "",
                    "type": "address"
                }
            ],
            "stateMutability": "view",
            "type": "function"
        },
        {
            "inputs": [
                {
                    "internalType": "address",
                    "name": "",
                    "type": "address"
                }
            ],
            "name": "deprecatedOriginalTokens",
            "outputs": [
                {
                    "internalType": "address",
                    "name": "",
                    "type": "address"
                }
            ],
            "stateMutability": "view",
            "type": "function"
        },
        {
            "inputs": [],
            "name": "domainSeparator",
            "outputs": [
                {
                    "internalType": "bytes32",
                    "name": "",
                    "type": "bytes32"
                }
            ],
            "stateMutability": "view",
            "type": "function"
        },
        {
            "inputs": [],
            "name": "feePercentageDivider",
            "outputs": [
                {
                    "internalType": "uint256",
                    "name": "",
                    "type": "uint256"
                }
            ],
            "stateMutability": "view",
            "type": "function"
        },
        {
            "inputs": [],
            "name": "getFederation",
            "outputs": [
                {
                    "internalType": "address",
                    "name": "",
                    "type": "address"
                }
            ],
            "stateMutability": "view",
            "type": "function"
        },
        {
            "inputs": [],
            "name": "getFeePercentage",
            "outputs": [
                {
                    "internalType": "uint256",
                    "name": "",
                    "type": "uint256"
                }
            ],
            "stateMutability": "view",
            "type": "function"
        },
        {
            "inputs": [
                {
                    "internalType": "address",
                    "name": "sideToken",
                    "type": "address"
                }
            ],
            "name": "getOriginalTokenBySideToken",
            "outputs": [
                {
                    "components": [
                        {
                            "internalType": "address",
                            "name": "tokenAddress",
                            "type": "address"
                        },
                        {
                            "internalType": "uint256",
                            "name": "originChainId",
                            "type": "uint256"
                        }
                    ],
                    "internalType": "struct IBridge.OriginalToken",
                    "name": "originalToken",
                    "type": "tuple"
                }
            ],
            "stateMutability": "view",
            "type": "function"
        },
        {
            "inputs": [
                {
                    "internalType": "address",
                    "name": "_to",
                    "type": "address"
                },
                {
                    "internalType": "uint256",
                    "name": "_amount",
                    "type": "uint256"
                },
                {
                    "internalType": "bytes32",
                    "name": "_blockHash",
                    "type": "bytes32"
                },
                {
                    "internalType": "bytes32",
                    "name": "_transactionHash",
                    "type": "bytes32"
                },
                {
                    "internalType": "uint32",
                    "name": "_logIndex",
                    "type": "uint32"
                },
                {
                    "internalType": "uint256",
                    "name": "_originChainId",
                    "type": "uint256"
                },
                {
                    "internalType": "uint256",
                    "name": "_destinationChainId",
                    "type": "uint256"
                }
            ],
            "name": "getTransactionDataHash",
            "outputs": [
                {
                    "internalType": "bytes32",
                    "name": "",
                    "type": "bytes32"
                }
            ],
            "stateMutability": "pure",
            "type": "function"
        },
        {
            "inputs": [
                {
                    "internalType": "bytes32",
                    "name": "transactionHash",
                    "type": "bytes32"
                }
            ],
            "name": "hasBeenClaimed",
            "outputs": [
                {
                    "internalType": "bool",
                    "name": "",
                    "type": "bool"
                }
            ],
            "stateMutability": "view",
            "type": "function"
        },
        {
            "inputs": [
                {
                    "internalType": "bytes32",
                    "name": "transactionHash",
                    "type": "bytes32"
                }
            ],
            "name": "hasCrossed",
            "outputs": [
                {
                    "internalType": "bool",
                    "name": "",
                    "type": "bool"
                }
            ],
            "stateMutability": "view",
            "type": "function"
        },
        {
            "inputs": [],
            "name": "initDomainSeparator",
            "outputs": [],
            "stateMutability": "nonpayable",
            "type": "function"
        },
        {
            "inputs": [
                {
                    "internalType": "address",
                    "name": "_manager",
                    "type": "address"
                },
                {
                    "internalType": "address",
                    "name": "_federation",
                    "type": "address"
                },
                {
                    "internalType": "address",
                    "name": "_allowTokens",
                    "type": "address"
                },
                {
                    "internalType": "address",
                    "name": "_sideTokenFactory",
                    "type": "address"
                },
                {
                    "internalType": "string",
                    "name": "_symbolPrefix",
                    "type": "string"
                }
            ],
            "name": "initialize",
            "outputs": [],
            "stateMutability": "nonpayable",
            "type": "function"
        },
        {
            "inputs": [],
            "name": "initialize",
            "outputs": [],
            "stateMutability": "nonpayable",
            "type": "function"
        },
        {
            "inputs": [
                {
                    "internalType": "address",
                    "name": "sender",
                    "type": "address"
                }
            ],
            "name": "initialize",
            "outputs": [],
            "stateMutability": "nonpayable",
            "type": "function"
        },
        {
            "inputs": [
                {
                    "components": [
                        {
                            "internalType": "address payable",
                            "name": "to",
                            "type": "address"
                        },
                        {
                            "internalType": "uint256",
                            "name": "amount",
                            "type": "uint256"
                        },
                        {
                            "internalType": "bytes32",
                            "name": "blockHash",
                            "type": "bytes32"
                        },
                        {
                            "internalType": "bytes32",
                            "name": "transactionHash",
                            "type": "bytes32"
                        },
                        {
                            "internalType": "uint32",
                            "name": "logIndex",
                            "type": "uint32"
                        },
                        {
                            "internalType": "uint256",
                            "name": "originChainId",
                            "type": "uint256"
                        }
                    ],
                    "internalType": "struct IBridge.ClaimData",
                    "name": "_claimData",
                    "type": "tuple"
                },
                {
                    "internalType": "bytes32",
                    "name": "transactionDataHashMultichain",
                    "type": "bytes32"
                }
            ],
            "name": "isClaimed",
            "outputs": [
                {
                    "internalType": "bool",
                    "name": "",
                    "type": "bool"
                }
            ],
            "stateMutability": "view",
            "type": "function"
        },
        {
            "inputs": [
                {
                    "internalType": "bytes32",
                    "name": "transactionDataHash",
                    "type": "bytes32"
                },
                {
                    "internalType": "bytes32",
                    "name": "transactionDataHashMultichain",
                    "type": "bytes32"
                }
            ],
            "name": "isClaimed",
            "outputs": [
                {
                    "internalType": "bool",
                    "name": "",
                    "type": "bool"
                }
            ],
            "stateMutability": "view",
            "type": "function"
        },
        {
            "inputs": [],
            "name": "isOwner",
            "outputs": [
                {
                    "internalType": "bool",
                    "name": "",
                    "type": "bool"
                }
            ],
            "stateMutability": "view",
            "type": "function"
        },
        {
            "inputs": [
                {
                    "internalType": "address",
                    "name": "account",
                    "type": "address"
                }
            ],
            "name": "isPauser",
            "outputs": [
                {
                    "internalType": "bool",
                    "name": "",
                    "type": "bool"
                }
            ],
            "stateMutability": "view",
            "type": "function"
        },
        {
            "inputs": [],
            "name": "isUpgrading",
            "outputs": [
                {
                    "internalType": "bool",
                    "name": "",
                    "type": "bool"
                }
            ],
            "stateMutability": "view",
            "type": "function"
        },
        {
            "inputs": [
                {
                    "internalType": "uint256",
                    "name": "chainId",
                    "type": "uint256"
                },
                {
                    "internalType": "address",
                    "name": "originalToken",
                    "type": "address"
                }
            ],
            "name": "knownToken",
            "outputs": [
                {
                    "internalType": "bool",
                    "name": "",
                    "type": "bool"
                }
            ],
            "stateMutability": "view",
            "type": "function"
        },
        {
            "inputs": [
                {
                    "internalType": "uint256",
                    "name": "",
                    "type": "uint256"
                },
                {
                    "internalType": "address",
                    "name": "",
                    "type": "address"
                }
            ],
            "name": "knownTokenByChain",
            "outputs": [
                {
                    "internalType": "bool",
                    "name": "",
                    "type": "bool"
                }
            ],
            "stateMutability": "view",
            "type": "function"
        },
        {
            "inputs": [
                {
                    "internalType": "address",
                    "name": "",
                    "type": "address"
                }
            ],
            "name": "nonces",
            "outputs": [
                {
                    "internalType": "uint256",
                    "name": "",
                    "type": "uint256"
                }
            ],
            "stateMutability": "view",
            "type": "function"
        },
        {
            "inputs": [
                {
                    "internalType": "bytes32",
                    "name": "",
                    "type": "bytes32"
                }
            ],
            "name": "originalTokenAddresses",
            "outputs": [
                {
                    "internalType": "address",
                    "name": "",
                    "type": "address"
                }
            ],
            "stateMutability": "view",
            "type": "function"
        },
        {
            "inputs": [
                {
                    "internalType": "address",
                    "name": "",
                    "type": "address"
                }
            ],
            "name": "originalTokenBySideToken",
            "outputs": [
                {
                    "internalType": "address",
                    "name": "tokenAddress",
                    "type": "address"
                },
                {
                    "internalType": "uint256",
                    "name": "originChainId",
                    "type": "uint256"
                }
            ],
            "stateMutability": "view",
            "type": "function"
        },
        {
            "inputs": [],
            "name": "owner",
            "outputs": [
                {
                    "internalType": "address",
                    "name": "",
                    "type": "address"
                }
            ],
            "stateMutability": "view",
            "type": "function"
        },
        {
            "inputs": [],
            "name": "pause",
            "outputs": [],
            "stateMutability": "nonpayable",
            "type": "function"
        },
        {
            "inputs": [],
            "name": "paused",
            "outputs": [
                {
                    "internalType": "bool",
                    "name": "",
                    "type": "bool"
                }
            ],
            "stateMutability": "view",
            "type": "function"
        },
        {
            "inputs": [
                {
                    "internalType": "uint256",
                    "name": "destinationChainId",
                    "type": "uint256"
                },
                {
                    "internalType": "address",
                    "name": "tokenToUse",
                    "type": "address"
                },
                {
                    "internalType": "address",
                    "name": "to",
                    "type": "address"
                },
                {
                    "internalType": "uint256",
                    "name": "amount",
                    "type": "uint256"
                }
            ],
            "name": "receiveTokensTo",
            "outputs": [],
            "stateMutability": "nonpayable",
            "type": "function"
        },
        {
            "inputs": [],
            "name": "renounceOwnership",
            "outputs": [],
            "stateMutability": "nonpayable",
            "type": "function"
        },
        {
            "inputs": [],
            "name": "renouncePauser",
            "outputs": [],
            "stateMutability": "nonpayable",
            "type": "function"
        },
        {
            "inputs": [
                {
                    "internalType": "bytes32",
                    "name": "",
                    "type": "bytes32"
                }
            ],
            "name": "senderAddresses",
            "outputs": [
                {
                    "internalType": "address",
                    "name": "",
                    "type": "address"
                }
            ],
            "stateMutability": "view",
            "type": "function"
        },
        {
            "inputs": [
                {
                    "internalType": "uint256",
                    "name": "amount",
                    "type": "uint256"
                }
            ],
            "name": "setFeePercentage",
            "outputs": [],
            "stateMutability": "nonpayable",
            "type": "function"
        },
        {
            "inputs": [
                {
                    "internalType": "uint256",
                    "name": "chainId",
                    "type": "uint256"
                },
                {
                    "internalType": "address",
                    "name": "originalToken",
                    "type": "address"
                },
                {
                    "internalType": "bool",
                    "name": "knownTokenValue",
                    "type": "bool"
                }
            ],
            "name": "setKnownTokenByChain",
            "outputs": [],
            "stateMutability": "nonpayable",
            "type": "function"
        },
        {
            "inputs": [
                {
                    "internalType": "address",
                    "name": "sideToken",
                    "type": "address"
                },
                {
                    "components": [
                        {
                            "internalType": "address",
                            "name": "tokenAddress",
                            "type": "address"
                        },
                        {
                            "internalType": "uint256",
                            "name": "originChainId",
                            "type": "uint256"
                        }
                    ],
                    "internalType": "struct IBridge.OriginalToken",
                    "name": "originalToken",
                    "type": "tuple"
                }
            ],
            "name": "setOriginalTokenBySideTokenByChain",
            "outputs": [],
            "stateMutability": "nonpayable",
            "type": "function"
        },
        {
            "inputs": [
                {
                    "internalType": "uint256",
                    "name": "chainId",
                    "type": "uint256"
                },
                {
                    "internalType": "address",
                    "name": "originalToken",
                    "type": "address"
                },
                {
                    "internalType": "address",
                    "name": "sideToken",
                    "type": "address"
                }
            ],
            "name": "setSideTokenByOriginalAddressByChain",
            "outputs": [],
            "stateMutability": "nonpayable",
            "type": "function"
        },
        {
            "inputs": [
                {
                    "internalType": "bool",
                    "name": "_isUpgrading",
                    "type": "bool"
                }
            ],
            "name": "setUpgrading",
            "outputs": [],
            "stateMutability": "nonpayable",
            "type": "function"
        },
        {
            "inputs": [
                {
                    "internalType": "address",
                    "name": "_wrappedCurrency",
                    "type": "address"
                }
            ],
            "name": "setWrappedCurrency",
            "outputs": [],
            "stateMutability": "nonpayable",
            "type": "function"
        },
        {
            "inputs": [
                {
                    "internalType": "uint256",
                    "name": "chainId",
                    "type": "uint256"
                },
                {
                    "internalType": "address",
                    "name": "originalToken",
                    "type": "address"
                }
            ],
            "name": "sideTokenByOriginalToken",
            "outputs": [
                {
                    "internalType": "address",
                    "name": "",
                    "type": "address"
                }
            ],
            "stateMutability": "view",
            "type": "function"
        },
        {
            "inputs": [
                {
                    "internalType": "uint256",
                    "name": "",
                    "type": "uint256"
                },
                {
                    "internalType": "address",
                    "name": "",
                    "type": "address"
                }
            ],
            "name": "sideTokenByOriginalTokenByChain",
            "outputs": [
                {
                    "internalType": "address",
                    "name": "",
                    "type": "address"
                }
            ],
            "stateMutability": "view",
            "type": "function"
        },
        {
            "inputs": [],
            "name": "sideTokenFactory",
            "outputs": [
                {
                    "internalType": "contract ISideTokenFactory",
                    "name": "",
                    "type": "address"
                }
            ],
            "stateMutability": "view",
            "type": "function"
        },
        {
            "inputs": [],
            "name": "symbolPrefix",
            "outputs": [
                {
                    "internalType": "string",
                    "name": "",
                    "type": "string"
                }
            ],
            "stateMutability": "view",
            "type": "function"
        },
        {
            "inputs": [
                {
                    "internalType": "address",
                    "name": "operator",
                    "type": "address"
                },
                {
                    "internalType": "address",
                    "name": "from",
                    "type": "address"
                },
                {
                    "internalType": "address",
                    "name": "to",
                    "type": "address"
                },
                {
                    "internalType": "uint256",
                    "name": "amount",
                    "type": "uint256"
                },
                {
                    "internalType": "bytes",
                    "name": "userData",
                    "type": "bytes"
                },
                {
                    "internalType": "bytes",
                    "name": "",
                    "type": "bytes"
                }
            ],
            "name": "tokensReceived",
            "outputs": [],
            "stateMutability": "nonpayable",
            "type": "function"
        },
        {
            "inputs": [
                {
                    "internalType": "address",
                    "name": "operator",
                    "type": "address"
                },
                {
                    "internalType": "address",
                    "name": "from",
                    "type": "address"
                },
                {
                    "internalType": "address",
                    "name": "to",
                    "type": "address"
                },
                {
                    "internalType": "uint256",
                    "name": "amount",
                    "type": "uint256"
                },
                {
                    "internalType": "bytes",
                    "name": "userData",
                    "type": "bytes"
                },
                {
                    "internalType": "uint256",
                    "name": "chainId",
                    "type": "uint256"
                }
            ],
            "name": "tokensReceived",
            "outputs": [],
            "stateMutability": "nonpayable",
            "type": "function"
        },
        {
            "inputs": [
                {
                    "internalType": "bytes32",
                    "name": "",
                    "type": "bytes32"
                }
            ],
            "name": "transactionsDataHashes",
            "outputs": [
                {
                    "internalType": "bytes32",
                    "name": "",
                    "type": "bytes32"
                }
            ],
            "stateMutability": "view",
            "type": "function"
        },
        {
            "inputs": [
                {
                    "internalType": "address",
                    "name": "newOwner",
                    "type": "address"
                }
            ],
            "name": "transferOwnership",
            "outputs": [],
            "stateMutability": "nonpayable",
            "type": "function"
        },
        {
            "inputs": [],
            "name": "unpause",
            "outputs": [],
            "stateMutability": "nonpayable",
            "type": "function"
        },
        {
            "inputs": [],
            "name": "version",
            "outputs": [
                {
                    "internalType": "string",
                    "name": "",
                    "type": "string"
                }
            ],
            "stateMutability": "pure",
            "type": "function"
        },
        {
            "inputs": [],
            "name": "wrappedCurrency",
            "outputs": [
                {
                    "internalType": "contract IWrapped",
                    "name": "",
                    "type": "address"
                }
            ],
            "stateMutability": "view",
            "type": "function"
        },
        {
            "stateMutability": "payable",
            "type": "receive"
        }
    ],
    "bytecode": "608060405234801561001057600080fd5b50614c6b806100206000396000f3fe6080604052600436106103d15760003560e01c80637ecebe00116101fd578063b984a40411610118578063e07801d0116100ab578063eb16136f1161007a578063eb16136f14610d16578063f2fde38b14610d36578063f698da2514610d56578063fa0caa1614610d6c578063fc3cf85f14610d8c57600080fd5b8063e07801d014610ca2578063e4e5bbcb14610cc2578063e6fc774414610ce2578063ea21709114610cf857600080fd5b8063cc3c0f06116100e7578063cc3c0f0614610c0e578063d12e825d14610c3e578063d3401a2214610c53578063da67703714610c7357600080fd5b8063b984a40414610b54578063c4d66de814610b98578063ca07140c14610bb8578063cbc7328014610bee57600080fd5b8063916dc59d11610190578063b048c4fb1161015f578063b048c4fb14610ad3578063b0e1268e14610af3578063b794726214610b13578063b86f60d214610b3457600080fd5b8063916dc59d14610a53578063a53d6e6e14610a73578063a89f298a14610a93578063ae06c1b714610ab357600080fd5b80638456cb59116101cc5780638456cb59146109d557806388710e2e146109ea5780638da5cb5b14610a0a5780638f32d59b14610a2d57600080fd5b80637ecebe00146109435780638129fc1c1461097057806382a0b8cb1461098557806382dc1ec4146109b557600080fd5b80633cf3058b116102ed5780635c975abb1161028057806370aff70f1161024f57806370aff70f14610886578063715018a6146108995780637a0ab28f146108ae5780637a98187b146108e457600080fd5b80635c975abb14610805578063615bfd6e1461081d5780636b0509b11461083d5780636ef8d66d1461087157600080fd5b806347f8bbd4116102bc57806347f8bbd41461077c5780634c7395091461079c57806354fd4d50146107bc57806359a8a867146107f057600080fd5b80633cf3058b146106f15780633f4ba83a1461072757806342cdb2c61461073c57806346fbf68e1461075c57600080fd5b806322f89ba4116103655780633500c1dc116103345780633500c1dc1461060557806337e76109146106255780633a1cbbcb146106625780633c3f63f4146106b057600080fd5b806322f89ba41461055a5780632f3cca4e146105a55780632fb3b361146105c55780633431ab45146105e557600080fd5b80630ed928af116103a15780630ed928af146104e55780630ef1335c1461050557806311efbf6114610525578063122aa5d41461053a57600080fd5b806223de2914610445578063026976191461046557806306db1f26146104a557806307c8f7b0146104c557600080fd5b36610440576041546001600160a01b0316336001600160a01b03161461043e5760405162461bcd60e51b815260206004820152601b60248201527f4272696467653a206e6f74207772617070656443757272656e6379000000000060448201526064015b60405180910390fd5b005b600080fd5b34801561045157600080fd5b5061043e610460366004613f20565b610dac565b34801561047157600080fd5b50610492610480366004613fd1565b60426020526000908152604090205481565b6040519081526020015b60405180910390f35b3480156104b157600080fd5b5061043e6104c0366004613ff8565b610dc5565b3480156104d157600080fd5b5061043e6104e036600461403a565b610dfa565b3480156104f157600080fd5b5061049261050036600461406f565b610e89565b34801561051157600080fd5b5061049261052036600461406f565b610eaf565b34801561053157600080fd5b50603754610492565b34801561054657600080fd5b5061043e6105553660046140a4565b610f26565b34801561056657600080fd5b5061059561057536600461412f565b604860209081526000928352604080842090915290825290205460ff1681565b604051901515815260200161049c565b3480156105b157600080fd5b5061043e6105c036600461415f565b6112e6565b3480156105d157600080fd5b5061043e6105e03660046141c3565b611366565b3480156105f157600080fd5b5061043e6106003660046142a3565b6114d1565b34801561061157600080fd5b5061043e61062036600461415f565b6114e9565b34801561063157600080fd5b50610595610640366004613fd1565b6000908152604260209081526040808320548352603e90915290205460ff1690565b34801561066e57600080fd5b5061069861067d36600461415f565b603b602052600090815260409020546001600160a01b031681565b6040516001600160a01b03909116815260200161049c565b3480156106bc57600080fd5b506106986106cb36600461412f565b60466020908152600092835260408084209091529082529020546001600160a01b031681565b3480156106fd57600080fd5b5061069861070c366004613fd1565b6044602052600090815260409020546001600160a01b031681565b34801561073357600080fd5b5061043e6115bb565b34801561074857600080fd5b5061043e61075736600461415f565b611673565b34801561076857600080fd5b5061059561077736600461415f565b611754565b34801561078857600080fd5b5061043e610797366004614331565b611761565b3480156107a857600080fd5b5061043e6107b73660046143ae565b6117d2565b3480156107c857600080fd5b506040805180820190915260028152611d8d60f21b60208201525b60405161049c919061443d565b3480156107fc57600080fd5b506107e3611842565b34801561081157600080fd5b5060345460ff16610595565b34801561082957600080fd5b50610595610838366004614450565b6118d0565b34801561084957600080fd5b506104927ff18ceda3f6355f78c234feba066041a50f6557bfb600201e2a71a89e2dd8043381565b34801561087d57600080fd5b5061043e61193d565b61043e61089436600461412f565b611948565b3480156108a557600080fd5b5061043e611a42565b3480156108ba57600080fd5b506106986108c936600461415f565b603c602052600090815260409020546001600160a01b031681565b3480156108f057600080fd5b506109246108ff36600461415f565b604760205260009081526040902080546001909101546001600160a01b039091169082565b604080516001600160a01b03909316835260208301919091520161049c565b34801561094f57600080fd5b5061049261095e36600461415f565b60456020526000908152604090205481565b34801561097c57600080fd5b5061043e611ac7565b34801561099157600080fd5b506105956109a036600461415f565b603d6020526000908152604090205460ff1681565b3480156109c157600080fd5b5061043e6109d036600461415f565b611b38565b3480156109e157600080fd5b5061043e611b66565b3480156109f657600080fd5b50610492610a0536600461448c565b611be3565b348015610a1657600080fd5b5060345461010090046001600160a01b0316610698565b348015610a3957600080fd5b5061059560345461010090046001600160a01b0316331490565b348015610a5f57600080fd5b5061043e610a6e36600461415f565b611d63565b348015610a7f57600080fd5b50603f54610698906001600160a01b031681565b348015610a9f57600080fd5b50610492610aae3660046144fe565b611e3c565b348015610abf57600080fd5b5061043e610ace366004613fd1565b611eae565b348015610adf57600080fd5b50610595610aee366004614563565b611f73565b348015610aff57600080fd5b50604154610698906001600160a01b031681565b348015610b1f57600080fd5b5060405461059590600160a01b900460ff1681565b348015610b4057600080fd5b50604054610698906001600160a01b031681565b348015610b6057600080fd5b50610b74610b6f36600461415f565b611fa5565b6040805182516001600160a01b03168152602092830151928101929092520161049c565b348015610ba457600080fd5b5061043e610bb336600461415f565b612024565b348015610bc457600080fd5b50610698610bd3366004613fd1565b6043602052600090815260409020546001600160a01b031681565b348015610bfa57600080fd5b5061043e610c09366004614585565b6120e6565b348015610c1a57600080fd5b50610595610c29366004613fd1565b603e6020526000908152604090205460ff1681565b348015610c4a57600080fd5b5061043e61237c565b348015610c5f57600080fd5b50610698610c6e36600461412f565b612423565b348015610c7f57600080fd5b50610595610c8e366004613fd1565b600090815260426020526040902054151590565b348015610cae57600080fd5b50610595610cbd36600461412f565b612476565b348015610cce57600080fd5b5061043e610cdd366004614629565b6124cb565b348015610cee57600080fd5b5061049261271081565b348015610d0457600080fd5b506036546001600160a01b0316610698565b348015610d2257600080fd5b5061043e610d3136600461415f565b612505565b348015610d4257600080fd5b5061043e610d5136600461415f565b612587565b348015610d6257600080fd5b5061049260395481565b348015610d7857600080fd5b5061043e610d8736600461415f565b6125c5565b348015610d9857600080fd5b5061043e610da73660046142a3565b61269e565b610dbb8888888888884661269e565b5050505050505050565b60009283526048602090815260408085206001600160a01b039490941685529290529120805460ff1916911515919091179055565b610e1360345461010090046001600160a01b0316331490565b610e2f5760405162461bcd60e51b815260040161043590614671565b6040805460ff60a01b1916600160a01b831515810291909117808355915160ff9190920416151581527f983e436223c000a441c2443b394ca5fb4669a513fe86dc1dd44494047b514ad9906020015b60405180910390a150565b6000610ea982610e9c602082018261415f565b6000808660a00135612930565b92915050565b60608101356000908152604460205260408120546001600160a01b0316336001600160a01b031614610f1c5760405162461bcd60e51b8152602060048201526016602482015275213934b233b29d1034b73b30b634b21039b2b73232b960511b6044820152606401610435565b610ea98233610e9c565b60345460ff1615610f495760405162461bcd60e51b8152600401610435906146a6565b600160356000828254610f5c91906146e6565b90915550506035546036546001600160a01b0316336001600160a01b031614610fc05760405162461bcd60e51b8152602060048201526016602482015275213934b233b29d102737ba102332b232b930ba34b7b760511b6044820152606401610435565b6001600160a01b0388166110085760405162461bcd60e51b815260206004820152600f60248201526e4272696467653a204e756c6c20546f60881b6044820152606401610435565b6000871161104b5760405162461bcd60e51b815260206004820152601060248201526f04272696467653a20416d6f756e7420360841b6044820152606401610435565b856110915760405162461bcd60e51b8152602060048201526016602482015275084e4d2c8ceca74409cead8d84084d8dec6d690c2e6d60531b6044820152606401610435565b846110d45760405162461bcd60e51b8152602060048201526013602482015272084e4d2c8ceca74409cead8d840a8f090c2e6d606b1b6044820152606401610435565b600085815260426020526040902054156111305760405162461bcd60e51b815260206004820152601860248201527f4272696467653a20416c726561647920616363657074656400000000000000006044820152606401610435565b600061113f8989898989612bf3565b905060006111528a8a8a8a8a8a8a611e3c565b905061115e8282611f73565b156111a55760405162461bcd60e51b8152602060048201526017602482015276109c9a5919d94e88105b1c9958591e4818db185a5b5959604a1b6044820152606401610435565b8060426000898152602001908152602001600020819055508b6043600089815260200190815260200160002060006101000a8154816001600160a01b0302191690836001600160a01b031602179055508a6044600089815260200190815260200160002060006101000a8154816001600160a01b0302191690836001600160a01b03160217905550896001600160a01b03168c6001600160a01b0316887fddae5e892ad96ac0e35e9018a1a3e32ecd7f3dfe55ea34d9ab1e8faecd6ccb5a8e8d8d8c8c8c6040516112af969594939291906001600160a01b039690961686526020860194909452604085019290925263ffffffff166060840152608083015260a082015260c00190565b60405180910390a4505060355481146112da5760405162461bcd60e51b8152600401610435906146fe565b50505050505050505050565b600054610100900460ff16806112ff575060005460ff16155b61131b5760405162461bcd60e51b815260040161043590614743565b600054610100900460ff1615801561133d576000805461ffff19166101011790555b61134682612505565b6034805460ff191690558015611362576000805461ff00191690555b5050565b600054610100900460ff168061137f575060005460ff16155b61139b5760405162461bcd60e51b815260040161043590614743565b600054610100900460ff161580156113bd576000805461ffff19166101011790555b6113c686612024565b6113cf866112e6565b81516113e2906038906020850190613e29565b50603f80546001600160a01b038681166001600160a01b031992831617909255604080548684169083161781556036805493891693909216929092179055516329965a1d60e01b815230600482018190527fb281fc8c12954d22544db45de3159a39272895b169a852b314f9cc762e44c53b60248301526044820152731820a4b7618bde71dce8cdc73aab6c95905fad24906329965a1d90606401600060405180830381600087803b15801561149757600080fd5b505af11580156114ab573d6000803e3d6000fd5b505050506114b761237c565b80156114c9576000805461ff00191690555b505050505050565b6114e08787878787878761269e565b50505050505050565b61150260345461010090046001600160a01b0316331490565b61151e5760405162461bcd60e51b815260040161043590614671565b6001600160a01b03811661156d5760405162461bcd60e51b81526020600482015260166024820152754272696467653a20777261707020697320656d70747960501b6044820152606401610435565b604180546001600160a01b0319166001600160a01b0383169081179091556040519081527f0966c958966f6fac9ff807af074f8117eb2e9ce2b76390db7a158e9bdeb2485c90602001610e7e565b6115c433611754565b6115e05760405162461bcd60e51b81526004016104359061478b565b60345460ff166116295760405162461bcd60e51b815260206004820152601460248201527314185d5cd8589b194e881b9bdd081c185d5cd95960621b6044820152606401610435565b6034805460ff191690557f5db9ee0a495bf2e6ff9c91a7834c1ba4fdd244a5e8aa4e537bd38aeae4b073aa335b6040516001600160a01b03909116815260200160405180910390a1565b61168c60345461010090046001600160a01b0316331490565b6116a85760405162461bcd60e51b815260040161043590614671565b6001600160a01b0381166117085760405162461bcd60e51b815260206004820152602160248201527f4272696467653a2053696465546f6b656e466163746f727920697320656d70746044820152607960f81b6064820152608401610435565b604080546001600160a01b0319166001600160a01b038316908117825590519081527f619936bc6e3618d0b8dc69bcc70134fe9d88f9967f3a8b8304e318369252162590602001610e7e565b6000610ea9603383612c5e565b61177a60345461010090046001600160a01b0316331490565b6117965760405162461bcd60e51b815260040161043590614671565b6001600160a01b039182166000908152604760209081526040909120825181546001600160a01b03191694169390931783550151600190910155565b6117eb60345461010090046001600160a01b0316331490565b6118075760405162461bcd60e51b815260040161043590614671565b60009283526046602090815260408085206001600160a01b0394851686529091529092208054919092166001600160a01b0319909116179055565b6038805461184f906147d3565b80601f016020809104026020016040519081016040528092919081815260200182805461187b906147d3565b80156118c85780601f1061189d576101008083540402835291602001916118c8565b820191906000526020600020905b8154815290600101906020018083116118ab57829003601f168201915b505050505081565b6000806119076118e3602086018661415f565b60208601356040870135606088013561190260a08a0160808b01614808565b612bf3565b6000818152603e602052604090205490915060ff168061193557506000838152603e602052604090205460ff165b949350505050565b61194633612ce1565b565b60415433906001600160a01b03166119a25760405162461bcd60e51b815260206004820152601d60248201527f4272696467653a207772617070656443757272656e637920656d7074790000006044820152606401610435565b604160009054906101000a90046001600160a01b03166001600160a01b031663d0e30db0346040518263ffffffff1660e01b81526004016000604051808303818588803b1580156119f257600080fd5b505af1158015611a06573d6000803e3d6000fd5b5050505050611a3d604160009054906101000a90046001600160a01b03168284346040518060200160405280600081525088612d23565b505050565b611a5b60345461010090046001600160a01b0316331490565b611a775760405162461bcd60e51b815260040161043590614671565b60345460405160009161010090046001600160a01b0316907f8be0079c531659141344cd1fd0a4f28419497f9722a3daafe3b4186f6b6457e0908390a360348054610100600160a81b0319169055565b600054610100900460ff1680611ae0575060005460ff16155b611afc5760405162461bcd60e51b815260040161043590614743565b600054610100900460ff16158015611b1e576000805461ffff19166101011790555b60016035558015611b35576000805461ff00191690555b50565b611b4133611754565b611b5d5760405162461bcd60e51b81526004016104359061478b565b611b358161305d565b611b6f33611754565b611b8b5760405162461bcd60e51b81526004016104359061478b565b60345460ff1615611bae5760405162461bcd60e51b8152600401610435906146a6565b6034805460ff191660011790557f62e78cea01bee320cd4e420270b5ea74000d11b0c9f74754ebdbfc544b05a2586116563390565b600042851015611c275760405162461bcd60e51b815260206004820152600f60248201526e109c9a5919d94e8811561412549151608a1b6044820152606401610435565b6000611c43611c3b368b90038b018b614823565b89898961309f565b6040805160008082526020820180845284905260ff89169282019290925260608101879052608081018690529192509060019060a0016020604051602081039080840390855afa158015611c9b573d6000803e3d6000fd5b5050604051601f190151915060009050611cb860208c018c61415f565b6001600160a01b031614158015611cec5750611cd760208b018b61415f565b6001600160a01b0316816001600160a01b0316145b611d385760405162461bcd60e51b815260206004820152601960248201527f4272696467653a20494e56414c49445f5349474e4154555245000000000000006044820152606401610435565b611d558a611d49602082018261415f565b8b8b8e60a00135612930565b9a9950505050505050505050565b611d7c60345461010090046001600160a01b0316331490565b611d985760405162461bcd60e51b815260040161043590614671565b6001600160a01b038116611dee5760405162461bcd60e51b815260206004820152601c60248201527f4272696467653a20416c6c6f77546f6b656e7320697320656d707479000000006044820152606401610435565b603f80546001600160a01b0319166001600160a01b0383169081179091556040519081527f5f2c1fe803fd576d8af05ea156011cc9cc8c025bda24c1e85772fc05a0b3f1e390602001610e7e565b6040805160208082019790975280820195909552606097881b6bffffffffffffffffffffffff191697850197909752607484019590955260e09190911b6001600160e01b0319166094830152609882015260b8808201939093528351808203909301835260d801909252805191012090565b611ec760345461010090046001600160a01b0316331490565b611ee35760405162461bcd60e51b815260040161043590614671565b611ef0600a6127106148c3565b8110611f3e5760405162461bcd60e51b815260206004820152601760248201527f4272696467653a20626967676572207468616e203130250000000000000000006044820152606401610435565b60378190556040518181527f97e97c577f03bda90e2c9739011ec065ed5fbfb36ae217d20bb0d9be95e160cd90602001610e7e565b6000828152603e602052604081205460ff1680611f9e57506000828152603e602052604090205460ff165b9392505050565b604080518082018252600080825260209182018190526001600160a01b0384811682526047835290839020835180850190945280549091168084526001909101549183019190915215611ff757919050565b60016020808301919091526001600160a01b039283166000908152603c9091526040902054909116815290565b600054610100900460ff168061203d575060005460ff16155b6120595760405162461bcd60e51b815260040161043590614743565b600054610100900460ff1615801561207b576000805461ffff19166101011790555b60348054610100600160a81b0319166101006001600160a01b0385811682029290921792839055604051920416906000907f8be0079c531659141344cd1fd0a4f28419497f9722a3daafe3b4186f6b6457e0908290a38015611362576000805461ff00191690555050565b6120ff60345461010090046001600160a01b0316331490565b61211b5760405162461bcd60e51b815260040161043590614671565b6001600160a01b0387166121665760405162461bcd60e51b8152602060048201526012602482015271213934b233b29d10273ab636103a37b5b2b760711b6044820152606401610435565b60006121728289612423565b90506001600160a01b038116156121c45760405162461bcd60e51b81526020600482015260166024820152754272696467653a20416c72656164792065786973747360501b6044820152606401610435565b60006121cf886131a2565b90506000603888886040516020016121e9939291906148e6565b60408051601f1981840301815282825290546326d9e96360e01b83529092506001600160a01b0316906326d9e9639061222c908990899086908890600401614985565b602060405180830381600087803b15801561224657600080fd5b505af115801561225a573d6000803e3d6000fd5b505050506040513d601f19601f8201168201806040525081019061227e91906149d5565b925061228b848b856117d2565b60408051808201909152602081018590526001600160a01b038b1681526122b28482611761565b603f54604051630385ce4360e41b8152600481018790526001600160a01b038681166024830152604482018f90529091169063385ce43090606401600060405180830381600087803b15801561230757600080fd5b505af115801561231b573d6000803e3d6000fd5b505050508a6001600160a01b0316846001600160a01b03167f88dcf8b72e53287db29df3fee9a0f2cb07d1f986cee153aa7d7554405d5db017848689604051612366939291906149f2565b60405180910390a3505050505050505050505050565b604080518082018252601081526f52534b20546f6b656e2042726964676560801b60208083019182528351808501855260018152603160f81b908201529151902082517f8b73c3c69bb8fe3d512ecc4cf759cc79239f7b179b0ffacaa9a75d522b39400f8152918201527fc89efdaa54c0f20c7adf612882df0950f5a951637e0307cdcb4c672f298b8bc69181019190915246606082015230608082015260a09020603955565b60008281526046602090815260408083206001600160a01b0380861685529252822054168015612454579050610ea9565b50506001600160a01b039081166000908152603b602052604090205416919050565b60008281526048602090815260408083206001600160a01b038516845290915281205460ff1680156124a9579050610ea9565b50506001600160a01b03166000908152603d602052604090205460ff16919050565b336124e16001600160a01b03851682308561320e565b6124fe84828585604051806020016040528060008152508a612d23565b5050505050565b600054610100900460ff168061251e575060005460ff16155b61253a5760405162461bcd60e51b815260040161043590614743565b600054610100900460ff1615801561255c576000805461ffff19166101011790555b61256582611754565b612572576125728261305d565b8015611362576000805461ff00191690555050565b6125a060345461010090046001600160a01b0316331490565b6125bc5760405162461bcd60e51b815260040161043590614671565b611b358161327f565b6125de60345461010090046001600160a01b0316331490565b6125fa5760405162461bcd60e51b815260040161043590614671565b6001600160a01b0381166126505760405162461bcd60e51b815260206004820152601b60248201527f4272696467653a2046656465726174696f6e20697320656d70747900000000006044820152606401610435565b603680546001600160a01b0319166001600160a01b0383169081179091556040519081527f4a41a4d11aaf0c0c9e4311ac1d68b2b0134556da594779a2a35b0ddf7cd1eafb90602001610e7e565b6001600160a01b0387163014156126b4576114e0565b6001600160a01b038516301461270c5760405162461bcd60e51b815260206004820152601b60248201527f4272696467653a204e6f7420746f2074686973206164647265737300000000006044820152606401610435565b60003360405163555ddc6560e11b81526001600160a01b03821660048201527fac7fbab5f54a3ca8194167523c6753bfeb96a445279294b6125b68cce21770546024820152909150600090731820a4b7618bde71dce8cdc73aab6c95905fad249063aabbb8ca9060440160206040518083038186803b15801561278e57600080fd5b505afa1580156127a2573d6000803e3d6000fd5b505050506040513d601f19601f820116820180604052508101906127c691906149d5565b6001600160a01b0316141561281d5760405162461bcd60e51b815260206004820152601860248201527f4272696467653a204e6f742045524337373720746f6b656e00000000000000006044820152606401610435565b8215158061283357506001600160a01b0387163b155b6128905760405162461bcd60e51b815260206004820152602860248201527f4272696467653a2053706563696679207265636569766572206164647265737360448201526720696e206461746160c01b6064820152608401610435565b600083156128dc576128d785858080601f01602080910402602001604051908101604052809392919081815260200183838082843760009201919091525061334792505050565b6128de565b875b90506129258289838989898080601f0160208091040260200160405190810160405280939291908181526020018383808284376000920191909152508b9250612d23915050565b505050505050505050565b600060016035600082825461294591906146e6565b909155505060355460608701356000908152604360205260409020546001600160a01b0316806129b05760405162461bcd60e51b8152602060048201526016602482015275109c9a5919d94e88151e081b9bdd0818dc9bdcdcd95960521b6044820152606401610435565b60006129eb6129c260208b018b61415f565b8a602001358b604001358c606001358d60800160208101906129e49190614808565b8a46611e3c565b60608a01356000908152604260205260409020549091508114612a5a5760405162461bcd60e51b815260206004820152602160248201527f4272696467653a2057726f6e67207472616e73616374696f6e446174614861736044820152600d60fb1b6064820152608401610435565b612a6489826118d0565b15612aab5760405162461bcd60e51b8152602060048201526017602482015276109c9a5919d94e88105b1c9958591e4818db185a5b5959604a1b6044820152606401610435565b6000818152603e60209081526040909120805460ff19166001179055612adb90869084908b908d01358b8b61334e565b9350612aea60208a018a61415f565b6001600160a01b0316826001600160a01b03168a606001357fa7a84dcc6757cdf9b9122d3bbc42d58358c28dc4b09cc24349599a63c56c62fd604460008e60600135815260200190815260200160002060009054906101000a90046001600160a01b03168d602001358e604001358f6080016020810190612b6b9190614808565b604080516001600160a01b039586168152602081019490945283019190915263ffffffff166060820152818e166080820152908c1660a082015260c081018b905260e081018a9052466101008201526101200160405180910390a450506035548114612be95760405162461bcd60e51b8152600401610435906146fe565b5095945050505050565b6040805160208101859052908101839052606086811b6bffffffffffffffffffffffff1916908201526074810185905260e082901b6001600160e01b031916609482015260009060980160405160208183030381529060405280519060200120905095945050505050565b60006001600160a01b038216612cc15760405162461bcd60e51b815260206004820152602260248201527f526f6c65733a206163636f756e7420697320746865207a65726f206164647265604482015261737360f01b6064820152608401610435565b506001600160a01b03166000908152602091909152604090205460ff1690565b612cec603382613396565b6040516001600160a01b038216907fcd265ebaf09df2871cc7bd4133404a235ba12eff2041bb89d9c714a2621c7c7e90600090a250565b604054600160a01b900460ff1615612d715760405162461bcd60e51b81526020600482015260116024820152704272696467653a20557067726164696e6760781b6044820152606401610435565b60345460ff1615612d945760405162461bcd60e51b8152600401610435906146a6565b600160356000828254612da791906146e6565b9091555050603554612dbb82886001610dc5565b6000612dde612710612dd86037548861340e90919063ffffffff16565b9061348d565b90506000612dec86836134cf565b90506000612df98a613511565b905086601260ff831614612e2a57612e27612e15836012614a17565b612e2090600a614b1e565b899061340e565b90505b603f54604051637e4a463d60e01b8152600481018890526001600160a01b038d811660248301526044820184905290911690637e4a463d90606401600060405180830381600087803b158015612e7f57600080fd5b505af1158015612e93573d6000803e3d6000fd5b505050506000612ea28c611fa5565b80519091506001600160a01b031615612faf576000612ec08d6135f5565b90506000612ece86836136cd565b9050612eda878261370f565b9650612ee686826134cf565b60405163fe9d930360e01b81529096506001600160a01b038f169063fe9d930390612f179089908e90600401614b2d565b600060405180830381600087803b158015612f3157600080fd5b505af1158015612f45573d6000803e3d6000fd5b505050508b6001600160a01b03168d6001600160a01b031684600001516001600160a01b03167f52c0922c6762ef6be5739e55fca0cd2e82f1d5a4126536ec4262f5234c1c395f898e8e46604051612fa09493929190614b46565b60405180910390a4505061300b565b896001600160a01b03168b6001600160a01b03168d6001600160a01b03167f52c0922c6762ef6be5739e55fca0cd2e82f1d5a4126536ec4262f5234c1c395f878c468d6040516130029493929190614b46565b60405180910390a45b8415613037576034546130379061010090046001600160a01b03166001600160a01b038e16908761376e565b505050505060355481146114e05760405162461bcd60e51b8152600401610435906146fe565b61306860338261379e565b6040516001600160a01b038216907f6719d08c1888103bea251a4ed56406bd0c3e69723c8a1686e017e7bbe159b6f890600090a250565b603954845160208087015160608801516001600160a01b0384166000908152604590935260408320805493956131999590947ff18ceda3f6355f78c234feba066041a50f6557bfb600201e2a71a89e2dd8043394919391928b918b918a61310583614b72565b9091555060a08e81015160408051602081019a909a526001600160a01b03988916908a015260608901969096526080880194909452949091169185019190915260c084015260e08301919091526101008201869052610120820152610140016040516020818303038152906040528051906020012060405161190160f01b8152600281019290925260228201526042902090565b95945050505050565b600060128260ff1611156131f85760405162461bcd60e51b815260206004820152601c60248201527f4c69625574696c733a20446563696d616c73206e6f74203c3d203138000000006044820152606401610435565b613203826012614a17565b610ea990600a614b1e565b6040516001600160a01b03808516602483015283166044820152606481018290526132799085906323b872dd60e01b906084015b60408051601f198184030181529190526020810180516001600160e01b03166001600160e01b03199093169290921790915261381a565b50505050565b6001600160a01b0381166132e05760405162461bcd60e51b815260206004820152602260248201527f4f776e61626c653a206e6577206f776e6572206973207a65726f206164647265604482015261737360f01b6064820152608401610435565b6034546040516001600160a01b0380841692610100900416907f8be0079c531659141344cd1fd0a4f28419497f9722a3daafe3b4186f6b6457e090600090a3603480546001600160a01b0390921661010002610100600160a81b0319909216919091179055565b6014015190565b600061335a8787612476565b156133735761336c868686868661399a565b905061338c565b6133896133808888612423565b86868686613b4a565b90505b9695505050505050565b6133a08282612c5e565b6133ec5760405162461bcd60e51b815260206004820181905260248201527f526f6c65733a206163636f756e7420646f65736e2774206861766520726f6c656044820152606401610435565b6001600160a01b0316600090815260209190915260409020805460ff19169055565b60008261341d57506000610ea9565b60006134298385614b8d565b90508261343685836148c3565b14611f9e5760405162461bcd60e51b815260206004820152602160248201527f536166654d6174683a206d756c7469706c69636174696f6e206f766572666c6f6044820152607760f81b6064820152608401610435565b6000611f9e83836040518060400160405280601a81526020017f536166654d6174683a206469766973696f6e206279207a65726f000000000000815250613d9e565b6000611f9e83836040518060400160405280601e81526020017f536166654d6174683a207375627472616374696f6e206f766572666c6f770000815250613dcc565b60408051600481526024810182526020810180516001600160e01b031663313ce56760e01b1790529051600091829182916001600160a01b038616916135579190614bac565b600060405180830381855afa9150503d8060008114613592576040519150601f19603f3d011682016040523d82523d6000602084013e613597565b606091505b5091509150816135e15760405162461bcd60e51b81526020600482015260156024820152744c69625574696c733a204e6f20646563696d616c7360581b6044820152606401610435565b808060200190518101906119359190614bc8565b60408051600481526024810182526020810180516001600160e01b031663556f0dc760e01b1790529051600091829182916001600160a01b0386169161363b9190614bac565b600060405180830381855afa9150503d8060008114613676576040519150601f19603f3d011682016040523d82523d6000602084013e61367b565b606091505b5091509150816135e15760405162461bcd60e51b815260206004820152601860248201527f4c69625574696c733a204e6f206772616e756c617269747900000000000000006044820152606401610435565b6000611f9e83836040518060400160405280601881526020017f536166654d6174683a206d6f64756c6f206279207a65726f0000000000000000815250613dfd565b60008061371c83856146e6565b905083811015611f9e5760405162461bcd60e51b815260206004820152601b60248201527f536166654d6174683a206164646974696f6e206f766572666c6f7700000000006044820152606401610435565b6040516001600160a01b038316602482015260448101829052611a3d90849063a9059cbb60e01b90606401613242565b6137a88282612c5e565b156137f55760405162461bcd60e51b815260206004820152601f60248201527f526f6c65733a206163636f756e7420616c72656164792068617320726f6c65006044820152606401610435565b6001600160a01b0316600090815260209190915260409020805460ff19166001179055565b6001600160a01b0382163b6138715760405162461bcd60e51b815260206004820152601f60248201527f5361666545524332303a2063616c6c20746f206e6f6e2d636f6e7472616374006044820152606401610435565b600080836001600160a01b03168360405161388c9190614bac565b6000604051808303816000865af19150503d80600081146138c9576040519150601f19603f3d011682016040523d82523d6000602084013e6138ce565b606091505b5091509150816139205760405162461bcd60e51b815260206004820181905260248201527f5361666545524332303a206c6f772d6c6576656c2063616c6c206661696c65646044820152606401610435565b805115613279578080602001905181019061393b9190614be1565b6132795760405162461bcd60e51b815260206004820152602a60248201527f5361666545524332303a204552433230206f7065726174696f6e20646964206e6044820152691bdd081cdd58d8d9595960b21b6064820152608401610435565b6000806139a687613511565b60ff16905060006139cd6139bb836012614bfe565b6139c690600a614c15565b879061348d565b905080841115613a165760405162461bcd60e51b8152602060048201526014602482015273084e4d2c8ceca7440cccaca40e8dede40d0d2ced60631b6044820152606401610435565b613a208482614bfe565b6041549093506001600160a01b0389811691161415613b1157604154604051632e1a7d4d60e01b8152600481018390526001600160a01b0390911690632e1a7d4d90602401600060405180830381600087803b158015613a7f57600080fd5b505af1158015613a93573d6000803e3d6000fd5b50506040516001600160a01b038a16925085156108fc02915085906000818181858888f19350505050158015613acd573d6000803e3d6000fd5b508315613b0c576040516001600160a01b0386169085156108fc029086906000818181858888f19350505050158015613b0a573d6000803e3d6000fd5b505b613b3f565b613b256001600160a01b038916888561376e565b8315613b3f57613b3f6001600160a01b038916868661376e565b505095945050505050565b60006001600160a01b038616613ba25760405162461bcd60e51b815260206004820152601a60248201527f4272696467653a207369646520746f6b656e206973206e756c6c0000000000006044820152606401610435565b6000866001600160a01b031663556f0dc76040518163ffffffff1660e01b815260040160206040518083038186803b158015613bdd57600080fd5b505afa158015613bf1573d6000803e3d6000fd5b505050506040513d601f19601f82011682018060405250810190613c159190614bc8565b90506000613c23868361340e565b905080841115613c6c5760405162461bcd60e51b8152602060048201526014602482015273084e4d2c8ceca7440cccaca40e8dede40d0d2ced60631b6044820152606401610435565b613c768482614bfe565b604051630dcdc7dd60e41b81526001600160a01b038981166004830152602482018390526080604483015260006084830181905260a0606484015260a48301529194509089169063dcdc7dd09060c401600060405180830381600087803b158015613ce057600080fd5b505af1158015613cf4573d6000803e3d6000fd5b505050506000841115613b3f57604051630dcdc7dd60e41b81526001600160a01b03868116600483015260248201869052608060448301526000608483015260a06064830152600b60a48301526a72656c617965722066656560a81b60c483015289169063dcdc7dd09060e401600060405180830381600087803b158015613d7b57600080fd5b505af1158015613d8f573d6000803e3d6000fd5b50505050505095945050505050565b60008183613dbf5760405162461bcd60e51b8152600401610435919061443d565b50600061319984866148c3565b60008184841115613df05760405162461bcd60e51b8152600401610435919061443d565b5060006131998486614bfe565b60008183613e1e5760405162461bcd60e51b8152600401610435919061443d565b506119358385614c21565b828054613e35906147d3565b90600052602060002090601f016020900481019282613e575760008555613e9d565b82601f10613e7057805160ff1916838001178555613e9d565b82800160010185558215613e9d579182015b82811115613e9d578251825591602001919060010190613e82565b50613ea9929150613ead565b5090565b5b80821115613ea95760008155600101613eae565b6001600160a01b0381168114611b3557600080fd5b60008083601f840112613ee957600080fd5b50813567ffffffffffffffff811115613f0157600080fd5b602083019150836020828501011115613f1957600080fd5b9250929050565b60008060008060008060008060c0898b031215613f3c57600080fd5b8835613f4781613ec2565b97506020890135613f5781613ec2565b96506040890135613f6781613ec2565b955060608901359450608089013567ffffffffffffffff80821115613f8b57600080fd5b613f978c838d01613ed7565b909650945060a08b0135915080821115613fb057600080fd5b50613fbd8b828c01613ed7565b999c989b5096995094979396929594505050565b600060208284031215613fe357600080fd5b5035919050565b8015158114611b3557600080fd5b60008060006060848603121561400d57600080fd5b83359250602084013561401f81613ec2565b9150604084013561402f81613fea565b809150509250925092565b60006020828403121561404c57600080fd5b8135611f9e81613fea565b600060c0828403121561406957600080fd5b50919050565b600060c0828403121561408157600080fd5b611f9e8383614057565b803563ffffffff8116811461409f57600080fd5b919050565b60008060008060008060008060006101208a8c0312156140c357600080fd5b89356140ce81613ec2565b985060208a01356140de81613ec2565b975060408a01356140ee81613ec2565b965060608a0135955060808a0135945060a08a0135935061411160c08b0161408b565b925060e08a013591506101008a013590509295985092959850929598565b6000806040838503121561414257600080fd5b82359150602083013561415481613ec2565b809150509250929050565b60006020828403121561417157600080fd5b8135611f9e81613ec2565b634e487b7160e01b600052604160045260246000fd5b604051601f8201601f1916810167ffffffffffffffff811182821017156141bb576141bb61417c565b604052919050565b600080600080600060a086880312156141db57600080fd5b85356141e681613ec2565b94506020868101356141f781613ec2565b9450604087013561420781613ec2565b9350606087013561421781613ec2565b9250608087013567ffffffffffffffff8082111561423457600080fd5b818901915089601f83011261424857600080fd5b81358181111561425a5761425a61417c565b61426c601f8201601f19168501614192565b91508082528a8482850101111561428257600080fd5b80848401858401376000848284010152508093505050509295509295909350565b600080600080600080600060c0888a0312156142be57600080fd5b87356142c981613ec2565b965060208801356142d981613ec2565b955060408801356142e981613ec2565b945060608801359350608088013567ffffffffffffffff81111561430c57600080fd5b6143188a828b01613ed7565b989b979a5095989497959660a090950135949350505050565b600080828403606081121561434557600080fd5b833561435081613ec2565b92506040601f198201121561436457600080fd5b506040516040810181811067ffffffffffffffff821117156143885761438861417c565b604052602084013561439981613ec2565b81526040939093013560208401525092909150565b6000806000606084860312156143c357600080fd5b8335925060208401356143d581613ec2565b9150604084013561402f81613ec2565b60005b838110156144005781810151838201526020016143e8565b838111156132795750506000910152565b600081518084526144298160208601602086016143e5565b601f01601f19169290920160200192915050565b602081526000611f9e6020830184614411565b60008060e0838503121561446357600080fd5b61446d8484614057565b9460c0939093013593505050565b803560ff8116811461409f57600080fd5b6000806000806000806000610180888a0312156144a857600080fd5b6144b28989614057565b965060c08801356144c281613ec2565b955060e0880135945061010088013593506144e0610120890161447b565b92506101408801359150610160880135905092959891949750929550565b600080600080600080600060e0888a03121561451957600080fd5b873561452481613ec2565b96506020880135955060408801359450606088013593506145476080890161408b565b925060a0880135915060c0880135905092959891949750929550565b6000806040838503121561457657600080fd5b50508035926020909101359150565b60008060008060008060008060c0898b0312156145a157600080fd5b8835975060208901356145b381613ec2565b96506145c160408a0161447b565b9550606089013567ffffffffffffffff808211156145de57600080fd5b6145ea8c838d01613ed7565b909750955060808b013591508082111561460357600080fd5b506146108b828c01613ed7565b999c989b50969995989497949560a00135949350505050565b6000806000806080858703121561463f57600080fd5b84359350602085013561465181613ec2565b9250604085013561466181613ec2565b9396929550929360600135925050565b6020808252818101527f4f776e61626c653a2063616c6c6572206973206e6f7420746865206f776e6572604082015260600190565b60208082526010908201526f14185d5cd8589b194e881c185d5cd95960821b604082015260600190565b634e487b7160e01b600052601160045260246000fd5b600082198211156146f9576146f96146d0565b500190565b60208082526025908201527f5265656e7472616e637947756172643a206e6f207265656e7472616e7420616c6040820152641b1bddd95960da1b606082015260800190565b60208082526028908201527f436f6e747261637420696e7374616e636520697320616c726561647920696e696040820152671d1a585b1a5e995960c21b606082015260800190565b60208082526028908201527f506175736572526f6c653a2063616c6c657220646f65736e277420686176652060408201526774686520726f6c6560c01b606082015260800190565b600181811c908216806147e757607f821691505b6020821081141561406957634e487b7160e01b600052602260045260246000fd5b60006020828403121561481a57600080fd5b611f9e8261408b565b600060c0828403121561483557600080fd5b60405160c0810181811067ffffffffffffffff821117156148585761485861417c565b604052823561486681613ec2565b808252506020830135602082015260408301356040820152606083013560608201526148946080840161408b565b608082015260a083013560a08201528091505092915050565b634e487b7160e01b600052601260045260246000fd5b6000826148d2576148d26148ad565b500490565b81818437506000910190815290565b600080855481600182811c91508083168061490257607f831692505b602080841082141561492257634e487b7160e01b86526022600452602486fd5b818015614936576001811461494757614974565b60ff19861689528489019650614974565b60008c81526020902060005b8681101561496c5781548b820152908501908301614953565b505084890196505b50505050505061338c8185876148d7565b60608152836060820152838560808301376000608085830101526000601f19601f860116820160808382030160208401526149c36080820186614411565b91505082604083015295945050505050565b6000602082840312156149e757600080fd5b8151611f9e81613ec2565b606081526000614a056060830186614411565b60208301949094525060400152919050565b600060ff821660ff841680821015614a3157614a316146d0565b90039392505050565b600181815b80851115614a75578160001904821115614a5b57614a5b6146d0565b80851615614a6857918102915b93841c9390800290614a3f565b509250929050565b600082614a8c57506001610ea9565b81614a9957506000610ea9565b8160018114614aaf5760028114614ab957614ad5565b6001915050610ea9565b60ff841115614aca57614aca6146d0565b50506001821b610ea9565b5060208310610133831016604e8410600b8410161715614af8575081810a610ea9565b614b028383614a3a565b8060001904821115614b1657614b166146d0565b029392505050565b6000611f9e60ff841683614a7d565b8281526040602082015260006119356040830184614411565b848152608060208201526000614b5f6080830186614411565b6040830194909452506060015292915050565b6000600019821415614b8657614b866146d0565b5060010190565b6000816000190483118215151615614ba757614ba76146d0565b500290565b60008251614bbe8184602087016143e5565b9190910192915050565b600060208284031215614bda57600080fd5b5051919050565b600060208284031215614bf357600080fd5b8151611f9e81613fea565b600082821015614c1057614c106146d0565b500390565b6000611f9e8383614a7d565b600082614c3057614c306148ad565b50069056fea26469706673582212209deeb59c826002ec2c27ddfd0c489e04f0495ceff9cdf823a063d86f4346f01764736f6c63430008090033",
    "sourcePath": "/home/rafilx/projects/github.com/rsksmart/tokenbridge/bridge/contracts/Bridge/Bridge.sol",
    "compiler": {
        "name": "solc",
        "version": "0.8.9+commit.e5eed63a"
    },
    "functionHashes": {
        "CLAIM_TYPEHASH()": "6b0509b1",
        "__Pausable_init(address)": "2f3cca4e",
        "__PauserRol_init(address)": "eb16136f",
        "_tokensReceived(address,address,address,uint256,bytes,uint256)": "fc3cf85f",
        "acceptTransfer(address,address,address,uint256,bytes32,bytes32,uint32,uint256,uint256)": "122aa5d4",
        "addPauser(address)": "82dc1ec4",
        "allowTokens()": "a53d6e6e",
        "changeAllowTokens(address)": "916dc59d",
        "changeFederation(address)": "fa0caa16",
        "changeSideTokenFactory(address)": "42cdb2c6",
        "claim((address,uint256,bytes32,bytes32,uint32,uint256))": "0ed928af",
        "claimFallback((address,uint256,bytes32,bytes32,uint32,uint256))": "0ef1335c",
        "claimGasless((address,uint256,bytes32,bytes32,uint32,uint256),address,uint256,uint256,uint8,bytes32,bytes32)": "88710e2e",
        "claimed(bytes32)": "cc3c0f06",
        "createSideToken(uint256,address,uint8,string,string,uint256)": "cbc73280",
        "depositTo(uint256,address)": "70aff70f",
        "deprecatedKnownTokens(address)": "82a0b8cb",
        "deprecatedMappedTokens(address)": "3a1cbbcb",
        "deprecatedOriginalTokens(address)": "7a0ab28f",
        "domainSeparator()": "f698da25",
        "feePercentageDivider()": "e6fc7744",
        "getFederation()": "ea217091",
        "getFeePercentage()": "11efbf61",
        "getOriginalTokenBySideToken(address)": "b984a404",
        "getTransactionDataHash(address,uint256,bytes32,bytes32,uint32,uint256,uint256)": "a89f298a",
        "hasBeenClaimed(bytes32)": "37e76109",
        "hasCrossed(bytes32)": "da677037",
        "initDomainSeparator()": "d12e825d",
        "initialize()": "8129fc1c",
        "initialize(address)": "c4d66de8",
        "initialize(address,address,address,address,string)": "2fb3b361",
        "isClaimed((address,uint256,bytes32,bytes32,uint32,uint256),bytes32)": "615bfd6e",
        "isClaimed(bytes32,bytes32)": "b048c4fb",
        "isOwner()": "8f32d59b",
        "isPauser(address)": "46fbf68e",
        "isUpgrading()": "b7947262",
        "knownToken(uint256,address)": "e07801d0",
        "knownTokenByChain(uint256,address)": "22f89ba4",
        "nonces(address)": "7ecebe00",
        "originalTokenAddresses(bytes32)": "ca07140c",
        "originalTokenBySideToken(address)": "7a98187b",
        "owner()": "8da5cb5b",
        "pause()": "8456cb59",
        "paused()": "5c975abb",
        "receiveTokensTo(uint256,address,address,uint256)": "e4e5bbcb",
        "renounceOwnership()": "715018a6",
        "renouncePauser()": "6ef8d66d",
        "senderAddresses(bytes32)": "3cf3058b",
        "setFeePercentage(uint256)": "ae06c1b7",
        "setKnownTokenByChain(uint256,address,bool)": "06db1f26",
        "setOriginalTokenBySideTokenByChain(address,(address,uint256))": "47f8bbd4",
        "setSideTokenByOriginalAddressByChain(uint256,address,address)": "4c739509",
        "setUpgrading(bool)": "07c8f7b0",
        "setWrappedCurrency(address)": "3500c1dc",
        "sideTokenByOriginalToken(uint256,address)": "d3401a22",
        "sideTokenByOriginalTokenByChain(uint256,address)": "3c3f63f4",
        "sideTokenFactory()": "b86f60d2",
        "symbolPrefix()": "59a8a867",
        "tokensReceived(address,address,address,uint256,bytes,bytes)": "0023de29",
        "tokensReceived(address,address,address,uint256,bytes,uint256)": "3431ab45",
        "transactionsDataHashes(bytes32)": "02697619",
        "transferOwnership(address)": "f2fde38b",
        "unpause()": "3f4ba83a",
        "version()": "54fd4d50",
        "wrappedCurrency()": "b0e1268e"
    },
    "gasEstimates": {
        "creation": {
            "codeDepositCost": "3912600",
            "executionCost": "4454",
            "totalCost": "3917054"
        },
        "external": {
            "CLAIM_TYPEHASH()": "296",
            "__Pausable_init(address)": "infinite",
            "__PauserRol_init(address)": "infinite",
            "_tokensReceived(address,address,address,uint256,bytes,uint256)": "infinite",
            "acceptTransfer(address,address,address,uint256,bytes32,bytes32,uint32,uint256,uint256)": "infinite",
            "addPauser(address)": "infinite",
            "allowTokens()": "2427",
            "changeAllowTokens(address)": "27899",
            "changeFederation(address)": "27963",
            "changeSideTokenFactory(address)": "27941",
            "claim((address,uint256,bytes32,bytes32,uint32,uint256))": "infinite",
            "claimFallback((address,uint256,bytes32,bytes32,uint32,uint256))": "infinite",
            "claimGasless((address,uint256,bytes32,bytes32,uint32,uint256),address,uint256,uint256,uint8,bytes32,bytes32)": "infinite",
            "claimed(bytes32)": "2517",
            "createSideToken(uint256,address,uint8,string,string,uint256)": "infinite",
            "depositTo(uint256,address)": "infinite",
            "deprecatedKnownTokens(address)": "2638",
            "deprecatedMappedTokens(address)": "2664",
            "deprecatedOriginalTokens(address)": "2663",
            "domainSeparator()": "2394",
            "feePercentageDivider()": "295",
            "getFederation()": "2464",
            "getFeePercentage()": "2394",
            "getOriginalTokenBySideToken(address)": "7176",
            "getTransactionDataHash(address,uint256,bytes32,bytes32,uint32,uint256,uint256)": "1007",
            "hasBeenClaimed(bytes32)": "4712",
            "hasCrossed(bytes32)": "2583",
            "initDomainSeparator()": "22670",
            "initialize()": "77213",
            "initialize(address)": "81080",
            "initialize(address,address,address,address,string)": "infinite",
            "isClaimed((address,uint256,bytes32,bytes32,uint32,uint256),bytes32)": "infinite",
            "isClaimed(bytes32,bytes32)": "4755",
            "isOwner()": "2469",
            "isPauser(address)": "2779",
            "isUpgrading()": "2438",
            "knownToken(uint256,address)": "4947",
            "knownTokenByChain(uint256,address)": "2697",
            "nonces(address)": "2571",
            "originalTokenAddresses(bytes32)": "2589",
            "originalTokenBySideToken(address)": "4833",
            "owner()": "2454",
            "pause()": "29979",
            "paused()": "2372",
            "receiveTokensTo(uint256,address,address,uint256)": "infinite",
            "renounceOwnership()": "30288",
            "renouncePauser()": "28097",
            "senderAddresses(bytes32)": "2546",
            "setFeePercentage(uint256)": "25781",
            "setKnownTokenByChain(uint256,address,bool)": "infinite",
            "setOriginalTokenBySideTokenByChain(address,(address,uint256))": "infinite",
            "setSideTokenByOriginalAddressByChain(uint256,address,address)": "infinite",
            "setUpgrading(bool)": "27934",
            "setWrappedCurrency(address)": "27899",
            "sideTokenByOriginalToken(uint256,address)": "5006",
            "sideTokenByOriginalTokenByChain(uint256,address)": "2789",
            "sideTokenFactory()": "2470",
            "symbolPrefix()": "infinite",
            "tokensReceived(address,address,address,uint256,bytes,bytes)": "infinite",
            "tokensReceived(address,address,address,uint256,bytes,uint256)": "infinite",
            "transactionsDataHashes(bytes32)": "2519",
            "transferOwnership(address)": "infinite",
            "unpause()": "29979",
            "version()": "infinite",
            "wrappedCurrency()": "2426"
        },
        "internal": {
            "_claim(struct IBridge.ClaimData calldata,address payable,address payable,uint256,uint256)": "infinite",
            "_claimCross(uint256,address,address payable,uint256,address payable,uint256)": "infinite",
            "_claimCrossBackToToken(address,address payable,uint256,address payable,uint256)": "infinite",
            "_claimCrossToSideToken(address,address payable,uint256,address payable,uint256)": "infinite",
            "crossTokens(address,address,address,uint256,bytes memory,uint256)": "infinite",
            "getDigest(struct IBridge.ClaimData memory,address payable,uint256,uint256)": "infinite",
            "getTransactionDataHash(address,uint256,bytes32,bytes32,uint32)": "infinite",
            "isCurrentChainId(uint256)": "infinite"
        }
    }
}