{
  "address": "0x15c240d9Fb91224c0d3Ca9b04Ff63844aA3dF040",
  "abi": [
    {
      "anonymous": false,
      "inputs": [
        {
          "indexed": true,
          "internalType": "bytes32",
          "name": "_transactionHash",
          "type": "bytes32"
        },
        {
          "indexed": true,
          "internalType": "address",
          "name": "_originalTokenAddress",
          "type": "address"
        },
        {
          "indexed": true,
          "internalType": "address",
          "name": "_to",
          "type": "address"
        },
        {
          "indexed": false,
          "internalType": "address",
          "name": "_from",
          "type": "address"
        },
        {
          "indexed": false,
          "internalType": "uint256",
          "name": "_amount",
          "type": "uint256"
        },
        {
          "indexed": false,
          "internalType": "bytes32",
          "name": "_blockHash",
          "type": "bytes32"
        },
        {
          "indexed": false,
          "internalType": "uint256",
          "name": "_logIndex",
          "type": "uint256"
        }
      ],
      "name": "AcceptedCrossTransfer",
      "type": "event"
    },
    {
      "anonymous": false,
      "inputs": [
        {
          "indexed": false,
          "internalType": "address",
          "name": "_newAllowTokens",
          "type": "address"
        }
      ],
      "name": "AllowTokensChanged",
      "type": "event"
    },
    {
      "anonymous": false,
      "inputs": [
        {
          "indexed": true,
          "internalType": "bytes32",
          "name": "_transactionHash",
          "type": "bytes32"
        },
        {
          "indexed": true,
          "internalType": "address",
          "name": "_originalTokenAddress",
          "type": "address"
        },
        {
          "indexed": true,
          "internalType": "address",
          "name": "_to",
          "type": "address"
        },
        {
          "indexed": false,
          "internalType": "address",
          "name": "_sender",
          "type": "address"
        },
        {
          "indexed": false,
          "internalType": "uint256",
          "name": "_amount",
          "type": "uint256"
        },
        {
          "indexed": false,
          "internalType": "bytes32",
          "name": "_blockHash",
          "type": "bytes32"
        },
        {
          "indexed": false,
          "internalType": "uint256",
          "name": "_logIndex",
          "type": "uint256"
        },
        {
          "indexed": false,
          "internalType": "address",
          "name": "_reciever",
          "type": "address"
        },
        {
          "indexed": false,
          "internalType": "address",
          "name": "_relayer",
          "type": "address"
        },
        {
          "indexed": false,
          "internalType": "uint256",
          "name": "_fee",
          "type": "uint256"
        }
      ],
      "name": "Claimed",
      "type": "event"
    },
    {
      "anonymous": false,
      "inputs": [
        {
          "indexed": true,
          "internalType": "address",
          "name": "_tokenAddress",
          "type": "address"
        },
        {
          "indexed": true,
          "internalType": "address",
          "name": "_from",
          "type": "address"
        },
        {
          "indexed": true,
          "internalType": "address",
          "name": "_to",
          "type": "address"
        },
        {
          "indexed": false,
          "internalType": "uint256",
          "name": "_amount",
          "type": "uint256"
        },
        {
          "indexed": false,
          "internalType": "bytes",
          "name": "_userData",
          "type": "bytes"
        }
      ],
      "name": "Cross",
      "type": "event"
    },
    {
      "anonymous": false,
      "inputs": [
        {
          "indexed": false,
          "internalType": "address",
          "name": "_newFederation",
          "type": "address"
        }
      ],
      "name": "FederationChanged",
      "type": "event"
    },
    {
      "anonymous": false,
      "inputs": [
        {
          "indexed": true,
          "internalType": "address",
          "name": "sender",
          "type": "address"
        },
        {
          "indexed": false,
          "internalType": "address",
          "name": "oldAddress",
          "type": "address"
        },
        {
          "indexed": false,
          "internalType": "address",
          "name": "newAddress",
          "type": "address"
        }
      ],
      "name": "FeeCollectorAddressChanged",
      "type": "event"
    },
    {
      "anonymous": false,
      "inputs": [
        {
          "indexed": false,
          "internalType": "uint256",
          "name": "_amount",
          "type": "uint256"
        }
      ],
      "name": "FeePercentageChanged",
      "type": "event"
    },
    {
      "anonymous": false,
      "inputs": [
        {
          "indexed": true,
          "internalType": "address",
          "name": "_newSideTokenAddress",
          "type": "address"
        },
        {
          "indexed": true,
          "internalType": "address",
          "name": "_originalTokenAddress",
          "type": "address"
        },
        {
          "indexed": false,
          "internalType": "string",
          "name": "_newSymbol",
          "type": "string"
        },
        {
          "indexed": false,
          "internalType": "uint256",
          "name": "_granularity",
          "type": "uint256"
        }
      ],
      "name": "NewSideToken",
      "type": "event"
    },
    {
      "anonymous": false,
      "inputs": [
        {
          "indexed": true,
          "internalType": "address",
          "name": "previousOwner",
          "type": "address"
        },
        {
          "indexed": true,
          "internalType": "address",
          "name": "newOwner",
          "type": "address"
        }
      ],
      "name": "OwnershipTransferred",
      "type": "event"
    },
    {
      "anonymous": false,
      "inputs": [
        {
          "indexed": false,
          "internalType": "address",
          "name": "account",
          "type": "address"
        }
      ],
      "name": "Paused",
      "type": "event"
    },
    {
      "anonymous": false,
      "inputs": [
        {
          "indexed": true,
          "internalType": "address",
          "name": "account",
          "type": "address"
        }
      ],
      "name": "PauserAdded",
      "type": "event"
    },
    {
      "anonymous": false,
      "inputs": [
        {
          "indexed": true,
          "internalType": "address",
          "name": "account",
          "type": "address"
        }
      ],
      "name": "PauserRemoved",
      "type": "event"
    },
    {
      "anonymous": false,
      "inputs": [
        {
          "indexed": false,
          "internalType": "address",
          "name": "_newSideTokenFactory",
          "type": "address"
        }
      ],
      "name": "SideTokenFactoryChanged",
      "type": "event"
    },
    {
      "anonymous": false,
      "inputs": [
        {
          "indexed": false,
          "internalType": "address",
          "name": "account",
          "type": "address"
        }
      ],
      "name": "Unpaused",
      "type": "event"
    },
    {
      "anonymous": false,
      "inputs": [
        {
          "indexed": false,
          "internalType": "bool",
          "name": "_isUpgrading",
          "type": "bool"
        }
      ],
      "name": "Upgrading",
      "type": "event"
    },
    {
      "anonymous": false,
      "inputs": [
        {
          "indexed": false,
          "internalType": "address",
          "name": "_wrappedCurrency",
          "type": "address"
        }
      ],
      "name": "WrappedCurrencyChanged",
      "type": "event"
    },
    {
      "inputs": [],
      "name": "CLAIM_TYPEHASH",
      "outputs": [
        {
          "internalType": "bytes32",
          "name": "",
          "type": "bytes32"
        }
      ],
      "stateMutability": "view",
      "type": "function"
    },
    {
      "inputs": [],
      "name": "DOMAIN_SEPARATOR",
      "outputs": [
        {
          "internalType": "bytes32",
          "name": "",
          "type": "bytes32"
        }
      ],
      "stateMutability": "view",
      "type": "function"
    },
    {
      "inputs": [
        {
          "internalType": "address",
          "name": "sender",
          "type": "address"
        }
      ],
      "name": "__Pausable_init",
      "outputs": [],
      "stateMutability": "nonpayable",
      "type": "function"
    },
    {
      "inputs": [
        {
          "internalType": "address",
          "name": "sender",
          "type": "address"
        }
      ],
      "name": "__PauserRol_init",
      "outputs": [],
      "stateMutability": "nonpayable",
      "type": "function"
    },
    {
      "inputs": [
        {
          "internalType": "address",
          "name": "_originalTokenAddress",
          "type": "address"
        },
        {
          "internalType": "address payable",
          "name": "_from",
          "type": "address"
        },
        {
          "internalType": "address payable",
          "name": "_to",
          "type": "address"
        },
        {
          "internalType": "uint256",
          "name": "_amount",
          "type": "uint256"
        },
        {
          "internalType": "bytes32",
          "name": "_blockHash",
          "type": "bytes32"
        },
        {
          "internalType": "bytes32",
          "name": "_transactionHash",
          "type": "bytes32"
        },
        {
          "internalType": "uint32",
          "name": "_logIndex",
          "type": "uint32"
        }
      ],
      "name": "acceptTransfer",
      "outputs": [],
      "stateMutability": "nonpayable",
      "type": "function"
    },
    {
      "inputs": [
        {
          "internalType": "address",
          "name": "account",
          "type": "address"
        }
      ],
      "name": "addPauser",
      "outputs": [],
      "stateMutability": "nonpayable",
      "type": "function"
    },
    {
      "inputs": [],
      "name": "allowTokens",
      "outputs": [
        {
          "internalType": "contract IAllowTokens",
          "name": "",
          "type": "address"
        }
      ],
      "stateMutability": "view",
      "type": "function"
    },
    {
      "inputs": [
        {
          "internalType": "address",
          "name": "newAllowTokens",
          "type": "address"
        }
      ],
      "name": "changeAllowTokens",
      "outputs": [],
      "stateMutability": "nonpayable",
      "type": "function"
    },
    {
      "inputs": [
        {
          "internalType": "address",
          "name": "newFederation",
          "type": "address"
        }
      ],
      "name": "changeFederation",
      "outputs": [],
      "stateMutability": "nonpayable",
      "type": "function"
    },
    {
      "inputs": [
        {
          "internalType": "address",
          "name": "newSideTokenFactory",
          "type": "address"
        }
      ],
      "name": "changeSideTokenFactory",
      "outputs": [],
      "stateMutability": "nonpayable",
      "type": "function"
    },
    {
      "inputs": [
        {
          "components": [
            {
              "internalType": "address payable",
              "name": "to",
              "type": "address"
            },
            {
              "internalType": "uint256",
              "name": "amount",
              "type": "uint256"
            },
            {
              "internalType": "bytes32",
              "name": "blockHash",
              "type": "bytes32"
            },
            {
              "internalType": "bytes32",
              "name": "transactionHash",
              "type": "bytes32"
            },
            {
              "internalType": "uint32",
              "name": "logIndex",
              "type": "uint32"
            }
          ],
          "internalType": "struct IBridgeV4.ClaimData",
          "name": "_claimData",
          "type": "tuple"
        }
      ],
      "name": "claim",
      "outputs": [
        {
          "internalType": "uint256",
          "name": "receivedAmount",
          "type": "uint256"
        }
      ],
      "stateMutability": "nonpayable",
      "type": "function"
    },
    {
      "inputs": [
        {
          "components": [
            {
              "internalType": "address payable",
              "name": "to",
              "type": "address"
            },
            {
              "internalType": "uint256",
              "name": "amount",
              "type": "uint256"
            },
            {
              "internalType": "bytes32",
              "name": "blockHash",
              "type": "bytes32"
            },
            {
              "internalType": "bytes32",
              "name": "transactionHash",
              "type": "bytes32"
            },
            {
              "internalType": "uint32",
              "name": "logIndex",
              "type": "uint32"
            }
          ],
          "internalType": "struct IBridgeV4.ClaimData",
          "name": "_claimData",
          "type": "tuple"
        }
      ],
      "name": "claimFallback",
      "outputs": [
        {
          "internalType": "uint256",
          "name": "receivedAmount",
          "type": "uint256"
        }
      ],
      "stateMutability": "nonpayable",
      "type": "function"
    },
    {
      "inputs": [
        {
          "components": [
            {
              "internalType": "address payable",
              "name": "to",
              "type": "address"
            },
            {
              "internalType": "uint256",
              "name": "amount",
              "type": "uint256"
            },
            {
              "internalType": "bytes32",
              "name": "blockHash",
              "type": "bytes32"
            },
            {
              "internalType": "bytes32",
              "name": "transactionHash",
              "type": "bytes32"
            },
            {
              "internalType": "uint32",
              "name": "logIndex",
              "type": "uint32"
            }
          ],
          "internalType": "struct IBridgeV4.ClaimData",
          "name": "_claimData",
          "type": "tuple"
        },
        {
          "internalType": "address payable",
          "name": "_relayer",
          "type": "address"
        },
        {
          "internalType": "uint256",
          "name": "_fee",
          "type": "uint256"
        },
        {
          "internalType": "uint256",
          "name": "_deadline",
          "type": "uint256"
        },
        {
          "internalType": "uint8",
          "name": "_v",
          "type": "uint8"
        },
        {
          "internalType": "bytes32",
          "name": "_r",
          "type": "bytes32"
        },
        {
          "internalType": "bytes32",
          "name": "_s",
          "type": "bytes32"
        }
      ],
      "name": "claimGasless",
      "outputs": [
        {
          "internalType": "uint256",
          "name": "receivedAmount",
          "type": "uint256"
        }
      ],
      "stateMutability": "nonpayable",
      "type": "function"
    },
    {
      "inputs": [
        {
          "internalType": "bytes32",
          "name": "",
          "type": "bytes32"
        }
      ],
      "name": "claimed",
      "outputs": [
        {
          "internalType": "bool",
          "name": "",
          "type": "bool"
        }
      ],
      "stateMutability": "view",
      "type": "function"
    },
    {
      "inputs": [
        {
          "internalType": "uint256",
          "name": "_typeId",
          "type": "uint256"
        },
        {
          "internalType": "address",
          "name": "_originalTokenAddress",
          "type": "address"
        },
        {
          "internalType": "uint8",
          "name": "_originalTokenDecimals",
          "type": "uint8"
        },
        {
          "internalType": "string",
          "name": "_originalTokenSymbol",
          "type": "string"
        },
        {
          "internalType": "string",
          "name": "_originalTokenName",
          "type": "string"
        }
      ],
      "name": "createSideToken",
      "outputs": [],
      "stateMutability": "nonpayable",
      "type": "function"
    },
    {
      "inputs": [
        {
          "internalType": "address",
          "name": "to",
          "type": "address"
        }
      ],
      "name": "depositTo",
      "outputs": [],
      "stateMutability": "payable",
      "type": "function"
    },
    {
      "inputs": [],
      "name": "feePercentageDivider",
      "outputs": [
        {
          "internalType": "uint256",
          "name": "",
          "type": "uint256"
        }
      ],
      "stateMutability": "view",
      "type": "function"
    },
    {
      "inputs": [],
      "name": "getFederation",
      "outputs": [
        {
          "internalType": "address",
          "name": "",
          "type": "address"
        }
      ],
      "stateMutability": "view",
      "type": "function"
    },
    {
      "inputs": [],
      "name": "getFeeCollectorAddress",
      "outputs": [
        {
          "internalType": "address",
          "name": "",
          "type": "address"
        }
      ],
      "stateMutability": "view",
      "type": "function"
    },
    {
      "inputs": [],
      "name": "getFeePercentage",
      "outputs": [
        {
          "internalType": "uint256",
          "name": "",
          "type": "uint256"
        }
      ],
      "stateMutability": "view",
      "type": "function"
    },
    {
      "inputs": [
        {
          "internalType": "address",
          "name": "_to",
          "type": "address"
        },
        {
          "internalType": "uint256",
          "name": "_amount",
          "type": "uint256"
        },
        {
          "internalType": "bytes32",
          "name": "_blockHash",
          "type": "bytes32"
        },
        {
          "internalType": "bytes32",
          "name": "_transactionHash",
          "type": "bytes32"
        },
        {
          "internalType": "uint32",
          "name": "_logIndex",
          "type": "uint32"
        }
      ],
      "name": "getTransactionDataHash",
      "outputs": [
        {
          "internalType": "bytes32",
          "name": "",
          "type": "bytes32"
        }
      ],
      "stateMutability": "pure",
      "type": "function"
    },
    {
      "inputs": [
        {
          "internalType": "bytes32",
          "name": "transactionHash",
          "type": "bytes32"
        }
      ],
      "name": "hasBeenClaimed",
      "outputs": [
        {
          "internalType": "bool",
          "name": "",
          "type": "bool"
        }
      ],
      "stateMutability": "view",
      "type": "function"
    },
    {
      "inputs": [
        {
          "internalType": "bytes32",
          "name": "transactionHash",
          "type": "bytes32"
        }
      ],
      "name": "hasCrossed",
      "outputs": [
        {
          "internalType": "bool",
          "name": "",
          "type": "bool"
        }
      ],
      "stateMutability": "view",
      "type": "function"
    },
    {
      "inputs": [],
      "name": "initDomainSeparator",
      "outputs": [],
      "stateMutability": "nonpayable",
      "type": "function"
    },
    {
      "inputs": [
        {
          "internalType": "address",
          "name": "_manager",
          "type": "address"
        },
        {
          "internalType": "address",
          "name": "_federation",
          "type": "address"
        },
        {
          "internalType": "address",
          "name": "_allowTokens",
          "type": "address"
        },
        {
          "internalType": "address",
          "name": "_sideTokenFactory",
          "type": "address"
        },
        {
          "internalType": "string",
          "name": "_symbolPrefix",
          "type": "string"
        }
      ],
      "name": "initialize",
      "outputs": [],
      "stateMutability": "nonpayable",
      "type": "function"
    },
    {
      "inputs": [],
      "name": "initialize",
      "outputs": [],
      "stateMutability": "nonpayable",
      "type": "function"
    },
    {
      "inputs": [
        {
          "internalType": "address",
          "name": "sender",
          "type": "address"
        }
      ],
      "name": "initialize",
      "outputs": [],
      "stateMutability": "nonpayable",
      "type": "function"
    },
    {
      "inputs": [],
      "name": "isOwner",
      "outputs": [
        {
          "internalType": "bool",
          "name": "",
          "type": "bool"
        }
      ],
      "stateMutability": "view",
      "type": "function"
    },
    {
      "inputs": [
        {
          "internalType": "address",
          "name": "account",
          "type": "address"
        }
      ],
      "name": "isPauser",
      "outputs": [
        {
          "internalType": "bool",
          "name": "",
          "type": "bool"
        }
      ],
      "stateMutability": "view",
      "type": "function"
    },
    {
      "inputs": [],
      "name": "isUpgrading",
      "outputs": [
        {
          "internalType": "bool",
          "name": "",
          "type": "bool"
        }
      ],
      "stateMutability": "view",
      "type": "function"
    },
    {
      "inputs": [
        {
          "internalType": "address",
          "name": "",
          "type": "address"
        }
      ],
      "name": "knownTokens",
      "outputs": [
        {
          "internalType": "bool",
          "name": "",
          "type": "bool"
        }
      ],
      "stateMutability": "view",
      "type": "function"
    },
    {
      "inputs": [
        {
          "internalType": "address",
          "name": "",
          "type": "address"
        }
      ],
      "name": "mappedTokens",
      "outputs": [
        {
          "internalType": "address",
          "name": "",
          "type": "address"
        }
      ],
      "stateMutability": "view",
      "type": "function"
    },
    {
      "inputs": [
        {
          "internalType": "address",
          "name": "",
          "type": "address"
        }
      ],
      "name": "nonces",
      "outputs": [
        {
          "internalType": "uint256",
          "name": "",
          "type": "uint256"
        }
      ],
      "stateMutability": "view",
      "type": "function"
    },
    {
      "inputs": [
        {
          "internalType": "bytes32",
          "name": "",
          "type": "bytes32"
        }
      ],
      "name": "originalTokenAddresses",
      "outputs": [
        {
          "internalType": "address",
          "name": "",
          "type": "address"
        }
      ],
      "stateMutability": "view",
      "type": "function"
    },
    {
      "inputs": [
        {
          "internalType": "address",
          "name": "",
          "type": "address"
        }
      ],
      "name": "originalTokens",
      "outputs": [
        {
          "internalType": "address",
          "name": "",
          "type": "address"
        }
      ],
      "stateMutability": "view",
      "type": "function"
    },
    {
      "inputs": [],
      "name": "owner",
      "outputs": [
        {
          "internalType": "address",
          "name": "",
          "type": "address"
        }
      ],
      "stateMutability": "view",
      "type": "function"
    },
    {
      "inputs": [],
      "name": "pause",
      "outputs": [],
      "stateMutability": "nonpayable",
      "type": "function"
    },
    {
      "inputs": [],
      "name": "paused",
      "outputs": [
        {
          "internalType": "bool",
          "name": "",
          "type": "bool"
        }
      ],
      "stateMutability": "view",
      "type": "function"
    },
    {
      "inputs": [
        {
          "internalType": "address",
          "name": "tokenToUse",
          "type": "address"
        },
        {
          "internalType": "address",
          "name": "to",
          "type": "address"
        },
        {
          "internalType": "uint256",
          "name": "amount",
          "type": "uint256"
        }
      ],
      "name": "receiveTokensTo",
      "outputs": [],
      "stateMutability": "nonpayable",
      "type": "function"
    },
    {
      "inputs": [],
      "name": "renounceOwnership",
      "outputs": [],
      "stateMutability": "nonpayable",
      "type": "function"
    },
    {
      "inputs": [],
      "name": "renouncePauser",
      "outputs": [],
      "stateMutability": "nonpayable",
      "type": "function"
    },
    {
      "inputs": [
        {
          "internalType": "bytes32",
          "name": "",
          "type": "bytes32"
        }
      ],
      "name": "senderAddresses",
      "outputs": [
        {
          "internalType": "address",
          "name": "",
          "type": "address"
        }
      ],
      "stateMutability": "view",
      "type": "function"
    },
    {
      "inputs": [
        {
          "internalType": "address",
          "name": "_newAddress",
          "type": "address"
        }
      ],
      "name": "setFeeCollectorAddress",
      "outputs": [],
      "stateMutability": "nonpayable",
      "type": "function"
    },
    {
      "inputs": [
        {
          "internalType": "uint256",
          "name": "amount",
          "type": "uint256"
        }
      ],
      "name": "setFeePercentage",
      "outputs": [],
      "stateMutability": "nonpayable",
      "type": "function"
    },
    {
      "inputs": [
        {
          "internalType": "bool",
          "name": "_isUpgrading",
          "type": "bool"
        }
      ],
      "name": "setUpgrading",
      "outputs": [],
      "stateMutability": "nonpayable",
      "type": "function"
    },
    {
      "inputs": [
        {
          "internalType": "address",
          "name": "_wrappedCurrency",
          "type": "address"
        }
      ],
      "name": "setWrappedCurrency",
      "outputs": [],
      "stateMutability": "nonpayable",
      "type": "function"
    },
    {
      "inputs": [],
      "name": "sideTokenFactory",
      "outputs": [
        {
          "internalType": "contract ISideTokenFactory",
          "name": "",
          "type": "address"
        }
      ],
      "stateMutability": "view",
      "type": "function"
    },
    {
      "inputs": [],
      "name": "symbolPrefix",
      "outputs": [
        {
          "internalType": "string",
          "name": "",
          "type": "string"
        }
      ],
      "stateMutability": "view",
      "type": "function"
    },
    {
      "inputs": [
        {
          "internalType": "address",
          "name": "operator",
          "type": "address"
        },
        {
          "internalType": "address",
          "name": "from",
          "type": "address"
        },
        {
          "internalType": "address",
          "name": "to",
          "type": "address"
        },
        {
          "internalType": "uint256",
          "name": "amount",
          "type": "uint256"
        },
        {
          "internalType": "bytes",
          "name": "userData",
          "type": "bytes"
        },
        {
          "internalType": "bytes",
          "name": "",
          "type": "bytes"
        }
      ],
      "name": "tokensReceived",
      "outputs": [],
      "stateMutability": "nonpayable",
      "type": "function"
    },
    {
      "inputs": [
        {
          "internalType": "bytes32",
          "name": "",
          "type": "bytes32"
        }
      ],
      "name": "transactionsDataHashes",
      "outputs": [
        {
          "internalType": "bytes32",
          "name": "",
          "type": "bytes32"
        }
      ],
      "stateMutability": "view",
      "type": "function"
    },
    {
      "inputs": [
        {
          "internalType": "address",
          "name": "newOwner",
          "type": "address"
        }
      ],
      "name": "transferOwnership",
      "outputs": [],
      "stateMutability": "nonpayable",
      "type": "function"
    },
    {
      "inputs": [],
      "name": "unpause",
      "outputs": [],
      "stateMutability": "nonpayable",
      "type": "function"
    },
    {
      "inputs": [],
      "name": "version",
      "outputs": [
        {
          "internalType": "string",
          "name": "",
          "type": "string"
        }
      ],
      "stateMutability": "pure",
      "type": "function"
    },
    {
      "inputs": [],
      "name": "wrappedCurrency",
      "outputs": [
        {
          "internalType": "contract IWrapped",
          "name": "",
          "type": "address"
        }
      ],
      "stateMutability": "view",
      "type": "function"
    },
    {
      "stateMutability": "payable",
      "type": "receive"
    }
  ],
  "transactionHash": "0x4bfe6d6ba308bd943d2a4efdc4553d4ecc8963545ce97ec1a281f908d19fe93f",
  "args": [],
  "numDeployments": 1,
  "solcInputHash": "710a63f3b7163326f2263e80f2d9698b",
  "bytecode": "0x6080604052603b80546001600160a01b03191673803c3910f339ee570a3fb9db8a5a8143d284c5c517905534801561003657600080fd5b506143c7806100466000396000f3fe6080604052600436106103385760003560e01c806382dc1ec4116101ab578063b86f60d2116100f7578063e6ede14d11610095578063eb16136f1161006f578063eb16136f14610a7c578063f2fde38b14610a9c578063f74032f014610abc578063fa0caa1614610af257600080fd5b8063e6ede14d14610a12578063e6fc774414610a48578063ea21709114610a5e57600080fd5b8063ca07140c116100d1578063ca07140c14610968578063cc3c0f061461099e578063d12e825d146109ce578063da677037146109e357600080fd5b8063b86f60d21461090a578063bf2d75fb1461092a578063c4d66de81461094857600080fd5b8063adc5fb6411610164578063b0e1268e1161013e578063b0e1268e14610896578063b50277bb146108b6578063b760faf9146108d6578063b7947262146108e957600080fd5b8063adc5fb6414610836578063ae06c1b714610856578063afad80ac1461087657600080fd5b806382dc1ec4146107785780638456cb59146107985780638da5cb5b146107ad5780638f32d59b146107d0578063916dc59d146107f6578063a53d6e6e1461081657600080fd5b806346fbf68e116102855780636b0509b1116102235780637813bea2116101fd5780637813bea2146106f65780637d6ba5b3146107165780637ecebe00146107365780638129fc1c1461076357600080fd5b80636b0509b1146106985780636ef8d66d146106cc578063715018a6146106e157600080fd5b806359a8a8671161025f57806359a8a8671461061b5780635c975abb146106305780635d447129146106485780636a8631911461067857600080fd5b806346fbf68e146105a75780634beea506146105c757806354fd4d50146105e757600080fd5b80632fb3b361116102f257806337e76109116102cc57806337e76109146104d75780633cf3058b146105245780633f4ba83a1461057257806342cdb2c61461058757600080fd5b80632fb3b361146104815780633500c1dc146104a15780633644e515146104c157600080fd5b806223de29146103ac57806302697619146103cc57806307c8f7b01461040c57806311efbf611461042c57806320e3bb00146104415780632f3cca4e1461046157600080fd5b366103a7576042546001600160a01b0316336001600160a01b0316146103a55760405162461bcd60e51b815260206004820152601b60248201527f4272696467653a206e6f74207772617070656443757272656e6379000000000060448201526064015b60405180910390fd5b005b600080fd5b3480156103b857600080fd5b506103a56103c73660046138e5565b610b12565b3480156103d857600080fd5b506103f96103e7366004613996565b60436020526000908152604090205481565b6040519081526020015b60405180910390f35b34801561041857600080fd5b506103a56104273660046139bd565b610da4565b34801561043857600080fd5b506037546103f9565b34801561044d57600080fd5b506103a561045c3660046139f0565b610e35565b34801561046d57600080fd5b506103a561047c366004613a8d565b6110d1565b34801561048d57600080fd5b506103a561049c366004613af1565b611151565b3480156104ad57600080fd5b506103a56104bc366004613a8d565b6112b8565b3480156104cd57600080fd5b506103f960395481565b3480156104e357600080fd5b506105146104f2366004613996565b6000908152604360209081526040808320548352603f90915290205460ff1690565b6040519015158152602001610403565b34801561053057600080fd5b5061055a61053f366004613996565b6045602052600090815260409020546001600160a01b031681565b6040516001600160a01b039091168152602001610403565b34801561057e57600080fd5b506103a561138a565b34801561059357600080fd5b506103a56105a2366004613a8d565b611442565b3480156105b357600080fd5b506105146105c2366004613a8d565b611525565b3480156105d357600080fd5b506103f96105e2366004613be9565b611538565b3480156105f357600080fd5b506040805180820190915260028152611d8d60f21b60208201525b6040516104039190613cb2565b34801561062757600080fd5b5061060e6116b3565b34801561063c57600080fd5b5060345460ff16610514565b34801561065457600080fd5b50610514610663366004613a8d565b603e6020526000908152604090205460ff1681565b34801561068457600080fd5b506103a5610693366004613cd9565b611741565b3480156106a457600080fd5b506103f97ff18ceda3f6355f78c234feba066041a50f6557bfb600201e2a71a89e2dd8043381565b3480156106d857600080fd5b506103a5611af9565b3480156106ed57600080fd5b506103a5611b04565b34801561070257600080fd5b506103a5610711366004613d50565b611b89565b34801561072257600080fd5b506103a5610731366004613a8d565b611bc1565b34801561074257600080fd5b506103f9610751366004613a8d565b60466020526000908152604090205481565b34801561076f57600080fd5b506103a5611c69565b34801561078457600080fd5b506103a5610793366004613a8d565b611cda565b3480156107a457600080fd5b506103a5611d08565b3480156107b957600080fd5b5060345461010090046001600160a01b031661055a565b3480156107dc57600080fd5b5061051460345461010090046001600160a01b0316331490565b34801561080257600080fd5b506103a5610811366004613a8d565b611d85565b34801561082257600080fd5b5060405461055a906001600160a01b031681565b34801561084257600080fd5b506103f9610851366004613d91565b611e5c565b34801561086257600080fd5b506103a5610871366004613996565b611ed7565b34801561088257600080fd5b506103f9610891366004613dad565b611f9c565b3480156108a257600080fd5b5060425461055a906001600160a01b031681565b3480156108c257600080fd5b506103f96108d1366004613d91565b612007565b6103a56108e4366004613a8d565b61201a565b3480156108f557600080fd5b5060415461051490600160a01b900460ff1681565b34801561091657600080fd5b5060415461055a906001600160a01b031681565b34801561093657600080fd5b50603b546001600160a01b031661055a565b34801561095457600080fd5b506103a5610963366004613a8d565b61210e565b34801561097457600080fd5b5061055a610983366004613996565b6044602052600090815260409020546001600160a01b031681565b3480156109aa57600080fd5b506105146109b9366004613996565b603f6020526000908152604090205460ff1681565b3480156109da57600080fd5b506103a56121d0565b3480156109ef57600080fd5b506105146109fe366004613996565b600090815260436020526040902054151590565b348015610a1e57600080fd5b5061055a610a2d366004613a8d565b603c602052600090815260409020546001600160a01b031681565b348015610a5457600080fd5b506103f961271081565b348015610a6a57600080fd5b506036546001600160a01b031661055a565b348015610a8857600080fd5b506103a5610a97366004613a8d565b612277565b348015610aa857600080fd5b506103a5610ab7366004613a8d565b6122f9565b348015610ac857600080fd5b5061055a610ad7366004613a8d565b603d602052600090815260409020546001600160a01b031681565b348015610afe57600080fd5b506103a5610b0d366004613a8d565b612337565b6001600160a01b038816301415610b2857610d9a565b6001600160a01b0386163014610b805760405162461bcd60e51b815260206004820152601b60248201527f4272696467653a204e6f7420746f207468697320616464726573730000000000604482015260640161039c565b60003360405163555ddc6560e11b81526001600160a01b03821660048201527fac7fbab5f54a3ca8194167523c6753bfeb96a445279294b6125b68cce2177054602482015290915060009073dd343ef491b9520bb5effc2a7154b133893840ea9063aabbb8ca9060440160206040518083038186803b158015610c0257600080fd5b505afa158015610c16573d6000803e3d6000fd5b505050506040513d601f19601f82011682018060405250810190610c3a9190613dff565b6001600160a01b03161415610c915760405162461bcd60e51b815260206004820152601860248201527f4272696467653a204e6f742045524337373720746f6b656e0000000000000000604482015260640161039c565b83151580610ca757506001600160a01b0388163b155b610d045760405162461bcd60e51b815260206004820152602860248201527f4272696467653a2053706563696679207265636569766572206164647265737360448201526720696e206461746160c01b606482015260840161039c565b60008415610d5057610d4b86868080601f01602080910402602001604051908101604052809392919081815260200183838082843760009201919091525061241092505050565b610d52565b885b9050610d97828a838a8a8a8080601f01602080910402602001604051908101604052809392919081815260200183838082843760009201919091525061241792505050565b50505b5050505050505050565b610dbd60345461010090046001600160a01b0316331490565b610dd95760405162461bcd60e51b815260040161039c90613e1c565b6041805460ff60a01b1916600160a01b8315158102919091179182905560405160ff9190920416151581527f983e436223c000a441c2443b394ca5fb4669a513fe86dc1dd44494047b514ad9906020015b60405180910390a150565b610e4e60345461010090046001600160a01b0316331490565b610e6a5760405162461bcd60e51b815260040161039c90613e1c565b6001600160a01b038616610eb55760405162461bcd60e51b8152602060048201526012602482015271213934b233b29d10273ab636103a37b5b2b760711b604482015260640161039c565b6001600160a01b038087166000908152603c6020526040902054168015610f175760405162461bcd60e51b81526020600482015260166024820152754272696467653a20416c72656164792065786973747360501b604482015260640161039c565b6000610f2287612707565b9050600060388787604051602001610f3c93929190613e95565b60408051601f19818403018152908290526041546326d9e96360e01b83529092506001600160a01b0316906326d9e96390610f81908890889086908890600401613f3e565b602060405180830381600087803b158015610f9b57600080fd5b505af1158015610faf573d6000803e3d6000fd5b505050506040513d601f19601f82011682018060405250810190610fd39190613dff565b6001600160a01b038a81166000818152603c6020908152604080832080548787166001600160a01b03199182168117909255818552603d9093529281902080549092169093179055815491516378bf2b5360e01b81526004810191909152602481018e905292955016906378bf2b5390604401600060405180830381600087803b15801561106057600080fd5b505af1158015611074573d6000803e3d6000fd5b50505050886001600160a01b0316836001600160a01b03167f2ef93c4e96a4ef0b19497ff60c9e7360a8734f3d2cd27ae5318e43851734d17f83856040516110bd929190613f8e565b60405180910390a350505050505050505050565b600054610100900460ff16806110ea575060005460ff16155b6111065760405162461bcd60e51b815260040161039c90613fb0565b600054610100900460ff16158015611128576000805461ffff19166101011790555b61113182612277565b6034805460ff19169055801561114d576000805461ff00191690555b5050565b600054610100900460ff168061116a575060005460ff16155b6111865760405162461bcd60e51b815260040161039c90613fb0565b600054610100900460ff161580156111a8576000805461ffff19166101011790555b6111b18661210e565b6111ba866110d1565b81516111cd9060389060208501906137ee565b50604080546001600160a01b038681166001600160a01b0319928316178355604180548783169084161790556036805491891691909216179055516329965a1d60e01b815230600482018190527fb281fc8c12954d22544db45de3159a39272895b169a852b314f9cc762e44c53b6024830152604482015273dd343ef491b9520bb5effc2a7154b133893840ea906329965a1d90606401600060405180830381600087803b15801561127e57600080fd5b505af1158015611292573d6000803e3d6000fd5b5050505061129e6121d0565b80156112b0576000805461ff00191690555b505050505050565b6112d160345461010090046001600160a01b0316331490565b6112ed5760405162461bcd60e51b815260040161039c90613e1c565b6001600160a01b03811661133c5760405162461bcd60e51b81526020600482015260166024820152754272696467653a20777261707020697320656d70747960501b604482015260640161039c565b604280546001600160a01b0319166001600160a01b0383169081179091556040519081527f0966c958966f6fac9ff807af074f8117eb2e9ce2b76390db7a158e9bdeb2485c90602001610e2a565b61139333611525565b6113af5760405162461bcd60e51b815260040161039c90613ff8565b60345460ff166113f85760405162461bcd60e51b815260206004820152601460248201527314185d5cd8589b194e881b9bdd081c185d5cd95960621b604482015260640161039c565b6034805460ff191690557f5db9ee0a495bf2e6ff9c91a7834c1ba4fdd244a5e8aa4e537bd38aeae4b073aa335b6040516001600160a01b03909116815260200160405180910390a1565b61145b60345461010090046001600160a01b0316331490565b6114775760405162461bcd60e51b815260040161039c90613e1c565b6001600160a01b0381166114d75760405162461bcd60e51b815260206004820152602160248201527f4272696467653a2053696465546f6b656e466163746f727920697320656d70746044820152607960f81b606482015260840161039c565b604180546001600160a01b0319166001600160a01b0383169081179091556040519081527f619936bc6e3618d0b8dc69bcc70134fe9d88f9967f3a8b8304e318369252162590602001610e2a565b6000611532603383612773565b92915050565b60004285101561157c5760405162461bcd60e51b815260206004820152600f60248201526e109c9a5919d94e8811561412549151608a1b604482015260640161039c565b6000611598611590368b90038b018b614040565b8989896127f6565b6040805160008082526020820180845284905260ff89169282019290925260608101879052608081018690529192509060019060a0016020604051602081039080840390855afa1580156115f0573d6000803e3d6000fd5b5050604051601f19015191506000905061160d60208c018c613a8d565b6001600160a01b031614158015611641575061162c60208b018b613a8d565b6001600160a01b0316816001600160a01b0316145b61168d5760405162461bcd60e51b815260206004820152601960248201527f4272696467653a20494e56414c49445f5349474e415455524500000000000000604482015260640161039c565b6116a58a61169e6020820182613a8d565b8b8b6128ea565b9a9950505050505050505050565b603880546116c090613e51565b80601f01602080910402602001604051908101604052809291908181526020018280546116ec90613e51565b80156117395780601f1061170e57610100808354040283529160200191611739565b820191906000526020600020905b81548152906001019060200180831161171c57829003601f168201915b505050505081565b60345460ff16156117645760405162461bcd60e51b815260040161039c906140bd565b60016035600082825461177791906140fd565b90915550506035546036546001600160a01b0316336001600160a01b0316146117db5760405162461bcd60e51b8152602060048201526016602482015275213934b233b29d102737ba102332b232b930ba34b7b760511b604482015260640161039c565b6001600160a01b0388166000908152603e602052604090205460ff168061181b57506001600160a01b038881166000908152603c60205260409020541615155b61185f5760405162461bcd60e51b8152602060048201526015602482015274213934b233b29d102ab735b737bbb7103a37b5b2b760591b604482015260640161039c565b6001600160a01b0386166118a75760405162461bcd60e51b815260206004820152600f60248201526e4272696467653a204e756c6c20546f60881b604482015260640161039c565b600085116118ea5760405162461bcd60e51b815260206004820152601060248201526f04272696467653a20416d6f756e7420360841b604482015260640161039c565b836119305760405162461bcd60e51b8152602060048201526016602482015275084e4d2c8ceca74409cead8d84084d8dec6d690c2e6d60531b604482015260640161039c565b826119735760405162461bcd60e51b8152602060048201526013602482015272084e4d2c8ceca74409cead8d840a8f090c2e6d606b1b604482015260640161039c565b600083815260436020526040902054156119cf5760405162461bcd60e51b815260206004820152601860248201527f4272696467653a20416c72656164792061636365707465640000000000000000604482015260640161039c565b60006119de8787878787611f9c565b6000818152603f602052604090205490915060ff1615611a3a5760405162461bcd60e51b8152602060048201526017602482015276109c9a5919d94e88105b1c9958591e4818db185a5b5959604a1b604482015260640161039c565b60008481526043602090815260408083208490556044825280832080546001600160a01b038e81166001600160a01b03199283168117909355604585529483902080548e871692168217905582519081529283018a905290820188905263ffffffff86166060830152918916919086907f2858b8803acb87882fd2de49ce7572ae3e741fb8073cbe772fa50ce00bdfba229060800160405180910390a4506035548114610d9a5760405162461bcd60e51b815260040161039c90614115565b611b0233612bcd565b565b611b1d60345461010090046001600160a01b0316331490565b611b395760405162461bcd60e51b815260040161039c90613e1c565b60345460405160009161010090046001600160a01b0316907f8be0079c531659141344cd1fd0a4f28419497f9722a3daafe3b4186f6b6457e0908390a360348054610100600160a81b0319169055565b33611b9f6001600160a01b038516823085612c0f565b611bbb8482858560405180602001604052806000815250612417565b50505050565b611bda60345461010090046001600160a01b0316331490565b611bf65760405162461bcd60e51b815260040161039c90613e1c565b603b80546001600160a01b038381166001600160a01b031983161790925516611c1c3390565b604080516001600160a01b038481168252858116602083015292909216917fac04bdb273a7954b7742ad0ab311fdd70a13eec4b7e625f7119fd21c21c430a4910160405180910390a25050565b600054610100900460ff1680611c82575060005460ff16155b611c9e5760405162461bcd60e51b815260040161039c90613fb0565b600054610100900460ff16158015611cc0576000805461ffff19166101011790555b60016035558015611cd7576000805461ff00191690555b50565b611ce333611525565b611cff5760405162461bcd60e51b815260040161039c90613ff8565b611cd781612c7a565b611d1133611525565b611d2d5760405162461bcd60e51b815260040161039c90613ff8565b60345460ff1615611d505760405162461bcd60e51b815260040161039c906140bd565b6034805460ff191660011790557f62e78cea01bee320cd4e420270b5ea74000d11b0c9f74754ebdbfc544b05a2586114253390565b611d9e60345461010090046001600160a01b0316331490565b611dba5760405162461bcd60e51b815260040161039c90613e1c565b6001600160a01b038116611e105760405162461bcd60e51b815260206004820152601c60248201527f4272696467653a20416c6c6f77546f6b656e7320697320656d70747900000000604482015260640161039c565b604080546001600160a01b0319166001600160a01b038316908117825590519081527f5f2c1fe803fd576d8af05ea156011cc9cc8c025bda24c1e85772fc05a0b3f1e390602001610e2a565b60608101356000908152604560205260408120546001600160a01b0316336001600160a01b031614611ec95760405162461bcd60e51b8152602060048201526016602482015275213934b233b29d1034b73b30b634b21039b2b73232b960511b604482015260640161039c565b61153282335b6000806128ea565b611ef060345461010090046001600160a01b0316331490565b611f0c5760405162461bcd60e51b815260040161039c90613e1c565b611f19600a612710614170565b8110611f675760405162461bcd60e51b815260206004820152601760248201527f4272696467653a20626967676572207468616e20313025000000000000000000604482015260640161039c565b60378190556040518181527f97e97c577f03bda90e2c9739011ec065ed5fbfb36ae217d20bb0d9be95e160cd90602001610e2a565b6040805160208101859052908101839052606086811b6bffffffffffffffffffffffff1916908201526074810185905260e082901b6001600160e01b031916609482015260009060980160405160208183030381529060405280519060200120905095945050505050565b600061153282611ecf6020820182613a8d565b60425433906001600160a01b03166120745760405162461bcd60e51b815260206004820152601d60248201527f4272696467653a207772617070656443757272656e637920656d707479000000604482015260640161039c565b604260009054906101000a90046001600160a01b03166001600160a01b031663d0e30db0346040518263ffffffff1660e01b81526004016000604051808303818588803b1580156120c457600080fd5b505af11580156120d8573d6000803e3d6000fd5b505050505061114d604260009054906101000a90046001600160a01b031682843460405180602001604052806000815250612417565b600054610100900460ff1680612127575060005460ff16155b6121435760405162461bcd60e51b815260040161039c90613fb0565b600054610100900460ff16158015612165576000805461ffff19166101011790555b60348054610100600160a81b0319166101006001600160a01b0385811682029290921792839055604051920416906000907f8be0079c531659141344cd1fd0a4f28419497f9722a3daafe3b4186f6b6457e0908290a3801561114d576000805461ff00191690555050565b604080518082018252601081526f52534b20546f6b656e2042726964676560801b60208083019182528351808501855260018152603160f81b908201529151902082517f8b73c3c69bb8fe3d512ecc4cf759cc79239f7b179b0ffacaa9a75d522b39400f8152918201527fc89efdaa54c0f20c7adf612882df0950f5a951637e0307cdcb4c672f298b8bc69181019190915246606082015230608082015260a09020603955565b600054610100900460ff1680612290575060005460ff16155b6122ac5760405162461bcd60e51b815260040161039c90613fb0565b600054610100900460ff161580156122ce576000805461ffff19166101011790555b6122d782611525565b6122e4576122e482612c7a565b801561114d576000805461ff00191690555050565b61231260345461010090046001600160a01b0316331490565b61232e5760405162461bcd60e51b815260040161039c90613e1c565b611cd781612cbc565b61235060345461010090046001600160a01b0316331490565b61236c5760405162461bcd60e51b815260040161039c90613e1c565b6001600160a01b0381166123c25760405162461bcd60e51b815260206004820152601b60248201527f4272696467653a2046656465726174696f6e20697320656d7074790000000000604482015260640161039c565b603680546001600160a01b0319166001600160a01b0383169081179091556040519081527f4a41a4d11aaf0c0c9e4311ac1d68b2b0134556da594779a2a35b0ddf7cd1eafb90602001610e2a565b6014015190565b604154600160a01b900460ff16156124655760405162461bcd60e51b81526020600482015260116024820152704272696467653a20557067726164696e6760781b604482015260640161039c565b60345460ff16156124885760405162461bcd60e51b815260040161039c906140bd565b60016035600082825461249b91906140fd565b90915550506035546001600160a01b0386166000908152603e60205260408120805460ff191660011790556037546124e290612710906124dc908790612d84565b90612e0a565b905060006124f08583612e4c565b905060006124fd89612e8e565b905085601260ff83161461252e5761252b612519836012614184565b61252490600a61428b565b8890612d84565b90505b604080549051638c34bc5560e01b81526001600160a01b038c811660048301526024820184905290911690638c34bc5590604401600060405180830381600087803b15801561257c57600080fd5b505af1158015612590573d6000803e3d6000fd5b5050506001600160a01b03808c166000908152603d60205260409020548c9250161561266a57506001600160a01b03808b166000908152603d6020526040812054909116906125de8c612f7a565b905060006125ec8683613052565b90506125f88782613094565b96506126048682612e4c565b60405163fe9d930360e01b81529096506001600160a01b038e169063fe9d9303906126359089908d9060040161429a565b600060405180830381600087803b15801561264f57600080fd5b505af1158015612663573d6000803e3d6000fd5b5050505050505b886001600160a01b03168a6001600160a01b0316826001600160a01b03167f1e90de9ae4d02420648a650f45f089a1be18fbca324092544ea626f9833212b0878b6040516126b992919061429a565b60405180910390a484156126e157603b546126e1906001600160a01b038d81169116876130f3565b505050505060355481146112b05760405162461bcd60e51b815260040161039c90614115565b600060128260ff16111561275d5760405162461bcd60e51b815260206004820152601c60248201527f4c69625574696c733a20446563696d616c73206e6f74203c3d20313800000000604482015260640161039c565b612768826012614184565b61153290600a61428b565b60006001600160a01b0382166127d65760405162461bcd60e51b815260206004820152602260248201527f526f6c65733a206163636f756e7420697320746865207a65726f206164647265604482015261737360f01b606482015260840161039c565b506001600160a01b03166000908152602091909152604090205460ff1690565b603954845160208087015160608801516001600160a01b0384166000908152604690935260408320805493956128e19590947ff18ceda3f6355f78c234feba066041a50f6557bfb600201e2a71a89e2dd8043394919391928b918b918a61285c836142b3565b909155506040805160208101989098526001600160a01b03968716908801526060870194909452608086019290925290921660a084015260c083019190915260e08201526101008101859052610120016040516020818303038152906040528051906020012060405161190160f01b8152600281019290925260228201526042902090565b95945050505050565b60006001603560008282546128ff91906140fd565b909155505060355460608601356000908152604460205260409020546001600160a01b03168061296a5760405162461bcd60e51b8152602060048201526016602482015275109c9a5919d94e88151e081b9bdd0818dc9bdcdcd95960521b604482015260640161039c565b600061299b61297c60208a018a613a8d565b60208a013560408b013560608c013561089160a08e0160808f016142ce565b60608901356000908152604360205260409020549091508114612a0a5760405162461bcd60e51b815260206004820152602160248201527f4272696467653a2057726f6e67207472616e73616374696f6e446174614861736044820152600d60fb1b606482015260840161039c565b6000818152603f602052604090205460ff1615612a635760405162461bcd60e51b8152602060048201526017602482015276109c9a5919d94e88105b1c9958591e4818db185a5b5959604a1b604482015260640161039c565b6000818152603f60209081526040808320805460ff191660011790556001600160a01b0385168352603e90915290205460ff1615612ab357612aac82888a602001358989613128565b9350612ac7565b612ac482888a6020013589896132d8565b93505b612ad46020890189613a8d565b6001600160a01b0316826001600160a01b031689606001357f42b1cb6263e8da47edf0583516eda1de16f729d26282f5791dc5b7af1010e925604560008d60600135815260200190815260200160002060009054906101000a90046001600160a01b03168c602001358d604001358e6080016020810190612b5591906142ce565b604080516001600160a01b039586168152602081019490945283019190915263ffffffff166060820152818d166080820152908b1660a082015260c081018a905260e00160405180910390a450506035548114612bc45760405162461bcd60e51b815260040161039c90614115565b50949350505050565b612bd86033826134ef565b6040516001600160a01b038216907fcd265ebaf09df2871cc7bd4133404a235ba12eff2041bb89d9c714a2621c7c7e90600090a250565b6040516001600160a01b0380851660248301528316604482015260648101829052611bbb9085906323b872dd60e01b906084015b60408051601f198184030181529190526020810180516001600160e01b03166001600160e01b031990931692909217909152613567565b612c856033826136e7565b6040516001600160a01b038216907f6719d08c1888103bea251a4ed56406bd0c3e69723c8a1686e017e7bbe159b6f890600090a250565b6001600160a01b038116612d1d5760405162461bcd60e51b815260206004820152602260248201527f4f776e61626c653a206e6577206f776e6572206973207a65726f206164647265604482015261737360f01b606482015260840161039c565b6034546040516001600160a01b0380841692610100900416907f8be0079c531659141344cd1fd0a4f28419497f9722a3daafe3b4186f6b6457e090600090a3603480546001600160a01b0390921661010002610100600160a81b0319909216919091179055565b600082612d9357506000611532565b6000612d9f83856142e9565b905082612dac8583614170565b14612e035760405162461bcd60e51b815260206004820152602160248201527f536166654d6174683a206d756c7469706c69636174696f6e206f766572666c6f6044820152607760f81b606482015260840161039c565b9392505050565b6000612e0383836040518060400160405280601a81526020017f536166654d6174683a206469766973696f6e206279207a65726f000000000000815250613763565b6000612e0383836040518060400160405280601e81526020017f536166654d6174683a207375627472616374696f6e206f766572666c6f770000815250613791565b60408051600481526024810182526020810180516001600160e01b031663313ce56760e01b1790529051600091829182916001600160a01b03861691612ed49190614308565b600060405180830381855afa9150503d8060008114612f0f576040519150601f19603f3d011682016040523d82523d6000602084013e612f14565b606091505b509150915081612f5e5760405162461bcd60e51b81526020600482015260156024820152744c69625574696c733a204e6f20646563696d616c7360581b604482015260640161039c565b80806020019051810190612f729190614324565b949350505050565b60408051600481526024810182526020810180516001600160e01b031663556f0dc760e01b1790529051600091829182916001600160a01b03861691612fc09190614308565b600060405180830381855afa9150503d8060008114612ffb576040519150601f19603f3d011682016040523d82523d6000602084013e613000565b606091505b509150915081612f5e5760405162461bcd60e51b815260206004820152601860248201527f4c69625574696c733a204e6f206772616e756c61726974790000000000000000604482015260640161039c565b6000612e0383836040518060400160405280601881526020017f536166654d6174683a206d6f64756c6f206279207a65726f00000000000000008152506137c2565b6000806130a183856140fd565b905083811015612e035760405162461bcd60e51b815260206004820152601b60248201527f536166654d6174683a206164646974696f6e206f766572666c6f770000000000604482015260640161039c565b6040516001600160a01b03831660248201526044810182905261312390849063a9059cbb60e01b90606401612c43565b505050565b60008061313487612e8e565b60ff169050600061315b61314983601261433d565b61315490600a614354565b8790612e0a565b9050808411156131a45760405162461bcd60e51b8152602060048201526014602482015273084e4d2c8ceca7440cccaca40e8dede40d0d2ced60631b604482015260640161039c565b6131ae848261433d565b6042549093506001600160a01b038981169116141561329f57604254604051632e1a7d4d60e01b8152600481018390526001600160a01b0390911690632e1a7d4d90602401600060405180830381600087803b15801561320d57600080fd5b505af1158015613221573d6000803e3d6000fd5b50506040516001600160a01b038a16925085156108fc02915085906000818181858888f1935050505015801561325b573d6000803e3d6000fd5b50831561329a576040516001600160a01b0386169085156108fc029086906000818181858888f19350505050158015613298573d6000803e3d6000fd5b505b6132cd565b6132b36001600160a01b03891688856130f3565b83156132cd576132cd6001600160a01b03891686866130f3565b505095945050505050565b6001600160a01b038086166000908152603c6020908152604080832054815163556f0dc760e01b81529151939416928492849263556f0dc79260048083019392829003018186803b15801561332c57600080fd5b505afa158015613340573d6000803e3d6000fd5b505050506040513d601f19601f820116820180604052508101906133649190614324565b905060006133728783612d84565b9050808511156133bb5760405162461bcd60e51b8152602060048201526014602482015273084e4d2c8ceca7440cccaca40e8dede40d0d2ced60631b604482015260640161039c565b6133c5858261433d565b604051630dcdc7dd60e41b81526001600160a01b038a81166004830152602482018390526080604483015260006084830181905260a0606484015260a48301529195509084169063dcdc7dd09060c401600060405180830381600087803b15801561342f57600080fd5b505af1158015613443573d6000803e3d6000fd5b5050505060008511156134e357604051630dcdc7dd60e41b81526001600160a01b03878116600483015260248201879052608060448301526000608483015260a06064830152600b60a48301526a72656c617965722066656560a81b60c483015284169063dcdc7dd09060e401600060405180830381600087803b1580156134ca57600080fd5b505af11580156134de573d6000803e3d6000fd5b505050505b50505095945050505050565b6134f98282612773565b6135455760405162461bcd60e51b815260206004820181905260248201527f526f6c65733a206163636f756e7420646f65736e2774206861766520726f6c65604482015260640161039c565b6001600160a01b0316600090815260209190915260409020805460ff19169055565b6001600160a01b0382163b6135be5760405162461bcd60e51b815260206004820152601f60248201527f5361666545524332303a2063616c6c20746f206e6f6e2d636f6e747261637400604482015260640161039c565b600080836001600160a01b0316836040516135d99190614308565b6000604051808303816000865af19150503d8060008114613616576040519150601f19603f3d011682016040523d82523d6000602084013e61361b565b606091505b50915091508161366d5760405162461bcd60e51b815260206004820181905260248201527f5361666545524332303a206c6f772d6c6576656c2063616c6c206661696c6564604482015260640161039c565b805115611bbb57808060200190518101906136889190614360565b611bbb5760405162461bcd60e51b815260206004820152602a60248201527f5361666545524332303a204552433230206f7065726174696f6e20646964206e6044820152691bdd081cdd58d8d9595960b21b606482015260840161039c565b6136f18282612773565b1561373e5760405162461bcd60e51b815260206004820152601f60248201527f526f6c65733a206163636f756e7420616c72656164792068617320726f6c6500604482015260640161039c565b6001600160a01b0316600090815260209190915260409020805460ff19166001179055565b600081836137845760405162461bcd60e51b815260040161039c9190613cb2565b5060006128e18486614170565b600081848411156137b55760405162461bcd60e51b815260040161039c9190613cb2565b5060006128e1848661433d565b600081836137e35760405162461bcd60e51b815260040161039c9190613cb2565b50612f72838561437d565b8280546137fa90613e51565b90600052602060002090601f01602090048101928261381c5760008555613862565b82601f1061383557805160ff1916838001178555613862565b82800160010185558215613862579182015b82811115613862578251825591602001919060010190613847565b5061386e929150613872565b5090565b5b8082111561386e5760008155600101613873565b6001600160a01b0381168114611cd757600080fd5b60008083601f8401126138ae57600080fd5b50813567ffffffffffffffff8111156138c657600080fd5b6020830191508360208285010111156138de57600080fd5b9250929050565b60008060008060008060008060c0898b03121561390157600080fd5b883561390c81613887565b9750602089013561391c81613887565b9650604089013561392c81613887565b955060608901359450608089013567ffffffffffffffff8082111561395057600080fd5b61395c8c838d0161389c565b909650945060a08b013591508082111561397557600080fd5b506139828b828c0161389c565b999c989b5096995094979396929594505050565b6000602082840312156139a857600080fd5b5035919050565b8015158114611cd757600080fd5b6000602082840312156139cf57600080fd5b8135612e03816139af565b803560ff811681146139eb57600080fd5b919050565b600080600080600080600060a0888a031215613a0b57600080fd5b873596506020880135613a1d81613887565b9550613a2b604089016139da565b9450606088013567ffffffffffffffff80821115613a4857600080fd5b613a548b838c0161389c565b909650945060808a0135915080821115613a6d57600080fd5b50613a7a8a828b0161389c565b989b979a50959850939692959293505050565b600060208284031215613a9f57600080fd5b8135612e0381613887565b634e487b7160e01b600052604160045260246000fd5b604051601f8201601f1916810167ffffffffffffffff81118282101715613ae957613ae9613aaa565b604052919050565b600080600080600060a08688031215613b0957600080fd5b8535613b1481613887565b9450602086810135613b2581613887565b94506040870135613b3581613887565b93506060870135613b4581613887565b9250608087013567ffffffffffffffff80821115613b6257600080fd5b818901915089601f830112613b7657600080fd5b813581811115613b8857613b88613aaa565b613b9a601f8201601f19168501613ac0565b91508082528a84828501011115613bb057600080fd5b80848401858401376000848284010152508093505050509295509295909350565b600060a08284031215613be357600080fd5b50919050565b6000806000806000806000610160888a031215613c0557600080fd5b613c0f8989613bd1565b965060a0880135613c1f81613887565b955060c0880135945060e08801359350613c3c61010089016139da565b92506101208801359150610140880135905092959891949750929550565b60005b83811015613c75578181015183820152602001613c5d565b83811115611bbb5750506000910152565b60008151808452613c9e816020860160208601613c5a565b601f01601f19169290920160200192915050565b602081526000612e036020830184613c86565b803563ffffffff811681146139eb57600080fd5b600080600080600080600060e0888a031215613cf457600080fd5b8735613cff81613887565b96506020880135613d0f81613887565b95506040880135613d1f81613887565b9450606088013593506080880135925060a08801359150613d4260c08901613cc5565b905092959891949750929550565b600080600060608486031215613d6557600080fd5b8335613d7081613887565b92506020840135613d8081613887565b929592945050506040919091013590565b600060a08284031215613da357600080fd5b612e038383613bd1565b600080600080600060a08688031215613dc557600080fd5b8535613dd081613887565b9450602086013593506040860135925060608601359150613df360808701613cc5565b90509295509295909350565b600060208284031215613e1157600080fd5b8151612e0381613887565b6020808252818101527f4f776e61626c653a2063616c6c6572206973206e6f7420746865206f776e6572604082015260600190565b600181811c90821680613e6557607f821691505b60208210811415613be357634e487b7160e01b600052602260045260246000fd5b81818437506000910190815290565b600080855481600182811c915080831680613eb157607f831692505b6020808410821415613ed157634e487b7160e01b86526022600452602486fd5b818015613ee55760018114613ef657613f23565b60ff19861689528489019650613f23565b60008c81526020902060005b86811015613f1b5781548b820152908501908301613f02565b505084890196505b505050505050613f34818587613e86565b9695505050505050565b60608152836060820152838560808301376000608085830101526000601f19601f86011682016080838203016020840152613f7c6080820186613c86565b91505082604083015295945050505050565b604081526000613fa16040830185613c86565b90508260208301529392505050565b60208082526028908201527f436f6e747261637420696e7374616e636520697320616c726561647920696e696040820152671d1a585b1a5e995960c21b606082015260800190565b60208082526028908201527f506175736572526f6c653a2063616c6c657220646f65736e277420686176652060408201526774686520726f6c6560c01b606082015260800190565b600060a0828403121561405257600080fd5b60405160a0810181811067ffffffffffffffff8211171561407557614075613aaa565b604052823561408381613887565b808252506020830135602082015260408301356040820152606083013560608201526140b160808401613cc5565b60808201529392505050565b60208082526010908201526f14185d5cd8589b194e881c185d5cd95960821b604082015260600190565b634e487b7160e01b600052601160045260246000fd5b60008219821115614110576141106140e7565b500190565b60208082526025908201527f5265656e7472616e637947756172643a206e6f207265656e7472616e7420616c6040820152641b1bddd95960da1b606082015260800190565b634e487b7160e01b600052601260045260246000fd5b60008261417f5761417f61415a565b500490565b600060ff821660ff84168082101561419e5761419e6140e7565b90039392505050565b600181815b808511156141e25781600019048211156141c8576141c86140e7565b808516156141d557918102915b93841c93908002906141ac565b509250929050565b6000826141f957506001611532565b8161420657506000611532565b816001811461421c576002811461422657614242565b6001915050611532565b60ff841115614237576142376140e7565b50506001821b611532565b5060208310610133831016604e8410600b8410161715614265575081810a611532565b61426f83836141a7565b8060001904821115614283576142836140e7565b029392505050565b6000612e0360ff8416836141ea565b828152604060208201526000612f726040830184613c86565b60006000198214156142c7576142c76140e7565b5060010190565b6000602082840312156142e057600080fd5b612e0382613cc5565b6000816000190483118215151615614303576143036140e7565b500290565b6000825161431a818460208701613c5a565b9190910192915050565b60006020828403121561433657600080fd5b5051919050565b60008282101561434f5761434f6140e7565b500390565b6000612e0383836141ea565b60006020828403121561437257600080fd5b8151612e03816139af565b60008261438c5761438c61415a565b50069056fea26469706673582212208ce049f3a18245b27fbdfc5d5fce142efcb6f858f2f85701f5cddfac65e050ae64736f6c63430008090033",
  "devdoc": {
    "kind": "dev",
    "methods": {
      "__Pausable_init(address)": {
        "details": "Initializes the contract in unpaused state. Assigns the Pauser role to the deployer."
      },
      "initialize(address)": {
        "details": "Initializes the contract setting the deployer as the initial owner."
      },
      "isOwner()": {
        "details": "Returns true if the caller is the current owner."
      },
      "owner()": {
        "details": "Returns the address of the current owner."
      },
      "pause()": {
        "details": "Called by a pauser to pause, triggers stopped state."
      },
      "paused()": {
        "details": "Returns true if the contract is paused, and false otherwise."
      },
      "renounceOwnership()": {
        "details": "Leaves the contract without owner. It will not be possible to call `onlyOwner` functions anymore. Can only be called by the current owner. > Note: Renouncing ownership will leave the contract without an owner, thereby removing any functionality that is only available to the owner."
      },
      "transferOwnership(address)": {
        "details": "Transfers ownership of the contract to a new account (`newOwner`). Can only be called by the current owner."
      },
      "unpause()": {
        "details": "Called by a pauser to unpause, returns to normal state."
      }
    },
    "version": 1
  },
  "userdoc": {
    "kind": "user",
    "methods": {
      "acceptTransfer(address,address,address,uint256,bytes32,bytes32,uint32)": {
        "notice": "Accepts the transaction from the other chain that was voted and sent by the Federation contract"
      },
      "claim((address,uint256,bytes32,bytes32,uint32))": {
        "notice": "Claims the crossed transaction using the hash, this sends the funds to the address indicated in"
      },
      "depositTo(address)": {
        "notice": "Use network currency and cross it."
      },
      "receiveTokensTo(address,address,uint256)": {
        "notice": "ERC-20 tokens approve and transferFrom pattern See https://eips.ethereum.org/EIPS/eip-20#transferfrom"
      },
      "tokensReceived(address,address,address,uint256,bytes,bytes)": {
        "notice": "ERC-777 tokensReceived hook allows to send tokens to a contract and notify it in a single transaction See https://eips.ethereum.org/EIPS/eip-777#motivation for details"
      }
    },
    "version": 1
  },
  "storageLayout": {
    "storage": [
      {
        "astId": 3081,
        "contract": "contracts/Bridge/BridgeV4.sol:BridgeV4",
        "label": "initialized",
        "offset": 0,
        "slot": "0",
        "type": "t_bool"
      },
      {
        "astId": 3084,
        "contract": "contracts/Bridge/BridgeV4.sol:BridgeV4",
        "label": "initializing",
        "offset": 1,
        "slot": "0",
        "type": "t_bool"
      },
      {
        "astId": 3124,
        "contract": "contracts/Bridge/BridgeV4.sol:BridgeV4",
        "label": "______gap",
        "offset": 0,
        "slot": "1",
        "type": "t_array(t_uint256)50_storage"
      },
      {
        "astId": 3150,
        "contract": "contracts/Bridge/BridgeV4.sol:BridgeV4",
        "label": "_pausers",
        "offset": 0,
        "slot": "51",
        "type": "t_struct(Role)2205_storage"
      },
      {
        "astId": 3272,
        "contract": "contracts/Bridge/BridgeV4.sol:BridgeV4",
        "label": "_paused",
        "offset": 0,
        "slot": "52",
        "type": "t_bool"
      },
      {
        "astId": 3370,
        "contract": "contracts/Bridge/BridgeV4.sol:BridgeV4",
        "label": "_owner",
        "offset": 1,
        "slot": "52",
        "type": "t_address"
      },
      {
        "astId": 3501,
        "contract": "contracts/Bridge/BridgeV4.sol:BridgeV4",
        "label": "_guardCounter",
        "offset": 0,
        "slot": "53",
        "type": "t_uint256"
      },
      {
        "astId": 61,
        "contract": "contracts/Bridge/BridgeV4.sol:BridgeV4",
        "label": "federation",
        "offset": 0,
        "slot": "54",
        "type": "t_address"
      },
      {
        "astId": 63,
        "contract": "contracts/Bridge/BridgeV4.sol:BridgeV4",
        "label": "feePercentage",
        "offset": 0,
        "slot": "55",
        "type": "t_uint256"
      },
      {
        "astId": 65,
        "contract": "contracts/Bridge/BridgeV4.sol:BridgeV4",
        "label": "symbolPrefix",
        "offset": 0,
        "slot": "56",
        "type": "t_string_storage"
      },
      {
        "astId": 67,
        "contract": "contracts/Bridge/BridgeV4.sol:BridgeV4",
        "label": "DOMAIN_SEPARATOR",
        "offset": 0,
        "slot": "57",
        "type": "t_bytes32"
      },
      {
        "astId": 69,
        "contract": "contracts/Bridge/BridgeV4.sol:BridgeV4",
        "label": "_deprecatedSpentToday",
        "offset": 0,
        "slot": "58",
        "type": "t_uint256"
      },
      {
        "astId": 72,
        "contract": "contracts/Bridge/BridgeV4.sol:BridgeV4",
        "label": "feeCollectorAddress",
        "offset": 0,
        "slot": "59",
        "type": "t_address"
      },
      {
        "astId": 76,
        "contract": "contracts/Bridge/BridgeV4.sol:BridgeV4",
        "label": "mappedTokens",
        "offset": 0,
        "slot": "60",
        "type": "t_mapping(t_address,t_address)"
      },
      {
        "astId": 80,
        "contract": "contracts/Bridge/BridgeV4.sol:BridgeV4",
        "label": "originalTokens",
        "offset": 0,
        "slot": "61",
        "type": "t_mapping(t_address,t_address)"
      },
      {
        "astId": 84,
        "contract": "contracts/Bridge/BridgeV4.sol:BridgeV4",
        "label": "knownTokens",
        "offset": 0,
        "slot": "62",
        "type": "t_mapping(t_address,t_bool)"
      },
      {
        "astId": 88,
        "contract": "contracts/Bridge/BridgeV4.sol:BridgeV4",
        "label": "claimed",
        "offset": 0,
        "slot": "63",
        "type": "t_mapping(t_bytes32,t_bool)"
      },
      {
        "astId": 91,
        "contract": "contracts/Bridge/BridgeV4.sol:BridgeV4",
        "label": "allowTokens",
        "offset": 0,
        "slot": "64",
        "type": "t_contract(IAllowTokens)1850"
      },
      {
        "astId": 94,
        "contract": "contracts/Bridge/BridgeV4.sol:BridgeV4",
        "label": "sideTokenFactory",
        "offset": 0,
        "slot": "65",
        "type": "t_contract(ISideTokenFactory)1888"
      },
      {
        "astId": 96,
        "contract": "contracts/Bridge/BridgeV4.sol:BridgeV4",
        "label": "isUpgrading",
        "offset": 20,
        "slot": "65",
        "type": "t_bool"
      },
      {
        "astId": 107,
        "contract": "contracts/Bridge/BridgeV4.sol:BridgeV4",
        "label": "wrappedCurrency",
        "offset": 0,
        "slot": "66",
        "type": "t_contract(IWrapped)1941"
      },
      {
        "astId": 111,
        "contract": "contracts/Bridge/BridgeV4.sol:BridgeV4",
        "label": "transactionsDataHashes",
        "offset": 0,
        "slot": "67",
        "type": "t_mapping(t_bytes32,t_bytes32)"
      },
      {
        "astId": 115,
        "contract": "contracts/Bridge/BridgeV4.sol:BridgeV4",
        "label": "originalTokenAddresses",
        "offset": 0,
        "slot": "68",
        "type": "t_mapping(t_bytes32,t_address)"
      },
      {
        "astId": 119,
        "contract": "contracts/Bridge/BridgeV4.sol:BridgeV4",
        "label": "senderAddresses",
        "offset": 0,
        "slot": "69",
        "type": "t_mapping(t_bytes32,t_address)"
      },
      {
        "astId": 126,
        "contract": "contracts/Bridge/BridgeV4.sol:BridgeV4",
        "label": "nonces",
        "offset": 0,
        "slot": "70",
        "type": "t_mapping(t_address,t_uint256)"
      }
    ],
    "types": {
      "t_address": {
        "encoding": "inplace",
        "label": "address",
        "numberOfBytes": "20"
      },
      "t_array(t_uint256)50_storage": {
        "base": "t_uint256",
        "encoding": "inplace",
        "label": "uint256[50]",
        "numberOfBytes": "1600"
      },
      "t_bool": {
        "encoding": "inplace",
        "label": "bool",
        "numberOfBytes": "1"
      },
      "t_bytes32": {
        "encoding": "inplace",
        "label": "bytes32",
        "numberOfBytes": "32"
      },
      "t_contract(IAllowTokens)1850": {
        "encoding": "inplace",
        "label": "contract IAllowTokens",
        "numberOfBytes": "20"
      },
      "t_contract(ISideTokenFactory)1888": {
        "encoding": "inplace",
        "label": "contract ISideTokenFactory",
        "numberOfBytes": "20"
      },
      "t_contract(IWrapped)1941": {
        "encoding": "inplace",
        "label": "contract IWrapped",
        "numberOfBytes": "20"
      },
      "t_mapping(t_address,t_address)": {
        "encoding": "mapping",
        "key": "t_address",
        "label": "mapping(address => address)",
        "numberOfBytes": "32",
        "value": "t_address"
      },
      "t_mapping(t_address,t_bool)": {
        "encoding": "mapping",
        "key": "t_address",
        "label": "mapping(address => bool)",
        "numberOfBytes": "32",
        "value": "t_bool"
      },
      "t_mapping(t_address,t_uint256)": {
        "encoding": "mapping",
        "key": "t_address",
        "label": "mapping(address => uint256)",
        "numberOfBytes": "32",
        "value": "t_uint256"
      },
      "t_mapping(t_bytes32,t_address)": {
        "encoding": "mapping",
        "key": "t_bytes32",
        "label": "mapping(bytes32 => address)",
        "numberOfBytes": "32",
        "value": "t_address"
      },
      "t_mapping(t_bytes32,t_bool)": {
        "encoding": "mapping",
        "key": "t_bytes32",
        "label": "mapping(bytes32 => bool)",
        "numberOfBytes": "32",
        "value": "t_bool"
      },
      "t_mapping(t_bytes32,t_bytes32)": {
        "encoding": "mapping",
        "key": "t_bytes32",
        "label": "mapping(bytes32 => bytes32)",
        "numberOfBytes": "32",
        "value": "t_bytes32"
      },
      "t_string_storage": {
        "encoding": "bytes",
        "label": "string",
        "numberOfBytes": "32"
      },
      "t_struct(Role)2205_storage": {
        "encoding": "inplace",
        "label": "struct Roles.Role",
        "members": [
          {
            "astId": 2204,
            "contract": "contracts/Bridge/BridgeV4.sol:BridgeV4",
            "label": "bearer",
            "offset": 0,
            "slot": "0",
            "type": "t_mapping(t_address,t_bool)"
          }
        ],
        "numberOfBytes": "32"
      },
      "t_uint256": {
        "encoding": "inplace",
        "label": "uint256",
        "numberOfBytes": "32"
      }
    }
  }
}