{
  "address": "0x2D0b3915Ae7765B3ea7c097aC3e3e53421765335",
  "abi": [
    {
      "inputs": [
        {
          "internalType": "string",
          "name": "name",
          "type": "string"
        },
        {
          "internalType": "string",
          "name": "symbol",
          "type": "string"
        },
        {
          "internalType": "uint8",
          "name": "decimals",
          "type": "uint8"
        },
        {
          "internalType": "uint256",
          "name": "totalSupply",
          "type": "uint256"
        }
      ],
      "stateMutability": "nonpayable",
      "type": "constructor"
    },
    {
      "anonymous": false,
      "inputs": [
        {
          "indexed": true,
          "internalType": "address",
          "name": "owner",
          "type": "address"
        },
        {
          "indexed": true,
          "internalType": "address",
          "name": "spender",
          "type": "address"
        },
        {
          "indexed": false,
          "internalType": "uint256",
          "name": "value",
          "type": "uint256"
        }
      ],
      "name": "Approval",
      "type": "event"
    },
    {
      "anonymous": false,
      "inputs": [
        {
          "indexed": true,
          "internalType": "address",
          "name": "from",
          "type": "address"
        },
        {
          "indexed": true,
          "internalType": "address",
          "name": "to",
          "type": "address"
        },
        {
          "indexed": false,
          "internalType": "uint256",
          "name": "value",
          "type": "uint256"
        }
      ],
      "name": "Transfer",
      "type": "event"
    },
    {
      "inputs": [
        {
          "internalType": "address",
          "name": "owner",
          "type": "address"
        },
        {
          "internalType": "address",
          "name": "spender",
          "type": "address"
        }
      ],
      "name": "allowance",
      "outputs": [
        {
          "internalType": "uint256",
          "name": "",
          "type": "uint256"
        }
      ],
      "stateMutability": "view",
      "type": "function"
    },
    {
      "inputs": [
        {
          "internalType": "address",
          "name": "spender",
          "type": "address"
        },
        {
          "internalType": "uint256",
          "name": "amount",
          "type": "uint256"
        }
      ],
      "name": "approve",
      "outputs": [
        {
          "internalType": "bool",
          "name": "",
          "type": "bool"
        }
      ],
      "stateMutability": "nonpayable",
      "type": "function"
    },
    {
      "inputs": [
        {
          "internalType": "address",
          "name": "account",
          "type": "address"
        }
      ],
      "name": "balanceOf",
      "outputs": [
        {
          "internalType": "uint256",
          "name": "",
          "type": "uint256"
        }
      ],
      "stateMutability": "view",
      "type": "function"
    },
    {
      "inputs": [],
      "name": "decimals",
      "outputs": [
        {
          "internalType": "uint8",
          "name": "",
          "type": "uint8"
        }
      ],
      "stateMutability": "view",
      "type": "function"
    },
    {
      "inputs": [
        {
          "internalType": "address",
          "name": "spender",
          "type": "address"
        },
        {
          "internalType": "uint256",
          "name": "subtractedValue",
          "type": "uint256"
        }
      ],
      "name": "decreaseAllowance",
      "outputs": [
        {
          "internalType": "bool",
          "name": "",
          "type": "bool"
        }
      ],
      "stateMutability": "nonpayable",
      "type": "function"
    },
    {
      "inputs": [
        {
          "internalType": "address",
          "name": "spender",
          "type": "address"
        },
        {
          "internalType": "uint256",
          "name": "addedValue",
          "type": "uint256"
        }
      ],
      "name": "increaseAllowance",
      "outputs": [
        {
          "internalType": "bool",
          "name": "",
          "type": "bool"
        }
      ],
      "stateMutability": "nonpayable",
      "type": "function"
    },
    {
      "inputs": [],
      "name": "name",
      "outputs": [
        {
          "internalType": "string",
          "name": "",
          "type": "string"
        }
      ],
      "stateMutability": "view",
      "type": "function"
    },
    {
      "inputs": [],
      "name": "symbol",
      "outputs": [
        {
          "internalType": "string",
          "name": "",
          "type": "string"
        }
      ],
      "stateMutability": "view",
      "type": "function"
    },
    {
      "inputs": [],
      "name": "totalSupply",
      "outputs": [
        {
          "internalType": "uint256",
          "name": "",
          "type": "uint256"
        }
      ],
      "stateMutability": "view",
      "type": "function"
    },
    {
      "inputs": [
        {
          "internalType": "address",
          "name": "recipient",
          "type": "address"
        },
        {
          "internalType": "uint256",
          "name": "amount",
          "type": "uint256"
        }
      ],
      "name": "transfer",
      "outputs": [
        {
          "internalType": "bool",
          "name": "",
          "type": "bool"
        }
      ],
      "stateMutability": "nonpayable",
      "type": "function"
    },
    {
      "inputs": [
        {
          "internalType": "address",
          "name": "_to",
          "type": "address"
        },
        {
          "internalType": "uint256",
          "name": "_value",
          "type": "uint256"
        },
        {
          "internalType": "bytes",
          "name": "_data",
          "type": "bytes"
        }
      ],
      "name": "transferAndCall",
      "outputs": [
        {
          "internalType": "bool",
          "name": "",
          "type": "bool"
        }
      ],
      "stateMutability": "nonpayable",
      "type": "function"
    },
    {
      "inputs": [
        {
          "internalType": "address",
          "name": "sender",
          "type": "address"
        },
        {
          "internalType": "address",
          "name": "recipient",
          "type": "address"
        },
        {
          "internalType": "uint256",
          "name": "amount",
          "type": "uint256"
        }
      ],
      "name": "transferFrom",
      "outputs": [
        {
          "internalType": "bool",
          "name": "",
          "type": "bool"
        }
      ],
      "stateMutability": "nonpayable",
      "type": "function"
    }
  ],
  "transactionHash": "0x72ed73d6fd33305fec7af008555ebc0baf0240d58fe12dc19647ab0fb1920ea2",
  "args": [
    "MAIN",
    "MAIN",
    18,
    "1000000000000000000000"
  ],
  "numDeployments": 1,
  "solcInputHash": "bfc96d5f60348b72136d284c7b5c1536",
  "bytecode": "0x60806040523480156200001157600080fd5b5060405162000f6b38038062000f6b83398101604081905262000034916200037b565b83838382600090805190602001906200004f92919062000208565b5081516200006590600190602085019062000208565b506002805460ff191660ff9290921691909117905550620000899050338262000093565b505050506200046a565b6001600160a01b038216620000ef5760405162461bcd60e51b815260206004820152601b60248201527f45524332303a206d696e7420746f207a65726f2061646472657373000000000060448201526064015b60405180910390fd5b6200010b816005546200019e60201b6200044c1790919060201c565b6005556001600160a01b038216600090815260036020908152604090912054620001409183906200044c6200019e821b17901c565b6001600160a01b0383166000818152600360205260408082209390935591519091907fddf252ad1be2c89b69c2b068fc378daa952ba7f163c4a11628f55a4df523b3ef90620001929085815260200190565b60405180910390a35050565b600080620001ad838562000406565b905083811015620002015760405162461bcd60e51b815260206004820152601b60248201527f536166654d6174683a206164646974696f6e206f766572666c6f7700000000006044820152606401620000e6565b9392505050565b82805462000216906200042d565b90600052602060002090601f0160209004810192826200023a576000855562000285565b82601f106200025557805160ff191683800117855562000285565b8280016001018555821562000285579182015b828111156200028557825182559160200191906001019062000268565b506200029392915062000297565b5090565b5b8082111562000293576000815560010162000298565b634e487b7160e01b600052604160045260246000fd5b600082601f830112620002d657600080fd5b81516001600160401b0380821115620002f357620002f3620002ae565b604051601f8301601f19908116603f011681019082821181831017156200031e576200031e620002ae565b816040528381526020925086838588010111156200033b57600080fd5b600091505b838210156200035f578582018301518183018401529082019062000340565b83821115620003715760008385830101525b9695505050505050565b600080600080608085870312156200039257600080fd5b84516001600160401b0380821115620003aa57600080fd5b620003b888838901620002c4565b95506020870151915080821115620003cf57600080fd5b50620003de87828801620002c4565b935050604085015160ff81168114620003f657600080fd5b6060959095015193969295505050565b600082198211156200042857634e487b7160e01b600052601160045260246000fd5b500190565b600181811c908216806200044257607f821691505b602082108114156200046457634e487b7160e01b600052602260045260246000fd5b50919050565b610af1806200047a6000396000f3fe608060405234801561001057600080fd5b50600436106100b45760003560e01c80634000aea0116100715780634000aea01461014757806370a082311461015a57806395d89b4114610183578063a457c2d71461018b578063a9059cbb1461019e578063dd62ed3e146101b157600080fd5b806306fdde03146100b9578063095ea7b3146100d757806318160ddd146100fa57806323b872dd1461010c578063313ce5671461011f5780633950935114610134575b600080fd5b6100c16101ea565b6040516100ce91906107bb565b60405180910390f35b6100ea6100e53660046107ea565b61027c565b60405190151581526020016100ce565b6005545b6040519081526020016100ce565b6100ea61011a366004610814565b610292565b60025460405160ff90911681526020016100ce565b6100ea6101423660046107ea565b6102fc565b6100ea610155366004610866565b610332565b6100fe610168366004610931565b6001600160a01b031660009081526003602052604090205490565b6100c16103e1565b6100ea6101993660046107ea565b6103f0565b6100ea6101ac3660046107ea565b61043f565b6100fe6101bf36600461094c565b6001600160a01b03918216600090815260046020908152604080832093909416825291909152205490565b6060600080546101f99061097f565b80601f01602080910402602001604051908101604052809291908181526020018280546102259061097f565b80156102725780601f1061024757610100808354040283529160200191610272565b820191906000526020600020905b81548152906001019060200180831161025557829003601f168201915b5050505050905090565b60006102893384846104b0565b50600192915050565b600061029f8484846105be565b6102f184336102ec85604051806060016040528060288152602001610a6f602891396001600160a01b038a1660009081526004602090815260408083203384529091529020549190610734565b6104b0565b5060015b9392505050565b3360008181526004602090815260408083206001600160a01b038716845290915281205490916102899185906102ec908661044c565b60008061033f858561043f565b9050806103505760009150506102f5565b60405163607705c560e11b815285906001600160a01b0382169063c0ee0b8a90610382903390899089906004016109ba565b602060405180830381600087803b15801561039c57600080fd5b505af11580156103b0573d6000803e3d6000fd5b505050506040513d601f19601f820116820180604052508101906103d491906109e1565b5060019695505050505050565b6060600180546101f99061097f565b600061028933846102ec85604051806060016040528060258152602001610a97602591393360009081526004602090815260408083206001600160a01b038d1684529091529020549190610734565b60006102893384846105be565b6000806104598385610a19565b9050838110156102f55760405162461bcd60e51b815260206004820152601b60248201527f536166654d6174683a206164646974696f6e206f766572666c6f77000000000060448201526064015b60405180910390fd5b6001600160a01b0383166105065760405162461bcd60e51b815260206004820181905260248201527f45524332303a20617070726f76652066726f6d207a65726f206164647265737360448201526064016104a7565b6001600160a01b03821661055c5760405162461bcd60e51b815260206004820152601e60248201527f45524332303a20617070726f766520746f207a65726f2061646472657373000060448201526064016104a7565b6001600160a01b0383811660008181526004602090815260408083209487168084529482529182902085905590518481527f8c5be1e5ebec7d5bd14f71427d1e84f3dd0314c0f7b2291e5b200ac8c7c3b92591015b60405180910390a3505050565b6001600160a01b03831661061e5760405162461bcd60e51b815260206004820152602160248201527f45524332303a207472616e736665722066726f6d207a65726f206164647265736044820152607360f81b60648201526084016104a7565b6001600160a01b0382166106745760405162461bcd60e51b815260206004820152601f60248201527f45524332303a207472616e7366657220746f207a65726f20616464726573730060448201526064016104a7565b6106b181604051806060016040528060268152602001610a49602691396001600160a01b0386166000908152600360205260409020549190610734565b6001600160a01b0380851660009081526003602052604080822093909355908416815220546106e0908261044c565b6001600160a01b0380841660008181526003602052604090819020939093559151908516907fddf252ad1be2c89b69c2b068fc378daa952ba7f163c4a11628f55a4df523b3ef906105b19085815260200190565b600081848411156107585760405162461bcd60e51b81526004016104a791906107bb565b5060006107658486610a31565b95945050505050565b6000815180845260005b8181101561079457602081850181015186830182015201610778565b818111156107a6576000602083870101525b50601f01601f19169290920160200192915050565b6020815260006102f5602083018461076e565b80356001600160a01b03811681146107e557600080fd5b919050565b600080604083850312156107fd57600080fd5b610806836107ce565b946020939093013593505050565b60008060006060848603121561082957600080fd5b610832846107ce565b9250610840602085016107ce565b9150604084013590509250925092565b634e487b7160e01b600052604160045260246000fd5b60008060006060848603121561087b57600080fd5b610884846107ce565b925060208401359150604084013567ffffffffffffffff808211156108a857600080fd5b818601915086601f8301126108bc57600080fd5b8135818111156108ce576108ce610850565b604051601f8201601f19908116603f011681019083821181831017156108f6576108f6610850565b8160405282815289602084870101111561090f57600080fd5b8260208601602083013760006020848301015280955050505050509250925092565b60006020828403121561094357600080fd5b6102f5826107ce565b6000806040838503121561095f57600080fd5b610968836107ce565b9150610976602084016107ce565b90509250929050565b600181811c9082168061099357607f821691505b602082108114156109b457634e487b7160e01b600052602260045260246000fd5b50919050565b60018060a01b0384168152826020820152606060408201526000610765606083018461076e565b6000602082840312156109f357600080fd5b815180151581146102f557600080fd5b634e487b7160e01b600052601160045260246000fd5b60008219821115610a2c57610a2c610a03565b500190565b600082821015610a4357610a43610a03565b50039056fe45524332303a207472616e7366657220616d6f756e7420657863656564732062616c616e636545524332303a207472616e7366657220616d6f756e74206578636565647320616c6c6f77616e636545524332303a2064656372656173656420616c6c6f77616e63652062656c6f77207a65726fa2646970667358221220f6b3b1e2c5d06b427ee0a0a93ffd8ff3c7ab50a22a03205c31f4c7f2ab9ada8e64736f6c63430008090033",
  "devdoc": {
    "kind": "dev",
    "methods": {
      "allowance(address,address)": {
        "details": "See {IERC20-allowance}."
      },
      "approve(address,uint256)": {
        "details": "See {IERC20-approve}. Requirements: - `spender` cannot be the zero address."
      },
      "balanceOf(address)": {
        "details": "See {IERC20-balanceOf}."
      },
      "decimals()": {
        "details": "Returns the number of decimals used to get its user representation. For example, if `decimals` equals `2`, a balance of `505` tokens should be displayed to a user as `5,05` (`505 / 10 ** 2`). Tokens usually opt for a value of 18, imitating the relationship between Ether and Wei. NOTE: This information is only used for _display_ purposes: it in no way affects any of the arithmetic of the contract, including {IERC20-balanceOf} and {IERC20-transfer}."
      },
      "decreaseAllowance(address,uint256)": {
        "details": "Atomically decreases the allowance granted to `spender` by the caller. This is an alternative to {approve} that can be used as a mitigation for problems described in {IERC20-approve}. Emits an {Approval} event indicating the updated allowance. Requirements: - `spender` cannot be the zero address. - `spender` must have allowance for the caller of at least `subtractedValue`."
      },
      "increaseAllowance(address,uint256)": {
        "details": "Atomically increases the allowance granted to `spender` by the caller. This is an alternative to {approve} that can be used as a mitigation for problems described in {IERC20-approve}. Emits an {Approval} event indicating the updated allowance. Requirements: - `spender` cannot be the zero address."
      },
      "name()": {
        "details": "Returns the name of the token."
      },
      "symbol()": {
        "details": "Returns the symbol of the token, usually a shorter version of the name."
      },
      "totalSupply()": {
        "details": "See {IERC20-totalSupply}."
      },
      "transfer(address,uint256)": {
        "details": "See {IERC20-transfer}. Requirements: - `recipient` cannot be the zero address. - the caller must have a balance of at least `amount`."
      },
      "transferFrom(address,address,uint256)": {
        "details": "See {IERC20-transferFrom}. Emits an {Approval} event indicating the updated allowance. This is not required by the EIP. See the note at the beginning of {ERC20}; Requirements: - `sender` and `recipient` cannot be the zero address. - `sender` must have a balance of at least `amount`. - the caller must have allowance for `sender`'s tokens of at least `amount`."
      }
    },
    "version": 1
  },
  "userdoc": {
    "kind": "user",
    "methods": {
      "transferAndCall(address,uint256,bytes)": {
        "notice": "ERC-677's only method implementation See https://github.com/ethereum/EIPs/issues/677 for details"
      }
    },
    "version": 1
  },
  "storageLayout": {
    "storage": [
      {
        "astId": 14784,
        "contract": "contracts/test/MainToken.sol:MainToken",
        "label": "_name",
        "offset": 0,
        "slot": "0",
        "type": "t_string_storage"
      },
      {
        "astId": 14786,
        "contract": "contracts/test/MainToken.sol:MainToken",
        "label": "_symbol",
        "offset": 0,
        "slot": "1",
        "type": "t_string_storage"
      },
      {
        "astId": 14788,
        "contract": "contracts/test/MainToken.sol:MainToken",
        "label": "_decimals",
        "offset": 0,
        "slot": "2",
        "type": "t_uint8"
      },
      {
        "astId": 14359,
        "contract": "contracts/test/MainToken.sol:MainToken",
        "label": "_balances",
        "offset": 0,
        "slot": "3",
        "type": "t_mapping(t_address,t_uint256)"
      },
      {
        "astId": 14365,
        "contract": "contracts/test/MainToken.sol:MainToken",
        "label": "_allowances",
        "offset": 0,
        "slot": "4",
        "type": "t_mapping(t_address,t_mapping(t_address,t_uint256))"
      },
      {
        "astId": 14367,
        "contract": "contracts/test/MainToken.sol:MainToken",
        "label": "_totalSupply",
        "offset": 0,
        "slot": "5",
        "type": "t_uint256"
      }
    ],
    "types": {
      "t_address": {
        "encoding": "inplace",
        "label": "address",
        "numberOfBytes": "20"
      },
      "t_mapping(t_address,t_mapping(t_address,t_uint256))": {
        "encoding": "mapping",
        "key": "t_address",
        "label": "mapping(address => mapping(address => uint256))",
        "numberOfBytes": "32",
        "value": "t_mapping(t_address,t_uint256)"
      },
      "t_mapping(t_address,t_uint256)": {
        "encoding": "mapping",
        "key": "t_address",
        "label": "mapping(address => uint256)",
        "numberOfBytes": "32",
        "value": "t_uint256"
      },
      "t_string_storage": {
        "encoding": "bytes",
        "label": "string",
        "numberOfBytes": "32"
      },
      "t_uint256": {
        "encoding": "inplace",
        "label": "uint256",
        "numberOfBytes": "32"
      },
      "t_uint8": {
        "encoding": "inplace",
        "label": "uint8",
        "numberOfBytes": "1"
      }
    }
  }
}