{
  "address": "0x8f32871C464E254e1DDb1b8be1444c201a6E656C",
  "abi": [
    {
      "anonymous": false,
      "inputs": [
        {
          "indexed": false,
          "internalType": "address",
          "name": "sideToken",
          "type": "address"
        },
        {
          "indexed": false,
          "internalType": "string",
          "name": "symbol",
          "type": "string"
        }
      ],
      "name": "CreatedSideToken",
      "type": "event"
    },
    {
      "anonymous": false,
      "inputs": [
        {
          "indexed": false,
          "internalType": "address",
          "name": "recipient",
          "type": "address"
        }
      ],
      "name": "PrimaryTransferred",
      "type": "event"
    },
    {
      "inputs": [
        {
          "internalType": "string",
          "name": "name",
          "type": "string"
        },
        {
          "internalType": "string",
          "name": "symbol",
          "type": "string"
        }
      ],
      "name": "createSideToken",
      "outputs": [
        {
          "internalType": "contract SideTokenV1",
          "name": "",
          "type": "address"
        }
      ],
      "stateMutability": "nonpayable",
      "type": "function"
    },
    {
      "inputs": [],
      "name": "primary",
      "outputs": [
        {
          "internalType": "address",
          "name": "",
          "type": "address"
        }
      ],
      "stateMutability": "view",
      "type": "function"
    },
    {
      "inputs": [
        {
          "internalType": "address",
          "name": "recipient",
          "type": "address"
        }
      ],
      "name": "transferPrimary",
      "outputs": [],
      "stateMutability": "nonpayable",
      "type": "function"
    }
  ],
  "transactionHash": "0x5568a3296ad53a60d8a97607be73c7f8a4ef5825067e4efc22cba6bbc98f483a",
  "args": [],
  "numDeployments": 1,
  "solcInputHash": "bfc96d5f60348b72136d284c7b5c1536",
  "bytecode": "0x608060405234801561001057600080fd5b50600080546001600160a01b0319163390811790915560408051918252517f4101e71e974f68df5e9730cc223280b41654676bbb052cdcc735c3337e64d2d99181900360200190a161258f806100676000396000f3fe60806040523480156200001157600080fd5b5060043610620000465760003560e01c80632348238c146200004b578063bb3a39ee1462000064578063c6dbdf611462000097575b600080fd5b620000626200005c36600462000289565b620000a9565b005b6200007b6200007536600462000307565b620001a7565b6040516001600160a01b03909116815260200160405180910390f35b6000546001600160a01b03166200007b565b6000546001600160a01b0316336001600160a01b031614620000e85760405162461bcd60e51b8152600401620000df906200037a565b60405180910390fd5b6001600160a01b038116620001535760405162461bcd60e51b815260206004820152602a60248201527f5365636f6e646172793a206e6577207072696d61727920697320746865207a65604482015269726f206164647265737360b01b6064820152608401620000df565b600080546001600160a01b0319166001600160a01b0383169081179091556040519081527f4101e71e974f68df5e9730cc223280b41654676bbb052cdcc735c3337e64d2d99060200160405180910390a150565b600080546001600160a01b0316336001600160a01b031614620001de5760405162461bcd60e51b8152600401620000df906200037a565b600085858585620001f76000546001600160a01b031690565b60405162000205906200027b565b62000215959493929190620003ef565b604051809103906000f08015801562000232573d6000803e3d6000fd5b5090507f316f047f5c065537114379c7b7365dadd3cdf36ec1c32b528520bb31beaf37178185856040516200026a9392919062000435565b60405180910390a195945050505050565b6120f4806200046683390190565b6000602082840312156200029c57600080fd5b81356001600160a01b0381168114620002b457600080fd5b9392505050565b60008083601f840112620002ce57600080fd5b50813567ffffffffffffffff811115620002e757600080fd5b6020830191508360208285010111156200030057600080fd5b9250929050565b600080600080604085870312156200031e57600080fd5b843567ffffffffffffffff808211156200033757600080fd5b6200034588838901620002bb565b909650945060208701359150808211156200035f57600080fd5b506200036e87828801620002bb565b95989497509550505050565b6020808252602c908201527f5365636f6e646172793a2063616c6c6572206973206e6f74207468652070726960408201526b1b585c9e481858d8dbdd5b9d60a21b606082015260800190565b81835281816020850137506000828201602090810191909152601f909101601f19169091010190565b60608152600062000405606083018789620003c6565b82810360208401526200041a818688620003c6565b91505060018060a01b03831660408301529695505050505050565b6001600160a01b03841681526040602082018190526000906200045c9083018486620003c6565b9594505050505056fe60806040523480156200001157600080fd5b50604051620020f4380380620020f4833981016040819052620000349162000484565b60408051600081526020808201909252845185928592916200005d9160029190860190620002b9565b50815162000073906003906020850190620002b9565b5080516200008990600490602084019062000348565b5060005b600454811015620000fd5760016005600060048481548110620000b457620000b462000511565b6000918252602080832091909101546001600160a01b031683528201929092526040019020805460ff191691151591909117905580620000f48162000527565b9150506200008d565b506040516329965a1d60e01b815230600482018190527fac7fbab5f54a3ca8194167523c6753bfeb96a445279294b6125b68cce217705460248301526044820152731820a4b7618bde71dce8cdc73aab6c95905fad24906329965a1d90606401600060405180830381600087803b1580156200017857600080fd5b505af11580156200018d573d6000803e3d6000fd5b50506040516329965a1d60e01b815230600482018190527faea199e31a596269b42cdafd93407f14436db6e4cad65417994c2eb37381e05a60248301526044820152731820a4b7618bde71dce8cdc73aab6c95905fad2492506329965a1d9150606401600060405180830381600087803b1580156200020b57600080fd5b505af115801562000220573d6000803e3d6000fd5b50505050506001600160a01b038316151591506200029090505760405162461bcd60e51b815260206004820152602160248201527f53696465546f6b656e3a204d696e7465722061646472657373206973206e756c6044820152601b60fa1b606482015260840160405180910390fd5b600980546001600160a01b0319166001600160a01b0392909216919091179055506200058e9050565b828054620002c79062000551565b90600052602060002090601f016020900481019282620002eb576000855562000336565b82601f106200030657805160ff191683800117855562000336565b8280016001018555821562000336579182015b828111156200033657825182559160200191906001019062000319565b5062000344929150620003a0565b5090565b82805482825590600052602060002090810192821562000336579160200282015b828111156200033657825182546001600160a01b0319166001600160a01b0390911617825560209092019160019091019062000369565b5b80821115620003445760008155600101620003a1565b634e487b7160e01b600052604160045260246000fd5b600082601f830112620003df57600080fd5b81516001600160401b0380821115620003fc57620003fc620003b7565b604051601f8301601f19908116603f01168101908282118183101715620004275762000427620003b7565b816040528381526020925086838588010111156200044457600080fd5b600091505b8382101562000468578582018301518183018401529082019062000449565b838211156200047a5760008385830101525b9695505050505050565b6000806000606084860312156200049a57600080fd5b83516001600160401b0380821115620004b257600080fd5b620004c087838801620003cd565b94506020860151915080821115620004d757600080fd5b50620004e686828701620003cd565b604086015190935090506001600160a01b03811681146200050657600080fd5b809150509250925092565b634e487b7160e01b600052603260045260246000fd5b60006000198214156200054a57634e487b7160e01b600052601160045260246000fd5b5060010190565b600181811c908216806200056657607f821691505b602082108114156200058857634e487b7160e01b600052602260045260246000fd5b50919050565b611b56806200059e6000396000f3fe608060405234801561001057600080fd5b506004361061012c5760003560e01c8063959b8c3f116100ad578063dcdc7dd011610071578063dcdc7dd01461027f578063dd62ed3e14610292578063fad8b32a146102cb578063fc673c4f146102de578063fe9d9303146102f157600080fd5b8063959b8c3f1461022b57806395d89b411461023e5780639bd9bbc614610246578063a9059cbb14610259578063d95b63711461026c57600080fd5b806323b872dd116100f457806323b872dd146101c4578063313ce567146101d7578063556f0dc7146101e657806362ad1b83146101ed57806370a082311461020257600080fd5b806306e485381461013157806306fdde031461014f5780630754617214610164578063095ea7b31461018f57806318160ddd146101b2575b600080fd5b610139610304565b604051610146919061159c565b60405180910390f35b610157610366565b6040516101469190611636565b600954610177906001600160a01b031681565b6040516001600160a01b039091168152602001610146565b6101a261019d366004611661565b6103ef565b6040519015158152602001610146565b6001545b604051908152602001610146565b6101a26101d236600461168d565b610407565b60405160128152602001610146565b60016101b6565b6102006101fb366004611717565b6105af565b005b6101b66102103660046117b6565b6001600160a01b031660009081526020819052604090205490565b6102006102393660046117b6565b610658565b610157610776565b6102006102543660046117d3565b610785565b6101a2610267366004611661565b6107df565b6101a261027a36600461182f565b6108c2565b61020061028d366004611868565b610964565b6101b66102a036600461182f565b6001600160a01b03918216600090815260086020908152604080832093909416825291909152205490565b6102006102d93660046117b6565b610a51565b6102006102ec366004611868565b610b6d565b6102006102ff3660046118f4565b610c09565b6060600480548060200260200160405190810160405280929190818152602001828054801561035c57602002820191906000526020600020905b81546001600160a01b0316815260019091019060200180831161033e575b5050505050905090565b60606002805461037590611940565b80601f01602080910402602001604051908101604052809291908181526020018280546103a190611940565b801561035c5780601f106103c35761010080835404028352916020019161035c565b820191906000526020600020905b8154815290600101906020018083116103d157509395945050505050565b6000336103fd818585610c5e565b5060019392505050565b60006001600160a01b0383166104645760405162461bcd60e51b815260206004820181905260248201527f4552433737373a207472616e7366657220746f207a65726f206164647265737360448201526064015b60405180910390fd5b6001600160a01b0384166104c55760405162461bcd60e51b815260206004820152602260248201527f4552433737373a207472616e736665722066726f6d207a65726f206164647265604482015261737360f01b606482015260840161045b565b60003390506104f6818686866040518060200160405280600081525060405180602001604052806000815250610d15565b610522818686866040518060200160405280600081525060405180602001604052806000815250610e4b565b610576858261057186604051806060016040528060298152602001611ad5602991396001600160a01b03808c166000908152600860209081526040808320938b16835292905220549190610f6d565b610c5e565b6105a48186868660405180602001604052806000815250604051806020016040528060008152506000610fa7565b506001949350505050565b6105b933886108c2565b6105d55760405162461bcd60e51b815260040161045b9061197b565b61064f3388888888888080601f01602080910402602001604051908101604052809392919081815260200183838082843760009201919091525050604080516020601f8c018190048102820181019092528a815292508a91508990819084018382808284376000920191909152506001925061117b915050565b50505050505050565b336001600160a01b03821614156106bd5760405162461bcd60e51b8152602060048201526024808201527f4552433737373a20617574686f72697a696e672073656c66206173206f70657260448201526330ba37b960e11b606482015260840161045b565b6001600160a01b03811660009081526005602052604090205460ff161561070e573360009081526007602090815260408083206001600160a01b03851684529091529020805460ff1916905561073d565b3360009081526006602090815260408083206001600160a01b03851684529091529020805460ff191660011790555b60405133906001600160a01b038316907ff4caeb2d6ca8932a215a353d0703c326ec2d81fc68170f320eb2ab49e9df61f990600090a350565b60606003805461037590611940565b6107d93333868686868080601f0160208091040260200160405190810160405280939291908181526020018383808284376000920182905250604080516020810190915290815292506001915061117b9050565b50505050565b60006001600160a01b0383166108375760405162461bcd60e51b815260206004820181905260248201527f4552433737373a207472616e7366657220746f207a65726f2061646472657373604482015260640161045b565b6000339050610868818286866040518060200160405280600081525060405180602001604052806000815250610d15565b610894818286866040518060200160405280600081525060405180602001604052806000815250610e4b565b6103fd8182868660405180602001604052806000815250604051806020016040528060008152506000610fa7565b6000816001600160a01b0316836001600160a01b0316148061092d57506001600160a01b03831660009081526005602052604090205460ff16801561092d57506001600160a01b0380831660009081526007602090815260408083209387168352929052205460ff16155b8061095d57506001600160a01b0380831660009081526006602090815260408083209387168352929052205460ff165b9392505050565b6009546001600160a01b0316336001600160a01b0316146109d35760405162461bcd60e51b815260206004820152602360248201527f53696465546f6b656e3a2043616c6c6572206973206e6f7420746865206d696e6044820152623a32b960e91b606482015260840161045b565b610a4933878787878080601f01602080910402602001604051908101604052809392919081815260200183838082843760009201919091525050604080516020601f8b01819004810282018101909252898152925089915088908190840183828082843760009201919091525061125292505050565b505050505050565b6001600160a01b038116331415610ab45760405162461bcd60e51b815260206004820152602160248201527f4552433737373a207265766f6b696e672073656c66206173206f70657261746f6044820152603960f91b606482015260840161045b565b6001600160a01b03811660009081526005602052604090205460ff1615610b08573360009081526007602090815260408083206001600160a01b03851684529091529020805460ff19166001179055610b34565b3360009081526006602090815260408083206001600160a01b03851684529091529020805460ff191690555b60405133906001600160a01b038316907f50546e66e5f44d728365dc3908c63bc5cfeeab470722c1677e3073a6ac294aa190600090a350565b610b7733876108c2565b610b935760405162461bcd60e51b815260040161045b9061197b565b610a4933878787878080601f01602080910402602001604051908101604052809392919081815260200183838082843760009201919091525050604080516020601f8b0181900481028201810190925289815292508991508890819084018382808284376000920191909152506113a092505050565b610c5933338585858080601f0160208091040260200160405190810160405280939291908181526020018383808284376000920182905250604080516020810190915290815292506113a0915050565b505050565b6001600160a01b038216610cb45760405162461bcd60e51b815260206004820152601f60248201527f4552433737373a20617070726f766520746f207a65726f206164647265737300604482015260640161045b565b6001600160a01b0383811660008181526008602090815260408083209487168084529482529182902085905590518481527f8c5be1e5ebec7d5bd14f71427d1e84f3dd0314c0f7b2291e5b200ac8c7c3b925910160405180910390a3505050565b60405163555ddc6560e11b81526001600160a01b03861660048201527f29ddb589b1fb5fc7cf394961c1adf5f8c6454761adf795e67fe149f658abe8956024820152600090731820a4b7618bde71dce8cdc73aab6c95905fad249063aabbb8ca9060440160206040518083038186803b158015610d9157600080fd5b505afa158015610da5573d6000803e3d6000fd5b505050506040513d601f19601f82011682018060405250810190610dc991906119bc565b90506001600160a01b0381161561064f57604051633ad5cbc160e11b81526001600160a01b038216906375ab978290610e10908a908a908a908a908a908a906004016119d9565b600060405180830381600087803b158015610e2a57600080fd5b505af1158015610e3e573d6000803e3d6000fd5b5050505050505050505050565b610e8883604051806060016040528060278152602001611aae602791396001600160a01b0388166000908152602081905260409020549190610f6d565b6001600160a01b038087166000908152602081905260408082209390935590861681522054610eb790846114fb565b6001600160a01b0380861660008181526020819052604090819020939093559151878216918916907f06b541ddaa720db2b10a4d0cdac39b8d360425fc073085fac19bc8261467798790610f1090889088908890611a33565b60405180910390a4836001600160a01b0316856001600160a01b03167fddf252ad1be2c89b69c2b068fc378daa952ba7f163c4a11628f55a4df523b3ef85604051610f5d91815260200190565b60405180910390a3505050505050565b60008184841115610f915760405162461bcd60e51b815260040161045b9190611636565b506000610f9e8486611a7e565b95945050505050565b60405163555ddc6560e11b81526001600160a01b03861660048201527fb281fc8c12954d22544db45de3159a39272895b169a852b314f9cc762e44c53b6024820152600090731820a4b7618bde71dce8cdc73aab6c95905fad249063aabbb8ca9060440160206040518083038186803b15801561102357600080fd5b505afa158015611037573d6000803e3d6000fd5b505050506040513d601f19601f8201168201806040525081019061105b91906119bc565b90506001600160a01b038116156110d7576040516223de2960e01b81526001600160a01b038216906223de29906110a0908b908b908b908b908b908b906004016119d9565b600060405180830381600087803b1580156110ba57600080fd5b505af11580156110ce573d6000803e3d6000fd5b50505050611171565b8115611171576001600160a01b0386163b156111715760405162461bcd60e51b815260206004820152604d60248201527f4552433737373a20746f6b656e20726563697069656e7420636f6e747261637460448201527f20686173206e6f20696d706c656d656e74657220666f7220455243373737546f60648201526c1ad95b9cd49958da5c1a595b9d609a1b608482015260a40161045b565b5050505050505050565b6001600160a01b0386166111d15760405162461bcd60e51b815260206004820152601e60248201527f4552433737373a2073656e642066726f6d207a65726f20616464726573730000604482015260640161045b565b6001600160a01b0385166112275760405162461bcd60e51b815260206004820152601c60248201527f4552433737373a2073656e6420746f207a65726f206164647265737300000000604482015260640161045b565b611235878787878787610d15565b611243878787878787610e4b565b61064f87878787878787610fa7565b6001600160a01b0384166112a85760405162461bcd60e51b815260206004820152601c60248201527f4552433737373a206d696e7420746f207a65726f206164647265737300000000604482015260640161045b565b6001546112b590846114fb565b6001556001600160a01b0384166000908152602081905260409020546112db90846114fb565b6001600160a01b038516600090815260208190526040812091909155611308908690868686866001610fa7565b836001600160a01b0316856001600160a01b03167f2fe5be0146f74c5bce36c0b80911af6c7d86ff27e89d5cfa61fc681327954e5d85858560405161134f93929190611a33565b60405180910390a36040518381526001600160a01b038516906000907fddf252ad1be2c89b69c2b068fc378daa952ba7f163c4a11628f55a4df523b3ef906020015b60405180910390a35050505050565b6001600160a01b0384166113f65760405162461bcd60e51b815260206004820152601e60248201527f4552433737373a206275726e2066726f6d207a65726f20616464726573730000604482015260640161045b565b61140585856000868686610d15565b61144283604051806060016040528060238152602001611afe602391396001600160a01b0387166000908152602081905260409020549190610f6d565b6001600160a01b038516600090815260208190526040902055600154611468908461155a565b600181905550836001600160a01b0316856001600160a01b03167fa78a9be3a7b862d26933ad85fb11d80ef66b8f972d7cbba06621d583943a40988585856040516114b593929190611a33565b60405180910390a36040518381526000906001600160a01b038616907fddf252ad1be2c89b69c2b068fc378daa952ba7f163c4a11628f55a4df523b3ef90602001611391565b6000806115088385611a95565b90508381101561095d5760405162461bcd60e51b815260206004820152601b60248201527f536166654d6174683a206164646974696f6e206f766572666c6f770000000000604482015260640161045b565b600061095d83836040518060400160405280601e81526020017f536166654d6174683a207375627472616374696f6e206f766572666c6f770000815250610f6d565b6020808252825182820181905260009190848201906040850190845b818110156115dd5783516001600160a01b0316835292840192918401916001016115b8565b50909695505050505050565b6000815180845260005b8181101561160f576020818501810151868301820152016115f3565b81811115611621576000602083870101525b50601f01601f19169290920160200192915050565b60208152600061095d60208301846115e9565b6001600160a01b038116811461165e57600080fd5b50565b6000806040838503121561167457600080fd5b823561167f81611649565b946020939093013593505050565b6000806000606084860312156116a257600080fd5b83356116ad81611649565b925060208401356116bd81611649565b929592945050506040919091013590565b60008083601f8401126116e057600080fd5b50813567ffffffffffffffff8111156116f857600080fd5b60208301915083602082850101111561171057600080fd5b9250929050565b600080600080600080600060a0888a03121561173257600080fd5b873561173d81611649565b9650602088013561174d81611649565b955060408801359450606088013567ffffffffffffffff8082111561177157600080fd5b61177d8b838c016116ce565b909650945060808a013591508082111561179657600080fd5b506117a38a828b016116ce565b989b979a50959850939692959293505050565b6000602082840312156117c857600080fd5b813561095d81611649565b600080600080606085870312156117e957600080fd5b84356117f481611649565b935060208501359250604085013567ffffffffffffffff81111561181757600080fd5b611823878288016116ce565b95989497509550505050565b6000806040838503121561184257600080fd5b823561184d81611649565b9150602083013561185d81611649565b809150509250929050565b6000806000806000806080878903121561188157600080fd5b863561188c81611649565b955060208701359450604087013567ffffffffffffffff808211156118b057600080fd5b6118bc8a838b016116ce565b909650945060608901359150808211156118d557600080fd5b506118e289828a016116ce565b979a9699509497509295939492505050565b60008060006040848603121561190957600080fd5b83359250602084013567ffffffffffffffff81111561192757600080fd5b611933868287016116ce565b9497909650939450505050565b600181811c9082168061195457607f821691505b6020821081141561197557634e487b7160e01b600052602260045260246000fd5b50919050565b60208082526021908201527f4552433737373a2063616c6c6572206973206e6f7420616e206f70657261746f6040820152603960f91b606082015260800190565b6000602082840312156119ce57600080fd5b815161095d81611649565b6001600160a01b0387811682528681166020830152851660408201526060810184905260c060808201819052600090611a14908301856115e9565b82810360a0840152611a2681856115e9565b9998505050505050505050565b838152606060208201526000611a4c60608301856115e9565b8281036040840152611a5e81856115e9565b9695505050505050565b634e487b7160e01b600052601160045260246000fd5b600082821015611a9057611a90611a68565b500390565b60008219821115611aa857611aa8611a68565b50019056fe4552433737373a207472616e7366657220616d6f756e7420657863656564732062616c616e63654552433737373a207472616e7366657220616d6f756e74206578636565647320616c6c6f77616e63654552433737373a206275726e20616d6f756e7420657863656564732062616c616e6365a2646970667358221220d599207468b3ad7662c75ca9bc158bdcb36544458e22bf99af0889486fb8b0a464736f6c63430008090033a2646970667358221220b9ce5ea052dbc591f06afbe7425fd3d24ea8414050ee0193959c313433d2d31764736f6c63430008090033",
  "devdoc": {
    "kind": "dev",
    "methods": {
      "primary()": {
        "returns": {
          "_0": "the address of the primary."
        }
      },
      "transferPrimary(address)": {
        "details": "Transfers contract to a new primary.",
        "params": {
          "recipient": "The address of new primary."
        }
      }
    },
    "version": 1
  },
  "userdoc": {
    "kind": "user",
    "methods": {},
    "version": 1
  },
  "storageLayout": {
    "storage": [
      {
        "astId": 12884,
        "contract": "contracts/SideTokenFactory/SideTokenFactoryV1.sol:SideTokenFactoryV1",
        "label": "_primary",
        "offset": 0,
        "slot": "0",
        "type": "t_address"
      }
    ],
    "types": {
      "t_address": {
        "encoding": "inplace",
        "label": "address",
        "numberOfBytes": "20"
      }
    }
  }
}