{
  "address": "0x6b656D4d4C26b993E106f90B2EEbFaf86920f5ef",
  "abi": [
    {
      "anonymous": false,
      "inputs": [
        {
          "indexed": true,
          "internalType": "bytes32",
          "name": "_transactionHash",
          "type": "bytes32"
        },
        {
          "indexed": true,
          "internalType": "address",
          "name": "_originalTokenAddress",
          "type": "address"
        },
        {
          "indexed": true,
          "internalType": "address",
          "name": "_to",
          "type": "address"
        },
        {
          "indexed": false,
          "internalType": "address",
          "name": "_from",
          "type": "address"
        },
        {
          "indexed": false,
          "internalType": "uint256",
          "name": "_amount",
          "type": "uint256"
        },
        {
          "indexed": false,
          "internalType": "bytes32",
          "name": "_blockHash",
          "type": "bytes32"
        },
        {
          "indexed": false,
          "internalType": "uint256",
          "name": "_logIndex",
          "type": "uint256"
        },
        {
          "indexed": false,
          "internalType": "uint256",
          "name": "_originChainId",
          "type": "uint256"
        },
        {
          "indexed": false,
          "internalType": "uint256",
          "name": "_destinationChainId",
          "type": "uint256"
        }
      ],
      "name": "AcceptedCrossTransfer",
      "type": "event"
    },
    {
      "anonymous": false,
      "inputs": [
        {
          "indexed": false,
          "internalType": "address",
          "name": "_newAllowTokens",
          "type": "address"
        }
      ],
      "name": "AllowTokensChanged",
      "type": "event"
    },
    {
      "anonymous": false,
      "inputs": [
        {
          "indexed": true,
          "internalType": "bytes32",
          "name": "_transactionHash",
          "type": "bytes32"
        },
        {
          "indexed": true,
          "internalType": "address",
          "name": "_originalTokenAddress",
          "type": "address"
        },
        {
          "indexed": true,
          "internalType": "address",
          "name": "_to",
          "type": "address"
        },
        {
          "indexed": false,
          "internalType": "address",
          "name": "_sender",
          "type": "address"
        },
        {
          "indexed": false,
          "internalType": "uint256",
          "name": "_amount",
          "type": "uint256"
        },
        {
          "indexed": false,
          "internalType": "bytes32",
          "name": "_blockHash",
          "type": "bytes32"
        },
        {
          "indexed": false,
          "internalType": "uint256",
          "name": "_logIndex",
          "type": "uint256"
        },
        {
          "indexed": false,
          "internalType": "address",
          "name": "_reciever",
          "type": "address"
        },
        {
          "indexed": false,
          "internalType": "address",
          "name": "_relayer",
          "type": "address"
        },
        {
          "indexed": false,
          "internalType": "uint256",
          "name": "_fee",
          "type": "uint256"
        },
        {
          "indexed": false,
          "internalType": "uint256",
          "name": "_destinationChainId",
          "type": "uint256"
        },
        {
          "indexed": false,
          "internalType": "uint256",
          "name": "_originChainId",
          "type": "uint256"
        }
      ],
      "name": "Claimed",
      "type": "event"
    },
    {
      "anonymous": false,
      "inputs": [
        {
          "indexed": true,
          "internalType": "address",
          "name": "_tokenAddress",
          "type": "address"
        },
        {
          "indexed": true,
          "internalType": "address",
          "name": "_to",
          "type": "address"
        },
        {
          "indexed": true,
          "internalType": "uint256",
          "name": "_destinationChainId",
          "type": "uint256"
        },
        {
          "indexed": false,
          "internalType": "address",
          "name": "_from",
          "type": "address"
        },
        {
          "indexed": false,
          "internalType": "uint256",
          "name": "_originChainId",
          "type": "uint256"
        },
        {
          "indexed": false,
          "internalType": "uint256",
          "name": "_amount",
          "type": "uint256"
        },
        {
          "indexed": false,
          "internalType": "bytes",
          "name": "_userData",
          "type": "bytes"
        }
      ],
      "name": "Cross",
      "type": "event"
    },
    {
      "anonymous": false,
      "inputs": [
        {
          "indexed": false,
          "internalType": "address",
          "name": "_newFederation",
          "type": "address"
        }
      ],
      "name": "FederationChanged",
      "type": "event"
    },
    {
      "anonymous": false,
      "inputs": [
        {
          "indexed": false,
          "internalType": "uint256",
          "name": "_amount",
          "type": "uint256"
        }
      ],
      "name": "FeePercentageChanged",
      "type": "event"
    },
    {
      "anonymous": false,
      "inputs": [
        {
          "indexed": true,
          "internalType": "address",
          "name": "_newSideTokenAddress",
          "type": "address"
        },
        {
          "indexed": true,
          "internalType": "address",
          "name": "_originalTokenAddress",
          "type": "address"
        },
        {
          "indexed": false,
          "internalType": "string",
          "name": "_newSymbol",
          "type": "string"
        },
        {
          "indexed": false,
          "internalType": "uint256",
          "name": "_granularity",
          "type": "uint256"
        },
        {
          "indexed": false,
          "internalType": "uint256",
          "name": "_chainId",
          "type": "uint256"
        }
      ],
      "name": "NewSideToken",
      "type": "event"
    },
    {
      "anonymous": false,
      "inputs": [
        {
          "indexed": true,
          "internalType": "address",
          "name": "previousOwner",
          "type": "address"
        },
        {
          "indexed": true,
          "internalType": "address",
          "name": "newOwner",
          "type": "address"
        }
      ],
      "name": "OwnershipTransferred",
      "type": "event"
    },
    {
      "anonymous": false,
      "inputs": [
        {
          "indexed": false,
          "internalType": "address",
          "name": "account",
          "type": "address"
        }
      ],
      "name": "Paused",
      "type": "event"
    },
    {
      "anonymous": false,
      "inputs": [
        {
          "indexed": true,
          "internalType": "address",
          "name": "account",
          "type": "address"
        }
      ],
      "name": "PauserAdded",
      "type": "event"
    },
    {
      "anonymous": false,
      "inputs": [
        {
          "indexed": true,
          "internalType": "address",
          "name": "account",
          "type": "address"
        }
      ],
      "name": "PauserRemoved",
      "type": "event"
    },
    {
      "anonymous": false,
      "inputs": [
        {
          "indexed": false,
          "internalType": "address",
          "name": "_newSideTokenFactory",
          "type": "address"
        }
      ],
      "name": "SideTokenFactoryChanged",
      "type": "event"
    },
    {
      "anonymous": false,
      "inputs": [
        {
          "indexed": false,
          "internalType": "address",
          "name": "account",
          "type": "address"
        }
      ],
      "name": "Unpaused",
      "type": "event"
    },
    {
      "anonymous": false,
      "inputs": [
        {
          "indexed": false,
          "internalType": "bool",
          "name": "_isUpgrading",
          "type": "bool"
        }
      ],
      "name": "Upgrading",
      "type": "event"
    },
    {
      "anonymous": false,
      "inputs": [
        {
          "indexed": false,
          "internalType": "address",
          "name": "_wrappedCurrency",
          "type": "address"
        }
      ],
      "name": "WrappedCurrencyChanged",
      "type": "event"
    },
    {
      "inputs": [],
      "name": "CLAIM_TYPEHASH",
      "outputs": [
        {
          "internalType": "bytes32",
          "name": "",
          "type": "bytes32"
        }
      ],
      "stateMutability": "view",
      "type": "function"
    },
    {
      "inputs": [
        {
          "internalType": "address",
          "name": "sender",
          "type": "address"
        }
      ],
      "name": "__Pausable_init",
      "outputs": [],
      "stateMutability": "nonpayable",
      "type": "function"
    },
    {
      "inputs": [
        {
          "internalType": "address",
          "name": "sender",
          "type": "address"
        }
      ],
      "name": "__PauserRol_init",
      "outputs": [],
      "stateMutability": "nonpayable",
      "type": "function"
    },
    {
      "inputs": [
        {
          "internalType": "address",
          "name": "_originalTokenAddress",
          "type": "address"
        },
        {
          "internalType": "address payable",
          "name": "_from",
          "type": "address"
        },
        {
          "internalType": "address payable",
          "name": "_to",
          "type": "address"
        },
        {
          "internalType": "uint256",
          "name": "_amount",
          "type": "uint256"
        },
        {
          "internalType": "bytes32",
          "name": "_blockHash",
          "type": "bytes32"
        },
        {
          "internalType": "bytes32",
          "name": "_transactionHash",
          "type": "bytes32"
        },
        {
          "internalType": "uint32",
          "name": "_logIndex",
          "type": "uint32"
        },
        {
          "internalType": "uint256",
          "name": "_originChainId",
          "type": "uint256"
        },
        {
          "internalType": "uint256",
          "name": "_destinationChainId",
          "type": "uint256"
        }
      ],
      "name": "acceptTransfer",
      "outputs": [],
      "stateMutability": "nonpayable",
      "type": "function"
    },
    {
      "inputs": [
        {
          "internalType": "address",
          "name": "account",
          "type": "address"
        }
      ],
      "name": "addPauser",
      "outputs": [],
      "stateMutability": "nonpayable",
      "type": "function"
    },
    {
      "inputs": [],
      "name": "allowTokens",
      "outputs": [
        {
          "internalType": "contract IAllowTokens",
          "name": "",
          "type": "address"
        }
      ],
      "stateMutability": "view",
      "type": "function"
    },
    {
      "inputs": [
        {
          "internalType": "address",
          "name": "newAllowTokens",
          "type": "address"
        }
      ],
      "name": "changeAllowTokens",
      "outputs": [],
      "stateMutability": "nonpayable",
      "type": "function"
    },
    {
      "inputs": [
        {
          "internalType": "address",
          "name": "newFederation",
          "type": "address"
        }
      ],
      "name": "changeFederation",
      "outputs": [],
      "stateMutability": "nonpayable",
      "type": "function"
    },
    {
      "inputs": [
        {
          "internalType": "address",
          "name": "newSideTokenFactory",
          "type": "address"
        }
      ],
      "name": "changeSideTokenFactory",
      "outputs": [],
      "stateMutability": "nonpayable",
      "type": "function"
    },
    {
      "inputs": [
        {
          "components": [
            {
              "internalType": "address payable",
              "name": "to",
              "type": "address"
            },
            {
              "internalType": "uint256",
              "name": "amount",
              "type": "uint256"
            },
            {
              "internalType": "bytes32",
              "name": "blockHash",
              "type": "bytes32"
            },
            {
              "internalType": "bytes32",
              "name": "transactionHash",
              "type": "bytes32"
            },
            {
              "internalType": "uint32",
              "name": "logIndex",
              "type": "uint32"
            },
            {
              "internalType": "uint256",
              "name": "originChainId",
              "type": "uint256"
            }
          ],
          "internalType": "struct IBridge.ClaimData",
          "name": "_claimData",
          "type": "tuple"
        }
      ],
      "name": "claim",
      "outputs": [
        {
          "internalType": "uint256",
          "name": "receivedAmount",
          "type": "uint256"
        }
      ],
      "stateMutability": "nonpayable",
      "type": "function"
    },
    {
      "inputs": [
        {
          "components": [
            {
              "internalType": "address payable",
              "name": "to",
              "type": "address"
            },
            {
              "internalType": "uint256",
              "name": "amount",
              "type": "uint256"
            },
            {
              "internalType": "bytes32",
              "name": "blockHash",
              "type": "bytes32"
            },
            {
              "internalType": "bytes32",
              "name": "transactionHash",
              "type": "bytes32"
            },
            {
              "internalType": "uint32",
              "name": "logIndex",
              "type": "uint32"
            },
            {
              "internalType": "uint256",
              "name": "originChainId",
              "type": "uint256"
            }
          ],
          "internalType": "struct IBridge.ClaimData",
          "name": "_claimData",
          "type": "tuple"
        }
      ],
      "name": "claimFallback",
      "outputs": [
        {
          "internalType": "uint256",
          "name": "receivedAmount",
          "type": "uint256"
        }
      ],
      "stateMutability": "nonpayable",
      "type": "function"
    },
    {
      "inputs": [
        {
          "components": [
            {
              "internalType": "address payable",
              "name": "to",
              "type": "address"
            },
            {
              "internalType": "uint256",
              "name": "amount",
              "type": "uint256"
            },
            {
              "internalType": "bytes32",
              "name": "blockHash",
              "type": "bytes32"
            },
            {
              "internalType": "bytes32",
              "name": "transactionHash",
              "type": "bytes32"
            },
            {
              "internalType": "uint32",
              "name": "logIndex",
              "type": "uint32"
            },
            {
              "internalType": "uint256",
              "name": "originChainId",
              "type": "uint256"
            }
          ],
          "internalType": "struct IBridge.ClaimData",
          "name": "_claimData",
          "type": "tuple"
        },
        {
          "internalType": "address payable",
          "name": "_relayer",
          "type": "address"
        },
        {
          "internalType": "uint256",
          "name": "_fee",
          "type": "uint256"
        },
        {
          "internalType": "uint256",
          "name": "_deadline",
          "type": "uint256"
        },
        {
          "internalType": "uint8",
          "name": "_v",
          "type": "uint8"
        },
        {
          "internalType": "bytes32",
          "name": "_r",
          "type": "bytes32"
        },
        {
          "internalType": "bytes32",
          "name": "_s",
          "type": "bytes32"
        }
      ],
      "name": "claimGasless",
      "outputs": [
        {
          "internalType": "uint256",
          "name": "receivedAmount",
          "type": "uint256"
        }
      ],
      "stateMutability": "nonpayable",
      "type": "function"
    },
    {
      "inputs": [
        {
          "internalType": "bytes32",
          "name": "",
          "type": "bytes32"
        }
      ],
      "name": "claimed",
      "outputs": [
        {
          "internalType": "bool",
          "name": "",
          "type": "bool"
        }
      ],
      "stateMutability": "view",
      "type": "function"
    },
    {
      "inputs": [
        {
          "components": [
            {
              "internalType": "uint256",
              "name": "_typeId",
              "type": "uint256"
            },
            {
              "internalType": "address",
              "name": "_originalTokenAddress",
              "type": "address"
            },
            {
              "internalType": "uint8",
              "name": "_originalTokenDecimals",
              "type": "uint8"
            },
            {
              "internalType": "string",
              "name": "_originalTokenSymbol",
              "type": "string"
            },
            {
              "internalType": "string",
              "name": "_originalTokenName",
              "type": "string"
            },
            {
              "internalType": "uint256",
              "name": "_originChainId",
              "type": "uint256"
            }
          ],
          "internalType": "struct IBridge.CreateSideTokenStruct[]",
          "name": "createSideTokenStruct",
          "type": "tuple[]"
        }
      ],
      "name": "createMultipleSideTokens",
      "outputs": [],
      "stateMutability": "nonpayable",
      "type": "function"
    },
    {
      "inputs": [
        {
          "internalType": "uint256",
          "name": "_typeId",
          "type": "uint256"
        },
        {
          "internalType": "address",
          "name": "_originalTokenAddress",
          "type": "address"
        },
        {
          "internalType": "uint8",
          "name": "_originalTokenDecimals",
          "type": "uint8"
        },
        {
          "internalType": "string",
          "name": "_tokenSymbol",
          "type": "string"
        },
        {
          "internalType": "string",
          "name": "_tokenName",
          "type": "string"
        },
        {
          "internalType": "uint256",
          "name": "_originChainId",
          "type": "uint256"
        }
      ],
      "name": "createSideToken",
      "outputs": [],
      "stateMutability": "nonpayable",
      "type": "function"
    },
    {
      "inputs": [
        {
          "internalType": "uint256",
          "name": "chainId",
          "type": "uint256"
        },
        {
          "internalType": "address",
          "name": "to",
          "type": "address"
        }
      ],
      "name": "depositTo",
      "outputs": [],
      "stateMutability": "payable",
      "type": "function"
    },
    {
      "inputs": [
        {
          "internalType": "address",
          "name": "",
          "type": "address"
        }
      ],
      "name": "deprecatedKnownTokens",
      "outputs": [
        {
          "internalType": "bool",
          "name": "",
          "type": "bool"
        }
      ],
      "stateMutability": "view",
      "type": "function"
    },
    {
      "inputs": [
        {
          "internalType": "address",
          "name": "",
          "type": "address"
        }
      ],
      "name": "deprecatedMappedTokens",
      "outputs": [
        {
          "internalType": "address",
          "name": "",
          "type": "address"
        }
      ],
      "stateMutability": "view",
      "type": "function"
    },
    {
      "inputs": [
        {
          "internalType": "address",
          "name": "",
          "type": "address"
        }
      ],
      "name": "deprecatedOriginalTokens",
      "outputs": [
        {
          "internalType": "address",
          "name": "",
          "type": "address"
        }
      ],
      "stateMutability": "view",
      "type": "function"
    },
    {
      "inputs": [],
      "name": "deprecatedSymbolPrefix",
      "outputs": [
        {
          "internalType": "string",
          "name": "",
          "type": "string"
        }
      ],
      "stateMutability": "view",
      "type": "function"
    },
    {
      "inputs": [],
      "name": "domainSeparator",
      "outputs": [
        {
          "internalType": "bytes32",
          "name": "",
          "type": "bytes32"
        }
      ],
      "stateMutability": "view",
      "type": "function"
    },
    {
      "inputs": [],
      "name": "feePercentageDivider",
      "outputs": [
        {
          "internalType": "uint256",
          "name": "",
          "type": "uint256"
        }
      ],
      "stateMutability": "view",
      "type": "function"
    },
    {
      "inputs": [],
      "name": "getFederation",
      "outputs": [
        {
          "internalType": "address",
          "name": "",
          "type": "address"
        }
      ],
      "stateMutability": "view",
      "type": "function"
    },
    {
      "inputs": [],
      "name": "getFeePercentage",
      "outputs": [
        {
          "internalType": "uint256",
          "name": "",
          "type": "uint256"
        }
      ],
      "stateMutability": "view",
      "type": "function"
    },
    {
      "inputs": [
        {
          "internalType": "address",
          "name": "sideToken",
          "type": "address"
        }
      ],
      "name": "getOriginalTokenBySideToken",
      "outputs": [
        {
          "components": [
            {
              "internalType": "address",
              "name": "tokenAddress",
              "type": "address"
            },
            {
              "internalType": "uint256",
              "name": "originChainId",
              "type": "uint256"
            }
          ],
          "internalType": "struct IBridge.OriginalToken",
          "name": "originalToken",
          "type": "tuple"
        }
      ],
      "stateMutability": "view",
      "type": "function"
    },
    {
      "inputs": [
        {
          "internalType": "address",
          "name": "_to",
          "type": "address"
        },
        {
          "internalType": "uint256",
          "name": "_amount",
          "type": "uint256"
        },
        {
          "internalType": "bytes32",
          "name": "_blockHash",
          "type": "bytes32"
        },
        {
          "internalType": "bytes32",
          "name": "_transactionHash",
          "type": "bytes32"
        },
        {
          "internalType": "uint32",
          "name": "_logIndex",
          "type": "uint32"
        },
        {
          "internalType": "uint256",
          "name": "_originChainId",
          "type": "uint256"
        },
        {
          "internalType": "uint256",
          "name": "_destinationChainId",
          "type": "uint256"
        }
      ],
      "name": "getTransactionDataHash",
      "outputs": [
        {
          "internalType": "bytes32",
          "name": "",
          "type": "bytes32"
        }
      ],
      "stateMutability": "pure",
      "type": "function"
    },
    {
      "inputs": [
        {
          "internalType": "bytes32",
          "name": "transactionHash",
          "type": "bytes32"
        }
      ],
      "name": "hasBeenClaimed",
      "outputs": [
        {
          "internalType": "bool",
          "name": "",
          "type": "bool"
        }
      ],
      "stateMutability": "view",
      "type": "function"
    },
    {
      "inputs": [
        {
          "internalType": "bytes32",
          "name": "transactionHash",
          "type": "bytes32"
        }
      ],
      "name": "hasCrossed",
      "outputs": [
        {
          "internalType": "bool",
          "name": "",
          "type": "bool"
        }
      ],
      "stateMutability": "view",
      "type": "function"
    },
    {
      "inputs": [],
      "name": "initDomainSeparator",
      "outputs": [],
      "stateMutability": "nonpayable",
      "type": "function"
    },
    {
      "inputs": [],
      "name": "initialize",
      "outputs": [],
      "stateMutability": "nonpayable",
      "type": "function"
    },
    {
      "inputs": [
        {
          "internalType": "address",
          "name": "sender",
          "type": "address"
        }
      ],
      "name": "initialize",
      "outputs": [],
      "stateMutability": "nonpayable",
      "type": "function"
    },
    {
      "inputs": [
        {
          "internalType": "address",
          "name": "_manager",
          "type": "address"
        },
        {
          "internalType": "address",
          "name": "_federation",
          "type": "address"
        },
        {
          "internalType": "address",
          "name": "_allowTokens",
          "type": "address"
        },
        {
          "internalType": "address",
          "name": "_sideTokenFactory",
          "type": "address"
        }
      ],
      "name": "initialize",
      "outputs": [],
      "stateMutability": "nonpayable",
      "type": "function"
    },
    {
      "inputs": [
        {
          "components": [
            {
              "internalType": "address payable",
              "name": "to",
              "type": "address"
            },
            {
              "internalType": "uint256",
              "name": "amount",
              "type": "uint256"
            },
            {
              "internalType": "bytes32",
              "name": "blockHash",
              "type": "bytes32"
            },
            {
              "internalType": "bytes32",
              "name": "transactionHash",
              "type": "bytes32"
            },
            {
              "internalType": "uint32",
              "name": "logIndex",
              "type": "uint32"
            },
            {
              "internalType": "uint256",
              "name": "originChainId",
              "type": "uint256"
            }
          ],
          "internalType": "struct IBridge.ClaimData",
          "name": "_claimData",
          "type": "tuple"
        },
        {
          "internalType": "bytes32",
          "name": "transactionDataHashMultichain",
          "type": "bytes32"
        }
      ],
      "name": "isClaimed",
      "outputs": [
        {
          "internalType": "bool",
          "name": "",
          "type": "bool"
        }
      ],
      "stateMutability": "view",
      "type": "function"
    },
    {
      "inputs": [
        {
          "internalType": "bytes32",
          "name": "transactionDataHash",
          "type": "bytes32"
        },
        {
          "internalType": "bytes32",
          "name": "transactionDataHashMultichain",
          "type": "bytes32"
        }
      ],
      "name": "isClaimed",
      "outputs": [
        {
          "internalType": "bool",
          "name": "",
          "type": "bool"
        }
      ],
      "stateMutability": "view",
      "type": "function"
    },
    {
      "inputs": [],
      "name": "isOwner",
      "outputs": [
        {
          "internalType": "bool",
          "name": "",
          "type": "bool"
        }
      ],
      "stateMutability": "view",
      "type": "function"
    },
    {
      "inputs": [
        {
          "internalType": "address",
          "name": "account",
          "type": "address"
        }
      ],
      "name": "isPauser",
      "outputs": [
        {
          "internalType": "bool",
          "name": "",
          "type": "bool"
        }
      ],
      "stateMutability": "view",
      "type": "function"
    },
    {
      "inputs": [],
      "name": "isUpgrading",
      "outputs": [
        {
          "internalType": "bool",
          "name": "",
          "type": "bool"
        }
      ],
      "stateMutability": "view",
      "type": "function"
    },
    {
      "inputs": [
        {
          "internalType": "uint256",
          "name": "chainId",
          "type": "uint256"
        },
        {
          "internalType": "address",
          "name": "originalToken",
          "type": "address"
        }
      ],
      "name": "knownToken",
      "outputs": [
        {
          "internalType": "bool",
          "name": "",
          "type": "bool"
        }
      ],
      "stateMutability": "view",
      "type": "function"
    },
    {
      "inputs": [
        {
          "internalType": "uint256",
          "name": "",
          "type": "uint256"
        },
        {
          "internalType": "address",
          "name": "",
          "type": "address"
        }
      ],
      "name": "knownTokenByChain",
      "outputs": [
        {
          "internalType": "bool",
          "name": "",
          "type": "bool"
        }
      ],
      "stateMutability": "view",
      "type": "function"
    },
    {
      "inputs": [
        {
          "internalType": "address",
          "name": "",
          "type": "address"
        }
      ],
      "name": "nonces",
      "outputs": [
        {
          "internalType": "uint256",
          "name": "",
          "type": "uint256"
        }
      ],
      "stateMutability": "view",
      "type": "function"
    },
    {
      "inputs": [
        {
          "internalType": "bytes32",
          "name": "",
          "type": "bytes32"
        }
      ],
      "name": "originalTokenAddresses",
      "outputs": [
        {
          "internalType": "address",
          "name": "",
          "type": "address"
        }
      ],
      "stateMutability": "view",
      "type": "function"
    },
    {
      "inputs": [
        {
          "internalType": "address",
          "name": "",
          "type": "address"
        }
      ],
      "name": "originalTokenBySideToken",
      "outputs": [
        {
          "internalType": "address",
          "name": "tokenAddress",
          "type": "address"
        },
        {
          "internalType": "uint256",
          "name": "originChainId",
          "type": "uint256"
        }
      ],
      "stateMutability": "view",
      "type": "function"
    },
    {
      "inputs": [],
      "name": "owner",
      "outputs": [
        {
          "internalType": "address",
          "name": "",
          "type": "address"
        }
      ],
      "stateMutability": "view",
      "type": "function"
    },
    {
      "inputs": [],
      "name": "pause",
      "outputs": [],
      "stateMutability": "nonpayable",
      "type": "function"
    },
    {
      "inputs": [],
      "name": "paused",
      "outputs": [
        {
          "internalType": "bool",
          "name": "",
          "type": "bool"
        }
      ],
      "stateMutability": "view",
      "type": "function"
    },
    {
      "inputs": [
        {
          "internalType": "uint256",
          "name": "destinationChainId",
          "type": "uint256"
        },
        {
          "internalType": "address",
          "name": "tokenToUse",
          "type": "address"
        },
        {
          "internalType": "address",
          "name": "to",
          "type": "address"
        },
        {
          "internalType": "uint256",
          "name": "amount",
          "type": "uint256"
        }
      ],
      "name": "receiveTokensTo",
      "outputs": [],
      "stateMutability": "nonpayable",
      "type": "function"
    },
    {
      "inputs": [],
      "name": "renounceOwnership",
      "outputs": [],
      "stateMutability": "nonpayable",
      "type": "function"
    },
    {
      "inputs": [],
      "name": "renouncePauser",
      "outputs": [],
      "stateMutability": "nonpayable",
      "type": "function"
    },
    {
      "inputs": [
        {
          "internalType": "bytes32",
          "name": "",
          "type": "bytes32"
        }
      ],
      "name": "senderAddresses",
      "outputs": [
        {
          "internalType": "address",
          "name": "",
          "type": "address"
        }
      ],
      "stateMutability": "view",
      "type": "function"
    },
    {
      "inputs": [
        {
          "internalType": "uint256",
          "name": "amount",
          "type": "uint256"
        }
      ],
      "name": "setFeePercentage",
      "outputs": [],
      "stateMutability": "nonpayable",
      "type": "function"
    },
    {
      "inputs": [
        {
          "internalType": "address",
          "name": "sideToken",
          "type": "address"
        },
        {
          "components": [
            {
              "internalType": "address",
              "name": "tokenAddress",
              "type": "address"
            },
            {
              "internalType": "uint256",
              "name": "originChainId",
              "type": "uint256"
            }
          ],
          "internalType": "struct IBridge.OriginalToken",
          "name": "originalToken",
          "type": "tuple"
        }
      ],
      "name": "setOriginalTokenBySideTokenByChain",
      "outputs": [],
      "stateMutability": "nonpayable",
      "type": "function"
    },
    {
      "inputs": [
        {
          "internalType": "uint256",
          "name": "chainId",
          "type": "uint256"
        },
        {
          "internalType": "address",
          "name": "originalToken",
          "type": "address"
        },
        {
          "internalType": "address",
          "name": "sideToken",
          "type": "address"
        }
      ],
      "name": "setSideTokenByOriginalAddressByChain",
      "outputs": [],
      "stateMutability": "nonpayable",
      "type": "function"
    },
    {
      "inputs": [
        {
          "internalType": "bool",
          "name": "_isUpgrading",
          "type": "bool"
        }
      ],
      "name": "setUpgrading",
      "outputs": [],
      "stateMutability": "nonpayable",
      "type": "function"
    },
    {
      "inputs": [
        {
          "internalType": "address",
          "name": "_wrappedCurrency",
          "type": "address"
        }
      ],
      "name": "setWrappedCurrency",
      "outputs": [],
      "stateMutability": "nonpayable",
      "type": "function"
    },
    {
      "inputs": [
        {
          "internalType": "uint256",
          "name": "chainId",
          "type": "uint256"
        },
        {
          "internalType": "address",
          "name": "originalToken",
          "type": "address"
        }
      ],
      "name": "sideTokenByOriginalToken",
      "outputs": [
        {
          "internalType": "address",
          "name": "",
          "type": "address"
        }
      ],
      "stateMutability": "view",
      "type": "function"
    },
    {
      "inputs": [
        {
          "internalType": "uint256",
          "name": "",
          "type": "uint256"
        },
        {
          "internalType": "address",
          "name": "",
          "type": "address"
        }
      ],
      "name": "sideTokenByOriginalTokenByChain",
      "outputs": [
        {
          "internalType": "address",
          "name": "",
          "type": "address"
        }
      ],
      "stateMutability": "view",
      "type": "function"
    },
    {
      "inputs": [],
      "name": "sideTokenFactory",
      "outputs": [
        {
          "internalType": "contract ISideTokenFactory",
          "name": "",
          "type": "address"
        }
      ],
      "stateMutability": "view",
      "type": "function"
    },
    {
      "inputs": [
        {
          "internalType": "address",
          "name": "operator",
          "type": "address"
        },
        {
          "internalType": "address",
          "name": "from",
          "type": "address"
        },
        {
          "internalType": "address",
          "name": "to",
          "type": "address"
        },
        {
          "internalType": "uint256",
          "name": "amount",
          "type": "uint256"
        },
        {
          "internalType": "bytes",
          "name": "userData",
          "type": "bytes"
        },
        {
          "internalType": "bytes",
          "name": "",
          "type": "bytes"
        }
      ],
      "name": "tokensReceived",
      "outputs": [],
      "stateMutability": "nonpayable",
      "type": "function"
    },
    {
      "inputs": [
        {
          "internalType": "bytes32",
          "name": "",
          "type": "bytes32"
        }
      ],
      "name": "transactionsDataHashes",
      "outputs": [
        {
          "internalType": "bytes32",
          "name": "",
          "type": "bytes32"
        }
      ],
      "stateMutability": "view",
      "type": "function"
    },
    {
      "inputs": [
        {
          "internalType": "address",
          "name": "newOwner",
          "type": "address"
        }
      ],
      "name": "transferOwnership",
      "outputs": [],
      "stateMutability": "nonpayable",
      "type": "function"
    },
    {
      "inputs": [],
      "name": "unpause",
      "outputs": [],
      "stateMutability": "nonpayable",
      "type": "function"
    },
    {
      "inputs": [],
      "name": "version",
      "outputs": [
        {
          "internalType": "string",
          "name": "",
          "type": "string"
        }
      ],
      "stateMutability": "pure",
      "type": "function"
    },
    {
      "inputs": [],
      "name": "wrappedCurrency",
      "outputs": [
        {
          "internalType": "contract IWrapped",
          "name": "",
          "type": "address"
        }
      ],
      "stateMutability": "view",
      "type": "function"
    },
    {
      "stateMutability": "payable",
      "type": "receive"
    }
  ],
  "transactionHash": "0xfa37df5e6b402721b8a423d38c83377a057b2787b52d3d4a5614d8a8697f3bc5",
  "args": [],
  "numDeployments": 1,
  "solcInputHash": "257bf35cfef475bad06cad6d9dd245f2",
  "bytecode": "0x608060405234801561001057600080fd5b50614e8d806100206000396000f3fe6080604052600436106103bb5760003560e01c806382a0b8cb116101f2578063c4d66de81161010d578063e4e5bbcb116100a0578063f2fde38b1161006f578063f2fde38b14610ce0578063f698da2514610d00578063f8c8765e14610d16578063fa0caa1614610d3657600080fd5b8063e4e5bbcb14610c6c578063e6fc774414610c8c578063ea21709114610ca2578063eb16136f14610cc057600080fd5b8063d12e825d116100dc578063d12e825d14610be8578063d3401a2214610bfd578063da67703714610c1d578063e07801d014610c4c57600080fd5b8063c4d66de814610b42578063ca07140c14610b62578063cbc7328014610b98578063cc3c0f0614610bb857600080fd5b8063a53d6e6e11610185578063b0e1268e11610154578063b0e1268e14610a9d578063b794726214610abd578063b86f60d214610ade578063b984a40414610afe57600080fd5b8063a53d6e6e14610a1d578063a89f298a14610a3d578063ae06c1b714610a5d578063b048c4fb14610a7d57600080fd5b80638ca01082116101c15780638ca010821461099f5780638da5cb5b146109b45780638f32d59b146109d7578063916dc59d146109fd57600080fd5b806382a0b8cb1461091a57806382dc1ec41461094a5780638456cb591461096a57806388710e2e1461097f57600080fd5b80633f4ba83a116102e25780636b0509b1116102755780637a0ab28f116102445780637a0ab28f146108435780637a98187b146108795780637ecebe00146108d85780638129fc1c1461090557600080fd5b80636b0509b1146107d25780636ef8d66d1461080657806370aff70f1461081b578063715018a61461082e57600080fd5b80634c739509116102b15780634c7395091461074657806354fd4d50146107665780635c975abb1461079a578063615bfd6e146107b257600080fd5b80633f4ba83a146106d157806342cdb2c6146106e657806346fbf68e1461070657806347f8bbd41461072657600080fd5b806322f89ba41161035a5780633a1cbbcb116103295780633a1cbbcb146105ec5780633c3f63f41461063a5780633c7e0cb71461067b5780633cf3058b1461069b57600080fd5b806322f89ba4146105245780632f3cca4e1461056f5780633500c1dc1461058f57806337e76109146105af57600080fd5b80630ed928af116103965780630ed928af146104af5780630ef1335c146104cf57806311efbf61146104ef578063122aa5d41461050457600080fd5b806223de291461042f578063026976191461044f57806307c8f7b01461048f57600080fd5b3661042a576041546001600160a01b0316336001600160a01b0316146104285760405162461bcd60e51b815260206004820152601b60248201527f4272696467653a206e6f74207772617070656443757272656e6379000000000060448201526064015b60405180910390fd5b005b600080fd5b34801561043b57600080fd5b5061042861044a36600461424b565b610d56565b34801561045b57600080fd5b5061047c61046a3660046142fc565b60426020526000908152604090205481565b6040519081526020015b60405180910390f35b34801561049b57600080fd5b506104286104aa366004614323565b6110b1565b3480156104bb57600080fd5b5061047c6104ca366004614358565b611140565b3480156104db57600080fd5b5061047c6104ea366004614358565b611161565b3480156104fb57600080fd5b5060375461047c565b34801561051057600080fd5b5061042861051f36600461438d565b6111d8565b34801561053057600080fd5b5061055f61053f366004614418565b604860209081526000928352604080842090915290825290205460ff1681565b6040519015158152602001610486565b34801561057b57600080fd5b5061042861058a366004614448565b611616565b34801561059b57600080fd5b506104286105aa366004614448565b611696565b3480156105bb57600080fd5b5061055f6105ca3660046142fc565b6000908152604260209081526040808320548352603e90915290205460ff1690565b3480156105f857600080fd5b50610622610607366004614448565b603b602052600090815260409020546001600160a01b031681565b6040516001600160a01b039091168152602001610486565b34801561064657600080fd5b50610622610655366004614418565b60466020908152600092835260408084209091529082529020546001600160a01b031681565b34801561068757600080fd5b50610428610696366004614465565b611768565b3480156106a757600080fd5b506106226106b63660046142fc565b6044602052600090815260409020546001600160a01b031681565b3480156106dd57600080fd5b506104286118e2565b3480156106f257600080fd5b50610428610701366004614448565b61199a565b34801561071257600080fd5b5061055f610721366004614448565b611a7b565b34801561073257600080fd5b506104286107413660046144da565b611a88565b34801561075257600080fd5b50610428610761366004614565565b611af9565b34801561077257600080fd5b506040805180820190915260028152611d8d60f21b60208201525b60405161048691906145ff565b3480156107a657600080fd5b5060345460ff1661055f565b3480156107be57600080fd5b5061055f6107cd366004614612565b611b69565b3480156107de57600080fd5b5061047c7faf3ac34fea9cc1b1def33a9bdc482d988feb61b5015ae4a55e2a62bb3600d54c81565b34801561081257600080fd5b50610428611bd6565b610428610829366004614418565b611be1565b34801561083a57600080fd5b50610428611cd6565b34801561084f57600080fd5b5061062261085e366004614448565b603c602052600090815260409020546001600160a01b031681565b34801561088557600080fd5b506108b9610894366004614448565b604760205260009081526040902080546001909101546001600160a01b039091169082565b604080516001600160a01b039093168352602083019190915201610486565b3480156108e457600080fd5b5061047c6108f3366004614448565b60456020526000908152604090205481565b34801561091157600080fd5b50610428611d5b565b34801561092657600080fd5b5061055f610935366004614448565b603d6020526000908152604090205460ff1681565b34801561095657600080fd5b50610428610965366004614448565b611dcc565b34801561097657600080fd5b50610428611dfa565b34801561098b57600080fd5b5061047c61099a36600461464e565b611e77565b3480156109ab57600080fd5b5061078d611ff2565b3480156109c057600080fd5b5060345461010090046001600160a01b0316610622565b3480156109e357600080fd5b5061055f60345461010090046001600160a01b0316331490565b348015610a0957600080fd5b50610428610a18366004614448565b612080565b348015610a2957600080fd5b50603f54610622906001600160a01b031681565b348015610a4957600080fd5b5061047c610a583660046146c0565b612159565b348015610a6957600080fd5b50610428610a783660046142fc565b6121cb565b348015610a8957600080fd5b5061055f610a98366004614725565b612290565b348015610aa957600080fd5b50604154610622906001600160a01b031681565b348015610ac957600080fd5b5060405461055f90600160a01b900460ff1681565b348015610aea57600080fd5b50604054610622906001600160a01b031681565b348015610b0a57600080fd5b50610b1e610b19366004614448565b6122c2565b6040805182516001600160a01b031681526020928301519281019290925201610486565b348015610b4e57600080fd5b50610428610b5d366004614448565b612341565b348015610b6e57600080fd5b50610622610b7d3660046142fc565b6043602052600090815260409020546001600160a01b031681565b348015610ba457600080fd5b50610428610bb3366004614747565b612403565b348015610bc457600080fd5b5061055f610bd33660046142fc565b603e6020526000908152604090205460ff1681565b348015610bf457600080fd5b50610428612448565b348015610c0957600080fd5b50610622610c18366004614418565b6124ef565b348015610c2957600080fd5b5061055f610c383660046142fc565b600090815260426020526040902054151590565b348015610c5857600080fd5b5061055f610c67366004614418565b612542565b348015610c7857600080fd5b50610428610c873660046147eb565b612597565b348015610c9857600080fd5b5061047c61271081565b348015610cae57600080fd5b506036546001600160a01b0316610622565b348015610ccc57600080fd5b50610428610cdb366004614448565b6125d1565b348015610cec57600080fd5b50610428610cfb366004614448565b612653565b348015610d0c57600080fd5b5061047c60395481565b348015610d2257600080fd5b50610428610d31366004614833565b612691565b348015610d4257600080fd5b50610428610d51366004614448565b6127e6565b6001600160a01b038816301415610d6c576110a7565b6001600160a01b0386163014610dc45760405162461bcd60e51b815260206004820152601b60248201527f4272696467653a204e6f7420746f207468697320616464726573730000000000604482015260640161041f565b60003360405163555ddc6560e11b81526001600160a01b03821660048201527fac7fbab5f54a3ca8194167523c6753bfeb96a445279294b6125b68cce21770546024820152909150600090731820a4b7618bde71dce8cdc73aab6c95905fad249063aabbb8ca9060440160206040518083038186803b158015610e4657600080fd5b505afa158015610e5a573d6000803e3d6000fd5b505050506040513d601f19601f82011682018060405250810190610e7e919061488f565b6001600160a01b03161415610ed55760405162461bcd60e51b815260206004820152601860248201527f4272696467653a204e6f742045524337373720746f6b656e0000000000000000604482015260640161041f565b6020841015610f455760405162461bcd60e51b815260206004820152603660248201527f4272696467653a207573657220646174612077697468206174206c65617374206044820152751d1a194819195cdd1a5b985d1a5bdb90da185a5b925960521b606482015260840161041f565b6040841480610f5c57506001600160a01b0388163b155b610fb95760405162461bcd60e51b815260206004820152602860248201527f4272696467653a2053706563696679207265636569766572206164647265737360448201526720696e206461746160c01b606482015260840161041f565b60006020851461100a5761100586868080601f016020809104026020016040519081016040528093929190818152602001838380828437600092019190915250600c92506128bf915050565b61100c565b885b9050600061105c87878080601f0160208091040260200160405190810160405280939291908181526020018383808284376000920191909152506110579250602091508a90506148c2565b61292c565b90506110a3838b848b8b8b8080601f016020809104026020016040519081016040528093929190818152602001838380828437600092019190915250899250612992915050565b5050505b5050505050505050565b6110ca60345461010090046001600160a01b0316331490565b6110e65760405162461bcd60e51b815260040161041f906148d9565b6040805460ff60a01b1916600160a01b831515810291909117808355915160ff9190920416151581527f983e436223c000a441c2443b394ca5fb4669a513fe86dc1dd44494047b514ad9906020015b60405180910390a150565b600061115b826111536020820182614448565b600080612d52565b92915050565b60608101356000908152604460205260408120546001600160a01b0316336001600160a01b0316146111ce5760405162461bcd60e51b8152602060048201526016602482015275213934b233b29d1034b73b30b634b21039b2b73232b960511b604482015260640161041f565b61115b8233611153565b60345460ff16156111fb5760405162461bcd60e51b815260040161041f9061490e565b60016035600082825461120e9190614938565b90915550506035546036546001600160a01b0316336001600160a01b0316146112725760405162461bcd60e51b8152602060048201526016602482015275213934b233b29d102737ba102332b232b930ba34b7b760511b604482015260640161041f565b61127b83612f3d565b61128482612f84565b61128e838b612542565b806112ac575060006112a0848c6124ef565b6001600160a01b031614155b6112f05760405162461bcd60e51b8152602060048201526015602482015274213934b233b29d102ab735b737bbb7103a37b5b2b760591b604482015260640161041f565b6001600160a01b0388166113385760405162461bcd60e51b815260206004820152600f60248201526e4272696467653a204e756c6c20546f60881b604482015260640161041f565b6000871161137b5760405162461bcd60e51b815260206004820152601060248201526f04272696467653a20416d6f756e7420360841b604482015260640161041f565b856113c15760405162461bcd60e51b8152602060048201526016602482015275084e4d2c8ceca74409cead8d84084d8dec6d690c2e6d60531b604482015260640161041f565b846114045760405162461bcd60e51b8152602060048201526013602482015272084e4d2c8ceca74409cead8d840a8f090c2e6d606b1b604482015260640161041f565b600085815260426020526040902054156114605760405162461bcd60e51b815260206004820152601860248201527f4272696467653a20416c72656164792061636365707465640000000000000000604482015260640161041f565b600061146f8989898989612fd3565b905060006114828a8a8a8a8a8a8a612159565b905061148e8282612290565b156114d55760405162461bcd60e51b8152602060048201526017602482015276109c9a5919d94e88105b1c9958591e4818db185a5b5959604a1b604482015260640161041f565b8060426000898152602001908152602001600020819055508b6043600089815260200190815260200160002060006101000a8154816001600160a01b0302191690836001600160a01b031602179055508a6044600089815260200190815260200160002060006101000a8154816001600160a01b0302191690836001600160a01b03160217905550896001600160a01b03168c6001600160a01b0316887fddae5e892ad96ac0e35e9018a1a3e32ecd7f3dfe55ea34d9ab1e8faecd6ccb5a8e8d8d8c8c8c6040516115df969594939291906001600160a01b039690961686526020860194909452604085019290925263ffffffff166060840152608083015260a082015260c00190565b60405180910390a45050603554811461160a5760405162461bcd60e51b815260040161041f90614950565b50505050505050505050565b600054610100900460ff168061162f575060005460ff16155b61164b5760405162461bcd60e51b815260040161041f90614995565b600054610100900460ff1615801561166d576000805461ffff19166101011790555b611676826125d1565b6034805460ff191690558015611692576000805461ff00191690555b5050565b6116af60345461010090046001600160a01b0316331490565b6116cb5760405162461bcd60e51b815260040161041f906148d9565b6001600160a01b03811661171a5760405162461bcd60e51b81526020600482015260166024820152754272696467653a20777261707020697320656d70747960501b604482015260640161041f565b604180546001600160a01b0319166001600160a01b0383169081179091556040519081527f0966c958966f6fac9ff807af074f8117eb2e9ce2b76390db7a158e9bdeb2485c90602001611135565b61178160345461010090046001600160a01b0316331490565b61179d5760405162461bcd60e51b815260040161041f906148d9565b60005b818110156118dd576118cb8383838181106117bd576117bd6149dd565b90506020028101906117cf91906149f3565b358484848181106117e2576117e26149dd565b90506020028101906117f491906149f3565b611805906040810190602001614448565b858585818110611817576118176149dd565b905060200281019061182991906149f3565b61183a906060810190604001614a13565b86868681811061184c5761184c6149dd565b905060200281019061185e91906149f3565b61186c906060810190614a2e565b88888881811061187e5761187e6149dd565b905060200281019061189091906149f3565b61189e906080810190614a2e565b8a8a8a8181106118b0576118b06149dd565b90506020028101906118c291906149f3565b60a0013561303e565b806118d581614a75565b9150506117a0565b505050565b6118eb33611a7b565b6119075760405162461bcd60e51b815260040161041f90614a90565b60345460ff166119505760405162461bcd60e51b815260206004820152601460248201527314185d5cd8589b194e881b9bdd081c185d5cd95960621b604482015260640161041f565b6034805460ff191690557f5db9ee0a495bf2e6ff9c91a7834c1ba4fdd244a5e8aa4e537bd38aeae4b073aa335b6040516001600160a01b03909116815260200160405180910390a1565b6119b360345461010090046001600160a01b0316331490565b6119cf5760405162461bcd60e51b815260040161041f906148d9565b6001600160a01b038116611a2f5760405162461bcd60e51b815260206004820152602160248201527f4272696467653a2053696465546f6b656e466163746f727920697320656d70746044820152607960f81b606482015260840161041f565b604080546001600160a01b0319166001600160a01b038316908117825590519081527f619936bc6e3618d0b8dc69bcc70134fe9d88f9967f3a8b8304e318369252162590602001611135565b600061115b60338361327e565b611aa160345461010090046001600160a01b0316331490565b611abd5760405162461bcd60e51b815260040161041f906148d9565b6001600160a01b039182166000908152604760209081526040909120825181546001600160a01b03191694169390931783550151600190910155565b611b1260345461010090046001600160a01b0316331490565b611b2e5760405162461bcd60e51b815260040161041f906148d9565b60009283526046602090815260408085206001600160a01b0394851686529091529092208054919092166001600160a01b0319909116179055565b600080611ba0611b7c6020860186614448565b602086013560408701356060880135611b9b60a08a0160808b01614ad8565b612fd3565b6000818152603e602052604090205490915060ff1680611bce57506000838152603e602052604090205460ff165b949350505050565b611bdf33613301565b565b60415433906001600160a01b0316611c3b5760405162461bcd60e51b815260206004820152601d60248201527f4272696467653a207772617070656443757272656e637920656d707479000000604482015260640161041f565b604160009054906101000a90046001600160a01b03166001600160a01b031663d0e30db0346040518263ffffffff1660e01b81526004016000604051808303818588803b158015611c8b57600080fd5b505af1158015611c9f573d6000803e3d6000fd5b50505050506118dd604160009054906101000a90046001600160a01b03168284346040518060200160405280600081525088612992565b611cef60345461010090046001600160a01b0316331490565b611d0b5760405162461bcd60e51b815260040161041f906148d9565b60345460405160009161010090046001600160a01b0316907f8be0079c531659141344cd1fd0a4f28419497f9722a3daafe3b4186f6b6457e0908390a360348054610100600160a81b0319169055565b600054610100900460ff1680611d74575060005460ff16155b611d905760405162461bcd60e51b815260040161041f90614995565b600054610100900460ff16158015611db2576000805461ffff19166101011790555b60016035558015611dc9576000805461ff00191690555b50565b611dd533611a7b565b611df15760405162461bcd60e51b815260040161041f90614a90565b611dc981613343565b611e0333611a7b565b611e1f5760405162461bcd60e51b815260040161041f90614a90565b60345460ff1615611e425760405162461bcd60e51b815260040161041f9061490e565b6034805460ff191660011790557f62e78cea01bee320cd4e420270b5ea74000d11b0c9f74754ebdbfc544b05a25861197d3390565b600042851015611ebb5760405162461bcd60e51b815260206004820152600f60248201526e109c9a5919d94e8811561412549151608a1b604482015260640161041f565b6000611ed7611ecf368b90038b018b614af3565b898989613385565b6040805160008082526020820180845284905260ff89169282019290925260608101879052608081018690529192509060019060a0016020604051602081039080840390855afa158015611f2f573d6000803e3d6000fd5b5050604051601f190151915060009050611f4c60208c018c614448565b6001600160a01b031614158015611f805750611f6b60208b018b614448565b6001600160a01b0316816001600160a01b0316145b611fcc5760405162461bcd60e51b815260206004820152601960248201527f4272696467653a20494e56414c49445f5349474e415455524500000000000000604482015260640161041f565b611fe48a611fdd6020820182614448565b8b8b612d52565b9a9950505050505050505050565b60388054611fff90614b8b565b80601f016020809104026020016040519081016040528092919081815260200182805461202b90614b8b565b80156120785780601f1061204d57610100808354040283529160200191612078565b820191906000526020600020905b81548152906001019060200180831161205b57829003601f168201915b505050505081565b61209960345461010090046001600160a01b0316331490565b6120b55760405162461bcd60e51b815260040161041f906148d9565b6001600160a01b03811661210b5760405162461bcd60e51b815260206004820152601c60248201527f4272696467653a20416c6c6f77546f6b656e7320697320656d70747900000000604482015260640161041f565b603f80546001600160a01b0319166001600160a01b0383169081179091556040519081527f5f2c1fe803fd576d8af05ea156011cc9cc8c025bda24c1e85772fc05a0b3f1e390602001611135565b6040805160208082019790975280820195909552606097881b6bffffffffffffffffffffffff191697850197909752607484019590955260e09190911b6001600160e01b0319166094830152609882015260b8808201939093528351808203909301835260d801909252805191012090565b6121e460345461010090046001600160a01b0316331490565b6122005760405162461bcd60e51b815260040161041f906148d9565b61220d600a612710614bd6565b811061225b5760405162461bcd60e51b815260206004820152601760248201527f4272696467653a20626967676572207468616e20313025000000000000000000604482015260640161041f565b60378190556040518181527f97e97c577f03bda90e2c9739011ec065ed5fbfb36ae217d20bb0d9be95e160cd90602001611135565b6000828152603e602052604081205460ff16806122bb57506000828152603e602052604090205460ff165b9392505050565b604080518082018252600080825260209182018190526001600160a01b038481168252604783529083902083518085019094528054909116808452600190910154918301919091521561231457919050565b60016020808301919091526001600160a01b039283166000908152603c9091526040902054909116815290565b600054610100900460ff168061235a575060005460ff16155b6123765760405162461bcd60e51b815260040161041f90614995565b600054610100900460ff16158015612398576000805461ffff19166101011790555b60348054610100600160a81b0319166101006001600160a01b0385811682029290921792839055604051920416906000907f8be0079c531659141344cd1fd0a4f28419497f9722a3daafe3b4186f6b6457e0908290a38015611692576000805461ff00191690555050565b61241c60345461010090046001600160a01b0316331490565b6124385760405162461bcd60e51b815260040161041f906148d9565b6110a7888888888888888861303e565b604080518082018252601081526f52534b20546f6b656e2042726964676560801b60208083019182528351808501855260018152603160f81b908201529151902082517f8b73c3c69bb8fe3d512ecc4cf759cc79239f7b179b0ffacaa9a75d522b39400f8152918201527fc89efdaa54c0f20c7adf612882df0950f5a951637e0307cdcb4c672f298b8bc69181019190915246606082015230608082015260a09020603955565b60008281526046602090815260408083206001600160a01b038086168552925282205416801561252057905061115b565b50506001600160a01b039081166000908152603b602052604090205416919050565b60008281526048602090815260408083206001600160a01b038516845290915281205460ff16801561257557905061115b565b50506001600160a01b03166000908152603d602052604090205460ff16919050565b336125ad6001600160a01b038516823085613489565b6125ca84828585604051806020016040528060008152508a612992565b5050505050565b600054610100900460ff16806125ea575060005460ff16155b6126065760405162461bcd60e51b815260040161041f90614995565b600054610100900460ff16158015612628576000805461ffff19166101011790555b61263182611a7b565b61263e5761263e82613343565b8015611692576000805461ff00191690555050565b61266c60345461010090046001600160a01b0316331490565b6126885760405162461bcd60e51b815260040161041f906148d9565b611dc9816134fa565b600054610100900460ff16806126aa575060005460ff16155b6126c65760405162461bcd60e51b815260040161041f90614995565b600054610100900460ff161580156126e8576000805461ffff19166101011790555b6126f185612341565b6126fa85611616565b603f80546001600160a01b038581166001600160a01b031992831617909255604080548584169083161781556036805493881693909216929092179055516329965a1d60e01b815230600482018190527fb281fc8c12954d22544db45de3159a39272895b169a852b314f9cc762e44c53b60248301526044820152731820a4b7618bde71dce8cdc73aab6c95905fad24906329965a1d90606401600060405180830381600087803b1580156127ae57600080fd5b505af11580156127c2573d6000803e3d6000fd5b505050506127ce612448565b80156125ca576000805461ff00191690555050505050565b6127ff60345461010090046001600160a01b0316331490565b61281b5760405162461bcd60e51b815260040161041f906148d9565b6001600160a01b0381166128715760405162461bcd60e51b815260206004820152601b60248201527f4272696467653a2046656465726174696f6e20697320656d7074790000000000604482015260640161041f565b603680546001600160a01b0319166001600160a01b0383169081179091556040519081527f4a41a4d11aaf0c0c9e4311ac1d68b2b0134556da594779a2a35b0ddf7cd1eafb90602001611135565b60006128cc826014614938565b8351101561291c5760405162461bcd60e51b815260206004820152601f60248201527f4c69625574696c733a20746f416464726573735f6f75744f66426f756e647300604482015260640161041f565b500160200151600160601b900490565b6000612939826020614938565b835110156129895760405162461bcd60e51b815260206004820152601f60248201527f4c69625574696c733a20746f55696e743235365f6f75744f66426f756e647300604482015260640161041f565b50016020015190565b604054600160a01b900460ff16156129e05760405162461bcd60e51b81526020600482015260116024820152704272696467653a20557067726164696e6760781b604482015260640161041f565b60345460ff1615612a035760405162461bcd60e51b815260040161041f9061490e565b600160356000828254612a169190614938565b909155505060355446821415612a8a5760405162461bcd60e51b815260206004820152603360248201527f4272696467653a2064657374696e6174696f6e20636861696e20696420657175604482015272185b0818dd5c9c995b9d0818da185a5b881a59606a1b606482015260840161041f565b612a9382612f3d565b60008281526048602090815260408083206001600160a01b038b1684529091529020805460ff191660011790556000612ae3612710612add603754886135c290919063ffffffff16565b90613641565b90506000612af18683613683565b90506000612afe8a6136c5565b905086601260ff831614612b2f57612b2c612b1a836012614bea565b612b2590600a614cf1565b89906135c2565b90505b603f54604051638c34bc5560e01b81526001600160a01b038d811660048301526024820184905290911690638c34bc5590604401600060405180830381600087803b158015612b7d57600080fd5b505af1158015612b91573d6000803e3d6000fd5b505050506000612ba08c6122c2565b80519091506001600160a01b031615612ca4576000612bbe8d6137a9565b90506000612bcc8683613881565b9050612bd887826138c3565b9650612be48682613683565b60405163fe9d930360e01b81529096506001600160a01b038f169063fe9d930390612c159089908e90600401614d00565b600060405180830381600087803b158015612c2f57600080fd5b505af1158015612c43573d6000803e3d6000fd5b505050505050868a6001600160a01b031682600001516001600160a01b03167fb2320a1ad388e1e16b142f7d2e822f31d8a2bbdd7d4f29260e7c203c5f45e8498e46898e604051612c979493929190614d19565b60405180910390a4612cf7565b868a6001600160a01b03168d6001600160a01b03167fb2320a1ad388e1e16b142f7d2e822f31d8a2bbdd7d4f29260e7c203c5f45e8498e46898e604051612cee9493929190614d19565b60405180910390a45b8415612d2357603454612d239061010090046001600160a01b03166001600160a01b038e169087613922565b50505050506035548114612d495760405162461bcd60e51b815260040161041f90614950565b50505050505050565b6000600160356000828254612d679190614938565b909155505060355460608601356000908152604360205260409020546001600160a01b031680612dd25760405162461bcd60e51b8152602060048201526016602482015275109c9a5919d94e88151e081b9bdd0818dc9bdcdcd95960521b604482015260640161041f565b6000612e0e612de460208a018a614448565b60208a013560408b013560608c0135612e0360a08e0160808f01614ad8565b8d60a0013546612159565b60608901356000908152604260205260409020549091508114612e7d5760405162461bcd60e51b815260206004820152602160248201527f4272696467653a2057726f6e67207472616e73616374696f6e446174614861736044820152600d60fb1b606482015260840161041f565b612e878882611b69565b15612ece5760405162461bcd60e51b8152602060048201526017602482015276109c9a5919d94e88105b1c9958591e4818db185a5b5959604a1b604482015260640161041f565b6000818152603e60209081526040909120805460ff19166001179055612f029060a08a01359084908a908c01358a8a613952565b9350612f1188838989896139a3565b50506035548114612f345760405162461bcd60e51b815260040161041f90614950565b50949350505050565b60008111611dc95760405162461bcd60e51b815260206004820152601460248201527304272696467653a20436861696e496420697320360641b604482015260640161041f565b468114611dc95760405162461bcd60e51b815260206004820152601960248201527f4272696467653a204e6f7420626c6f636b2e636861696e696400000000000000604482015260640161041f565b6040805160208101859052908101839052606086811b6bffffffffffffffffffffffff1916908201526074810185905260e082901b6001600160e01b031916609482015260009060980160405160208183030381529060405280519060200120905095945050505050565b6001600160a01b0387166130895760405162461bcd60e51b8152602060048201526012602482015271213934b233b29d10273ab636103a37b5b2b760711b604482015260640161041f565b61309281612f3d565b600061309e82896124ef565b90506001600160a01b038116156130f05760405162461bcd60e51b81526020600482015260166024820152754272696467653a20416c72656164792065786973747360501b604482015260640161041f565b60006130fb88613a7e565b6040805490516326d9e96360e01b81529192506001600160a01b0316906326d9e9639061313490889088908c908c908890600401614d6f565b602060405180830381600087803b15801561314e57600080fd5b505af1158015613162573d6000803e3d6000fd5b505050506040513d601f19601f82011682018060405250810190613186919061488f565b9150613193838a84611af9565b60408051808201909152602081018490526001600160a01b038a1681526131ba8382611a88565b603f546040516378bf2b5360e01b81526001600160a01b038581166004830152602482018e9052909116906378bf2b5390604401600060405180830381600087803b15801561320857600080fd5b505af115801561321c573d6000803e3d6000fd5b50505050896001600160a01b0316836001600160a01b03167f88dcf8b72e53287db29df3fee9a0f2cb07d1f986cee153aa7d7554405d5db0178a8a86896040516132699493929190614da9565b60405180910390a35050505050505050505050565b60006001600160a01b0382166132e15760405162461bcd60e51b815260206004820152602260248201527f526f6c65733a206163636f756e7420697320746865207a65726f206164647265604482015261737360f01b606482015260840161041f565b506001600160a01b03166000908152602091909152604090205460ff1690565b61330c603382613aea565b6040516001600160a01b038216907fcd265ebaf09df2871cc7bd4133404a235ba12eff2041bb89d9c714a2621c7c7e90600090a250565b61334e603382613b62565b6040516001600160a01b038216907f6719d08c1888103bea251a4ed56406bd0c3e69723c8a1686e017e7bbe159b6f890600090a250565b6039548451602080870151606088015160a08901516001600160a01b0385166000908152604590945260408420805494966134809690957faf3ac34fea9cc1b1def33a9bdc482d988feb61b5015ae4a55e2a62bb3600d54c959194919391928c918c918b6133f283614a75565b909155506040805160208101999099526001600160a01b03978816908901526060880195909552608087019390935260a086019190915290921660c084015260e08301919091526101008201526101208101859052610140016040516020818303038152906040528051906020012060405161190160f01b8152600281019290925260228201526042902090565b95945050505050565b6040516001600160a01b03808516602483015283166044820152606481018290526134f49085906323b872dd60e01b906084015b60408051601f198184030181529190526020810180516001600160e01b03166001600160e01b031990931692909217909152613bde565b50505050565b6001600160a01b03811661355b5760405162461bcd60e51b815260206004820152602260248201527f4f776e61626c653a206e6577206f776e6572206973207a65726f206164647265604482015261737360f01b606482015260840161041f565b6034546040516001600160a01b0380841692610100900416907f8be0079c531659141344cd1fd0a4f28419497f9722a3daafe3b4186f6b6457e090600090a3603480546001600160a01b0390921661010002610100600160a81b0319909216919091179055565b6000826135d15750600061115b565b60006135dd8385614dd0565b9050826135ea8583614bd6565b146122bb5760405162461bcd60e51b815260206004820152602160248201527f536166654d6174683a206d756c7469706c69636174696f6e206f766572666c6f6044820152607760f81b606482015260840161041f565b60006122bb83836040518060400160405280601a81526020017f536166654d6174683a206469766973696f6e206279207a65726f000000000000815250613d5e565b60006122bb83836040518060400160405280601e81526020017f536166654d6174683a207375627472616374696f6e206f766572666c6f770000815250613d8c565b60408051600481526024810182526020810180516001600160e01b031663313ce56760e01b1790529051600091829182916001600160a01b0386169161370b9190614def565b600060405180830381855afa9150503d8060008114613746576040519150601f19603f3d011682016040523d82523d6000602084013e61374b565b606091505b5091509150816137955760405162461bcd60e51b81526020600482015260156024820152744c69625574696c733a204e6f20646563696d616c7360581b604482015260640161041f565b80806020019051810190611bce9190614e01565b60408051600481526024810182526020810180516001600160e01b031663556f0dc760e01b1790529051600091829182916001600160a01b038616916137ef9190614def565b600060405180830381855afa9150503d806000811461382a576040519150601f19603f3d011682016040523d82523d6000602084013e61382f565b606091505b5091509150816137955760405162461bcd60e51b815260206004820152601860248201527f4c69625574696c733a204e6f206772616e756c61726974790000000000000000604482015260640161041f565b60006122bb83836040518060400160405280601881526020017f536166654d6174683a206d6f64756c6f206279207a65726f0000000000000000815250613dbd565b6000806138d08385614938565b9050838110156122bb5760405162461bcd60e51b815260206004820152601b60248201527f536166654d6174683a206164646974696f6e206f766572666c6f770000000000604482015260640161041f565b6040516001600160a01b0383166024820152604481018290526118dd90849063a9059cbb60e01b906064016134bd565b600061395d87612f3d565b6139678787612542565b15613980576139798686868686613de9565b9050613999565b61399661398d88886124ef565b86868686613f99565b90505b9695505050505050565b6139b06020860186614448565b6060860135600081815260446020908152604091829020546001600160a01b039485169489811694937fa7a84dcc6757cdf9b9122d3bbc42d58358c28dc4b09cc24349599a63c56c62fd9392909116918b0135908b0135613a1760a08d0160808e01614ad8565b604080516001600160a01b039586168152602081019490945283019190915263ffffffff166060820152818916608082015290871660a08281019190915260c082018790528a013560e0820152466101008201526101200160405180910390a45050505050565b600060128260ff161115613ad45760405162461bcd60e51b815260206004820152601c60248201527f4c69625574696c733a20446563696d616c73206e6f74203c3d20313800000000604482015260640161041f565b613adf826012614bea565b61115b90600a614cf1565b613af4828261327e565b613b405760405162461bcd60e51b815260206004820181905260248201527f526f6c65733a206163636f756e7420646f65736e2774206861766520726f6c65604482015260640161041f565b6001600160a01b0316600090815260209190915260409020805460ff19169055565b613b6c828261327e565b15613bb95760405162461bcd60e51b815260206004820152601f60248201527f526f6c65733a206163636f756e7420616c72656164792068617320726f6c6500604482015260640161041f565b6001600160a01b0316600090815260209190915260409020805460ff19166001179055565b6001600160a01b0382163b613c355760405162461bcd60e51b815260206004820152601f60248201527f5361666545524332303a2063616c6c20746f206e6f6e2d636f6e747261637400604482015260640161041f565b600080836001600160a01b031683604051613c509190614def565b6000604051808303816000865af19150503d8060008114613c8d576040519150601f19603f3d011682016040523d82523d6000602084013e613c92565b606091505b509150915081613ce45760405162461bcd60e51b815260206004820181905260248201527f5361666545524332303a206c6f772d6c6576656c2063616c6c206661696c6564604482015260640161041f565b8051156134f45780806020019051810190613cff9190614e1a565b6134f45760405162461bcd60e51b815260206004820152602a60248201527f5361666545524332303a204552433230206f7065726174696f6e20646964206e6044820152691bdd081cdd58d8d9595960b21b606482015260840161041f565b60008183613d7f5760405162461bcd60e51b815260040161041f91906145ff565b5060006134808486614bd6565b60008184841115613db05760405162461bcd60e51b815260040161041f91906145ff565b50600061348084866148c2565b60008183613dde5760405162461bcd60e51b815260040161041f91906145ff565b50611bce8385614e37565b600080613df5876136c5565b60ff1690506000613e1c613e0a8360126148c2565b613e1590600a614e4b565b8790613641565b905080841115613e655760405162461bcd60e51b8152602060048201526014602482015273084e4d2c8ceca7440cccaca40e8dede40d0d2ced60631b604482015260640161041f565b613e6f8185613683565b6041549093506001600160a01b0389811691161415613f6057604154604051632e1a7d4d60e01b8152600481018390526001600160a01b0390911690632e1a7d4d90602401600060405180830381600087803b158015613ece57600080fd5b505af1158015613ee2573d6000803e3d6000fd5b50506040516001600160a01b038a16925085156108fc02915085906000818181858888f19350505050158015613f1c573d6000803e3d6000fd5b508315613f5b576040516001600160a01b0386169085156108fc029086906000818181858888f19350505050158015613f59573d6000803e3d6000fd5b505b613f8e565b613f746001600160a01b0389168885613922565b8315613f8e57613f8e6001600160a01b0389168686613922565b505095945050505050565b60006001600160a01b038616613ff15760405162461bcd60e51b815260206004820152601a60248201527f4272696467653a207369646520746f6b656e206973206e756c6c000000000000604482015260640161041f565b6000866001600160a01b031663556f0dc76040518163ffffffff1660e01b815260040160206040518083038186803b15801561402c57600080fd5b505afa158015614040573d6000803e3d6000fd5b505050506040513d601f19601f820116820180604052508101906140649190614e01565b9050600061407286836135c2565b9050808411156140bb5760405162461bcd60e51b8152602060048201526014602482015273084e4d2c8ceca7440cccaca40e8dede40d0d2ced60631b604482015260640161041f565b6140c58185613683565b604051630dcdc7dd60e41b81526001600160a01b038981166004830152602482018390526080604483015260006084830181905260a0606484015260a48301529194509089169063dcdc7dd09060c401600060405180830381600087803b15801561412f57600080fd5b505af1158015614143573d6000803e3d6000fd5b505050506000841115613f8e57604051630dcdc7dd60e41b81526001600160a01b03868116600483015260248201869052608060448301526000608483015260a06064830152600b60a48301526a72656c617965722066656560a81b60c483015289169063dcdc7dd09060e401600060405180830381600087803b1580156141ca57600080fd5b505af11580156141de573d6000803e3d6000fd5b50505050505095945050505050565b6001600160a01b0381168114611dc957600080fd5b60008083601f84011261421457600080fd5b50813567ffffffffffffffff81111561422c57600080fd5b60208301915083602082850101111561424457600080fd5b9250929050565b60008060008060008060008060c0898b03121561426757600080fd5b8835614272816141ed565b97506020890135614282816141ed565b96506040890135614292816141ed565b955060608901359450608089013567ffffffffffffffff808211156142b657600080fd5b6142c28c838d01614202565b909650945060a08b01359150808211156142db57600080fd5b506142e88b828c01614202565b999c989b5096995094979396929594505050565b60006020828403121561430e57600080fd5b5035919050565b8015158114611dc957600080fd5b60006020828403121561433557600080fd5b81356122bb81614315565b600060c0828403121561435257600080fd5b50919050565b600060c0828403121561436a57600080fd5b6122bb8383614340565b803563ffffffff8116811461438857600080fd5b919050565b60008060008060008060008060006101208a8c0312156143ac57600080fd5b89356143b7816141ed565b985060208a01356143c7816141ed565b975060408a01356143d7816141ed565b965060608a0135955060808a0135945060a08a013593506143fa60c08b01614374565b925060e08a013591506101008a013590509295985092959850929598565b6000806040838503121561442b57600080fd5b82359150602083013561443d816141ed565b809150509250929050565b60006020828403121561445a57600080fd5b81356122bb816141ed565b6000806020838503121561447857600080fd5b823567ffffffffffffffff8082111561449057600080fd5b818501915085601f8301126144a457600080fd5b8135818111156144b357600080fd5b8660208260051b85010111156144c857600080fd5b60209290920196919550909350505050565b60008082840360608112156144ee57600080fd5b83356144f9816141ed565b92506040601f198201121561450d57600080fd5b506040516040810181811067ffffffffffffffff8211171561453f57634e487b7160e01b600052604160045260246000fd5b6040526020840135614550816141ed565b81526040939093013560208401525092909150565b60008060006060848603121561457a57600080fd5b83359250602084013561458c816141ed565b9150604084013561459c816141ed565b809150509250925092565b60005b838110156145c25781810151838201526020016145aa565b838111156134f45750506000910152565b600081518084526145eb8160208601602086016145a7565b601f01601f19169290920160200192915050565b6020815260006122bb60208301846145d3565b60008060e0838503121561462557600080fd5b61462f8484614340565b9460c0939093013593505050565b803560ff8116811461438857600080fd5b6000806000806000806000610180888a03121561466a57600080fd5b6146748989614340565b965060c0880135614684816141ed565b955060e0880135945061010088013593506146a2610120890161463d565b92506101408801359150610160880135905092959891949750929550565b600080600080600080600060e0888a0312156146db57600080fd5b87356146e6816141ed565b965060208801359550604088013594506060880135935061470960808901614374565b925060a0880135915060c0880135905092959891949750929550565b6000806040838503121561473857600080fd5b50508035926020909101359150565b60008060008060008060008060c0898b03121561476357600080fd5b883597506020890135614775816141ed565b965061478360408a0161463d565b9550606089013567ffffffffffffffff808211156147a057600080fd5b6147ac8c838d01614202565b909750955060808b01359150808211156147c557600080fd5b506147d28b828c01614202565b999c989b50969995989497949560a00135949350505050565b6000806000806080858703121561480157600080fd5b843593506020850135614813816141ed565b92506040850135614823816141ed565b9396929550929360600135925050565b6000806000806080858703121561484957600080fd5b8435614854816141ed565b93506020850135614864816141ed565b92506040850135614874816141ed565b91506060850135614884816141ed565b939692955090935050565b6000602082840312156148a157600080fd5b81516122bb816141ed565b634e487b7160e01b600052601160045260246000fd5b6000828210156148d4576148d46148ac565b500390565b6020808252818101527f4f776e61626c653a2063616c6c6572206973206e6f7420746865206f776e6572604082015260600190565b60208082526010908201526f14185d5cd8589b194e881c185d5cd95960821b604082015260600190565b6000821982111561494b5761494b6148ac565b500190565b60208082526025908201527f5265656e7472616e637947756172643a206e6f207265656e7472616e7420616c6040820152641b1bddd95960da1b606082015260800190565b60208082526028908201527f436f6e747261637420696e7374616e636520697320616c726561647920696e696040820152671d1a585b1a5e995960c21b606082015260800190565b634e487b7160e01b600052603260045260246000fd5b6000823560be19833603018112614a0957600080fd5b9190910192915050565b600060208284031215614a2557600080fd5b6122bb8261463d565b6000808335601e19843603018112614a4557600080fd5b83018035915067ffffffffffffffff821115614a6057600080fd5b60200191503681900382131561424457600080fd5b6000600019821415614a8957614a896148ac565b5060010190565b60208082526028908201527f506175736572526f6c653a2063616c6c657220646f65736e277420686176652060408201526774686520726f6c6560c01b606082015260800190565b600060208284031215614aea57600080fd5b6122bb82614374565b600060c08284031215614b0557600080fd5b60405160c0810181811067ffffffffffffffff82111715614b3657634e487b7160e01b600052604160045260246000fd5b6040528235614b44816141ed565b80825250602083013560208201526040830135604082015260608301356060820152614b7260808401614374565b608082015260a083013560a08201528091505092915050565b600181811c90821680614b9f57607f821691505b6020821081141561435257634e487b7160e01b600052602260045260246000fd5b634e487b7160e01b600052601260045260246000fd5b600082614be557614be5614bc0565b500490565b600060ff821660ff841680821015614c0457614c046148ac565b90039392505050565b600181815b80851115614c48578160001904821115614c2e57614c2e6148ac565b80851615614c3b57918102915b93841c9390800290614c12565b509250929050565b600082614c5f5750600161115b565b81614c6c5750600061115b565b8160018114614c825760028114614c8c57614ca8565b600191505061115b565b60ff841115614c9d57614c9d6148ac565b50506001821b61115b565b5060208310610133831016604e8410600b8410161715614ccb575081810a61115b565b614cd58383614c0d565b8060001904821115614ce957614ce96148ac565b029392505050565b60006122bb60ff841683614c50565b828152604060208201526000611bce60408301846145d3565b60018060a01b038516815283602082015282604082015260806060820152600061399960808301846145d3565b81835281816020850137506000828201602090810191909152601f909101601f19169091010190565b606081526000614d83606083018789614d46565b8281036020840152614d96818688614d46565b9150508260408301529695505050505050565b606081526000614dbd606083018688614d46565b6020830194909452506040015292915050565b6000816000190483118215151615614dea57614dea6148ac565b500290565b60008251614a098184602087016145a7565b600060208284031215614e1357600080fd5b5051919050565b600060208284031215614e2c57600080fd5b81516122bb81614315565b600082614e4657614e46614bc0565b500690565b60006122bb8383614c5056fea264697066735822122056e9c6d68b936a7b2c66545886a13f33f54fec9bc3a8a09c82fde6ed9811029364736f6c63430008090033",
  "devdoc": {
    "kind": "dev",
    "methods": {
      "__Pausable_init(address)": {
        "details": "Initializes the contract in unpaused state. Assigns the Pauser role to the deployer."
      },
      "initialize(address)": {
        "details": "Initializes the contract setting the deployer as the initial owner."
      },
      "isOwner()": {
        "details": "Returns true if the caller is the current owner."
      },
      "owner()": {
        "details": "Returns the address of the current owner."
      },
      "pause()": {
        "details": "Called by a pauser to pause, triggers stopped state."
      },
      "paused()": {
        "details": "Returns true if the contract is paused, and false otherwise."
      },
      "renounceOwnership()": {
        "details": "Leaves the contract without owner. It will not be possible to call `onlyOwner` functions anymore. Can only be called by the current owner. > Note: Renouncing ownership will leave the contract without an owner, thereby removing any functionality that is only available to the owner."
      },
      "tokensReceived(address,address,address,uint256,bytes,bytes)": {
        "params": {
          "userData": "it can be 2 options in the first one you can send the receiver and the chain id of the destination const userData = web3.eth.abi.encodeParameters(   [\"address\", \"uint256\"],   [anAccount.toLowerCase(), chains.ETHEREUM_MAIN_NET_CHAIN_ID] ); or you also can send only the destination chain id, and the receiver would be the same as the from parameter const userData = web3.eth.abi.encodeParameters([\"uint256\"], [chains.ETHEREUM_MAIN_NET_CHAIN_ID]);"
        }
      },
      "transferOwnership(address)": {
        "details": "Transfers ownership of the contract to a new account (`newOwner`). Can only be called by the current owner."
      },
      "unpause()": {
        "details": "Called by a pauser to unpause, returns to normal state."
      }
    },
    "version": 1
  },
  "userdoc": {
    "kind": "user",
    "methods": {
      "acceptTransfer(address,address,address,uint256,bytes32,bytes32,uint32,uint256,uint256)": {
        "notice": "Accepts the transaction from the other chain that was voted and sent by the Federation contract"
      },
      "claim((address,uint256,bytes32,bytes32,uint32,uint256))": {
        "notice": "Claims the crossed transaction using the hash, this sends the funds to the address indicated in"
      },
      "depositTo(uint256,address)": {
        "notice": "Use network currency and cross it."
      },
      "receiveTokensTo(uint256,address,address,uint256)": {
        "notice": "ERC-20 tokens approve and transferFrom pattern See https://eips.ethereum.org/EIPS/eip-20#transferfrom"
      },
      "tokensReceived(address,address,address,uint256,bytes,bytes)": {
        "notice": "ERC-777 tokensReceived hook allows to send tokens to a contract and notify it in a single transaction See https://eips.ethereum.org/EIPS/eip-777#motivation for details"
      }
    },
    "version": 1
  },
  "storageLayout": {
    "storage": [
      {
        "astId": 14589,
        "contract": "contracts/Bridge/Bridge.sol:Bridge",
        "label": "initialized",
        "offset": 0,
        "slot": "0",
        "type": "t_bool"
      },
      {
        "astId": 14592,
        "contract": "contracts/Bridge/Bridge.sol:Bridge",
        "label": "initializing",
        "offset": 1,
        "slot": "0",
        "type": "t_bool"
      },
      {
        "astId": 14632,
        "contract": "contracts/Bridge/Bridge.sol:Bridge",
        "label": "______gap",
        "offset": 0,
        "slot": "1",
        "type": "t_array(t_uint256)50_storage"
      },
      {
        "astId": 14658,
        "contract": "contracts/Bridge/Bridge.sol:Bridge",
        "label": "_pausers",
        "offset": 0,
        "slot": "51",
        "type": "t_struct(Role)8915_storage"
      },
      {
        "astId": 14780,
        "contract": "contracts/Bridge/Bridge.sol:Bridge",
        "label": "_paused",
        "offset": 0,
        "slot": "52",
        "type": "t_bool"
      },
      {
        "astId": 14878,
        "contract": "contracts/Bridge/Bridge.sol:Bridge",
        "label": "_owner",
        "offset": 1,
        "slot": "52",
        "type": "t_address"
      },
      {
        "astId": 15597,
        "contract": "contracts/Bridge/Bridge.sol:Bridge",
        "label": "_guardCounter",
        "offset": 0,
        "slot": "53",
        "type": "t_uint256"
      },
      {
        "astId": 1344,
        "contract": "contracts/Bridge/Bridge.sol:Bridge",
        "label": "federation",
        "offset": 0,
        "slot": "54",
        "type": "t_address"
      },
      {
        "astId": 1346,
        "contract": "contracts/Bridge/Bridge.sol:Bridge",
        "label": "feePercentage",
        "offset": 0,
        "slot": "55",
        "type": "t_uint256"
      },
      {
        "astId": 1348,
        "contract": "contracts/Bridge/Bridge.sol:Bridge",
        "label": "deprecatedSymbolPrefix",
        "offset": 0,
        "slot": "56",
        "type": "t_string_storage"
      },
      {
        "astId": 1350,
        "contract": "contracts/Bridge/Bridge.sol:Bridge",
        "label": "domainSeparator",
        "offset": 0,
        "slot": "57",
        "type": "t_bytes32"
      },
      {
        "astId": 1352,
        "contract": "contracts/Bridge/Bridge.sol:Bridge",
        "label": "_deprecatedSpentToday",
        "offset": 0,
        "slot": "58",
        "type": "t_uint256"
      },
      {
        "astId": 1356,
        "contract": "contracts/Bridge/Bridge.sol:Bridge",
        "label": "deprecatedMappedTokens",
        "offset": 0,
        "slot": "59",
        "type": "t_mapping(t_address,t_address)"
      },
      {
        "astId": 1360,
        "contract": "contracts/Bridge/Bridge.sol:Bridge",
        "label": "deprecatedOriginalTokens",
        "offset": 0,
        "slot": "60",
        "type": "t_mapping(t_address,t_address)"
      },
      {
        "astId": 1364,
        "contract": "contracts/Bridge/Bridge.sol:Bridge",
        "label": "deprecatedKnownTokens",
        "offset": 0,
        "slot": "61",
        "type": "t_mapping(t_address,t_bool)"
      },
      {
        "astId": 1368,
        "contract": "contracts/Bridge/Bridge.sol:Bridge",
        "label": "claimed",
        "offset": 0,
        "slot": "62",
        "type": "t_mapping(t_bytes32,t_bool)"
      },
      {
        "astId": 1371,
        "contract": "contracts/Bridge/Bridge.sol:Bridge",
        "label": "allowTokens",
        "offset": 0,
        "slot": "63",
        "type": "t_contract(IAllowTokens)7176"
      },
      {
        "astId": 1374,
        "contract": "contracts/Bridge/Bridge.sol:Bridge",
        "label": "sideTokenFactory",
        "offset": 0,
        "slot": "64",
        "type": "t_contract(ISideTokenFactory)7647"
      },
      {
        "astId": 1376,
        "contract": "contracts/Bridge/Bridge.sol:Bridge",
        "label": "isUpgrading",
        "offset": 20,
        "slot": "64",
        "type": "t_bool"
      },
      {
        "astId": 1387,
        "contract": "contracts/Bridge/Bridge.sol:Bridge",
        "label": "wrappedCurrency",
        "offset": 0,
        "slot": "65",
        "type": "t_contract(IWrapped)7700"
      },
      {
        "astId": 1391,
        "contract": "contracts/Bridge/Bridge.sol:Bridge",
        "label": "transactionsDataHashes",
        "offset": 0,
        "slot": "66",
        "type": "t_mapping(t_bytes32,t_bytes32)"
      },
      {
        "astId": 1395,
        "contract": "contracts/Bridge/Bridge.sol:Bridge",
        "label": "originalTokenAddresses",
        "offset": 0,
        "slot": "67",
        "type": "t_mapping(t_bytes32,t_address)"
      },
      {
        "astId": 1399,
        "contract": "contracts/Bridge/Bridge.sol:Bridge",
        "label": "senderAddresses",
        "offset": 0,
        "slot": "68",
        "type": "t_mapping(t_bytes32,t_address)"
      },
      {
        "astId": 1406,
        "contract": "contracts/Bridge/Bridge.sol:Bridge",
        "label": "nonces",
        "offset": 0,
        "slot": "69",
        "type": "t_mapping(t_address,t_uint256)"
      },
      {
        "astId": 1412,
        "contract": "contracts/Bridge/Bridge.sol:Bridge",
        "label": "sideTokenByOriginalTokenByChain",
        "offset": 0,
        "slot": "70",
        "type": "t_mapping(t_uint256,t_mapping(t_address,t_address))"
      },
      {
        "astId": 1417,
        "contract": "contracts/Bridge/Bridge.sol:Bridge",
        "label": "originalTokenBySideToken",
        "offset": 0,
        "slot": "71",
        "type": "t_mapping(t_address,t_struct(OriginalToken)7197_storage)"
      },
      {
        "astId": 1423,
        "contract": "contracts/Bridge/Bridge.sol:Bridge",
        "label": "knownTokenByChain",
        "offset": 0,
        "slot": "72",
        "type": "t_mapping(t_uint256,t_mapping(t_address,t_bool))"
      }
    ],
    "types": {
      "t_address": {
        "encoding": "inplace",
        "label": "address",
        "numberOfBytes": "20"
      },
      "t_array(t_uint256)50_storage": {
        "base": "t_uint256",
        "encoding": "inplace",
        "label": "uint256[50]",
        "numberOfBytes": "1600"
      },
      "t_bool": {
        "encoding": "inplace",
        "label": "bool",
        "numberOfBytes": "1"
      },
      "t_bytes32": {
        "encoding": "inplace",
        "label": "bytes32",
        "numberOfBytes": "32"
      },
      "t_contract(IAllowTokens)7176": {
        "encoding": "inplace",
        "label": "contract IAllowTokens",
        "numberOfBytes": "20"
      },
      "t_contract(ISideTokenFactory)7647": {
        "encoding": "inplace",
        "label": "contract ISideTokenFactory",
        "numberOfBytes": "20"
      },
      "t_contract(IWrapped)7700": {
        "encoding": "inplace",
        "label": "contract IWrapped",
        "numberOfBytes": "20"
      },
      "t_mapping(t_address,t_address)": {
        "encoding": "mapping",
        "key": "t_address",
        "label": "mapping(address => address)",
        "numberOfBytes": "32",
        "value": "t_address"
      },
      "t_mapping(t_address,t_bool)": {
        "encoding": "mapping",
        "key": "t_address",
        "label": "mapping(address => bool)",
        "numberOfBytes": "32",
        "value": "t_bool"
      },
      "t_mapping(t_address,t_struct(OriginalToken)7197_storage)": {
        "encoding": "mapping",
        "key": "t_address",
        "label": "mapping(address => struct IBridge.OriginalToken)",
        "numberOfBytes": "32",
        "value": "t_struct(OriginalToken)7197_storage"
      },
      "t_mapping(t_address,t_uint256)": {
        "encoding": "mapping",
        "key": "t_address",
        "label": "mapping(address => uint256)",
        "numberOfBytes": "32",
        "value": "t_uint256"
      },
      "t_mapping(t_bytes32,t_address)": {
        "encoding": "mapping",
        "key": "t_bytes32",
        "label": "mapping(bytes32 => address)",
        "numberOfBytes": "32",
        "value": "t_address"
      },
      "t_mapping(t_bytes32,t_bool)": {
        "encoding": "mapping",
        "key": "t_bytes32",
        "label": "mapping(bytes32 => bool)",
        "numberOfBytes": "32",
        "value": "t_bool"
      },
      "t_mapping(t_bytes32,t_bytes32)": {
        "encoding": "mapping",
        "key": "t_bytes32",
        "label": "mapping(bytes32 => bytes32)",
        "numberOfBytes": "32",
        "value": "t_bytes32"
      },
      "t_mapping(t_uint256,t_mapping(t_address,t_address))": {
        "encoding": "mapping",
        "key": "t_uint256",
        "label": "mapping(uint256 => mapping(address => address))",
        "numberOfBytes": "32",
        "value": "t_mapping(t_address,t_address)"
      },
      "t_mapping(t_uint256,t_mapping(t_address,t_bool))": {
        "encoding": "mapping",
        "key": "t_uint256",
        "label": "mapping(uint256 => mapping(address => bool))",
        "numberOfBytes": "32",
        "value": "t_mapping(t_address,t_bool)"
      },
      "t_string_storage": {
        "encoding": "bytes",
        "label": "string",
        "numberOfBytes": "32"
      },
      "t_struct(OriginalToken)7197_storage": {
        "encoding": "inplace",
        "label": "struct IBridge.OriginalToken",
        "members": [
          {
            "astId": 7194,
            "contract": "contracts/Bridge/Bridge.sol:Bridge",
            "label": "tokenAddress",
            "offset": 0,
            "slot": "0",
            "type": "t_address"
          },
          {
            "astId": 7196,
            "contract": "contracts/Bridge/Bridge.sol:Bridge",
            "label": "originChainId",
            "offset": 0,
            "slot": "1",
            "type": "t_uint256"
          }
        ],
        "numberOfBytes": "64"
      },
      "t_struct(Role)8915_storage": {
        "encoding": "inplace",
        "label": "struct Roles.Role",
        "members": [
          {
            "astId": 8914,
            "contract": "contracts/Bridge/Bridge.sol:Bridge",
            "label": "bearer",
            "offset": 0,
            "slot": "0",
            "type": "t_mapping(t_address,t_bool)"
          }
        ],
        "numberOfBytes": "32"
      },
      "t_uint256": {
        "encoding": "inplace",
        "label": "uint256",
        "numberOfBytes": "32"
      }
    }
  }
}