{
  "address": "0x4DF9E6E3041281c8a882640F9A24451D1F4Ef9eD",
  "abi": [
    {
      "anonymous": false,
      "inputs": [
        {
          "indexed": true,
          "internalType": "bytes32",
          "name": "_transactionHash",
          "type": "bytes32"
        },
        {
          "indexed": true,
          "internalType": "address",
          "name": "_originalTokenAddress",
          "type": "address"
        },
        {
          "indexed": true,
          "internalType": "address",
          "name": "_to",
          "type": "address"
        },
        {
          "indexed": false,
          "internalType": "address",
          "name": "_from",
          "type": "address"
        },
        {
          "indexed": false,
          "internalType": "uint256",
          "name": "_amount",
          "type": "uint256"
        },
        {
          "indexed": false,
          "internalType": "bytes32",
          "name": "_blockHash",
          "type": "bytes32"
        },
        {
          "indexed": false,
          "internalType": "uint256",
          "name": "_logIndex",
          "type": "uint256"
        }
      ],
      "name": "AcceptedCrossTransfer",
      "type": "event"
    },
    {
      "anonymous": false,
      "inputs": [
        {
          "indexed": false,
          "internalType": "address",
          "name": "_newAllowTokens",
          "type": "address"
        }
      ],
      "name": "AllowTokensChanged",
      "type": "event"
    },
    {
      "anonymous": false,
      "inputs": [
        {
          "indexed": true,
          "internalType": "bytes32",
          "name": "_transactionHash",
          "type": "bytes32"
        },
        {
          "indexed": true,
          "internalType": "address",
          "name": "_originalTokenAddress",
          "type": "address"
        },
        {
          "indexed": true,
          "internalType": "address",
          "name": "_to",
          "type": "address"
        },
        {
          "indexed": false,
          "internalType": "address",
          "name": "_sender",
          "type": "address"
        },
        {
          "indexed": false,
          "internalType": "uint256",
          "name": "_amount",
          "type": "uint256"
        },
        {
          "indexed": false,
          "internalType": "bytes32",
          "name": "_blockHash",
          "type": "bytes32"
        },
        {
          "indexed": false,
          "internalType": "uint256",
          "name": "_logIndex",
          "type": "uint256"
        },
        {
          "indexed": false,
          "internalType": "address",
          "name": "_reciever",
          "type": "address"
        },
        {
          "indexed": false,
          "internalType": "address",
          "name": "_relayer",
          "type": "address"
        },
        {
          "indexed": false,
          "internalType": "uint256",
          "name": "_fee",
          "type": "uint256"
        }
      ],
      "name": "Claimed",
      "type": "event"
    },
    {
      "anonymous": false,
      "inputs": [
        {
          "indexed": true,
          "internalType": "address",
          "name": "_tokenAddress",
          "type": "address"
        },
        {
          "indexed": true,
          "internalType": "address",
          "name": "_from",
          "type": "address"
        },
        {
          "indexed": true,
          "internalType": "address",
          "name": "_to",
          "type": "address"
        },
        {
          "indexed": false,
          "internalType": "uint256",
          "name": "_amount",
          "type": "uint256"
        },
        {
          "indexed": false,
          "internalType": "bytes",
          "name": "_userData",
          "type": "bytes"
        }
      ],
      "name": "Cross",
      "type": "event"
    },
    {
      "anonymous": false,
      "inputs": [
        {
          "indexed": false,
          "internalType": "address",
          "name": "_newFederation",
          "type": "address"
        }
      ],
      "name": "FederationChanged",
      "type": "event"
    },
    {
      "anonymous": false,
      "inputs": [
        {
          "indexed": false,
          "internalType": "uint256",
          "name": "_amount",
          "type": "uint256"
        }
      ],
      "name": "FeePercentageChanged",
      "type": "event"
    },
    {
      "anonymous": false,
      "inputs": [
        {
          "indexed": true,
          "internalType": "address",
          "name": "_newSideTokenAddress",
          "type": "address"
        },
        {
          "indexed": true,
          "internalType": "address",
          "name": "_originalTokenAddress",
          "type": "address"
        },
        {
          "indexed": false,
          "internalType": "string",
          "name": "_newSymbol",
          "type": "string"
        },
        {
          "indexed": false,
          "internalType": "uint256",
          "name": "_granularity",
          "type": "uint256"
        }
      ],
      "name": "NewSideToken",
      "type": "event"
    },
    {
      "anonymous": false,
      "inputs": [
        {
          "indexed": true,
          "internalType": "address",
          "name": "previousOwner",
          "type": "address"
        },
        {
          "indexed": true,
          "internalType": "address",
          "name": "newOwner",
          "type": "address"
        }
      ],
      "name": "OwnershipTransferred",
      "type": "event"
    },
    {
      "anonymous": false,
      "inputs": [
        {
          "indexed": false,
          "internalType": "address",
          "name": "account",
          "type": "address"
        }
      ],
      "name": "Paused",
      "type": "event"
    },
    {
      "anonymous": false,
      "inputs": [
        {
          "indexed": true,
          "internalType": "address",
          "name": "account",
          "type": "address"
        }
      ],
      "name": "PauserAdded",
      "type": "event"
    },
    {
      "anonymous": false,
      "inputs": [
        {
          "indexed": true,
          "internalType": "address",
          "name": "account",
          "type": "address"
        }
      ],
      "name": "PauserRemoved",
      "type": "event"
    },
    {
      "anonymous": false,
      "inputs": [
        {
          "indexed": false,
          "internalType": "address",
          "name": "_newSideTokenFactory",
          "type": "address"
        }
      ],
      "name": "SideTokenFactoryChanged",
      "type": "event"
    },
    {
      "anonymous": false,
      "inputs": [
        {
          "indexed": false,
          "internalType": "address",
          "name": "account",
          "type": "address"
        }
      ],
      "name": "Unpaused",
      "type": "event"
    },
    {
      "anonymous": false,
      "inputs": [
        {
          "indexed": false,
          "internalType": "bool",
          "name": "_isUpgrading",
          "type": "bool"
        }
      ],
      "name": "Upgrading",
      "type": "event"
    },
    {
      "anonymous": false,
      "inputs": [
        {
          "indexed": false,
          "internalType": "address",
          "name": "_wrappedCurrency",
          "type": "address"
        }
      ],
      "name": "WrappedCurrencyChanged",
      "type": "event"
    },
    {
      "inputs": [],
      "name": "CLAIM_TYPEHASH",
      "outputs": [
        {
          "internalType": "bytes32",
          "name": "",
          "type": "bytes32"
        }
      ],
      "stateMutability": "view",
      "type": "function"
    },
    {
      "inputs": [],
      "name": "DOMAIN_SEPARATOR",
      "outputs": [
        {
          "internalType": "bytes32",
          "name": "",
          "type": "bytes32"
        }
      ],
      "stateMutability": "view",
      "type": "function"
    },
    {
      "inputs": [
        {
          "internalType": "address",
          "name": "sender",
          "type": "address"
        }
      ],
      "name": "__Pausable_init",
      "outputs": [],
      "stateMutability": "nonpayable",
      "type": "function"
    },
    {
      "inputs": [
        {
          "internalType": "address",
          "name": "sender",
          "type": "address"
        }
      ],
      "name": "__PauserRol_init",
      "outputs": [],
      "stateMutability": "nonpayable",
      "type": "function"
    },
    {
      "inputs": [
        {
          "internalType": "address",
          "name": "_originalTokenAddress",
          "type": "address"
        },
        {
          "internalType": "address payable",
          "name": "_from",
          "type": "address"
        },
        {
          "internalType": "address payable",
          "name": "_to",
          "type": "address"
        },
        {
          "internalType": "uint256",
          "name": "_amount",
          "type": "uint256"
        },
        {
          "internalType": "bytes32",
          "name": "_blockHash",
          "type": "bytes32"
        },
        {
          "internalType": "bytes32",
          "name": "_transactionHash",
          "type": "bytes32"
        },
        {
          "internalType": "uint32",
          "name": "_logIndex",
          "type": "uint32"
        }
      ],
      "name": "acceptTransfer",
      "outputs": [],
      "stateMutability": "nonpayable",
      "type": "function"
    },
    {
      "inputs": [
        {
          "internalType": "address",
          "name": "account",
          "type": "address"
        }
      ],
      "name": "addPauser",
      "outputs": [],
      "stateMutability": "nonpayable",
      "type": "function"
    },
    {
      "inputs": [],
      "name": "allowTokens",
      "outputs": [
        {
          "internalType": "contract IAllowTokens",
          "name": "",
          "type": "address"
        }
      ],
      "stateMutability": "view",
      "type": "function"
    },
    {
      "inputs": [
        {
          "internalType": "address",
          "name": "newAllowTokens",
          "type": "address"
        }
      ],
      "name": "changeAllowTokens",
      "outputs": [],
      "stateMutability": "nonpayable",
      "type": "function"
    },
    {
      "inputs": [
        {
          "internalType": "address",
          "name": "newFederation",
          "type": "address"
        }
      ],
      "name": "changeFederation",
      "outputs": [],
      "stateMutability": "nonpayable",
      "type": "function"
    },
    {
      "inputs": [
        {
          "internalType": "address",
          "name": "newSideTokenFactory",
          "type": "address"
        }
      ],
      "name": "changeSideTokenFactory",
      "outputs": [],
      "stateMutability": "nonpayable",
      "type": "function"
    },
    {
      "inputs": [
        {
          "components": [
            {
              "internalType": "address payable",
              "name": "to",
              "type": "address"
            },
            {
              "internalType": "uint256",
              "name": "amount",
              "type": "uint256"
            },
            {
              "internalType": "bytes32",
              "name": "blockHash",
              "type": "bytes32"
            },
            {
              "internalType": "bytes32",
              "name": "transactionHash",
              "type": "bytes32"
            },
            {
              "internalType": "uint32",
              "name": "logIndex",
              "type": "uint32"
            }
          ],
          "internalType": "struct IBridgeV3.ClaimData",
          "name": "_claimData",
          "type": "tuple"
        }
      ],
      "name": "claim",
      "outputs": [
        {
          "internalType": "uint256",
          "name": "receivedAmount",
          "type": "uint256"
        }
      ],
      "stateMutability": "nonpayable",
      "type": "function"
    },
    {
      "inputs": [
        {
          "components": [
            {
              "internalType": "address payable",
              "name": "to",
              "type": "address"
            },
            {
              "internalType": "uint256",
              "name": "amount",
              "type": "uint256"
            },
            {
              "internalType": "bytes32",
              "name": "blockHash",
              "type": "bytes32"
            },
            {
              "internalType": "bytes32",
              "name": "transactionHash",
              "type": "bytes32"
            },
            {
              "internalType": "uint32",
              "name": "logIndex",
              "type": "uint32"
            }
          ],
          "internalType": "struct IBridgeV3.ClaimData",
          "name": "_claimData",
          "type": "tuple"
        }
      ],
      "name": "claimFallback",
      "outputs": [
        {
          "internalType": "uint256",
          "name": "receivedAmount",
          "type": "uint256"
        }
      ],
      "stateMutability": "nonpayable",
      "type": "function"
    },
    {
      "inputs": [
        {
          "components": [
            {
              "internalType": "address payable",
              "name": "to",
              "type": "address"
            },
            {
              "internalType": "uint256",
              "name": "amount",
              "type": "uint256"
            },
            {
              "internalType": "bytes32",
              "name": "blockHash",
              "type": "bytes32"
            },
            {
              "internalType": "bytes32",
              "name": "transactionHash",
              "type": "bytes32"
            },
            {
              "internalType": "uint32",
              "name": "logIndex",
              "type": "uint32"
            }
          ],
          "internalType": "struct IBridgeV3.ClaimData",
          "name": "_claimData",
          "type": "tuple"
        },
        {
          "internalType": "address payable",
          "name": "_relayer",
          "type": "address"
        },
        {
          "internalType": "uint256",
          "name": "_fee",
          "type": "uint256"
        },
        {
          "internalType": "uint256",
          "name": "_deadline",
          "type": "uint256"
        },
        {
          "internalType": "uint8",
          "name": "_v",
          "type": "uint8"
        },
        {
          "internalType": "bytes32",
          "name": "_r",
          "type": "bytes32"
        },
        {
          "internalType": "bytes32",
          "name": "_s",
          "type": "bytes32"
        }
      ],
      "name": "claimGasless",
      "outputs": [
        {
          "internalType": "uint256",
          "name": "receivedAmount",
          "type": "uint256"
        }
      ],
      "stateMutability": "nonpayable",
      "type": "function"
    },
    {
      "inputs": [
        {
          "internalType": "bytes32",
          "name": "",
          "type": "bytes32"
        }
      ],
      "name": "claimed",
      "outputs": [
        {
          "internalType": "bool",
          "name": "",
          "type": "bool"
        }
      ],
      "stateMutability": "view",
      "type": "function"
    },
    {
      "inputs": [
        {
          "internalType": "uint256",
          "name": "_typeId",
          "type": "uint256"
        },
        {
          "internalType": "address",
          "name": "_originalTokenAddress",
          "type": "address"
        },
        {
          "internalType": "uint8",
          "name": "_originalTokenDecimals",
          "type": "uint8"
        },
        {
          "internalType": "string",
          "name": "_originalTokenSymbol",
          "type": "string"
        },
        {
          "internalType": "string",
          "name": "_originalTokenName",
          "type": "string"
        }
      ],
      "name": "createSideToken",
      "outputs": [],
      "stateMutability": "nonpayable",
      "type": "function"
    },
    {
      "inputs": [
        {
          "internalType": "address",
          "name": "to",
          "type": "address"
        }
      ],
      "name": "depositTo",
      "outputs": [],
      "stateMutability": "payable",
      "type": "function"
    },
    {
      "inputs": [],
      "name": "feePercentageDivider",
      "outputs": [
        {
          "internalType": "uint256",
          "name": "",
          "type": "uint256"
        }
      ],
      "stateMutability": "view",
      "type": "function"
    },
    {
      "inputs": [],
      "name": "getFederation",
      "outputs": [
        {
          "internalType": "address",
          "name": "",
          "type": "address"
        }
      ],
      "stateMutability": "view",
      "type": "function"
    },
    {
      "inputs": [],
      "name": "getFeePercentage",
      "outputs": [
        {
          "internalType": "uint256",
          "name": "",
          "type": "uint256"
        }
      ],
      "stateMutability": "view",
      "type": "function"
    },
    {
      "inputs": [
        {
          "internalType": "address",
          "name": "_to",
          "type": "address"
        },
        {
          "internalType": "uint256",
          "name": "_amount",
          "type": "uint256"
        },
        {
          "internalType": "bytes32",
          "name": "_blockHash",
          "type": "bytes32"
        },
        {
          "internalType": "bytes32",
          "name": "_transactionHash",
          "type": "bytes32"
        },
        {
          "internalType": "uint32",
          "name": "_logIndex",
          "type": "uint32"
        }
      ],
      "name": "getTransactionDataHash",
      "outputs": [
        {
          "internalType": "bytes32",
          "name": "",
          "type": "bytes32"
        }
      ],
      "stateMutability": "pure",
      "type": "function"
    },
    {
      "inputs": [
        {
          "internalType": "bytes32",
          "name": "transactionHash",
          "type": "bytes32"
        }
      ],
      "name": "hasBeenClaimed",
      "outputs": [
        {
          "internalType": "bool",
          "name": "",
          "type": "bool"
        }
      ],
      "stateMutability": "view",
      "type": "function"
    },
    {
      "inputs": [
        {
          "internalType": "bytes32",
          "name": "transactionHash",
          "type": "bytes32"
        }
      ],
      "name": "hasCrossed",
      "outputs": [
        {
          "internalType": "bool",
          "name": "",
          "type": "bool"
        }
      ],
      "stateMutability": "view",
      "type": "function"
    },
    {
      "inputs": [],
      "name": "initDomainSeparator",
      "outputs": [],
      "stateMutability": "nonpayable",
      "type": "function"
    },
    {
      "inputs": [
        {
          "internalType": "address",
          "name": "_manager",
          "type": "address"
        },
        {
          "internalType": "address",
          "name": "_federation",
          "type": "address"
        },
        {
          "internalType": "address",
          "name": "_allowTokens",
          "type": "address"
        },
        {
          "internalType": "address",
          "name": "_sideTokenFactory",
          "type": "address"
        },
        {
          "internalType": "string",
          "name": "_symbolPrefix",
          "type": "string"
        }
      ],
      "name": "initialize",
      "outputs": [],
      "stateMutability": "nonpayable",
      "type": "function"
    },
    {
      "inputs": [],
      "name": "initialize",
      "outputs": [],
      "stateMutability": "nonpayable",
      "type": "function"
    },
    {
      "inputs": [
        {
          "internalType": "address",
          "name": "sender",
          "type": "address"
        }
      ],
      "name": "initialize",
      "outputs": [],
      "stateMutability": "nonpayable",
      "type": "function"
    },
    {
      "inputs": [],
      "name": "isOwner",
      "outputs": [
        {
          "internalType": "bool",
          "name": "",
          "type": "bool"
        }
      ],
      "stateMutability": "view",
      "type": "function"
    },
    {
      "inputs": [
        {
          "internalType": "address",
          "name": "account",
          "type": "address"
        }
      ],
      "name": "isPauser",
      "outputs": [
        {
          "internalType": "bool",
          "name": "",
          "type": "bool"
        }
      ],
      "stateMutability": "view",
      "type": "function"
    },
    {
      "inputs": [],
      "name": "isUpgrading",
      "outputs": [
        {
          "internalType": "bool",
          "name": "",
          "type": "bool"
        }
      ],
      "stateMutability": "view",
      "type": "function"
    },
    {
      "inputs": [
        {
          "internalType": "address",
          "name": "",
          "type": "address"
        }
      ],
      "name": "knownTokens",
      "outputs": [
        {
          "internalType": "bool",
          "name": "",
          "type": "bool"
        }
      ],
      "stateMutability": "view",
      "type": "function"
    },
    {
      "inputs": [
        {
          "internalType": "address",
          "name": "",
          "type": "address"
        }
      ],
      "name": "mappedTokens",
      "outputs": [
        {
          "internalType": "address",
          "name": "",
          "type": "address"
        }
      ],
      "stateMutability": "view",
      "type": "function"
    },
    {
      "inputs": [
        {
          "internalType": "address",
          "name": "",
          "type": "address"
        }
      ],
      "name": "nonces",
      "outputs": [
        {
          "internalType": "uint256",
          "name": "",
          "type": "uint256"
        }
      ],
      "stateMutability": "view",
      "type": "function"
    },
    {
      "inputs": [
        {
          "internalType": "bytes32",
          "name": "",
          "type": "bytes32"
        }
      ],
      "name": "originalTokenAddresses",
      "outputs": [
        {
          "internalType": "address",
          "name": "",
          "type": "address"
        }
      ],
      "stateMutability": "view",
      "type": "function"
    },
    {
      "inputs": [
        {
          "internalType": "address",
          "name": "",
          "type": "address"
        }
      ],
      "name": "originalTokens",
      "outputs": [
        {
          "internalType": "address",
          "name": "",
          "type": "address"
        }
      ],
      "stateMutability": "view",
      "type": "function"
    },
    {
      "inputs": [],
      "name": "owner",
      "outputs": [
        {
          "internalType": "address",
          "name": "",
          "type": "address"
        }
      ],
      "stateMutability": "view",
      "type": "function"
    },
    {
      "inputs": [],
      "name": "pause",
      "outputs": [],
      "stateMutability": "nonpayable",
      "type": "function"
    },
    {
      "inputs": [],
      "name": "paused",
      "outputs": [
        {
          "internalType": "bool",
          "name": "",
          "type": "bool"
        }
      ],
      "stateMutability": "view",
      "type": "function"
    },
    {
      "inputs": [
        {
          "internalType": "address",
          "name": "tokenToUse",
          "type": "address"
        },
        {
          "internalType": "address",
          "name": "to",
          "type": "address"
        },
        {
          "internalType": "uint256",
          "name": "amount",
          "type": "uint256"
        }
      ],
      "name": "receiveTokensTo",
      "outputs": [],
      "stateMutability": "nonpayable",
      "type": "function"
    },
    {
      "inputs": [],
      "name": "renounceOwnership",
      "outputs": [],
      "stateMutability": "nonpayable",
      "type": "function"
    },
    {
      "inputs": [],
      "name": "renouncePauser",
      "outputs": [],
      "stateMutability": "nonpayable",
      "type": "function"
    },
    {
      "inputs": [
        {
          "internalType": "bytes32",
          "name": "",
          "type": "bytes32"
        }
      ],
      "name": "senderAddresses",
      "outputs": [
        {
          "internalType": "address",
          "name": "",
          "type": "address"
        }
      ],
      "stateMutability": "view",
      "type": "function"
    },
    {
      "inputs": [
        {
          "internalType": "uint256",
          "name": "amount",
          "type": "uint256"
        }
      ],
      "name": "setFeePercentage",
      "outputs": [],
      "stateMutability": "nonpayable",
      "type": "function"
    },
    {
      "inputs": [
        {
          "internalType": "bool",
          "name": "_isUpgrading",
          "type": "bool"
        }
      ],
      "name": "setUpgrading",
      "outputs": [],
      "stateMutability": "nonpayable",
      "type": "function"
    },
    {
      "inputs": [
        {
          "internalType": "address",
          "name": "_wrappedCurrency",
          "type": "address"
        }
      ],
      "name": "setWrappedCurrency",
      "outputs": [],
      "stateMutability": "nonpayable",
      "type": "function"
    },
    {
      "inputs": [],
      "name": "sideTokenFactory",
      "outputs": [
        {
          "internalType": "contract ISideTokenFactory",
          "name": "",
          "type": "address"
        }
      ],
      "stateMutability": "view",
      "type": "function"
    },
    {
      "inputs": [],
      "name": "symbolPrefix",
      "outputs": [
        {
          "internalType": "string",
          "name": "",
          "type": "string"
        }
      ],
      "stateMutability": "view",
      "type": "function"
    },
    {
      "inputs": [
        {
          "internalType": "address",
          "name": "operator",
          "type": "address"
        },
        {
          "internalType": "address",
          "name": "from",
          "type": "address"
        },
        {
          "internalType": "address",
          "name": "to",
          "type": "address"
        },
        {
          "internalType": "uint256",
          "name": "amount",
          "type": "uint256"
        },
        {
          "internalType": "bytes",
          "name": "userData",
          "type": "bytes"
        },
        {
          "internalType": "bytes",
          "name": "",
          "type": "bytes"
        }
      ],
      "name": "tokensReceived",
      "outputs": [],
      "stateMutability": "nonpayable",
      "type": "function"
    },
    {
      "inputs": [
        {
          "internalType": "bytes32",
          "name": "",
          "type": "bytes32"
        }
      ],
      "name": "transactionsDataHashes",
      "outputs": [
        {
          "internalType": "bytes32",
          "name": "",
          "type": "bytes32"
        }
      ],
      "stateMutability": "view",
      "type": "function"
    },
    {
      "inputs": [
        {
          "internalType": "address",
          "name": "newOwner",
          "type": "address"
        }
      ],
      "name": "transferOwnership",
      "outputs": [],
      "stateMutability": "nonpayable",
      "type": "function"
    },
    {
      "inputs": [],
      "name": "unpause",
      "outputs": [],
      "stateMutability": "nonpayable",
      "type": "function"
    },
    {
      "inputs": [],
      "name": "version",
      "outputs": [
        {
          "internalType": "string",
          "name": "",
          "type": "string"
        }
      ],
      "stateMutability": "pure",
      "type": "function"
    },
    {
      "inputs": [],
      "name": "wrappedCurrency",
      "outputs": [
        {
          "internalType": "contract IWrapped",
          "name": "",
          "type": "address"
        }
      ],
      "stateMutability": "view",
      "type": "function"
    },
    {
      "stateMutability": "payable",
      "type": "receive"
    }
  ],
  "transactionHash": "0x27082890ab99938a88eb687e412a1842aebb0a95e5844ef11c6a659943cf7301",
  "args": [],
  "numDeployments": 1,
  "solcInputHash": "7c6767e257b474f1fc0c768e3673e0b3",
  "bytecode": "0x608060405234801561001057600080fd5b506142b8806100206000396000f3fe6080604052600436106103025760003560e01c806382dc1ec411610190578063b86f60d2116100dc578063e6ede14d11610095578063eb16136f1161006f578063eb16136f14610a08578063f2fde38b14610a28578063f74032f014610a48578063fa0caa1614610a7e57600080fd5b8063e6ede14d1461099e578063e6fc7744146109d4578063ea217091146109ea57600080fd5b8063b86f60d2146108b4578063c4d66de8146108d4578063ca07140c146108f4578063cc3c0f061461092a578063d12e825d1461095a578063da6770371461096f57600080fd5b8063adc5fb6411610149578063b0e1268e11610123578063b0e1268e14610840578063b50277bb14610860578063b760faf914610880578063b79472621461089357600080fd5b8063adc5fb64146107e0578063ae06c1b714610800578063afad80ac1461082057600080fd5b806382dc1ec4146107225780638456cb59146107425780638da5cb5b146107575780638f32d59b1461077a578063916dc59d146107a0578063a53d6e6e146107c057600080fd5b806346fbf68e1161024f5780636a86319111610208578063715018a6116101e2578063715018a6146106ab5780637813bea2146106c05780637ecebe00146106e05780638129fc1c1461070d57600080fd5b80636a863191146106425780636b0509b1146106625780636ef8d66d1461069657600080fd5b806346fbf68e146105715780634beea5061461059157806354fd4d50146105b157806359a8a867146105e55780635c975abb146105fa5780635d4471291461061257600080fd5b80632fb3b361116102bc57806337e761091161029657806337e76109146104a15780633cf3058b146104ee5780633f4ba83a1461053c57806342cdb2c61461055157600080fd5b80632fb3b3611461044b5780633500c1dc1461046b5780633644e5151461048b57600080fd5b806223de2914610376578063026976191461039657806307c8f7b0146103d657806311efbf61146103f657806320e3bb001461040b5780632f3cca4e1461042b57600080fd5b36610371576041546001600160a01b0316336001600160a01b03161461036f5760405162461bcd60e51b815260206004820152601b60248201527f4272696467653a206e6f74207772617070656443757272656e6379000000000060448201526064015b60405180910390fd5b005b600080fd5b34801561038257600080fd5b5061036f6103913660046137d6565b610a9e565b3480156103a257600080fd5b506103c36103b1366004613887565b60426020526000908152604090205481565b6040519081526020015b60405180910390f35b3480156103e257600080fd5b5061036f6103f13660046138ae565b610d30565b34801561040257600080fd5b506037546103c3565b34801561041757600080fd5b5061036f6104263660046138e1565b610dbf565b34801561043757600080fd5b5061036f61044636600461397e565b61105a565b34801561045757600080fd5b5061036f6104663660046139e2565b6110da565b34801561047757600080fd5b5061036f61048636600461397e565b611245565b34801561049757600080fd5b506103c360395481565b3480156104ad57600080fd5b506104de6104bc366004613887565b6000908152604260209081526040808320548352603e90915290205460ff1690565b60405190151581526020016103cd565b3480156104fa57600080fd5b50610524610509366004613887565b6044602052600090815260409020546001600160a01b031681565b6040516001600160a01b0390911681526020016103cd565b34801561054857600080fd5b5061036f611317565b34801561055d57600080fd5b5061036f61056c36600461397e565b6113cf565b34801561057d57600080fd5b506104de61058c36600461397e565b6114b0565b34801561059d57600080fd5b506103c36105ac366004613ada565b6114c3565b3480156105bd57600080fd5b50604080518082019091526002815261763360f01b60208201525b6040516103cd9190613ba3565b3480156105f157600080fd5b506105d861163e565b34801561060657600080fd5b5060345460ff166104de565b34801561061e57600080fd5b506104de61062d36600461397e565b603d6020526000908152604090205460ff1681565b34801561064e57600080fd5b5061036f61065d366004613bca565b6116cc565b34801561066e57600080fd5b506103c37ff18ceda3f6355f78c234feba066041a50f6557bfb600201e2a71a89e2dd8043381565b3480156106a257600080fd5b5061036f611a84565b3480156106b757600080fd5b5061036f611a8f565b3480156106cc57600080fd5b5061036f6106db366004613c41565b611b14565b3480156106ec57600080fd5b506103c36106fb36600461397e565b60456020526000908152604090205481565b34801561071957600080fd5b5061036f611b4c565b34801561072e57600080fd5b5061036f61073d36600461397e565b611bbd565b34801561074e57600080fd5b5061036f611beb565b34801561076357600080fd5b5060345461010090046001600160a01b0316610524565b34801561078657600080fd5b506104de60345461010090046001600160a01b0316331490565b3480156107ac57600080fd5b5061036f6107bb36600461397e565b611c68565b3480156107cc57600080fd5b50603f54610524906001600160a01b031681565b3480156107ec57600080fd5b506103c36107fb366004613c82565b611d41565b34801561080c57600080fd5b5061036f61081b366004613887565b611dbc565b34801561082c57600080fd5b506103c361083b366004613c9e565b611e81565b34801561084c57600080fd5b50604154610524906001600160a01b031681565b34801561086c57600080fd5b506103c361087b366004613c82565b611eec565b61036f61088e36600461397e565b611eff565b34801561089f57600080fd5b506040546104de90600160a01b900460ff1681565b3480156108c057600080fd5b50604054610524906001600160a01b031681565b3480156108e057600080fd5b5061036f6108ef36600461397e565b611ff3565b34801561090057600080fd5b5061052461090f366004613887565b6043602052600090815260409020546001600160a01b031681565b34801561093657600080fd5b506104de610945366004613887565b603e6020526000908152604090205460ff1681565b34801561096657600080fd5b5061036f6120b5565b34801561097b57600080fd5b506104de61098a366004613887565b600090815260426020526040902054151590565b3480156109aa57600080fd5b506105246109b936600461397e565b603b602052600090815260409020546001600160a01b031681565b3480156109e057600080fd5b506103c361271081565b3480156109f657600080fd5b506036546001600160a01b0316610524565b348015610a1457600080fd5b5061036f610a2336600461397e565b61215c565b348015610a3457600080fd5b5061036f610a4336600461397e565b6121de565b348015610a5457600080fd5b50610524610a6336600461397e565b603c602052600090815260409020546001600160a01b031681565b348015610a8a57600080fd5b5061036f610a9936600461397e565b61221c565b6001600160a01b038816301415610ab457610d26565b6001600160a01b0386163014610b0c5760405162461bcd60e51b815260206004820152601b60248201527f4272696467653a204e6f7420746f2074686973206164647265737300000000006044820152606401610366565b60003360405163555ddc6560e11b81526001600160a01b03821660048201527fac7fbab5f54a3ca8194167523c6753bfeb96a445279294b6125b68cce21770546024820152909150600090731820a4b7618bde71dce8cdc73aab6c95905fad249063aabbb8ca9060440160206040518083038186803b158015610b8e57600080fd5b505afa158015610ba2573d6000803e3d6000fd5b505050506040513d601f19601f82011682018060405250810190610bc69190613cf0565b6001600160a01b03161415610c1d5760405162461bcd60e51b815260206004820152601860248201527f4272696467653a204e6f742045524337373720746f6b656e00000000000000006044820152606401610366565b83151580610c3357506001600160a01b0388163b155b610c905760405162461bcd60e51b815260206004820152602860248201527f4272696467653a2053706563696679207265636569766572206164647265737360448201526720696e206461746160c01b6064820152608401610366565b60008415610cdc57610cd786868080601f0160208091040260200160405190810160405280939291908181526020018383808284376000920191909152506122f592505050565b610cde565b885b9050610d23828a838a8a8a8080601f0160208091040260200160405190810160405280939291908181526020018383808284376000920191909152506122fc92505050565b50505b5050505050505050565b610d4960345461010090046001600160a01b0316331490565b610d655760405162461bcd60e51b815260040161036690613d0d565b6040805460ff60a01b1916600160a01b831515810291909117808355915160ff9190920416151581527f983e436223c000a441c2443b394ca5fb4669a513fe86dc1dd44494047b514ad9906020015b60405180910390a150565b610dd860345461010090046001600160a01b0316331490565b610df45760405162461bcd60e51b815260040161036690613d0d565b6001600160a01b038616610e3f5760405162461bcd60e51b8152602060048201526012602482015271213934b233b29d10273ab636103a37b5b2b760711b6044820152606401610366565b6001600160a01b038087166000908152603b6020526040902054168015610ea15760405162461bcd60e51b81526020600482015260166024820152754272696467653a20416c72656164792065786973747360501b6044820152606401610366565b6000610eac876125f8565b9050600060388787604051602001610ec693929190613d86565b60408051601f1981840301815282825290546326d9e96360e01b83529092506001600160a01b0316906326d9e96390610f09908890889086908890600401613e2f565b602060405180830381600087803b158015610f2357600080fd5b505af1158015610f37573d6000803e3d6000fd5b505050506040513d601f19601f82011682018060405250810190610f5b9190613cf0565b6001600160a01b038a81166000818152603b6020908152604080832080548787166001600160a01b03199182168117909255818552603c9093529281902080549092169093179055603f5491516378bf2b5360e01b81526004810191909152602481018e905292955016906378bf2b5390604401600060405180830381600087803b158015610fe957600080fd5b505af1158015610ffd573d6000803e3d6000fd5b50505050886001600160a01b0316836001600160a01b03167f2ef93c4e96a4ef0b19497ff60c9e7360a8734f3d2cd27ae5318e43851734d17f8385604051611046929190613e7f565b60405180910390a350505050505050505050565b600054610100900460ff1680611073575060005460ff16155b61108f5760405162461bcd60e51b815260040161036690613ea1565b600054610100900460ff161580156110b1576000805461ffff19166101011790555b6110ba8261215c565b6034805460ff1916905580156110d6576000805461ff00191690555b5050565b600054610100900460ff16806110f3575060005460ff16155b61110f5760405162461bcd60e51b815260040161036690613ea1565b600054610100900460ff16158015611131576000805461ffff19166101011790555b61113a86611ff3565b6111438661105a565b81516111569060389060208501906136df565b50603f80546001600160a01b038681166001600160a01b031992831617909255604080548684169083161781556036805493891693909216929092179055516329965a1d60e01b815230600482018190527fb281fc8c12954d22544db45de3159a39272895b169a852b314f9cc762e44c53b60248301526044820152731820a4b7618bde71dce8cdc73aab6c95905fad24906329965a1d90606401600060405180830381600087803b15801561120b57600080fd5b505af115801561121f573d6000803e3d6000fd5b5050505061122b6120b5565b801561123d576000805461ff00191690555b505050505050565b61125e60345461010090046001600160a01b0316331490565b61127a5760405162461bcd60e51b815260040161036690613d0d565b6001600160a01b0381166112c95760405162461bcd60e51b81526020600482015260166024820152754272696467653a20777261707020697320656d70747960501b6044820152606401610366565b604180546001600160a01b0319166001600160a01b0383169081179091556040519081527f0966c958966f6fac9ff807af074f8117eb2e9ce2b76390db7a158e9bdeb2485c90602001610db4565b611320336114b0565b61133c5760405162461bcd60e51b815260040161036690613ee9565b60345460ff166113855760405162461bcd60e51b815260206004820152601460248201527314185d5cd8589b194e881b9bdd081c185d5cd95960621b6044820152606401610366565b6034805460ff191690557f5db9ee0a495bf2e6ff9c91a7834c1ba4fdd244a5e8aa4e537bd38aeae4b073aa335b6040516001600160a01b03909116815260200160405180910390a1565b6113e860345461010090046001600160a01b0316331490565b6114045760405162461bcd60e51b815260040161036690613d0d565b6001600160a01b0381166114645760405162461bcd60e51b815260206004820152602160248201527f4272696467653a2053696465546f6b656e466163746f727920697320656d70746044820152607960f81b6064820152608401610366565b604080546001600160a01b0319166001600160a01b038316908117825590519081527f619936bc6e3618d0b8dc69bcc70134fe9d88f9967f3a8b8304e318369252162590602001610db4565b60006114bd603383612664565b92915050565b6000428510156115075760405162461bcd60e51b815260206004820152600f60248201526e109c9a5919d94e8811561412549151608a1b6044820152606401610366565b600061152361151b368b90038b018b613f31565b8989896126e7565b6040805160008082526020820180845284905260ff89169282019290925260608101879052608081018690529192509060019060a0016020604051602081039080840390855afa15801561157b573d6000803e3d6000fd5b5050604051601f19015191506000905061159860208c018c61397e565b6001600160a01b0316141580156115cc57506115b760208b018b61397e565b6001600160a01b0316816001600160a01b0316145b6116185760405162461bcd60e51b815260206004820152601960248201527f4272696467653a20494e56414c49445f5349474e4154555245000000000000006044820152606401610366565b6116308a611629602082018261397e565b8b8b6127db565b9a9950505050505050505050565b6038805461164b90613d42565b80601f016020809104026020016040519081016040528092919081815260200182805461167790613d42565b80156116c45780601f10611699576101008083540402835291602001916116c4565b820191906000526020600020905b8154815290600101906020018083116116a757829003601f168201915b505050505081565b60345460ff16156116ef5760405162461bcd60e51b815260040161036690613fae565b6001603560008282546117029190613fee565b90915550506035546036546001600160a01b0316336001600160a01b0316146117665760405162461bcd60e51b8152602060048201526016602482015275213934b233b29d102737ba102332b232b930ba34b7b760511b6044820152606401610366565b6001600160a01b0388166000908152603d602052604090205460ff16806117a657506001600160a01b038881166000908152603b60205260409020541615155b6117ea5760405162461bcd60e51b8152602060048201526015602482015274213934b233b29d102ab735b737bbb7103a37b5b2b760591b6044820152606401610366565b6001600160a01b0386166118325760405162461bcd60e51b815260206004820152600f60248201526e4272696467653a204e756c6c20546f60881b6044820152606401610366565b600085116118755760405162461bcd60e51b815260206004820152601060248201526f04272696467653a20416d6f756e7420360841b6044820152606401610366565b836118bb5760405162461bcd60e51b8152602060048201526016602482015275084e4d2c8ceca74409cead8d84084d8dec6d690c2e6d60531b6044820152606401610366565b826118fe5760405162461bcd60e51b8152602060048201526013602482015272084e4d2c8ceca74409cead8d840a8f090c2e6d606b1b6044820152606401610366565b6000838152604260205260409020541561195a5760405162461bcd60e51b815260206004820152601860248201527f4272696467653a20416c726561647920616363657074656400000000000000006044820152606401610366565b60006119698787878787611e81565b6000818152603e602052604090205490915060ff16156119c55760405162461bcd60e51b8152602060048201526017602482015276109c9a5919d94e88105b1c9958591e4818db185a5b5959604a1b6044820152606401610366565b60008481526042602090815260408083208490556043825280832080546001600160a01b038e81166001600160a01b03199283168117909355604485529483902080548e871692168217905582519081529283018a905290820188905263ffffffff86166060830152918916919086907f2858b8803acb87882fd2de49ce7572ae3e741fb8073cbe772fa50ce00bdfba229060800160405180910390a4506035548114610d265760405162461bcd60e51b815260040161036690614006565b611a8d33612abe565b565b611aa860345461010090046001600160a01b0316331490565b611ac45760405162461bcd60e51b815260040161036690613d0d565b60345460405160009161010090046001600160a01b0316907f8be0079c531659141344cd1fd0a4f28419497f9722a3daafe3b4186f6b6457e0908390a360348054610100600160a81b0319169055565b33611b2a6001600160a01b038516823085612b00565b611b4684828585604051806020016040528060008152506122fc565b50505050565b600054610100900460ff1680611b65575060005460ff16155b611b815760405162461bcd60e51b815260040161036690613ea1565b600054610100900460ff16158015611ba3576000805461ffff19166101011790555b60016035558015611bba576000805461ff00191690555b50565b611bc6336114b0565b611be25760405162461bcd60e51b815260040161036690613ee9565b611bba81612b6b565b611bf4336114b0565b611c105760405162461bcd60e51b815260040161036690613ee9565b60345460ff1615611c335760405162461bcd60e51b815260040161036690613fae565b6034805460ff191660011790557f62e78cea01bee320cd4e420270b5ea74000d11b0c9f74754ebdbfc544b05a2586113b23390565b611c8160345461010090046001600160a01b0316331490565b611c9d5760405162461bcd60e51b815260040161036690613d0d565b6001600160a01b038116611cf35760405162461bcd60e51b815260206004820152601c60248201527f4272696467653a20416c6c6f77546f6b656e7320697320656d707479000000006044820152606401610366565b603f80546001600160a01b0319166001600160a01b0383169081179091556040519081527f5f2c1fe803fd576d8af05ea156011cc9cc8c025bda24c1e85772fc05a0b3f1e390602001610db4565b60608101356000908152604460205260408120546001600160a01b0316336001600160a01b031614611dae5760405162461bcd60e51b8152602060048201526016602482015275213934b233b29d1034b73b30b634b21039b2b73232b960511b6044820152606401610366565b6114bd82335b6000806127db565b611dd560345461010090046001600160a01b0316331490565b611df15760405162461bcd60e51b815260040161036690613d0d565b611dfe600a612710614061565b8110611e4c5760405162461bcd60e51b815260206004820152601760248201527f4272696467653a20626967676572207468616e203130250000000000000000006044820152606401610366565b60378190556040518181527f97e97c577f03bda90e2c9739011ec065ed5fbfb36ae217d20bb0d9be95e160cd90602001610db4565b6040805160208101859052908101839052606086811b6bffffffffffffffffffffffff1916908201526074810185905260e082901b6001600160e01b031916609482015260009060980160405160208183030381529060405280519060200120905095945050505050565b60006114bd82611db4602082018261397e565b60415433906001600160a01b0316611f595760405162461bcd60e51b815260206004820152601d60248201527f4272696467653a207772617070656443757272656e637920656d7074790000006044820152606401610366565b604160009054906101000a90046001600160a01b03166001600160a01b031663d0e30db0346040518263ffffffff1660e01b81526004016000604051808303818588803b158015611fa957600080fd5b505af1158015611fbd573d6000803e3d6000fd5b50505050506110d6604160009054906101000a90046001600160a01b0316828434604051806020016040528060008152506122fc565b600054610100900460ff168061200c575060005460ff16155b6120285760405162461bcd60e51b815260040161036690613ea1565b600054610100900460ff1615801561204a576000805461ffff19166101011790555b60348054610100600160a81b0319166101006001600160a01b0385811682029290921792839055604051920416906000907f8be0079c531659141344cd1fd0a4f28419497f9722a3daafe3b4186f6b6457e0908290a380156110d6576000805461ff00191690555050565b604080518082018252601081526f52534b20546f6b656e2042726964676560801b60208083019182528351808501855260018152603160f81b908201529151902082517f8b73c3c69bb8fe3d512ecc4cf759cc79239f7b179b0ffacaa9a75d522b39400f8152918201527fc89efdaa54c0f20c7adf612882df0950f5a951637e0307cdcb4c672f298b8bc69181019190915246606082015230608082015260a09020603955565b600054610100900460ff1680612175575060005460ff16155b6121915760405162461bcd60e51b815260040161036690613ea1565b600054610100900460ff161580156121b3576000805461ffff19166101011790555b6121bc826114b0565b6121c9576121c982612b6b565b80156110d6576000805461ff00191690555050565b6121f760345461010090046001600160a01b0316331490565b6122135760405162461bcd60e51b815260040161036690613d0d565b611bba81612bad565b61223560345461010090046001600160a01b0316331490565b6122515760405162461bcd60e51b815260040161036690613d0d565b6001600160a01b0381166122a75760405162461bcd60e51b815260206004820152601b60248201527f4272696467653a2046656465726174696f6e20697320656d70747900000000006044820152606401610366565b603680546001600160a01b0319166001600160a01b0383169081179091556040519081527f4a41a4d11aaf0c0c9e4311ac1d68b2b0134556da594779a2a35b0ddf7cd1eafb90602001610db4565b6014015190565b604054600160a01b900460ff161561234a5760405162461bcd60e51b81526020600482015260116024820152704272696467653a20557067726164696e6760781b6044820152606401610366565b60345460ff161561236d5760405162461bcd60e51b815260040161036690613fae565b6001603560008282546123809190613fee565b90915550506035546001600160a01b0386166000908152603d60205260408120805460ff191660011790556037546123c790612710906123c1908790612c75565b90612cfb565b905060006123d58583612d3d565b905060006123e289612d7f565b905085601260ff831614612413576124106123fe836012614075565b61240990600a61417c565b8890612c75565b90505b603f54604051638c34bc5560e01b81526001600160a01b038c811660048301526024820184905290911690638c34bc5590604401600060405180830381600087803b15801561246157600080fd5b505af1158015612475573d6000803e3d6000fd5b5050506001600160a01b03808c166000908152603c60205260409020548c9250161561254f57506001600160a01b03808b166000908152603c6020526040812054909116906124c38c612e6b565b905060006124d18683612f43565b90506124dd8782612f85565b96506124e98682612d3d565b60405163fe9d930360e01b81529096506001600160a01b038e169063fe9d93039061251a9089908d9060040161418b565b600060405180830381600087803b15801561253457600080fd5b505af1158015612548573d6000803e3d6000fd5b5050505050505b886001600160a01b03168a6001600160a01b0316826001600160a01b03167f1e90de9ae4d02420648a650f45f089a1be18fbca324092544ea626f9833212b0878b60405161259e92919061418b565b60405180910390a484156125d2576034546125d29061010090046001600160a01b03166001600160a01b038d169087612fe4565b5050505050603554811461123d5760405162461bcd60e51b815260040161036690614006565b600060128260ff16111561264e5760405162461bcd60e51b815260206004820152601c60248201527f4c69625574696c733a20446563696d616c73206e6f74203c3d203138000000006044820152606401610366565b612659826012614075565b6114bd90600a61417c565b60006001600160a01b0382166126c75760405162461bcd60e51b815260206004820152602260248201527f526f6c65733a206163636f756e7420697320746865207a65726f206164647265604482015261737360f01b6064820152608401610366565b506001600160a01b03166000908152602091909152604090205460ff1690565b603954845160208087015160608801516001600160a01b0384166000908152604590935260408320805493956127d29590947ff18ceda3f6355f78c234feba066041a50f6557bfb600201e2a71a89e2dd8043394919391928b918b918a61274d836141a4565b909155506040805160208101989098526001600160a01b03968716908801526060870194909452608086019290925290921660a084015260c083019190915260e08201526101008101859052610120016040516020818303038152906040528051906020012060405161190160f01b8152600281019290925260228201526042902090565b95945050505050565b60006001603560008282546127f09190613fee565b909155505060355460608601356000908152604360205260409020546001600160a01b03168061285b5760405162461bcd60e51b8152602060048201526016602482015275109c9a5919d94e88151e081b9bdd0818dc9bdcdcd95960521b6044820152606401610366565b600061288c61286d60208a018a61397e565b60208a013560408b013560608c013561083b60a08e0160808f016141bf565b606089013560009081526042602052604090205490915081146128fb5760405162461bcd60e51b815260206004820152602160248201527f4272696467653a2057726f6e67207472616e73616374696f6e446174614861736044820152600d60fb1b6064820152608401610366565b6000818152603e602052604090205460ff16156129545760405162461bcd60e51b8152602060048201526017602482015276109c9a5919d94e88105b1c9958591e4818db185a5b5959604a1b6044820152606401610366565b6000818152603e60209081526040808320805460ff191660011790556001600160a01b0385168352603d90915290205460ff16156129a45761299d82888a602001358989613019565b93506129b8565b6129b582888a6020013589896131c9565b93505b6129c5602089018961397e565b6001600160a01b0316826001600160a01b031689606001357f42b1cb6263e8da47edf0583516eda1de16f729d26282f5791dc5b7af1010e925604460008d60600135815260200190815260200160002060009054906101000a90046001600160a01b03168c602001358d604001358e6080016020810190612a4691906141bf565b604080516001600160a01b039586168152602081019490945283019190915263ffffffff166060820152818d166080820152908b1660a082015260c081018a905260e00160405180910390a450506035548114612ab55760405162461bcd60e51b815260040161036690614006565b50949350505050565b612ac96033826133e0565b6040516001600160a01b038216907fcd265ebaf09df2871cc7bd4133404a235ba12eff2041bb89d9c714a2621c7c7e90600090a250565b6040516001600160a01b0380851660248301528316604482015260648101829052611b469085906323b872dd60e01b906084015b60408051601f198184030181529190526020810180516001600160e01b03166001600160e01b031990931692909217909152613458565b612b766033826135d8565b6040516001600160a01b038216907f6719d08c1888103bea251a4ed56406bd0c3e69723c8a1686e017e7bbe159b6f890600090a250565b6001600160a01b038116612c0e5760405162461bcd60e51b815260206004820152602260248201527f4f776e61626c653a206e6577206f776e6572206973207a65726f206164647265604482015261737360f01b6064820152608401610366565b6034546040516001600160a01b0380841692610100900416907f8be0079c531659141344cd1fd0a4f28419497f9722a3daafe3b4186f6b6457e090600090a3603480546001600160a01b0390921661010002610100600160a81b0319909216919091179055565b600082612c84575060006114bd565b6000612c9083856141da565b905082612c9d8583614061565b14612cf45760405162461bcd60e51b815260206004820152602160248201527f536166654d6174683a206d756c7469706c69636174696f6e206f766572666c6f6044820152607760f81b6064820152608401610366565b9392505050565b6000612cf483836040518060400160405280601a81526020017f536166654d6174683a206469766973696f6e206279207a65726f000000000000815250613654565b6000612cf483836040518060400160405280601e81526020017f536166654d6174683a207375627472616374696f6e206f766572666c6f770000815250613682565b60408051600481526024810182526020810180516001600160e01b031663313ce56760e01b1790529051600091829182916001600160a01b03861691612dc591906141f9565b600060405180830381855afa9150503d8060008114612e00576040519150601f19603f3d011682016040523d82523d6000602084013e612e05565b606091505b509150915081612e4f5760405162461bcd60e51b81526020600482015260156024820152744c69625574696c733a204e6f20646563696d616c7360581b6044820152606401610366565b80806020019051810190612e639190614215565b949350505050565b60408051600481526024810182526020810180516001600160e01b031663556f0dc760e01b1790529051600091829182916001600160a01b03861691612eb191906141f9565b600060405180830381855afa9150503d8060008114612eec576040519150601f19603f3d011682016040523d82523d6000602084013e612ef1565b606091505b509150915081612e4f5760405162461bcd60e51b815260206004820152601860248201527f4c69625574696c733a204e6f206772616e756c617269747900000000000000006044820152606401610366565b6000612cf483836040518060400160405280601881526020017f536166654d6174683a206d6f64756c6f206279207a65726f00000000000000008152506136b3565b600080612f928385613fee565b905083811015612cf45760405162461bcd60e51b815260206004820152601b60248201527f536166654d6174683a206164646974696f6e206f766572666c6f7700000000006044820152606401610366565b6040516001600160a01b03831660248201526044810182905261301490849063a9059cbb60e01b90606401612b34565b505050565b60008061302587612d7f565b60ff169050600061304c61303a83601261422e565b61304590600a614245565b8790612cfb565b9050808411156130955760405162461bcd60e51b8152602060048201526014602482015273084e4d2c8ceca7440cccaca40e8dede40d0d2ced60631b6044820152606401610366565b61309f848261422e565b6041549093506001600160a01b038981169116141561319057604154604051632e1a7d4d60e01b8152600481018390526001600160a01b0390911690632e1a7d4d90602401600060405180830381600087803b1580156130fe57600080fd5b505af1158015613112573d6000803e3d6000fd5b50506040516001600160a01b038a16925085156108fc02915085906000818181858888f1935050505015801561314c573d6000803e3d6000fd5b50831561318b576040516001600160a01b0386169085156108fc029086906000818181858888f19350505050158015613189573d6000803e3d6000fd5b505b6131be565b6131a46001600160a01b0389168885612fe4565b83156131be576131be6001600160a01b0389168686612fe4565b505095945050505050565b6001600160a01b038086166000908152603b6020908152604080832054815163556f0dc760e01b81529151939416928492849263556f0dc79260048083019392829003018186803b15801561321d57600080fd5b505afa158015613231573d6000803e3d6000fd5b505050506040513d601f19601f820116820180604052508101906132559190614215565b905060006132638783612c75565b9050808511156132ac5760405162461bcd60e51b8152602060048201526014602482015273084e4d2c8ceca7440cccaca40e8dede40d0d2ced60631b6044820152606401610366565b6132b6858261422e565b604051630dcdc7dd60e41b81526001600160a01b038a81166004830152602482018390526080604483015260006084830181905260a0606484015260a48301529195509084169063dcdc7dd09060c401600060405180830381600087803b15801561332057600080fd5b505af1158015613334573d6000803e3d6000fd5b5050505060008511156133d457604051630dcdc7dd60e41b81526001600160a01b03878116600483015260248201879052608060448301526000608483015260a06064830152600b60a48301526a72656c617965722066656560a81b60c483015284169063dcdc7dd09060e401600060405180830381600087803b1580156133bb57600080fd5b505af11580156133cf573d6000803e3d6000fd5b505050505b50505095945050505050565b6133ea8282612664565b6134365760405162461bcd60e51b815260206004820181905260248201527f526f6c65733a206163636f756e7420646f65736e2774206861766520726f6c656044820152606401610366565b6001600160a01b0316600090815260209190915260409020805460ff19169055565b6001600160a01b0382163b6134af5760405162461bcd60e51b815260206004820152601f60248201527f5361666545524332303a2063616c6c20746f206e6f6e2d636f6e7472616374006044820152606401610366565b600080836001600160a01b0316836040516134ca91906141f9565b6000604051808303816000865af19150503d8060008114613507576040519150601f19603f3d011682016040523d82523d6000602084013e61350c565b606091505b50915091508161355e5760405162461bcd60e51b815260206004820181905260248201527f5361666545524332303a206c6f772d6c6576656c2063616c6c206661696c65646044820152606401610366565b805115611b4657808060200190518101906135799190614251565b611b465760405162461bcd60e51b815260206004820152602a60248201527f5361666545524332303a204552433230206f7065726174696f6e20646964206e6044820152691bdd081cdd58d8d9595960b21b6064820152608401610366565b6135e28282612664565b1561362f5760405162461bcd60e51b815260206004820152601f60248201527f526f6c65733a206163636f756e7420616c72656164792068617320726f6c65006044820152606401610366565b6001600160a01b0316600090815260209190915260409020805460ff19166001179055565b600081836136755760405162461bcd60e51b81526004016103669190613ba3565b5060006127d28486614061565b600081848411156136a65760405162461bcd60e51b81526004016103669190613ba3565b5060006127d2848661422e565b600081836136d45760405162461bcd60e51b81526004016103669190613ba3565b50612e63838561426e565b8280546136eb90613d42565b90600052602060002090601f01602090048101928261370d5760008555613753565b82601f1061372657805160ff1916838001178555613753565b82800160010185558215613753579182015b82811115613753578251825591602001919060010190613738565b5061375f929150613763565b5090565b5b8082111561375f5760008155600101613764565b6001600160a01b0381168114611bba57600080fd5b60008083601f84011261379f57600080fd5b50813567ffffffffffffffff8111156137b757600080fd5b6020830191508360208285010111156137cf57600080fd5b9250929050565b60008060008060008060008060c0898b0312156137f257600080fd5b88356137fd81613778565b9750602089013561380d81613778565b9650604089013561381d81613778565b955060608901359450608089013567ffffffffffffffff8082111561384157600080fd5b61384d8c838d0161378d565b909650945060a08b013591508082111561386657600080fd5b506138738b828c0161378d565b999c989b5096995094979396929594505050565b60006020828403121561389957600080fd5b5035919050565b8015158114611bba57600080fd5b6000602082840312156138c057600080fd5b8135612cf4816138a0565b803560ff811681146138dc57600080fd5b919050565b600080600080600080600060a0888a0312156138fc57600080fd5b87359650602088013561390e81613778565b955061391c604089016138cb565b9450606088013567ffffffffffffffff8082111561393957600080fd5b6139458b838c0161378d565b909650945060808a013591508082111561395e57600080fd5b5061396b8a828b0161378d565b989b979a50959850939692959293505050565b60006020828403121561399057600080fd5b8135612cf481613778565b634e487b7160e01b600052604160045260246000fd5b604051601f8201601f1916810167ffffffffffffffff811182821017156139da576139da61399b565b604052919050565b600080600080600060a086880312156139fa57600080fd5b8535613a0581613778565b9450602086810135613a1681613778565b94506040870135613a2681613778565b93506060870135613a3681613778565b9250608087013567ffffffffffffffff80821115613a5357600080fd5b818901915089601f830112613a6757600080fd5b813581811115613a7957613a7961399b565b613a8b601f8201601f191685016139b1565b91508082528a84828501011115613aa157600080fd5b80848401858401376000848284010152508093505050509295509295909350565b600060a08284031215613ad457600080fd5b50919050565b6000806000806000806000610160888a031215613af657600080fd5b613b008989613ac2565b965060a0880135613b1081613778565b955060c0880135945060e08801359350613b2d61010089016138cb565b92506101208801359150610140880135905092959891949750929550565b60005b83811015613b66578181015183820152602001613b4e565b83811115611b465750506000910152565b60008151808452613b8f816020860160208601613b4b565b601f01601f19169290920160200192915050565b602081526000612cf46020830184613b77565b803563ffffffff811681146138dc57600080fd5b600080600080600080600060e0888a031215613be557600080fd5b8735613bf081613778565b96506020880135613c0081613778565b95506040880135613c1081613778565b9450606088013593506080880135925060a08801359150613c3360c08901613bb6565b905092959891949750929550565b600080600060608486031215613c5657600080fd5b8335613c6181613778565b92506020840135613c7181613778565b929592945050506040919091013590565b600060a08284031215613c9457600080fd5b612cf48383613ac2565b600080600080600060a08688031215613cb657600080fd5b8535613cc181613778565b9450602086013593506040860135925060608601359150613ce460808701613bb6565b90509295509295909350565b600060208284031215613d0257600080fd5b8151612cf481613778565b6020808252818101527f4f776e61626c653a2063616c6c6572206973206e6f7420746865206f776e6572604082015260600190565b600181811c90821680613d5657607f821691505b60208210811415613ad457634e487b7160e01b600052602260045260246000fd5b81818437506000910190815290565b600080855481600182811c915080831680613da257607f831692505b6020808410821415613dc257634e487b7160e01b86526022600452602486fd5b818015613dd65760018114613de757613e14565b60ff19861689528489019650613e14565b60008c81526020902060005b86811015613e0c5781548b820152908501908301613df3565b505084890196505b505050505050613e25818587613d77565b9695505050505050565b60608152836060820152838560808301376000608085830101526000601f19601f86011682016080838203016020840152613e6d6080820186613b77565b91505082604083015295945050505050565b604081526000613e926040830185613b77565b90508260208301529392505050565b60208082526028908201527f436f6e747261637420696e7374616e636520697320616c726561647920696e696040820152671d1a585b1a5e995960c21b606082015260800190565b60208082526028908201527f506175736572526f6c653a2063616c6c657220646f65736e277420686176652060408201526774686520726f6c6560c01b606082015260800190565b600060a08284031215613f4357600080fd5b60405160a0810181811067ffffffffffffffff82111715613f6657613f6661399b565b6040528235613f7481613778565b80825250602083013560208201526040830135604082015260608301356060820152613fa260808401613bb6565b60808201529392505050565b60208082526010908201526f14185d5cd8589b194e881c185d5cd95960821b604082015260600190565b634e487b7160e01b600052601160045260246000fd5b6000821982111561400157614001613fd8565b500190565b60208082526025908201527f5265656e7472616e637947756172643a206e6f207265656e7472616e7420616c6040820152641b1bddd95960da1b606082015260800190565b634e487b7160e01b600052601260045260246000fd5b6000826140705761407061404b565b500490565b600060ff821660ff84168082101561408f5761408f613fd8565b90039392505050565b600181815b808511156140d35781600019048211156140b9576140b9613fd8565b808516156140c657918102915b93841c939080029061409d565b509250929050565b6000826140ea575060016114bd565b816140f7575060006114bd565b816001811461410d576002811461411757614133565b60019150506114bd565b60ff84111561412857614128613fd8565b50506001821b6114bd565b5060208310610133831016604e8410600b8410161715614156575081810a6114bd565b6141608383614098565b806000190482111561417457614174613fd8565b029392505050565b6000612cf460ff8416836140db565b828152604060208201526000612e636040830184613b77565b60006000198214156141b8576141b8613fd8565b5060010190565b6000602082840312156141d157600080fd5b612cf482613bb6565b60008160001904831182151516156141f4576141f4613fd8565b500290565b6000825161420b818460208701613b4b565b9190910192915050565b60006020828403121561422757600080fd5b5051919050565b60008282101561424057614240613fd8565b500390565b6000612cf483836140db565b60006020828403121561426357600080fd5b8151612cf4816138a0565b60008261427d5761427d61404b565b50069056fea26469706673582212209cb420ddb8bafae020a29fbbdef85eff69e6f26348079aaea2df702446e45b4a64736f6c63430008090033",
  "devdoc": {
    "kind": "dev",
    "methods": {
      "__Pausable_init(address)": {
        "details": "Initializes the contract in unpaused state. Assigns the Pauser role to the deployer."
      },
      "initialize(address)": {
        "details": "Initializes the contract setting the deployer as the initial owner."
      },
      "isOwner()": {
        "details": "Returns true if the caller is the current owner."
      },
      "owner()": {
        "details": "Returns the address of the current owner."
      },
      "pause()": {
        "details": "Called by a pauser to pause, triggers stopped state."
      },
      "paused()": {
        "details": "Returns true if the contract is paused, and false otherwise."
      },
      "renounceOwnership()": {
        "details": "Leaves the contract without owner. It will not be possible to call `onlyOwner` functions anymore. Can only be called by the current owner. > Note: Renouncing ownership will leave the contract without an owner, thereby removing any functionality that is only available to the owner."
      },
      "transferOwnership(address)": {
        "details": "Transfers ownership of the contract to a new account (`newOwner`). Can only be called by the current owner."
      },
      "unpause()": {
        "details": "Called by a pauser to unpause, returns to normal state."
      }
    },
    "version": 1
  },
  "userdoc": {
    "kind": "user",
    "methods": {
      "acceptTransfer(address,address,address,uint256,bytes32,bytes32,uint32)": {
        "notice": "Accepts the transaction from the other chain that was voted and sent by the Federation contract"
      },
      "claim((address,uint256,bytes32,bytes32,uint32))": {
        "notice": "Claims the crossed transaction using the hash, this sends the funds to the address indicated in"
      },
      "depositTo(address)": {
        "notice": "Use network currency and cross it."
      },
      "receiveTokensTo(address,address,uint256)": {
        "notice": "ERC-20 tokens approve and transferFrom pattern See https://eips.ethereum.org/EIPS/eip-20#transferfrom"
      },
      "tokensReceived(address,address,address,uint256,bytes,bytes)": {
        "notice": "ERC-777 tokensReceived hook allows to send tokens to a contract and notify it in a single transaction See https://eips.ethereum.org/EIPS/eip-777#motivation for details"
      }
    },
    "version": 1
  },
  "storageLayout": {
    "storage": [
      {
        "astId": 13561,
        "contract": "contracts/Bridge/BridgeV3.sol:BridgeV3",
        "label": "initialized",
        "offset": 0,
        "slot": "0",
        "type": "t_bool"
      },
      {
        "astId": 13564,
        "contract": "contracts/Bridge/BridgeV3.sol:BridgeV3",
        "label": "initializing",
        "offset": 1,
        "slot": "0",
        "type": "t_bool"
      },
      {
        "astId": 13604,
        "contract": "contracts/Bridge/BridgeV3.sol:BridgeV3",
        "label": "______gap",
        "offset": 0,
        "slot": "1",
        "type": "t_array(t_uint256)50_storage"
      },
      {
        "astId": 13630,
        "contract": "contracts/Bridge/BridgeV3.sol:BridgeV3",
        "label": "_pausers",
        "offset": 0,
        "slot": "51",
        "type": "t_struct(Role)7887_storage"
      },
      {
        "astId": 13752,
        "contract": "contracts/Bridge/BridgeV3.sol:BridgeV3",
        "label": "_paused",
        "offset": 0,
        "slot": "52",
        "type": "t_bool"
      },
      {
        "astId": 13850,
        "contract": "contracts/Bridge/BridgeV3.sol:BridgeV3",
        "label": "_owner",
        "offset": 1,
        "slot": "52",
        "type": "t_address"
      },
      {
        "astId": 14569,
        "contract": "contracts/Bridge/BridgeV3.sol:BridgeV3",
        "label": "_guardCounter",
        "offset": 0,
        "slot": "53",
        "type": "t_uint256"
      },
      {
        "astId": 3361,
        "contract": "contracts/Bridge/BridgeV3.sol:BridgeV3",
        "label": "federation",
        "offset": 0,
        "slot": "54",
        "type": "t_address"
      },
      {
        "astId": 3363,
        "contract": "contracts/Bridge/BridgeV3.sol:BridgeV3",
        "label": "feePercentage",
        "offset": 0,
        "slot": "55",
        "type": "t_uint256"
      },
      {
        "astId": 3365,
        "contract": "contracts/Bridge/BridgeV3.sol:BridgeV3",
        "label": "symbolPrefix",
        "offset": 0,
        "slot": "56",
        "type": "t_string_storage"
      },
      {
        "astId": 3367,
        "contract": "contracts/Bridge/BridgeV3.sol:BridgeV3",
        "label": "DOMAIN_SEPARATOR",
        "offset": 0,
        "slot": "57",
        "type": "t_bytes32"
      },
      {
        "astId": 3369,
        "contract": "contracts/Bridge/BridgeV3.sol:BridgeV3",
        "label": "_deprecatedSpentToday",
        "offset": 0,
        "slot": "58",
        "type": "t_uint256"
      },
      {
        "astId": 3373,
        "contract": "contracts/Bridge/BridgeV3.sol:BridgeV3",
        "label": "mappedTokens",
        "offset": 0,
        "slot": "59",
        "type": "t_mapping(t_address,t_address)"
      },
      {
        "astId": 3377,
        "contract": "contracts/Bridge/BridgeV3.sol:BridgeV3",
        "label": "originalTokens",
        "offset": 0,
        "slot": "60",
        "type": "t_mapping(t_address,t_address)"
      },
      {
        "astId": 3381,
        "contract": "contracts/Bridge/BridgeV3.sol:BridgeV3",
        "label": "knownTokens",
        "offset": 0,
        "slot": "61",
        "type": "t_mapping(t_address,t_bool)"
      },
      {
        "astId": 3385,
        "contract": "contracts/Bridge/BridgeV3.sol:BridgeV3",
        "label": "claimed",
        "offset": 0,
        "slot": "62",
        "type": "t_mapping(t_bytes32,t_bool)"
      },
      {
        "astId": 3388,
        "contract": "contracts/Bridge/BridgeV3.sol:BridgeV3",
        "label": "allowTokens",
        "offset": 0,
        "slot": "63",
        "type": "t_contract(IAllowTokens)6309"
      },
      {
        "astId": 3391,
        "contract": "contracts/Bridge/BridgeV3.sol:BridgeV3",
        "label": "sideTokenFactory",
        "offset": 0,
        "slot": "64",
        "type": "t_contract(ISideTokenFactory)6619"
      },
      {
        "astId": 3393,
        "contract": "contracts/Bridge/BridgeV3.sol:BridgeV3",
        "label": "isUpgrading",
        "offset": 20,
        "slot": "64",
        "type": "t_bool"
      },
      {
        "astId": 3404,
        "contract": "contracts/Bridge/BridgeV3.sol:BridgeV3",
        "label": "wrappedCurrency",
        "offset": 0,
        "slot": "65",
        "type": "t_contract(IWrapped)6672"
      },
      {
        "astId": 3408,
        "contract": "contracts/Bridge/BridgeV3.sol:BridgeV3",
        "label": "transactionsDataHashes",
        "offset": 0,
        "slot": "66",
        "type": "t_mapping(t_bytes32,t_bytes32)"
      },
      {
        "astId": 3412,
        "contract": "contracts/Bridge/BridgeV3.sol:BridgeV3",
        "label": "originalTokenAddresses",
        "offset": 0,
        "slot": "67",
        "type": "t_mapping(t_bytes32,t_address)"
      },
      {
        "astId": 3416,
        "contract": "contracts/Bridge/BridgeV3.sol:BridgeV3",
        "label": "senderAddresses",
        "offset": 0,
        "slot": "68",
        "type": "t_mapping(t_bytes32,t_address)"
      },
      {
        "astId": 3423,
        "contract": "contracts/Bridge/BridgeV3.sol:BridgeV3",
        "label": "nonces",
        "offset": 0,
        "slot": "69",
        "type": "t_mapping(t_address,t_uint256)"
      }
    ],
    "types": {
      "t_address": {
        "encoding": "inplace",
        "label": "address",
        "numberOfBytes": "20"
      },
      "t_array(t_uint256)50_storage": {
        "base": "t_uint256",
        "encoding": "inplace",
        "label": "uint256[50]",
        "numberOfBytes": "1600"
      },
      "t_bool": {
        "encoding": "inplace",
        "label": "bool",
        "numberOfBytes": "1"
      },
      "t_bytes32": {
        "encoding": "inplace",
        "label": "bytes32",
        "numberOfBytes": "32"
      },
      "t_contract(IAllowTokens)6309": {
        "encoding": "inplace",
        "label": "contract IAllowTokens",
        "numberOfBytes": "20"
      },
      "t_contract(ISideTokenFactory)6619": {
        "encoding": "inplace",
        "label": "contract ISideTokenFactory",
        "numberOfBytes": "20"
      },
      "t_contract(IWrapped)6672": {
        "encoding": "inplace",
        "label": "contract IWrapped",
        "numberOfBytes": "20"
      },
      "t_mapping(t_address,t_address)": {
        "encoding": "mapping",
        "key": "t_address",
        "label": "mapping(address => address)",
        "numberOfBytes": "32",
        "value": "t_address"
      },
      "t_mapping(t_address,t_bool)": {
        "encoding": "mapping",
        "key": "t_address",
        "label": "mapping(address => bool)",
        "numberOfBytes": "32",
        "value": "t_bool"
      },
      "t_mapping(t_address,t_uint256)": {
        "encoding": "mapping",
        "key": "t_address",
        "label": "mapping(address => uint256)",
        "numberOfBytes": "32",
        "value": "t_uint256"
      },
      "t_mapping(t_bytes32,t_address)": {
        "encoding": "mapping",
        "key": "t_bytes32",
        "label": "mapping(bytes32 => address)",
        "numberOfBytes": "32",
        "value": "t_address"
      },
      "t_mapping(t_bytes32,t_bool)": {
        "encoding": "mapping",
        "key": "t_bytes32",
        "label": "mapping(bytes32 => bool)",
        "numberOfBytes": "32",
        "value": "t_bool"
      },
      "t_mapping(t_bytes32,t_bytes32)": {
        "encoding": "mapping",
        "key": "t_bytes32",
        "label": "mapping(bytes32 => bytes32)",
        "numberOfBytes": "32",
        "value": "t_bytes32"
      },
      "t_string_storage": {
        "encoding": "bytes",
        "label": "string",
        "numberOfBytes": "32"
      },
      "t_struct(Role)7887_storage": {
        "encoding": "inplace",
        "label": "struct Roles.Role",
        "members": [
          {
            "astId": 7886,
            "contract": "contracts/Bridge/BridgeV3.sol:BridgeV3",
            "label": "bearer",
            "offset": 0,
            "slot": "0",
            "type": "t_mapping(t_address,t_bool)"
          }
        ],
        "numberOfBytes": "32"
      },
      "t_uint256": {
        "encoding": "inplace",
        "label": "uint256",
        "numberOfBytes": "32"
      }
    }
  }
}