{
  "address": "0xE63252FbEB7621eb11e18aF8D1A7F8E4C26Fe8F2",
  "abi": [
    {
      "anonymous": false,
      "inputs": [
        {
          "indexed": false,
          "internalType": "address",
          "name": "bridge",
          "type": "address"
        }
      ],
      "name": "BridgeChanged",
      "type": "event"
    },
    {
      "anonymous": false,
      "inputs": [
        {
          "indexed": true,
          "internalType": "address",
          "name": "federator",
          "type": "address"
        },
        {
          "indexed": true,
          "internalType": "bytes32",
          "name": "transactionHash",
          "type": "bytes32"
        },
        {
          "indexed": true,
          "internalType": "bytes32",
          "name": "transactionId",
          "type": "bytes32"
        },
        {
          "indexed": false,
          "internalType": "address",
          "name": "originalTokenAddress",
          "type": "address"
        },
        {
          "indexed": false,
          "internalType": "address",
          "name": "sender",
          "type": "address"
        },
        {
          "indexed": false,
          "internalType": "address",
          "name": "receiver",
          "type": "address"
        },
        {
          "indexed": false,
          "internalType": "uint256",
          "name": "amount",
          "type": "uint256"
        },
        {
          "indexed": false,
          "internalType": "bytes32",
          "name": "blockHash",
          "type": "bytes32"
        },
        {
          "indexed": false,
          "internalType": "uint32",
          "name": "logIndex",
          "type": "uint32"
        },
        {
          "indexed": false,
          "internalType": "uint256",
          "name": "originChainId",
          "type": "uint256"
        },
        {
          "indexed": false,
          "internalType": "uint256",
          "name": "destinationChainId",
          "type": "uint256"
        }
      ],
      "name": "Executed",
      "type": "event"
    },
    {
      "anonymous": false,
      "inputs": [
        {
          "indexed": true,
          "internalType": "address",
          "name": "sender",
          "type": "address"
        },
        {
          "indexed": false,
          "internalType": "uint256",
          "name": "currentChainId",
          "type": "uint256"
        },
        {
          "indexed": false,
          "internalType": "uint256",
          "name": "currentBlock",
          "type": "uint256"
        },
        {
          "indexed": false,
          "internalType": "string",
          "name": "fedVersion",
          "type": "string"
        },
        {
          "indexed": false,
          "internalType": "uint256[]",
          "name": "fedChainsIds",
          "type": "uint256[]"
        },
        {
          "indexed": false,
          "internalType": "uint256[]",
          "name": "fedChainsBlocks",
          "type": "uint256[]"
        },
        {
          "indexed": false,
          "internalType": "string[]",
          "name": "fedChainsInfo",
          "type": "string[]"
        }
      ],
      "name": "HeartBeat",
      "type": "event"
    },
    {
      "anonymous": false,
      "inputs": [
        {
          "indexed": true,
          "internalType": "address",
          "name": "member",
          "type": "address"
        }
      ],
      "name": "MemberAddition",
      "type": "event"
    },
    {
      "anonymous": false,
      "inputs": [
        {
          "indexed": true,
          "internalType": "address",
          "name": "member",
          "type": "address"
        }
      ],
      "name": "MemberRemoval",
      "type": "event"
    },
    {
      "anonymous": false,
      "inputs": [
        {
          "indexed": true,
          "internalType": "address",
          "name": "previousOwner",
          "type": "address"
        },
        {
          "indexed": true,
          "internalType": "address",
          "name": "newOwner",
          "type": "address"
        }
      ],
      "name": "OwnershipTransferred",
      "type": "event"
    },
    {
      "anonymous": false,
      "inputs": [
        {
          "indexed": false,
          "internalType": "uint256",
          "name": "required",
          "type": "uint256"
        }
      ],
      "name": "RequirementChange",
      "type": "event"
    },
    {
      "anonymous": false,
      "inputs": [
        {
          "indexed": true,
          "internalType": "address",
          "name": "federator",
          "type": "address"
        },
        {
          "indexed": true,
          "internalType": "bytes32",
          "name": "transactionHash",
          "type": "bytes32"
        },
        {
          "indexed": true,
          "internalType": "bytes32",
          "name": "transactionId",
          "type": "bytes32"
        },
        {
          "indexed": false,
          "internalType": "address",
          "name": "originalTokenAddress",
          "type": "address"
        },
        {
          "indexed": false,
          "internalType": "address",
          "name": "sender",
          "type": "address"
        },
        {
          "indexed": false,
          "internalType": "address",
          "name": "receiver",
          "type": "address"
        },
        {
          "indexed": false,
          "internalType": "uint256",
          "name": "amount",
          "type": "uint256"
        },
        {
          "indexed": false,
          "internalType": "bytes32",
          "name": "blockHash",
          "type": "bytes32"
        },
        {
          "indexed": false,
          "internalType": "uint32",
          "name": "logIndex",
          "type": "uint32"
        },
        {
          "indexed": false,
          "internalType": "uint256",
          "name": "originChainId",
          "type": "uint256"
        },
        {
          "indexed": false,
          "internalType": "uint256",
          "name": "destinationChainId",
          "type": "uint256"
        }
      ],
      "name": "Voted",
      "type": "event"
    },
    {
      "inputs": [],
      "name": "MAX_MEMBER_COUNT",
      "outputs": [
        {
          "internalType": "uint256",
          "name": "",
          "type": "uint256"
        }
      ],
      "stateMutability": "view",
      "type": "function"
    },
    {
      "inputs": [
        {
          "internalType": "address",
          "name": "_newMember",
          "type": "address"
        }
      ],
      "name": "addMember",
      "outputs": [],
      "stateMutability": "nonpayable",
      "type": "function"
    },
    {
      "inputs": [],
      "name": "bridge",
      "outputs": [
        {
          "internalType": "contract IBridge",
          "name": "",
          "type": "address"
        }
      ],
      "stateMutability": "view",
      "type": "function"
    },
    {
      "inputs": [
        {
          "internalType": "uint256",
          "name": "_required",
          "type": "uint256"
        }
      ],
      "name": "changeRequirement",
      "outputs": [],
      "stateMutability": "nonpayable",
      "type": "function"
    },
    {
      "inputs": [
        {
          "internalType": "string",
          "name": "fedVersion",
          "type": "string"
        },
        {
          "internalType": "uint256[]",
          "name": "fedChainsIds",
          "type": "uint256[]"
        },
        {
          "internalType": "uint256[]",
          "name": "fedChainsBlocks",
          "type": "uint256[]"
        },
        {
          "internalType": "string[]",
          "name": "fedChainsInfo",
          "type": "string[]"
        }
      ],
      "name": "emitHeartbeat",
      "outputs": [],
      "stateMutability": "nonpayable",
      "type": "function"
    },
    {
      "inputs": [],
      "name": "getMembers",
      "outputs": [
        {
          "internalType": "address[]",
          "name": "",
          "type": "address[]"
        }
      ],
      "stateMutability": "view",
      "type": "function"
    },
    {
      "inputs": [
        {
          "internalType": "bytes32",
          "name": "transactionId",
          "type": "bytes32"
        }
      ],
      "name": "getTransactionCount",
      "outputs": [
        {
          "internalType": "uint256",
          "name": "",
          "type": "uint256"
        }
      ],
      "stateMutability": "view",
      "type": "function"
    },
    {
      "inputs": [
        {
          "internalType": "address",
          "name": "originalTokenAddress",
          "type": "address"
        },
        {
          "internalType": "address",
          "name": "sender",
          "type": "address"
        },
        {
          "internalType": "address",
          "name": "receiver",
          "type": "address"
        },
        {
          "internalType": "uint256",
          "name": "amount",
          "type": "uint256"
        },
        {
          "internalType": "bytes32",
          "name": "blockHash",
          "type": "bytes32"
        },
        {
          "internalType": "bytes32",
          "name": "transactionHash",
          "type": "bytes32"
        },
        {
          "internalType": "uint32",
          "name": "logIndex",
          "type": "uint32"
        },
        {
          "internalType": "uint256",
          "name": "originChainId",
          "type": "uint256"
        },
        {
          "internalType": "uint256",
          "name": "destinationChainId",
          "type": "uint256"
        }
      ],
      "name": "getTransactionId",
      "outputs": [
        {
          "internalType": "bytes32",
          "name": "",
          "type": "bytes32"
        }
      ],
      "stateMutability": "pure",
      "type": "function"
    },
    {
      "inputs": [
        {
          "internalType": "bytes32",
          "name": "transactionId",
          "type": "bytes32"
        }
      ],
      "name": "hasVoted",
      "outputs": [
        {
          "internalType": "bool",
          "name": "",
          "type": "bool"
        }
      ],
      "stateMutability": "view",
      "type": "function"
    },
    {
      "inputs": [
        {
          "internalType": "address[]",
          "name": "_members",
          "type": "address[]"
        },
        {
          "internalType": "uint256",
          "name": "_required",
          "type": "uint256"
        },
        {
          "internalType": "address",
          "name": "_bridge",
          "type": "address"
        },
        {
          "internalType": "address",
          "name": "owner",
          "type": "address"
        }
      ],
      "name": "initialize",
      "outputs": [],
      "stateMutability": "nonpayable",
      "type": "function"
    },
    {
      "inputs": [
        {
          "internalType": "address",
          "name": "sender",
          "type": "address"
        }
      ],
      "name": "initialize",
      "outputs": [],
      "stateMutability": "nonpayable",
      "type": "function"
    },
    {
      "inputs": [
        {
          "internalType": "address",
          "name": "",
          "type": "address"
        }
      ],
      "name": "isMember",
      "outputs": [
        {
          "internalType": "bool",
          "name": "",
          "type": "bool"
        }
      ],
      "stateMutability": "view",
      "type": "function"
    },
    {
      "inputs": [],
      "name": "isOwner",
      "outputs": [
        {
          "internalType": "bool",
          "name": "",
          "type": "bool"
        }
      ],
      "stateMutability": "view",
      "type": "function"
    },
    {
      "inputs": [
        {
          "internalType": "bytes32",
          "name": "transactionId",
          "type": "bytes32"
        },
        {
          "internalType": "bytes32",
          "name": "transactionIdMultichain",
          "type": "bytes32"
        }
      ],
      "name": "isProcessed",
      "outputs": [
        {
          "internalType": "bool",
          "name": "",
          "type": "bool"
        }
      ],
      "stateMutability": "view",
      "type": "function"
    },
    {
      "inputs": [
        {
          "internalType": "bytes32",
          "name": "transactionId",
          "type": "bytes32"
        },
        {
          "internalType": "bytes32",
          "name": "transactionIdMultichain",
          "type": "bytes32"
        }
      ],
      "name": "isVoted",
      "outputs": [
        {
          "internalType": "bool",
          "name": "",
          "type": "bool"
        }
      ],
      "stateMutability": "view",
      "type": "function"
    },
    {
      "inputs": [
        {
          "internalType": "uint256",
          "name": "",
          "type": "uint256"
        }
      ],
      "name": "members",
      "outputs": [
        {
          "internalType": "address",
          "name": "",
          "type": "address"
        }
      ],
      "stateMutability": "view",
      "type": "function"
    },
    {
      "inputs": [],
      "name": "owner",
      "outputs": [
        {
          "internalType": "address",
          "name": "",
          "type": "address"
        }
      ],
      "stateMutability": "view",
      "type": "function"
    },
    {
      "inputs": [
        {
          "internalType": "bytes32",
          "name": "",
          "type": "bytes32"
        }
      ],
      "name": "processed",
      "outputs": [
        {
          "internalType": "bool",
          "name": "",
          "type": "bool"
        }
      ],
      "stateMutability": "view",
      "type": "function"
    },
    {
      "inputs": [
        {
          "internalType": "address",
          "name": "_oldMember",
          "type": "address"
        }
      ],
      "name": "removeMember",
      "outputs": [],
      "stateMutability": "nonpayable",
      "type": "function"
    },
    {
      "inputs": [],
      "name": "renounceOwnership",
      "outputs": [],
      "stateMutability": "nonpayable",
      "type": "function"
    },
    {
      "inputs": [],
      "name": "required",
      "outputs": [
        {
          "internalType": "uint256",
          "name": "",
          "type": "uint256"
        }
      ],
      "stateMutability": "view",
      "type": "function"
    },
    {
      "inputs": [
        {
          "internalType": "address",
          "name": "_bridge",
          "type": "address"
        }
      ],
      "name": "setBridge",
      "outputs": [],
      "stateMutability": "nonpayable",
      "type": "function"
    },
    {
      "inputs": [
        {
          "internalType": "bytes32",
          "name": "transactionId",
          "type": "bytes32"
        }
      ],
      "name": "transactionWasProcessed",
      "outputs": [
        {
          "internalType": "bool",
          "name": "",
          "type": "bool"
        }
      ],
      "stateMutability": "view",
      "type": "function"
    },
    {
      "inputs": [
        {
          "internalType": "address",
          "name": "newOwner",
          "type": "address"
        }
      ],
      "name": "transferOwnership",
      "outputs": [],
      "stateMutability": "nonpayable",
      "type": "function"
    },
    {
      "inputs": [],
      "name": "version",
      "outputs": [
        {
          "internalType": "string",
          "name": "",
          "type": "string"
        }
      ],
      "stateMutability": "pure",
      "type": "function"
    },
    {
      "inputs": [
        {
          "internalType": "address",
          "name": "originalTokenAddress",
          "type": "address"
        },
        {
          "internalType": "address payable",
          "name": "sender",
          "type": "address"
        },
        {
          "internalType": "address payable",
          "name": "receiver",
          "type": "address"
        },
        {
          "internalType": "uint256",
          "name": "value",
          "type": "uint256"
        },
        {
          "internalType": "bytes32",
          "name": "blockHash",
          "type": "bytes32"
        },
        {
          "internalType": "bytes32",
          "name": "transactionHash",
          "type": "bytes32"
        },
        {
          "internalType": "uint32",
          "name": "logIndex",
          "type": "uint32"
        },
        {
          "internalType": "uint256",
          "name": "originChainId",
          "type": "uint256"
        },
        {
          "internalType": "uint256",
          "name": "destinationChainId",
          "type": "uint256"
        }
      ],
      "name": "voteTransaction",
      "outputs": [],
      "stateMutability": "nonpayable",
      "type": "function"
    },
    {
      "inputs": [
        {
          "internalType": "bytes32",
          "name": "",
          "type": "bytes32"
        },
        {
          "internalType": "address",
          "name": "",
          "type": "address"
        }
      ],
      "name": "votes",
      "outputs": [
        {
          "internalType": "bool",
          "name": "",
          "type": "bool"
        }
      ],
      "stateMutability": "view",
      "type": "function"
    }
  ],
  "transactionHash": "0xf1d1016193258794839df45c2315bed915926a81a5b1fef27149b312980b1402",
  "args": [],
  "numDeployments": 1,
  "solcInputHash": "caeb40de80c8668828546c6b3fb7fad2",
  "bytecode": "0x608060405234801561001057600080fd5b50611f3f806100206000396000f3fe608060405234801561001057600080fd5b50600436106101a95760003560e01c80639386775a116100f9578063c1b4a1e311610097578063ca6d56dc11610071578063ca6d56dc14610401578063dc8452cd14610414578063e78cea921461041d578063f2fde38b1461043057600080fd5b8063c1b4a1e3146103b8578063c1f0808a146103cb578063c4d66de8146103ee57600080fd5b8063a1fb4acb116100d3578063a1fb4acb1461034c578063a230c5241461035f578063a93585f014610382578063ba51a6df146103a557600080fd5b80639386775a146102f65780639dc8f9c8146103245780639eab52531461033757600080fd5b8063681fc921116101665780637b6d343a116101405780637b6d343a146102ac5780638da5cb5b146102bf5780638dd14802146102d05780638f32d59b146102e357600080fd5b8063681fc9211461027b578063715018a61461029157806379d9ee721461029957600080fd5b806309c69cfa146101ae5780630b1ca49a146101d65780631b4613cb146101eb5780633f78f0691461021957806354fd4d501461022c5780635daf08ca14610250575b600080fd5b6101c16101bc3660046118ac565b610443565b60405190151581526020015b60405180910390f35b6101e96101e43660046118e3565b61048d565b005b6101c16101f9366004611907565b600090815260386020908152604080832033845290915290205460ff1690565b6101e9610227366004611939565b6107cb565b6040805180820182526002815261763360f01b602082015290516101cd91906119c4565b61026361025e366004611907565b610a0b565b6040516001600160a01b0390911681526020016101cd565b610283603281565b6040519081526020016101cd565b6101e9610a35565b6101e96102a7366004611a65565b610aa9565b6101c16102ba3660046118ac565b610bbb565b6033546001600160a01b0316610263565b6101e96102de3660046118e3565b610bea565b6033546001600160a01b031633146101c1565b6101c1610304366004611b54565b603860209081526000928352604080842090915290825290205460ff1681565b610283610332366004611939565b610c20565b61033f610cad565b6040516101cd9190611b84565b61028361035a366004611907565b610d0f565b6101c161036d3660046118e3565b60376020526000908152604090205460ff1681565b6101c1610390366004611907565b60009081526039602052604090205460ff1690565b6101e96103b3366004611907565b610d97565b6101e96103c6366004611bd1565b610eb9565b6101c16103d9366004611907565b60396020526000908152604090205460ff1681565b6101e96103fc3660046118e3565b6111dc565b6101e961040f3660046118e3565b611292565b61028360365481565b603454610263906001600160a01b031681565b6101e961043e3660046118e3565b61145e565b600081815260386020908152604080832033845290915281205460ff16806104845750600083815260386020908152604080832033845290915290205460ff165b90505b92915050565b6033546001600160a01b031633146104c05760405162461bcd60e51b81526004016104b790611c45565b60405180910390fd5b6001600160a01b0381166105115760405162461bcd60e51b81526020600482015260186024820152772332b232b930ba34b7b71d1022b6b83a3c9036b2b6b132b960411b60448201526064016104b7565b6001600160a01b03811660009081526037602052604090205460ff166105835760405162461bcd60e51b815260206004820152602160248201527f46656465726174696f6e3a204d656d62657220646f65736e27742065786973746044820152607360f81b60648201526084016104b7565b6035546001106105e65760405162461bcd60e51b815260206004820152602860248201527f46656465726174696f6e3a2043616e27742072656d6f766520616c6c20746865604482015267206d656d6265727360c01b60648201526084016104b7565b6036546035546105f890600190611c90565b10156106605760405162461bcd60e51b815260206004820152603160248201527f46656465726174696f6e3a2043616e27742068617665206c657373207468616e604482015270207265717569726564206d656d6265727360781b60648201526084016104b7565b6001600160a01b0381166000908152603760205260408120805460ff191690555b60355461069090600190611c90565b81101561076057816001600160a01b0316603582815481106106b4576106b4611ca7565b6000918252602090912001546001600160a01b0316141561074e57603580546106df90600190611c90565b815481106106ef576106ef611ca7565b600091825260209091200154603580546001600160a01b03909216918390811061071b5761071b611ca7565b9060005260206000200160006101000a8154816001600160a01b0302191690836001600160a01b03160217905550610760565b8061075881611cbd565b915050610681565b50603580548061077257610772611cd8565b600082815260208120820160001990810180546001600160a01b03191690559091019091556040516001600160a01b038316917f270bfc616dd36d5cb6b35aac93e6ef22b089c34e6f6ad6f0892797424840897b91a250565b3360009081526037602052604090205460ff166108265760405162461bcd60e51b81526020600482015260196024820152782332b232b930ba34b7b71d102737ba102332b232b930ba37b960391b60448201526064016104b7565b61082f81611491565b6040516bffffffffffffffffffffffff1960608b811b821660208401528a811b8216603484015289901b166048820152605c8101879052607c8101869052609c81018590526001600160e01b031960e085901b1660bc82015260009060c00160405160208183030381529060405280519060200120905060006108b98b8b8b8b8b8b8b8b8b610c20565b90506108c58282610bbb565b156108d1575050610a00565b6108db8282610443565b156108e7575050610a00565b6000818152603860205260408120600191336001600160a01b031681526020810191909152604001600020805460ff19169115159190911790558086336001600160a01b03167fa7be469662a3e5b2343dce0cefce9d3e114875d7334d8d724d3838cf629c5b108e8e8e8e8e8d8d8d60405161096a989796959493929190611cee565b60405180910390a461097c82826114e0565b156109fd576000818152603960205260409020805460ff191660011790556109ab8b8b8b8b8b8b8b8b8b611600565b8086336001600160a01b03167f0fe3e5a751f4df1a701ea5d318482623b6a6b59ece98cb64169279b44219355e8e8e8e8e8e8d8d8d6040516109f4989796959493929190611cee565b60405180910390a45b50505b505050505050505050565b60358181548110610a1b57600080fd5b6000918252602090912001546001600160a01b0316905081565b6033546001600160a01b03163314610a5f5760405162461bcd60e51b81526004016104b790611c45565b6033546040516000916001600160a01b0316907f8be0079c531659141344cd1fd0a4f28419497f9722a3daafe3b4186f6b6457e0908390a3603380546001600160a01b0319169055565b3360009081526037602052604090205460ff16610b045760405162461bcd60e51b81526020600482015260196024820152782332b232b930ba34b7b71d102737ba102332b232b930ba37b960391b60448201526064016104b7565b8483148015610b1257508481145b610b5e5760405162461bcd60e51b815260206004820152601c60248201527f46656465726174696f6e3a204c656e677468206d6973736d617463680000000060448201526064016104b7565b336001600160a01b03167f909659508bf1f4c0ad9b406809f943832e107af28b0b436d9b7d56d3993c77f146438b8b8b8b8b8b8b8b604051610ba99a99989796959493929190611d9a565b60405180910390a25050505050505050565b60008181526039602052604081205460ff16806104845750505060009081526039602052604090205460ff1690565b6033546001600160a01b03163314610c145760405162461bcd60e51b81526004016104b790611c45565b610c1d816116ab565b50565b604080516bffffffffffffffffffffffff1960609b8c1b81166020808401919091529a8c1b8116603483015298909a1b90971660488a0152605c890195909552607c880193909352609c8701919091526001600160e01b031960e091821b1660bc87015260c086019190915280850191909152815180850390910181526101009093019052815191012090565b60606035805480602002602001604051908101604052809291908181526020018280548015610d0557602002820191906000526020600020905b81546001600160a01b03168152600190910190602001808311610ce7575b5050505050905090565b600080805b603554811015610d905760008481526038602052604081206035805491929184908110610d4357610d43611ca7565b60009182526020808320909101546001600160a01b0316835282019290925260400190205460ff1615610d7e57610d7b600183611e87565b91505b80610d8881611cbd565b915050610d14565b5092915050565b6033546001600160a01b03163314610dc15760405162461bcd60e51b81526004016104b790611c45565b60355481818111801590610dd457508015155b8015610ddf57508115155b610e2b5760405162461bcd60e51b815260206004820181905260248201527f46656465726174696f6e3a20496e76616c696420726571756972656d656e747360448201526064016104b7565b6002831015610e7c5760405162461bcd60e51b815260206004820152601f60248201527f46656465726174696f6e3a205265717569726573206174206c6561737420320060448201526064016104b7565b60368390556040518381527fa3f1ee9126a074d9326c682f561767f710e927faa811f7a99829d49dc421797a9060200160405180910390a1505050565b8383818111801590610eca57508015155b8015610ed557508115155b610f215760405162461bcd60e51b815260206004820181905260248201527f46656465726174696f6e3a20496e76616c696420726571756972656d656e747360448201526064016104b7565b600054610100900460ff1680610f3a575060005460ff16155b610f565760405162461bcd60e51b81526004016104b790611e9f565b600054610100900460ff16158015610f78576000805461ffff19166101011790555b610f81846111dc565b6032871115610fd25760405162461bcd60e51b815260206004820152601c60248201527f46656465726174696f6e3a20546f6f206d616e79206d656d626572730000000060448201526064016104b7565b610fde60358989611834565b5060005b8781101561117e57603760008a8a8481811061100057611000611ca7565b905060200201602081019061101591906118e3565b6001600160a01b0316815260208101919091526040016000205460ff1615801561106f5750600089898381811061104e5761104e611ca7565b905060200201602081019061106391906118e3565b6001600160a01b031614155b6110bb5760405162461bcd60e51b815260206004820152601b60248201527f46656465726174696f6e3a20496e76616c6964206d656d62657273000000000060448201526064016104b7565b6001603760008b8b858181106110d3576110d3611ca7565b90506020020160208101906110e891906118e3565b6001600160a01b031681526020810191909152604001600020805460ff191691151591909117905588888281811061112257611122611ca7565b905060200201602081019061113791906118e3565b6001600160a01b03167f72114e270de66b9d2710ecf140403e5e99b1574767d6a8197bdc8d807a46e7c760405160405180910390a28061117681611cbd565b915050610fe2565b5060368690556040518681527fa3f1ee9126a074d9326c682f561767f710e927faa811f7a99829d49dc421797a9060200160405180910390a16111c0856116ab565b80156111d2576000805461ff00191690555b5050505050505050565b600054610100900460ff16806111f5575060005460ff16155b6112115760405162461bcd60e51b81526004016104b790611e9f565b600054610100900460ff16158015611233576000805461ffff19166101011790555b603380546001600160a01b0319166001600160a01b0384169081179091556040516000907f8be0079c531659141344cd1fd0a4f28419497f9722a3daafe3b4186f6b6457e0908290a3801561128e576000805461ff00191690555b5050565b6033546001600160a01b031633146112bc5760405162461bcd60e51b81526004016104b790611c45565b6001600160a01b03811661130d5760405162461bcd60e51b81526020600482015260186024820152772332b232b930ba34b7b71d1022b6b83a3c9036b2b6b132b960411b60448201526064016104b7565b6001600160a01b03811660009081526037602052604090205460ff16156113805760405162461bcd60e51b815260206004820152602160248201527f46656465726174696f6e3a204d656d62657220616c72656164792065786973746044820152607360f81b60648201526084016104b7565b6035546032116113d25760405162461bcd60e51b815260206004820152601f60248201527f46656465726174696f6e3a204d6178206d656d6265727320726561636865640060448201526064016104b7565b6001600160a01b038116600081815260376020526040808220805460ff1916600190811790915560358054918201815583527fcfa4bec1d3298408bb5afcfcd9c430549c5b31f8aa5c5848151c0a55f473c34d0180546001600160a01b03191684179055517f72114e270de66b9d2710ecf140403e5e99b1574767d6a8197bdc8d807a46e7c79190a250565b6033546001600160a01b031633146114885760405162461bcd60e51b81526004016104b790611c45565b610c1d81611755565b468114610c1d5760405162461bcd60e51b815260206004820152601d60248201527f46656465726174696f6e3a204e6f7420626c6f636b2e636861696e696400000060448201526064016104b7565b6000806114eb611812565b90506000805b6035548110156115f4576000858152603860205260408120603580549192918490811061152057611520611ca7565b60009182526020808320909101546001600160a01b0316835282019290925260400190205460ff161561155f57611558600183611e87565b91506115bf565b6000868152603860205260408120603580549192918490811061158457611584611ca7565b60009182526020808320909101546001600160a01b0316835282019290925260400190205460ff16156115bf576115bc600183611e87565b91505b8282101580156115d157506036548210155b156115e25760019350505050610487565b806115ec81611cbd565b9150506114f1565b50600095945050505050565b60345460405163048aa97560e21b81526001600160a01b038b811660048301528a811660248301528981166044830152606482018990526084820188905260a4820187905263ffffffff861660c483015260e4820185905261010482018490529091169063122aa5d49061012401600060405180830381600087803b15801561168857600080fd5b505af115801561169c573d6000803e3d6000fd5b50505050505050505050505050565b6001600160a01b0381166117015760405162461bcd60e51b815260206004820152601860248201527f46656465726174696f6e3a20456d70747920627269646765000000000000000060448201526064016104b7565b603480546001600160a01b0319166001600160a01b0383169081179091556040519081527f9775531310b2880b61484ed85cbb0b491c8fde3a07f289c63b925517827944979060200160405180910390a150565b6001600160a01b0381166117b65760405162461bcd60e51b815260206004820152602260248201527f4f776e61626c653a206e6577206f776e6572206973207a65726f206164647265604482015261737360f01b60648201526084016104b7565b6033546040516001600160a01b038084169216907f8be0079c531659141344cd1fd0a4f28419497f9722a3daafe3b4186f6b6457e090600090a3603380546001600160a01b0319166001600160a01b0392909216919091179055565b60355460009061182490600290611ee7565b61182f906001611e87565b905090565b828054828255906000526020600020908101928215611887579160200282015b828111156118875781546001600160a01b0319166001600160a01b03843516178255602090920191600190910190611854565b50611893929150611897565b5090565b5b808211156118935760008155600101611898565b600080604083850312156118bf57600080fd5b50508035926020909101359150565b6001600160a01b0381168114610c1d57600080fd5b6000602082840312156118f557600080fd5b8135611900816118ce565b9392505050565b60006020828403121561191957600080fd5b5035919050565b803563ffffffff8116811461193457600080fd5b919050565b60008060008060008060008060006101208a8c03121561195857600080fd5b8935611963816118ce565b985060208a0135611973816118ce565b975060408a0135611983816118ce565b965060608a0135955060808a0135945060a08a013593506119a660c08b01611920565b925060e08a013591506101008a013590509295985092959850929598565b600060208083528351808285015260005b818110156119f1578581018301518582016040015282016119d5565b81811115611a03576000604083870101525b50601f01601f1916929092016040019392505050565b60008083601f840112611a2b57600080fd5b50813567ffffffffffffffff811115611a4357600080fd5b6020830191508360208260051b8501011115611a5e57600080fd5b9250929050565b6000806000806000806000806080898b031215611a8157600080fd5b883567ffffffffffffffff80821115611a9957600080fd5b818b0191508b601f830112611aad57600080fd5b813581811115611abc57600080fd5b8c6020828501011115611ace57600080fd5b60209283019a509850908a01359080821115611ae957600080fd5b611af58c838d01611a19565b909850965060408b0135915080821115611b0e57600080fd5b611b1a8c838d01611a19565b909650945060608b0135915080821115611b3357600080fd5b50611b408b828c01611a19565b999c989b5096995094979396929594505050565b60008060408385031215611b6757600080fd5b823591506020830135611b79816118ce565b809150509250929050565b6020808252825182820181905260009190848201906040850190845b81811015611bc55783516001600160a01b031683529284019291840191600101611ba0565b50909695505050505050565b600080600080600060808688031215611be957600080fd5b853567ffffffffffffffff811115611c0057600080fd5b611c0c88828901611a19565b909650945050602086013592506040860135611c27816118ce565b91506060860135611c37816118ce565b809150509295509295909350565b6020808252818101527f4f776e61626c653a2063616c6c6572206973206e6f7420746865206f776e6572604082015260600190565b634e487b7160e01b600052601160045260246000fd5b600082821015611ca257611ca2611c7a565b500390565b634e487b7160e01b600052603260045260246000fd5b6000600019821415611cd157611cd1611c7a565b5060010190565b634e487b7160e01b600052603160045260246000fd5b6001600160a01b03988916815296881660208801529490961660408601526060850192909252608084015263ffffffff1660a083015260c082019290925260e08101919091526101000190565b81835281816020850137506000828201602090810191909152601f909101601f19169091010190565b81835260006001600160fb1b03831115611d7d57600080fd5b8260051b8083602087013760009401602001938452509192915050565b8a8152600060208b8184015260c06040840152611dbb60c084018b8d611d3b565b8381036060850152611dce818a8c611d64565b90508381036080850152611de381888a611d64565b84810360a08601528581529050818101600586901b820183018760005b88811015611e6f57848303601f190184528135368b9003601e19018112611e2657600080fd5b8a01803567ffffffffffffffff811115611e3f57600080fd5b8036038c1315611e4e57600080fd5b611e5b85828a8501611d3b565b958801959450505090850190600101611e00565b5050809450505050509b9a5050505050505050505050565b60008219821115611e9a57611e9a611c7a565b500190565b60208082526028908201527f436f6e747261637420696e7374616e636520697320616c726561647920696e696040820152671d1a585b1a5e995960c21b606082015260800190565b600082611f0457634e487b7160e01b600052601260045260246000fd5b50049056fea2646970667358221220794e729750ae0f01085704630887f8ae7230a8b5ef4e23b101a12e8f9d8c431f64736f6c63430008090033",
  "devdoc": {
    "kind": "dev",
    "methods": {
      "addMember(address)": {
        "params": {
          "_newMember": "address of the new member"
        }
      },
      "changeRequirement(uint256)": {
        "details": "Emits the RequirementChange event",
        "params": {
          "_required": "the number of minimum members to approve an transaction, it has to be bigger than 1"
        }
      },
      "emitHeartbeat(string,uint256[],uint256[],string[])": {
        "details": "Emits HeartBeat event"
      },
      "getMembers()": {
        "returns": {
          "_0": "Current members"
        }
      },
      "getTransactionCount(bytes32)": {
        "params": {
          "transactionId": "The transaction hashed from getTransactionId function"
        }
      },
      "getTransactionId(address,address,address,uint256,bytes32,bytes32,uint32,uint256,uint256)": {
        "details": "It encodes and applies keccak256 to the parameters received in the same order",
        "params": {
          "amount": "Could be the amount or the tokenId",
          "blockHash": "The block hash in which the transaction with the cross event occurred",
          "destinationChainId": "Is chainId of the destination chain",
          "logIndex": "Index of the event in the logs",
          "originChainId": "Is chainId of the original chain",
          "originalTokenAddress": "The address of the token in the origin (main) chain",
          "receiver": "Who is going to receive the token in the opposite chain",
          "sender": "The address who solicited the cross token",
          "transactionHash": "The transaction in which the cross event occurred"
        },
        "returns": {
          "_0": "The hash generated by the parameters."
        }
      },
      "initialize(address)": {
        "details": "Initializes the contract setting the deployer as the initial owner."
      },
      "isOwner()": {
        "details": "Returns true if the caller is the current owner."
      },
      "owner()": {
        "details": "Returns the address of the current owner."
      },
      "removeMember(address)": {
        "params": {
          "_oldMember": "address of the member to be removed from federation"
        }
      },
      "renounceOwnership()": {
        "details": "Leaves the contract without owner. It will not be possible to call `onlyOwner` functions anymore. Can only be called by the current owner. > Note: Renouncing ownership will leave the contract without an owner, thereby removing any functionality that is only available to the owner."
      },
      "setBridge(address)": {
        "details": "Emits BridgeChanged event",
        "params": {
          "_bridge": "the new bridge contract address that should implement the IBridge interface"
        }
      },
      "transferOwnership(address)": {
        "details": "Transfers ownership of the contract to a new account (`newOwner`). Can only be called by the current owner."
      },
      "version()": {
        "returns": {
          "_0": "version in v{Number}"
        }
      },
      "voteTransaction(address,address,address,uint256,bytes32,bytes32,uint32,uint256,uint256)": {
        "params": {
          "blockHash": "The block hash in which the transaction with the cross event occurred",
          "destinationChainId": "Is chainId of the destination chain",
          "logIndex": "Index of the event in the logs",
          "originChainId": "Is chainId of the original chain",
          "originalTokenAddress": "The address of the token in the origin (main) chain",
          "receiver": "Who is going to receive the token in the opposite chain",
          "sender": "The address who solicited the cross token",
          "transactionHash": "The transaction in which the cross event occurred",
          "value": "Amount"
        }
      }
    },
    "stateVariables": {
      "isMember": {
        "details": "The address should be a member to vote in transactions"
      },
      "required": {
        "details": "It should have at least the required amount of members"
      },
      "votes": {
        "details": "the members should approve the transaction by 50% + 1"
      }
    },
    "version": 1
  },
  "userdoc": {
    "kind": "user",
    "methods": {
      "addMember(address)": {
        "notice": "Add a new member to the federation"
      },
      "changeRequirement(uint256)": {
        "notice": "Changes the number of required members to vote and approve an transaction"
      },
      "emitHeartbeat(string,uint256[],uint256[],string[])": {
        "notice": "It emits an HeartBeat like an health check"
      },
      "getMembers()": {
        "notice": "Return all the current members of the federation"
      },
      "getTransactionCount(bytes32)": {
        "notice": "Get the amount of approved votes for that transactionId"
      },
      "getTransactionId(address,address,address,uint256,bytes32,bytes32,uint32,uint256,uint256)": {
        "notice": "Gets the hash of transaction from the following parameters encoded and keccaked"
      },
      "isMember(address)": {
        "notice": "All the addresses that are members of the federation"
      },
      "processed(bytes32)": {
        "notice": "(bytes32) transactionId => (bool) votedCheck if that transaction was already processed"
      },
      "removeMember(address)": {
        "notice": "Remove a member of the federation"
      },
      "required()": {
        "notice": "The minimum amount of votes to approve a transaction"
      },
      "setBridge(address)": {
        "notice": "Sets a new bridge contract"
      },
      "version()": {
        "notice": "Current version of the contract"
      },
      "voteTransaction(address,address,address,uint256,bytes32,bytes32,uint32,uint256,uint256)": {
        "notice": "Vote in a transaction, if it has enough votes it accepts the transfer"
      },
      "votes(bytes32,address)": {
        "notice": "(bytes32) transactionId = keccak256( abi.encodePacked( originalTokenAddress, sender, receiver, amount, blockHash, transactionHash, logIndex ) ) => ( (address) members => (bool) voted )Votes by members by the transaction ID"
      }
    },
    "version": 1
  },
  "storageLayout": {
    "storage": [
      {
        "astId": 15921,
        "contract": "contracts/Federation/Federation.sol:Federation",
        "label": "initialized",
        "offset": 0,
        "slot": "0",
        "type": "t_bool"
      },
      {
        "astId": 15924,
        "contract": "contracts/Federation/Federation.sol:Federation",
        "label": "initializing",
        "offset": 1,
        "slot": "0",
        "type": "t_bool"
      },
      {
        "astId": 15964,
        "contract": "contracts/Federation/Federation.sol:Federation",
        "label": "______gap",
        "offset": 0,
        "slot": "1",
        "type": "t_array(t_uint256)50_storage"
      },
      {
        "astId": 16210,
        "contract": "contracts/Federation/Federation.sol:Federation",
        "label": "_owner",
        "offset": 0,
        "slot": "51",
        "type": "t_address"
      },
      {
        "astId": 5025,
        "contract": "contracts/Federation/Federation.sol:Federation",
        "label": "bridge",
        "offset": 0,
        "slot": "52",
        "type": "t_contract(IBridge)8488"
      },
      {
        "astId": 5028,
        "contract": "contracts/Federation/Federation.sol:Federation",
        "label": "members",
        "offset": 0,
        "slot": "53",
        "type": "t_array(t_address)dyn_storage"
      },
      {
        "astId": 5031,
        "contract": "contracts/Federation/Federation.sol:Federation",
        "label": "required",
        "offset": 0,
        "slot": "54",
        "type": "t_uint256"
      },
      {
        "astId": 5036,
        "contract": "contracts/Federation/Federation.sol:Federation",
        "label": "isMember",
        "offset": 0,
        "slot": "55",
        "type": "t_mapping(t_address,t_bool)"
      },
      {
        "astId": 5043,
        "contract": "contracts/Federation/Federation.sol:Federation",
        "label": "votes",
        "offset": 0,
        "slot": "56",
        "type": "t_mapping(t_bytes32,t_mapping(t_address,t_bool))"
      },
      {
        "astId": 5048,
        "contract": "contracts/Federation/Federation.sol:Federation",
        "label": "processed",
        "offset": 0,
        "slot": "57",
        "type": "t_mapping(t_bytes32,t_bool)"
      }
    ],
    "types": {
      "t_address": {
        "encoding": "inplace",
        "label": "address",
        "numberOfBytes": "20"
      },
      "t_array(t_address)dyn_storage": {
        "base": "t_address",
        "encoding": "dynamic_array",
        "label": "address[]",
        "numberOfBytes": "32"
      },
      "t_array(t_uint256)50_storage": {
        "base": "t_uint256",
        "encoding": "inplace",
        "label": "uint256[50]",
        "numberOfBytes": "1600"
      },
      "t_bool": {
        "encoding": "inplace",
        "label": "bool",
        "numberOfBytes": "1"
      },
      "t_bytes32": {
        "encoding": "inplace",
        "label": "bytes32",
        "numberOfBytes": "32"
      },
      "t_contract(IBridge)8488": {
        "encoding": "inplace",
        "label": "contract IBridge",
        "numberOfBytes": "20"
      },
      "t_mapping(t_address,t_bool)": {
        "encoding": "mapping",
        "key": "t_address",
        "label": "mapping(address => bool)",
        "numberOfBytes": "32",
        "value": "t_bool"
      },
      "t_mapping(t_bytes32,t_bool)": {
        "encoding": "mapping",
        "key": "t_bytes32",
        "label": "mapping(bytes32 => bool)",
        "numberOfBytes": "32",
        "value": "t_bool"
      },
      "t_mapping(t_bytes32,t_mapping(t_address,t_bool))": {
        "encoding": "mapping",
        "key": "t_bytes32",
        "label": "mapping(bytes32 => mapping(address => bool))",
        "numberOfBytes": "32",
        "value": "t_mapping(t_address,t_bool)"
      },
      "t_uint256": {
        "encoding": "inplace",
        "label": "uint256",
        "numberOfBytes": "32"
      }
    }
  }
}