{
  "address": "0x281B8cE947918058cf3341125Bba4dCCd07172FF",
  "abi": [
    {
      "anonymous": false,
      "inputs": [
        {
          "indexed": false,
          "internalType": "address",
          "name": "recipient",
          "type": "address"
        }
      ],
      "name": "PrimaryTransferred",
      "type": "event"
    },
    {
      "anonymous": false,
      "inputs": [
        {
          "indexed": true,
          "internalType": "address",
          "name": "sideToken",
          "type": "address"
        },
        {
          "indexed": false,
          "internalType": "string",
          "name": "symbol",
          "type": "string"
        },
        {
          "indexed": false,
          "internalType": "uint256",
          "name": "granularity",
          "type": "uint256"
        }
      ],
      "name": "SideTokenCreated",
      "type": "event"
    },
    {
      "inputs": [
        {
          "internalType": "string",
          "name": "name",
          "type": "string"
        },
        {
          "internalType": "string",
          "name": "symbol",
          "type": "string"
        },
        {
          "internalType": "uint256",
          "name": "granularity",
          "type": "uint256"
        }
      ],
      "name": "createSideToken",
      "outputs": [
        {
          "internalType": "address",
          "name": "",
          "type": "address"
        }
      ],
      "stateMutability": "nonpayable",
      "type": "function"
    },
    {
      "inputs": [],
      "name": "primary",
      "outputs": [
        {
          "internalType": "address",
          "name": "",
          "type": "address"
        }
      ],
      "stateMutability": "view",
      "type": "function"
    },
    {
      "inputs": [
        {
          "internalType": "address",
          "name": "recipient",
          "type": "address"
        }
      ],
      "name": "transferPrimary",
      "outputs": [],
      "stateMutability": "nonpayable",
      "type": "function"
    }
  ],
  "transactionHash": "0x430326ef8d122d2741c54443a06fc0de7d2803d9e4e972164b890d758c257c68",
  "args": [],
  "numDeployments": 1,
  "solcInputHash": "b0b92d5309f21b72c82ad032fd7538bd",
  "bytecode": "0x608060405234801561001057600080fd5b50600080546001600160a01b0319163390811790915560408051918252517f4101e71e974f68df5e9730cc223280b41654676bbb052cdcc735c3337e64d2d99181900360200190a1612c5a806100676000396000f3fe60806040523480156200001157600080fd5b5060043610620000465760003560e01c80632348238c146200004b57806326d9e9631462000064578063c6dbdf611462000097575b600080fd5b620000626200005c36600462000296565b620000a9565b005b6200007b6200007536600462000314565b620001a7565b6040516001600160a01b03909116815260200160405180910390f35b6000546001600160a01b03166200007b565b6000546001600160a01b0316336001600160a01b031614620000e85760405162461bcd60e51b8152600401620000df906200038f565b60405180910390fd5b6001600160a01b038116620001535760405162461bcd60e51b815260206004820152602a60248201527f5365636f6e646172793a206e6577207072696d61727920697320746865207a65604482015269726f206164647265737360b01b6064820152608401620000df565b600080546001600160a01b0319166001600160a01b0383169081179091556040519081527f4101e71e974f68df5e9730cc223280b41654676bbb052cdcc735c3337e64d2d99060200160405180910390a150565b600080546001600160a01b0316336001600160a01b031614620001de5760405162461bcd60e51b8152600401620000df906200038f565b600086868686620001f76000546001600160a01b031690565b87604051620002069062000288565b620002179695949392919062000404565b604051809103906000f08015801562000234573d6000803e3d6000fd5b509050806001600160a01b03167ff57d2ded8330a4affd2fa52378069be534fe22288536537d1a1cfc061518450786868660405162000276939291906200044e565b60405180910390a29695505050505050565b6127b0806200047583390190565b600060208284031215620002a957600080fd5b81356001600160a01b0381168114620002c157600080fd5b9392505050565b60008083601f840112620002db57600080fd5b50813567ffffffffffffffff811115620002f457600080fd5b6020830191508360208285010111156200030d57600080fd5b9250929050565b6000806000806000606086880312156200032d57600080fd5b853567ffffffffffffffff808211156200034657600080fd5b6200035489838a01620002c8565b909750955060208801359150808211156200036e57600080fd5b506200037d88828901620002c8565b96999598509660400135949350505050565b6020808252602c908201527f5365636f6e646172793a2063616c6c6572206973206e6f74207468652070726960408201526b1b585c9e481858d8dbdd5b9d60a21b606082015260800190565b81835281816020850137506000828201602090810191909152601f909101601f19169091010190565b6080815260006200041a60808301888a620003db565b82810360208401526200042f818789620003db565b6001600160a01b03959095166040840152505060600152949350505050565b60408152600062000464604083018587620003db565b905082602083015294935050505056fe60806040523480156200001157600080fd5b50604051620027b0380380620027b08339810160408190526200003491620005ff565b60408051600081526020808201909252855186928692916200005d916002919086019062000434565b5081516200007390600390602085019062000434565b50805162000089906004906020840190620004c3565b5060005b600454811015620000fd5760016005600060048481548110620000b457620000b462000692565b6000918252602080832091909101546001600160a01b031683528201929092526040019020805460ff191691151591909117905580620000f481620006a8565b9150506200008d565b506040516329965a1d60e01b815230600482018190527fac7fbab5f54a3ca8194167523c6753bfeb96a445279294b6125b68cce217705460248301526044820152731820a4b7618bde71dce8cdc73aab6c95905fad24906329965a1d90606401600060405180830381600087803b1580156200017857600080fd5b505af11580156200018d573d6000803e3d6000fd5b50506040516329965a1d60e01b815230600482018190527faea199e31a596269b42cdafd93407f14436db6e4cad65417994c2eb37381e05a60248301526044820152731820a4b7618bde71dce8cdc73aab6c95905fad2492506329965a1d9150606401600060405180830381600087803b1580156200020b57600080fd5b505af115801562000220573d6000803e3d6000fd5b50505050506001600160a01b038416151591506200028790505760405162461bcd60e51b815260206004820152601760248201527f53696465546f6b656e3a20456d707479204d696e74657200000000000000000060448201526064015b60405180910390fd5b6001811015620002da5760405162461bcd60e51b815260206004820152601a60248201527f53696465546f6b656e3a204772616e756c6172697479203c203100000000000060448201526064016200027e565b600980546001600160a01b0319166001600160a01b038416179055600a819055620003356200030862000343565b604051806040016040528060018152602001603160f81b8152504630620003dd60201b620010201760201c565b600b55506200070f92505050565b6060600280546200035490620006d2565b80601f01602080910402602001604051908101604052809291908181526020018280546200038290620006d2565b8015620003d35780601f10620003a757610100808354040283529160200191620003d3565b820191906000526020600020905b815481529060010190602001808311620003b557829003601f168201915b5050505050905090565b8351602094850120835193850193909320604080517f8b73c3c69bb8fe3d512ecc4cf759cc79239f7b179b0ffacaa9a75d522b39400f815295860194909452928401929092526060830152608082015260a0902090565b8280546200044290620006d2565b90600052602060002090601f016020900481019282620004665760008555620004b1565b82601f106200048157805160ff1916838001178555620004b1565b82800160010185558215620004b1579182015b82811115620004b157825182559160200191906001019062000494565b50620004bf9291506200051b565b5090565b828054828255906000526020600020908101928215620004b1579160200282015b82811115620004b157825182546001600160a01b0319166001600160a01b03909116178255602090920191600190910190620004e4565b5b80821115620004bf57600081556001016200051c565b634e487b7160e01b600052604160045260246000fd5b600082601f8301126200055a57600080fd5b81516001600160401b038082111562000577576200057762000532565b604051601f8301601f19908116603f01168101908282118183101715620005a257620005a262000532565b81604052838152602092508683858801011115620005bf57600080fd5b600091505b83821015620005e35785820183015181830184015290820190620005c4565b83821115620005f55760008385830101525b9695505050505050565b600080600080608085870312156200061657600080fd5b84516001600160401b03808211156200062e57600080fd5b6200063c8883890162000548565b955060208701519150808211156200065357600080fd5b50620006628782880162000548565b604087015190945090506001600160a01b03811681146200068257600080fd5b6060959095015193969295505050565b634e487b7160e01b600052603260045260246000fd5b6000600019821415620006cb57634e487b7160e01b600052601160045260246000fd5b5060010190565b600181811c90821680620006e757607f821691505b602082108114156200070957634e487b7160e01b600052602260045260246000fd5b50919050565b612091806200071f6000396000f3fe608060405234801561001057600080fd5b50600436106101735760003560e01c80637ecebe00116100de578063d95b637111610097578063f698da2511610071578063f698da2514610380578063fad8b32a14610389578063fc673c4f1461039c578063fe9d9303146103af57600080fd5b8063d95b637114610321578063dcdc7dd014610334578063dd62ed3e1461034757600080fd5b80637ecebe00146102ad578063959b8c3f146102cd57806395d89b41146102e05780639bd9bbc6146102e8578063a9059cbb146102fb578063d505accf1461030e57600080fd5b806330adf81f1161013057806330adf81f1461021e578063313ce567146102455780634000aea014610254578063556f0dc71461026757806362ad1b831461026f57806370a082311461028457600080fd5b806306e485381461017857806306fdde031461019657806307546172146101ab578063095ea7b3146101d657806318160ddd146101f957806323b872dd1461020b575b600080fd5b6101806103c2565b60405161018d91906119b5565b60405180910390f35b61019e610424565b60405161018d9190611a4f565b6009546101be906001600160a01b031681565b6040516001600160a01b03909116815260200161018d565b6101e96101e4366004611a7a565b6104ad565b604051901515815260200161018d565b6001545b60405190815260200161018d565b6101e9610219366004611aa6565b6104c5565b6101fd7f6e71edae12b1b97f4d1f60370fef10105fa2faae0126114a169c64845d6126c981565b6040516012815260200161018d565b6101e9610262366004611b30565b61066d565b600a546101fd565b61028261027d366004611b8c565b610774565b005b6101fd610292366004611c2b565b6001600160a01b031660009081526020819052604090205490565b6101fd6102bb366004611c2b565b600c6020526000908152604090205481565b6102826102db366004611c2b565b61081d565b61019e61093b565b6102826102f6366004611b30565b61094a565b6101e9610309366004611a7a565b6109a4565b61028261031c366004611c48565b610a87565b6101e961032f366004611cbf565b610c84565b610282610342366004611cf8565b610d26565b6101fd610355366004611cbf565b6001600160a01b03918216600090815260086020908152604080832093909416825291909152205490565b6101fd600b5481565b610282610397366004611c2b565b610e13565b6102826103aa366004611cf8565b610f2f565b6102826103bd366004611d84565b610fcb565b6060600480548060200260200160405190810160405280929190818152602001828054801561041a57602002820191906000526020600020905b81546001600160a01b031681526001909101906020018083116103fc575b5050505050905090565b60606002805461043390611dd0565b80601f016020809104026020016040519081016040528092919081815260200182805461045f90611dd0565b801561041a5780601f106104815761010080835404028352916020019161041a565b820191906000526020600020905b81548152906001019060200180831161048f57509395945050505050565b6000336104bb818585611077565b5060019392505050565b60006001600160a01b0383166105225760405162461bcd60e51b815260206004820181905260248201527f4552433737373a207472616e7366657220746f207a65726f206164647265737360448201526064015b60405180910390fd5b6001600160a01b0384166105835760405162461bcd60e51b815260206004820152602260248201527f4552433737373a207472616e736665722066726f6d207a65726f206164647265604482015261737360f01b6064820152608401610519565b60003390506105b481868686604051806020016040528060008152506040518060200160405280600081525061112e565b6105e0818686866040518060200160405280600081525060405180602001604052806000815250611264565b610634858261062f86604051806060016040528060298152602001612010602991396001600160a01b03808c166000908152600860209081526040808320938b16835292905220549190611386565b611077565b61066281868686604051806020016040528060008152506040518060200160405280600081525060006113c0565b506001949350505050565b6000803390506106c58182888888888080601f01602080910402602001604051908101604052809392919081815260200183838082843760009201829052506040805160208101909152818152935091506115949050565b7fe19260aff97b920c7df27010903aeb9c8d2be5d310a2c67824cf3f15396e4c1681878787876040516106fc959493929190611e34565b60405180910390a1604051635260769b60e11b81526001600160a01b0387169063a4c0ed3690610736908490899089908990600401611e73565b600060405180830381600087803b15801561075057600080fd5b505af1158015610764573d6000803e3d6000fd5b5060019998505050505050505050565b61077e3388610c84565b61079a5760405162461bcd60e51b815260040161051990611ea5565b6108143388888888888080601f01602080910402602001604051908101604052809392919081815260200183838082843760009201919091525050604080516020601f8c018190048102820181019092528a815292508a915089908190840183828082843760009201919091525060019250611594915050565b50505050505050565b336001600160a01b03821614156108825760405162461bcd60e51b8152602060048201526024808201527f4552433737373a20617574686f72697a696e672073656c66206173206f70657260448201526330ba37b960e11b6064820152608401610519565b6001600160a01b03811660009081526005602052604090205460ff16156108d3573360009081526007602090815260408083206001600160a01b03851684529091529020805460ff19169055610902565b3360009081526006602090815260408083206001600160a01b03851684529091529020805460ff191660011790555b60405133906001600160a01b038316907ff4caeb2d6ca8932a215a353d0703c326ec2d81fc68170f320eb2ab49e9df61f990600090a350565b60606003805461043390611dd0565b61099e3333868686868080601f016020809104026020016040519081016040528093929190818152602001838380828437600092018290525060408051602081019091529081529250600191506115949050565b50505050565b60006001600160a01b0383166109fc5760405162461bcd60e51b815260206004820181905260248201527f4552433737373a207472616e7366657220746f207a65726f20616464726573736044820152606401610519565b6000339050610a2d81828686604051806020016040528060008152506040518060200160405280600081525061112e565b610a59818286866040518060200160405280600081525060405180602001604052806000815250611264565b6104bb81828686604051806020016040528060008152506040518060200160405280600081525060006113c0565b42841015610acc5760405162461bcd60e51b815260206004820152601260248201527114da5919551bdad95b8e881156141254915160721b6044820152606401610519565b600b546001600160a01b0388166000908152600c6020526040812080549192610b949290917f6e71edae12b1b97f4d1f60370fef10105fa2faae0126114a169c64845d6126c9918c918c918c9188610b2383611efc565b909155506040805160208101969096526001600160a01b0394851690860152929091166060840152608083015260a082015260c0810188905260e0016040516020818303038152906040528051906020012060405161190160f01b8152600281019290925260228201526042902090565b6040805160008082526020820180845284905260ff88169282019290925260608101869052608081018590529192509060019060a0016020604051602081039080840390855afa158015610bec573d6000803e3d6000fd5b5050604051601f1901519150506001600160a01b03811615801590610c225750886001600160a01b0316816001600160a01b0316145b610c6e5760405162461bcd60e51b815260206004820152601c60248201527f53696465546f6b656e3a20494e56414c49445f5349474e4154555245000000006044820152606401610519565b610c79898989611077565b505050505050505050565b6000816001600160a01b0316836001600160a01b03161480610cef57506001600160a01b03831660009081526005602052604090205460ff168015610cef57506001600160a01b0380831660009081526007602090815260408083209387168352929052205460ff16155b80610d1f57506001600160a01b0380831660009081526006602090815260408083209387168352929052205460ff165b9392505050565b6009546001600160a01b0316336001600160a01b031614610d955760405162461bcd60e51b815260206004820152602360248201527f53696465546f6b656e3a2043616c6c6572206973206e6f7420746865206d696e6044820152623a32b960e91b6064820152608401610519565b610e0b33878787878080601f01602080910402602001604051908101604052809392919081815260200183838082843760009201919091525050604080516020601f8b01819004810282018101909252898152925089915088908190840183828082843760009201919091525061166b92505050565b505050505050565b6001600160a01b038116331415610e765760405162461bcd60e51b815260206004820152602160248201527f4552433737373a207265766f6b696e672073656c66206173206f70657261746f6044820152603960f91b6064820152608401610519565b6001600160a01b03811660009081526005602052604090205460ff1615610eca573360009081526007602090815260408083206001600160a01b03851684529091529020805460ff19166001179055610ef6565b3360009081526006602090815260408083206001600160a01b03851684529091529020805460ff191690555b60405133906001600160a01b038316907f50546e66e5f44d728365dc3908c63bc5cfeeab470722c1677e3073a6ac294aa190600090a350565b610f393387610c84565b610f555760405162461bcd60e51b815260040161051990611ea5565b610e0b33878787878080601f01602080910402602001604051908101604052809392919081815260200183838082843760009201919091525050604080516020601f8b0181900481028201810190925289815292508991508890819084018382808284376000920191909152506117b992505050565b61101b33338585858080601f0160208091040260200160405190810160405280939291908181526020018383808284376000920182905250604080516020810190915290815292506117b9915050565b505050565b8351602094850120835193850193909320604080517f8b73c3c69bb8fe3d512ecc4cf759cc79239f7b179b0ffacaa9a75d522b39400f815295860194909452928401929092526060830152608082015260a0902090565b6001600160a01b0382166110cd5760405162461bcd60e51b815260206004820152601f60248201527f4552433737373a20617070726f766520746f207a65726f2061646472657373006044820152606401610519565b6001600160a01b0383811660008181526008602090815260408083209487168084529482529182902085905590518481527f8c5be1e5ebec7d5bd14f71427d1e84f3dd0314c0f7b2291e5b200ac8c7c3b925910160405180910390a3505050565b60405163555ddc6560e11b81526001600160a01b03861660048201527f29ddb589b1fb5fc7cf394961c1adf5f8c6454761adf795e67fe149f658abe8956024820152600090731820a4b7618bde71dce8cdc73aab6c95905fad249063aabbb8ca9060440160206040518083038186803b1580156111aa57600080fd5b505afa1580156111be573d6000803e3d6000fd5b505050506040513d601f19601f820116820180604052508101906111e29190611f17565b90506001600160a01b0381161561081457604051633ad5cbc160e11b81526001600160a01b038216906375ab978290611229908a908a908a908a908a908a90600401611f34565b600060405180830381600087803b15801561124357600080fd5b505af1158015611257573d6000803e3d6000fd5b5050505050505050505050565b6112a183604051806060016040528060278152602001611fe9602791396001600160a01b0388166000908152602081905260409020549190611386565b6001600160a01b0380871660009081526020819052604080822093909355908616815220546112d09084611914565b6001600160a01b0380861660008181526020819052604090819020939093559151878216918916907f06b541ddaa720db2b10a4d0cdac39b8d360425fc073085fac19bc826146779879061132990889088908890611f8e565b60405180910390a4836001600160a01b0316856001600160a01b03167fddf252ad1be2c89b69c2b068fc378daa952ba7f163c4a11628f55a4df523b3ef8560405161137691815260200190565b60405180910390a3505050505050565b600081848411156113aa5760405162461bcd60e51b81526004016105199190611a4f565b5060006113b78486611fb9565b95945050505050565b60405163555ddc6560e11b81526001600160a01b03861660048201527fb281fc8c12954d22544db45de3159a39272895b169a852b314f9cc762e44c53b6024820152600090731820a4b7618bde71dce8cdc73aab6c95905fad249063aabbb8ca9060440160206040518083038186803b15801561143c57600080fd5b505afa158015611450573d6000803e3d6000fd5b505050506040513d601f19601f820116820180604052508101906114749190611f17565b90506001600160a01b038116156114f0576040516223de2960e01b81526001600160a01b038216906223de29906114b9908b908b908b908b908b908b90600401611f34565b600060405180830381600087803b1580156114d357600080fd5b505af11580156114e7573d6000803e3d6000fd5b5050505061158a565b811561158a576001600160a01b0386163b1561158a5760405162461bcd60e51b815260206004820152604d60248201527f4552433737373a20746f6b656e20726563697069656e7420636f6e747261637460448201527f20686173206e6f20696d706c656d656e74657220666f7220455243373737546f60648201526c1ad95b9cd49958da5c1a595b9d609a1b608482015260a401610519565b5050505050505050565b6001600160a01b0386166115ea5760405162461bcd60e51b815260206004820152601e60248201527f4552433737373a2073656e642066726f6d207a65726f206164647265737300006044820152606401610519565b6001600160a01b0385166116405760405162461bcd60e51b815260206004820152601c60248201527f4552433737373a2073656e6420746f207a65726f2061646472657373000000006044820152606401610519565b61164e87878787878761112e565b61165c878787878787611264565b610814878787878787876113c0565b6001600160a01b0384166116c15760405162461bcd60e51b815260206004820152601c60248201527f4552433737373a206d696e7420746f207a65726f2061646472657373000000006044820152606401610519565b6001546116ce9084611914565b6001556001600160a01b0384166000908152602081905260409020546116f49084611914565b6001600160a01b0385166000908152602081905260408120919091556117219086908686868660016113c0565b836001600160a01b0316856001600160a01b03167f2fe5be0146f74c5bce36c0b80911af6c7d86ff27e89d5cfa61fc681327954e5d85858560405161176893929190611f8e565b60405180910390a36040518381526001600160a01b038516906000907fddf252ad1be2c89b69c2b068fc378daa952ba7f163c4a11628f55a4df523b3ef906020015b60405180910390a35050505050565b6001600160a01b03841661180f5760405162461bcd60e51b815260206004820152601e60248201527f4552433737373a206275726e2066726f6d207a65726f206164647265737300006044820152606401610519565b61181e8585600086868661112e565b61185b83604051806060016040528060238152602001612039602391396001600160a01b0387166000908152602081905260409020549190611386565b6001600160a01b0385166000908152602081905260409020556001546118819084611973565b600181905550836001600160a01b0316856001600160a01b03167fa78a9be3a7b862d26933ad85fb11d80ef66b8f972d7cbba06621d583943a40988585856040516118ce93929190611f8e565b60405180910390a36040518381526000906001600160a01b038616907fddf252ad1be2c89b69c2b068fc378daa952ba7f163c4a11628f55a4df523b3ef906020016117aa565b6000806119218385611fd0565b905083811015610d1f5760405162461bcd60e51b815260206004820152601b60248201527f536166654d6174683a206164646974696f6e206f766572666c6f7700000000006044820152606401610519565b6000610d1f83836040518060400160405280601e81526020017f536166654d6174683a207375627472616374696f6e206f766572666c6f770000815250611386565b6020808252825182820181905260009190848201906040850190845b818110156119f65783516001600160a01b0316835292840192918401916001016119d1565b50909695505050505050565b6000815180845260005b81811015611a2857602081850181015186830182015201611a0c565b81811115611a3a576000602083870101525b50601f01601f19169290920160200192915050565b602081526000610d1f6020830184611a02565b6001600160a01b0381168114611a7757600080fd5b50565b60008060408385031215611a8d57600080fd5b8235611a9881611a62565b946020939093013593505050565b600080600060608486031215611abb57600080fd5b8335611ac681611a62565b92506020840135611ad681611a62565b929592945050506040919091013590565b60008083601f840112611af957600080fd5b50813567ffffffffffffffff811115611b1157600080fd5b602083019150836020828501011115611b2957600080fd5b9250929050565b60008060008060608587031215611b4657600080fd5b8435611b5181611a62565b935060208501359250604085013567ffffffffffffffff811115611b7457600080fd5b611b8087828801611ae7565b95989497509550505050565b600080600080600080600060a0888a031215611ba757600080fd5b8735611bb281611a62565b96506020880135611bc281611a62565b955060408801359450606088013567ffffffffffffffff80821115611be657600080fd5b611bf28b838c01611ae7565b909650945060808a0135915080821115611c0b57600080fd5b50611c188a828b01611ae7565b989b979a50959850939692959293505050565b600060208284031215611c3d57600080fd5b8135610d1f81611a62565b600080600080600080600060e0888a031215611c6357600080fd5b8735611c6e81611a62565b96506020880135611c7e81611a62565b95506040880135945060608801359350608088013560ff81168114611ca257600080fd5b9699959850939692959460a0840135945060c09093013592915050565b60008060408385031215611cd257600080fd5b8235611cdd81611a62565b91506020830135611ced81611a62565b809150509250929050565b60008060008060008060808789031215611d1157600080fd5b8635611d1c81611a62565b955060208701359450604087013567ffffffffffffffff80821115611d4057600080fd5b611d4c8a838b01611ae7565b90965094506060890135915080821115611d6557600080fd5b50611d7289828a01611ae7565b979a9699509497509295939492505050565b600080600060408486031215611d9957600080fd5b83359250602084013567ffffffffffffffff811115611db757600080fd5b611dc386828701611ae7565b9497909650939450505050565b600181811c90821680611de457607f821691505b60208210811415611e0557634e487b7160e01b600052602260045260246000fd5b50919050565b81835281816020850137506000828201602090810191909152601f909101601f19169091010190565b6001600160a01b0386811682528516602082015260408101849052608060608201819052600090611e689083018486611e0b565b979650505050505050565b60018060a01b0385168152836020820152606060408201526000611e9b606083018486611e0b565b9695505050505050565b60208082526021908201527f4552433737373a2063616c6c6572206973206e6f7420616e206f70657261746f6040820152603960f91b606082015260800190565b634e487b7160e01b600052601160045260246000fd5b6000600019821415611f1057611f10611ee6565b5060010190565b600060208284031215611f2957600080fd5b8151610d1f81611a62565b6001600160a01b0387811682528681166020830152851660408201526060810184905260c060808201819052600090611f6f90830185611a02565b82810360a0840152611f818185611a02565b9998505050505050505050565b838152606060208201526000611fa76060830185611a02565b8281036040840152611e9b8185611a02565b600082821015611fcb57611fcb611ee6565b500390565b60008219821115611fe357611fe3611ee6565b50019056fe4552433737373a207472616e7366657220616d6f756e7420657863656564732062616c616e63654552433737373a207472616e7366657220616d6f756e74206578636565647320616c6c6f77616e63654552433737373a206275726e20616d6f756e7420657863656564732062616c616e6365a2646970667358221220d07cf24bc38047afdcc3c8d903ba34d15e81bcd0f38e12f84e15c87101aa436764736f6c63430008090033a2646970667358221220b32b8153fcd4189df904df49b98b5eab16be2d5867bd8abb9f6074ce91e7320c64736f6c63430008090033",
  "devdoc": {
    "kind": "dev",
    "methods": {
      "primary()": {
        "returns": {
          "_0": "the address of the primary."
        }
      },
      "transferPrimary(address)": {
        "details": "Transfers contract to a new primary.",
        "params": {
          "recipient": "The address of new primary."
        }
      }
    },
    "version": 1
  },
  "userdoc": {
    "kind": "user",
    "methods": {},
    "version": 1
  },
  "storageLayout": {
    "storage": [
      {
        "astId": 5709,
        "contract": "contracts/SideTokenFactory/SideTokenFactory.sol:SideTokenFactory",
        "label": "_primary",
        "offset": 0,
        "slot": "0",
        "type": "t_address"
      }
    ],
    "types": {
      "t_address": {
        "encoding": "inplace",
        "label": "address",
        "numberOfBytes": "20"
      }
    }
  }
}