{
    "contractName": "Federation",
    "abi": [
        {
            "anonymous": false,
            "inputs": [
                {
                    "indexed": false,
                    "internalType": "address",
                    "name": "bridge",
                    "type": "address"
                }
            ],
            "name": "BridgeChanged",
            "type": "event"
        },
        {
            "anonymous": false,
            "inputs": [
                {
                    "indexed": true,
                    "internalType": "address",
                    "name": "federator",
                    "type": "address"
                },
                {
                    "indexed": true,
                    "internalType": "bytes32",
                    "name": "transactionHash",
                    "type": "bytes32"
                },
                {
                    "indexed": true,
                    "internalType": "bytes32",
                    "name": "transactionId",
                    "type": "bytes32"
                },
                {
                    "indexed": false,
                    "internalType": "address",
                    "name": "originalTokenAddress",
                    "type": "address"
                },
                {
                    "indexed": false,
                    "internalType": "address",
                    "name": "sender",
                    "type": "address"
                },
                {
                    "indexed": false,
                    "internalType": "address",
                    "name": "receiver",
                    "type": "address"
                },
                {
                    "indexed": false,
                    "internalType": "uint256",
                    "name": "amount",
                    "type": "uint256"
                },
                {
                    "indexed": false,
                    "internalType": "bytes32",
                    "name": "blockHash",
                    "type": "bytes32"
                },
                {
                    "indexed": false,
                    "internalType": "uint32",
                    "name": "logIndex",
                    "type": "uint32"
                },
                {
                    "indexed": false,
                    "internalType": "uint256",
                    "name": "chainId",
                    "type": "uint256"
                }
            ],
            "name": "Executed",
            "type": "event"
        },
        {
            "anonymous": false,
            "inputs": [
                {
                    "indexed": true,
                    "internalType": "address",
                    "name": "sender",
                    "type": "address"
                },
                {
                    "indexed": false,
                    "internalType": "uint256",
                    "name": "fedRskBlock",
                    "type": "uint256"
                },
                {
                    "indexed": false,
                    "internalType": "uint256",
                    "name": "fedEthBlock",
                    "type": "uint256"
                },
                {
                    "indexed": false,
                    "internalType": "string",
                    "name": "federatorVersion",
                    "type": "string"
                },
                {
                    "indexed": false,
                    "internalType": "string",
                    "name": "nodeRskInfo",
                    "type": "string"
                },
                {
                    "indexed": false,
                    "internalType": "string",
                    "name": "nodeEthInfo",
                    "type": "string"
                },
                {
                    "indexed": false,
                    "internalType": "uint256",
                    "name": "chainId",
                    "type": "uint256"
                }
            ],
            "name": "HeartBeat",
            "type": "event"
        },
        {
            "anonymous": false,
            "inputs": [
                {
                    "indexed": true,
                    "internalType": "address",
                    "name": "member",
                    "type": "address"
                }
            ],
            "name": "MemberAddition",
            "type": "event"
        },
        {
            "anonymous": false,
            "inputs": [
                {
                    "indexed": true,
                    "internalType": "address",
                    "name": "member",
                    "type": "address"
                }
            ],
            "name": "MemberRemoval",
            "type": "event"
        },
        {
            "anonymous": false,
            "inputs": [
                {
                    "indexed": false,
                    "internalType": "address",
                    "name": "bridgeNFT",
                    "type": "address"
                }
            ],
            "name": "NFTBridgeChanged",
            "type": "event"
        },
        {
            "anonymous": false,
            "inputs": [
                {
                    "indexed": true,
                    "internalType": "address",
                    "name": "previousOwner",
                    "type": "address"
                },
                {
                    "indexed": true,
                    "internalType": "address",
                    "name": "newOwner",
                    "type": "address"
                }
            ],
            "name": "OwnershipTransferred",
            "type": "event"
        },
        {
            "anonymous": false,
            "inputs": [
                {
                    "indexed": false,
                    "internalType": "uint256",
                    "name": "required",
                    "type": "uint256"
                }
            ],
            "name": "RequirementChange",
            "type": "event"
        },
        {
            "anonymous": false,
            "inputs": [
                {
                    "indexed": true,
                    "internalType": "address",
                    "name": "federator",
                    "type": "address"
                },
                {
                    "indexed": true,
                    "internalType": "bytes32",
                    "name": "transactionHash",
                    "type": "bytes32"
                },
                {
                    "indexed": true,
                    "internalType": "bytes32",
                    "name": "transactionId",
                    "type": "bytes32"
                },
                {
                    "indexed": false,
                    "internalType": "address",
                    "name": "originalTokenAddress",
                    "type": "address"
                },
                {
                    "indexed": false,
                    "internalType": "address",
                    "name": "sender",
                    "type": "address"
                },
                {
                    "indexed": false,
                    "internalType": "address",
                    "name": "receiver",
                    "type": "address"
                },
                {
                    "indexed": false,
                    "internalType": "uint256",
                    "name": "amount",
                    "type": "uint256"
                },
                {
                    "indexed": false,
                    "internalType": "bytes32",
                    "name": "blockHash",
                    "type": "bytes32"
                },
                {
                    "indexed": false,
                    "internalType": "uint32",
                    "name": "logIndex",
                    "type": "uint32"
                },
                {
                    "indexed": false,
                    "internalType": "uint256",
                    "name": "chainId",
                    "type": "uint256"
                }
            ],
            "name": "Voted",
            "type": "event"
        },
        {
            "inputs": [],
            "name": "MAX_MEMBER_COUNT",
            "outputs": [
                {
                    "internalType": "uint256",
                    "name": "",
                    "type": "uint256"
                }
            ],
            "stateMutability": "view",
            "type": "function"
        },
        {
            "inputs": [
                {
                    "internalType": "address",
                    "name": "_newMember",
                    "type": "address"
                }
            ],
            "name": "addMember",
            "outputs": [],
            "stateMutability": "nonpayable",
            "type": "function"
        },
        {
            "inputs": [],
            "name": "bridge",
            "outputs": [
                {
                    "internalType": "contract IBridge",
                    "name": "",
                    "type": "address"
                }
            ],
            "stateMutability": "view",
            "type": "function"
        },
        {
            "inputs": [],
            "name": "bridgeNFT",
            "outputs": [
                {
                    "internalType": "contract INFTBridge",
                    "name": "",
                    "type": "address"
                }
            ],
            "stateMutability": "view",
            "type": "function"
        },
        {
            "inputs": [
                {
                    "internalType": "uint256",
                    "name": "_required",
                    "type": "uint256"
                }
            ],
            "name": "changeRequirement",
            "outputs": [],
            "stateMutability": "nonpayable",
            "type": "function"
        },
        {
            "inputs": [
                {
                    "internalType": "uint256",
                    "name": "fedRskBlock",
                    "type": "uint256"
                },
                {
                    "internalType": "uint256",
                    "name": "fedEthBlock",
                    "type": "uint256"
                },
                {
                    "internalType": "string",
                    "name": "federatorVersion",
                    "type": "string"
                },
                {
                    "internalType": "string",
                    "name": "nodeRskInfo",
                    "type": "string"
                },
                {
                    "internalType": "string",
                    "name": "nodeEthInfo",
                    "type": "string"
                }
            ],
            "name": "emitHeartbeat",
            "outputs": [],
            "stateMutability": "nonpayable",
            "type": "function"
        },
        {
            "inputs": [],
            "name": "getMembers",
            "outputs": [
                {
                    "internalType": "address[]",
                    "name": "",
                    "type": "address[]"
                }
            ],
            "stateMutability": "view",
            "type": "function"
        },
        {
            "inputs": [
                {
                    "internalType": "bytes32",
                    "name": "transactionId",
                    "type": "bytes32"
                }
            ],
            "name": "getTransactionCount",
            "outputs": [
                {
                    "internalType": "uint256",
                    "name": "",
                    "type": "uint256"
                }
            ],
            "stateMutability": "view",
            "type": "function"
        },
        {
            "inputs": [
                {
                    "internalType": "address",
                    "name": "originalTokenAddress",
                    "type": "address"
                },
                {
                    "internalType": "address",
                    "name": "sender",
                    "type": "address"
                },
                {
                    "internalType": "address",
                    "name": "receiver",
                    "type": "address"
                },
                {
                    "internalType": "uint256",
                    "name": "amount",
                    "type": "uint256"
                },
                {
                    "internalType": "bytes32",
                    "name": "blockHash",
                    "type": "bytes32"
                },
                {
                    "internalType": "bytes32",
                    "name": "transactionHash",
                    "type": "bytes32"
                },
                {
                    "internalType": "uint32",
                    "name": "logIndex",
                    "type": "uint32"
                },
                {
                    "internalType": "uint256",
                    "name": "chainId",
                    "type": "uint256"
                }
            ],
            "name": "getTransactionId",
            "outputs": [
                {
                    "internalType": "bytes32",
                    "name": "",
                    "type": "bytes32"
                }
            ],
            "stateMutability": "pure",
            "type": "function"
        },
        {
            "inputs": [
                {
                    "internalType": "bytes32",
                    "name": "transactionId",
                    "type": "bytes32"
                }
            ],
            "name": "hasVoted",
            "outputs": [
                {
                    "internalType": "bool",
                    "name": "",
                    "type": "bool"
                }
            ],
            "stateMutability": "view",
            "type": "function"
        },
        {
            "inputs": [
                {
                    "internalType": "address[]",
                    "name": "_members",
                    "type": "address[]"
                },
                {
                    "internalType": "uint256",
                    "name": "_required",
                    "type": "uint256"
                },
                {
                    "internalType": "address",
                    "name": "_bridge",
                    "type": "address"
                },
                {
                    "internalType": "address",
                    "name": "owner",
                    "type": "address"
                },
                {
                    "internalType": "address",
                    "name": "_bridgeNFT",
                    "type": "address"
                }
            ],
            "name": "initialize",
            "outputs": [],
            "stateMutability": "nonpayable",
            "type": "function"
        },
        {
            "inputs": [
                {
                    "internalType": "address",
                    "name": "sender",
                    "type": "address"
                }
            ],
            "name": "initialize",
            "outputs": [],
            "stateMutability": "nonpayable",
            "type": "function"
        },
        {
            "inputs": [
                {
                    "internalType": "address",
                    "name": "",
                    "type": "address"
                }
            ],
            "name": "isMember",
            "outputs": [
                {
                    "internalType": "bool",
                    "name": "",
                    "type": "bool"
                }
            ],
            "stateMutability": "view",
            "type": "function"
        },
        {
            "inputs": [],
            "name": "isOwner",
            "outputs": [
                {
                    "internalType": "bool",
                    "name": "",
                    "type": "bool"
                }
            ],
            "stateMutability": "view",
            "type": "function"
        },
        {
            "inputs": [
                {
                    "internalType": "bytes32",
                    "name": "transactionId",
                    "type": "bytes32"
                },
                {
                    "internalType": "bytes32",
                    "name": "transactionIdMultichain",
                    "type": "bytes32"
                }
            ],
            "name": "isProcessed",
            "outputs": [
                {
                    "internalType": "bool",
                    "name": "",
                    "type": "bool"
                }
            ],
            "stateMutability": "view",
            "type": "function"
        },
        {
            "inputs": [
                {
                    "internalType": "bytes32",
                    "name": "transactionId",
                    "type": "bytes32"
                },
                {
                    "internalType": "bytes32",
                    "name": "transactionIdMultichain",
                    "type": "bytes32"
                }
            ],
            "name": "isVoted",
            "outputs": [
                {
                    "internalType": "bool",
                    "name": "",
                    "type": "bool"
                }
            ],
            "stateMutability": "view",
            "type": "function"
        },
        {
            "inputs": [
                {
                    "internalType": "uint256",
                    "name": "",
                    "type": "uint256"
                }
            ],
            "name": "members",
            "outputs": [
                {
                    "internalType": "address",
                    "name": "",
                    "type": "address"
                }
            ],
            "stateMutability": "view",
            "type": "function"
        },
        {
            "inputs": [],
            "name": "owner",
            "outputs": [
                {
                    "internalType": "address",
                    "name": "",
                    "type": "address"
                }
            ],
            "stateMutability": "view",
            "type": "function"
        },
        {
            "inputs": [
                {
                    "internalType": "bytes32",
                    "name": "",
                    "type": "bytes32"
                }
            ],
            "name": "processed",
            "outputs": [
                {
                    "internalType": "bool",
                    "name": "",
                    "type": "bool"
                }
            ],
            "stateMutability": "view",
            "type": "function"
        },
        {
            "inputs": [
                {
                    "internalType": "address",
                    "name": "_oldMember",
                    "type": "address"
                }
            ],
            "name": "removeMember",
            "outputs": [],
            "stateMutability": "nonpayable",
            "type": "function"
        },
        {
            "inputs": [],
            "name": "renounceOwnership",
            "outputs": [],
            "stateMutability": "nonpayable",
            "type": "function"
        },
        {
            "inputs": [],
            "name": "required",
            "outputs": [
                {
                    "internalType": "uint256",
                    "name": "",
                    "type": "uint256"
                }
            ],
            "stateMutability": "view",
            "type": "function"
        },
        {
            "inputs": [
                {
                    "internalType": "address",
                    "name": "_bridge",
                    "type": "address"
                }
            ],
            "name": "setBridge",
            "outputs": [],
            "stateMutability": "nonpayable",
            "type": "function"
        },
        {
            "inputs": [
                {
                    "internalType": "address",
                    "name": "_bridgeNFT",
                    "type": "address"
                }
            ],
            "name": "setNFTBridge",
            "outputs": [],
            "stateMutability": "nonpayable",
            "type": "function"
        },
        {
            "inputs": [
                {
                    "internalType": "bytes32",
                    "name": "transactionId",
                    "type": "bytes32"
                }
            ],
            "name": "transactionWasProcessed",
            "outputs": [
                {
                    "internalType": "bool",
                    "name": "",
                    "type": "bool"
                }
            ],
            "stateMutability": "view",
            "type": "function"
        },
        {
            "inputs": [
                {
                    "internalType": "address",
                    "name": "newOwner",
                    "type": "address"
                }
            ],
            "name": "transferOwnership",
            "outputs": [],
            "stateMutability": "nonpayable",
            "type": "function"
        },
        {
            "inputs": [],
            "name": "version",
            "outputs": [
                {
                    "internalType": "string",
                    "name": "",
                    "type": "string"
                }
            ],
            "stateMutability": "pure",
            "type": "function"
        },
        {
            "inputs": [
                {
                    "internalType": "address",
                    "name": "originalTokenAddress",
                    "type": "address"
                },
                {
                    "internalType": "address payable",
                    "name": "sender",
                    "type": "address"
                },
                {
                    "internalType": "address payable",
                    "name": "receiver",
                    "type": "address"
                },
                {
                    "internalType": "uint256",
                    "name": "value",
                    "type": "uint256"
                },
                {
                    "internalType": "bytes32",
                    "name": "blockHash",
                    "type": "bytes32"
                },
                {
                    "internalType": "bytes32",
                    "name": "transactionHash",
                    "type": "bytes32"
                },
                {
                    "internalType": "uint32",
                    "name": "logIndex",
                    "type": "uint32"
                },
                {
                    "internalType": "enum IFederation.TokenType",
                    "name": "tokenType",
                    "type": "uint8"
                },
                {
                    "internalType": "uint256",
                    "name": "chainId",
                    "type": "uint256"
                }
            ],
            "name": "voteTransaction",
            "outputs": [],
            "stateMutability": "nonpayable",
            "type": "function"
        },
        {
            "inputs": [
                {
                    "internalType": "bytes32",
                    "name": "",
                    "type": "bytes32"
                },
                {
                    "internalType": "address",
                    "name": "",
                    "type": "address"
                }
            ],
            "name": "votes",
            "outputs": [
                {
                    "internalType": "bool",
                    "name": "",
                    "type": "bool"
                }
            ],
            "stateMutability": "view",
            "type": "function"
        }
    ],
    "bytecode": "608060405234801561001057600080fd5b506120e2806100206000396000f3fe608060405234801561001057600080fd5b50600436106101cf5760003560e01c80639eab525311610104578063ba51a6df116100a2578063dc8452cd11610071578063dc8452cd1461044d578063e78cea9214610456578063ef1093a714610469578063f2fde38b1461047c57600080fd5b8063ba51a6df146103f1578063c1f0808a14610404578063c4d66de814610427578063ca6d56dc1461043a57600080fd5b8063a481d59b116100de578063a481d59b14610395578063a8e12e4c146103a8578063a93585f0146103bb578063b9a3b9dc146103de57600080fd5b80639eab52531461034a578063a1fb4acb1461035f578063a230c5241461037257600080fd5b8063715018a6116101715780638da5cb5b1161014b5780638da5cb5b146102e55780638dd14802146102f65780638f32d59b146103095780639386775a1461031c57600080fd5b8063715018a6146102b75780637b116b5e146102bf5780637b6d343a146102d257600080fd5b806321e901ab116101ad57806321e901ab1461023f57806354fd4d50146102525780635daf08ca14610276578063681fc921146102a157600080fd5b806309c69cfa146101d45780630b1ca49a146101fc5780631b4613cb14610211575b600080fd5b6101e76101e2366004611a0b565b61048f565b60405190151581526020015b60405180910390f35b61020f61020a366004611a52565b6104d9565b005b6101e761021f366004611a76565b600090815260386020908152604080832033845290915290205460ff1690565b61020f61024d366004611aa3565b610817565b60408051808201825260028152611d8d60f21b602082015290516101f39190611b3d565b610289610284366004611a76565b610a4f565b6040516001600160a01b0390911681526020016101f3565b6102a9603281565b6040519081526020016101f3565b61020f610a79565b6102a96102cd366004611b92565b610aed565b6101e76102e0366004611a0b565b610b6e565b6033546001600160a01b0316610289565b61020f610304366004611a52565b610b9d565b6033546001600160a01b031633146101e7565b6101e761032a366004611c13565b603860209081526000928352604080842090915290825290205460ff1681565b610352610bd3565b6040516101f39190611c43565b6102a961036d366004611a76565b610c35565b6101e7610380366004611a52565b60376020526000908152604090205460ff1681565b61020f6103a3366004611a52565b610cbd565b61020f6103b6366004611ca6565b610cf0565b6101e76103c9366004611a76565b60009081526039602052604090205460ff1690565b61020f6103ec366004611df0565b61100c565b61020f6103ff366004611a76565b6110c2565b6101e7610412366004611a76565b60396020526000908152604090205460ff1681565b61020f610435366004611a52565b6111e4565b61020f610448366004611a52565b61129a565b6102a960365481565b603454610289906001600160a01b031681565b603a54610289906001600160a01b031681565b61020f61048a366004611a52565b611466565b600081815260386020908152604080832033845290915281205460ff16806104d05750600083815260386020908152604080832033845290915290205460ff165b90505b92915050565b6033546001600160a01b0316331461050c5760405162461bcd60e51b815260040161050390611e9d565b60405180910390fd5b6001600160a01b03811661055d5760405162461bcd60e51b81526020600482015260186024820152772332b232b930ba34b7b71d1022b6b83a3c9036b2b6b132b960411b6044820152606401610503565b6001600160a01b03811660009081526037602052604090205460ff166105cf5760405162461bcd60e51b815260206004820152602160248201527f46656465726174696f6e3a204d656d62657220646f65736e27742065786973746044820152607360f81b6064820152608401610503565b6035546001106106325760405162461bcd60e51b815260206004820152602860248201527f46656465726174696f6e3a2043616e27742072656d6f766520616c6c20746865604482015267206d656d6265727360c01b6064820152608401610503565b60365460355461064490600190611ee8565b10156106ac5760405162461bcd60e51b815260206004820152603160248201527f46656465726174696f6e3a2043616e27742068617665206c657373207468616e604482015270207265717569726564206d656d6265727360781b6064820152608401610503565b6001600160a01b0381166000908152603760205260408120805460ff191690555b6035546106dc90600190611ee8565b8110156107ac57816001600160a01b03166035828154811061070057610700611eff565b6000918252602090912001546001600160a01b0316141561079a576035805461072b90600190611ee8565b8154811061073b5761073b611eff565b600091825260209091200154603580546001600160a01b03909216918390811061076757610767611eff565b9060005260206000200160006101000a8154816001600160a01b0302191690836001600160a01b031602179055506107ac565b806107a481611f15565b9150506106cd565b5060358054806107be576107be611f30565b600082815260208120820160001990810180546001600160a01b03191690559091019091556040516001600160a01b038316917f270bfc616dd36d5cb6b35aac93e6ef22b089c34e6f6ad6f0892797424840897b91a250565b3360009081526037602052604090205460ff166108725760405162461bcd60e51b81526020600482015260196024820152782332b232b930ba34b7b71d102737ba102332b232b930ba37b960391b6044820152606401610503565b6040516bffffffffffffffffffffffff1960608b811b821660208401528a811b8216603484015289901b166048820152605c8101879052607c8101869052609c81018590526001600160e01b031960e085901b1660bc82015260009060c00160405160208183030381529060405280519060200120905060006108fb8b8b8b8b8b8b8b8a610aed565b90506109078282610b6e565b15610913575050610a44565b61091d828261048f565b15610929575050610a44565b6000818152603860205260408120600191336001600160a01b031681526020810191909152604001600020805460ff19169115159190911790558086336001600160a01b03167fec884e1e903430ae3d281ed69049e9cbf54371d0914a20e765222ab6ac5de3a58e8e8e8e8e8d8c6040516109aa9796959493929190611f46565b60405180910390a46109bc8282611499565b15610a41576000818152603960205260409020805460ff191660011790556109eb8b8b8b8b8b8b8b8b8b6115b9565b8086336001600160a01b03167f298086229fbcb8f2cfb7b99a0c9c4f426c02acc4f49337d5a01d991067585fcb8e8e8e8e8e8d8c604051610a329796959493929190611f46565b60405180910390a45050610a44565b50505b505050505050505050565b60358181548110610a5f57600080fd5b6000918252602090912001546001600160a01b0316905081565b6033546001600160a01b03163314610aa35760405162461bcd60e51b815260040161050390611e9d565b6033546040516000916001600160a01b0316907f8be0079c531659141344cd1fd0a4f28419497f9722a3daafe3b4186f6b6457e0908390a3603380546001600160a01b0319169055565b604080516bffffffffffffffffffffffff1960609a8b1b8116602080840191909152998b1b811660348301529790991b9096166048890152605c880194909452607c870192909252609c8601526001600160e01b031960e091821b1660bc86015260c080860192909252825180860390920182529093019052815191012090565b60008181526039602052604081205460ff16806104d05750505060009081526039602052604090205460ff1690565b6033546001600160a01b03163314610bc75760405162461bcd60e51b815260040161050390611e9d565b610bd081611763565b50565b60606035805480602002602001604051908101604052809291908181526020018280548015610c2b57602002820191906000526020600020905b81546001600160a01b03168152600190910190602001808311610c0d575b5050505050905090565b600080805b603554811015610cb65760008481526038602052604081206035805491929184908110610c6957610c69611eff565b60009182526020808320909101546001600160a01b0316835282019290925260400190205460ff1615610ca457610ca1600183611f8c565b91505b80610cae81611f15565b915050610c3a565b5092915050565b6033546001600160a01b03163314610ce75760405162461bcd60e51b815260040161050390611e9d565b610bd08161180e565b845184818111158015610d0257508015155b8015610d0d57508115155b610d595760405162461bcd60e51b815260206004820181905260248201527f46656465726174696f6e3a20496e76616c696420726571756972656d656e74736044820152606401610503565b600054610100900460ff1680610d72575060005460ff16155b610d8e5760405162461bcd60e51b815260040161050390611fa4565b600054610100900460ff16158015610db0576000805461ffff19166101011790555b610db9856111e4565b603288511115610e0b5760405162461bcd60e51b815260206004820152601c60248201527f46656465726174696f6e3a20546f6f206d616e79206d656d62657273000000006044820152606401610503565b8751610e1e9060359060208b0190611991565b5060005b8851811015610fa557603760008a8381518110610e4157610e41611eff565b6020908102919091018101516001600160a01b031682528101919091526040016000205460ff16158015610ea1575060006001600160a01b0316898281518110610e8d57610e8d611eff565b60200260200101516001600160a01b031614155b610eed5760405162461bcd60e51b815260206004820152601b60248201527f46656465726174696f6e3a20496e76616c6964206d656d6265727300000000006044820152606401610503565b6001603760008b8481518110610f0557610f05611eff565b60200260200101516001600160a01b03166001600160a01b0316815260200190815260200160002060006101000a81548160ff021916908315150217905550888181518110610f5657610f56611eff565b60200260200101516001600160a01b03167f72114e270de66b9d2710ecf140403e5e99b1574767d6a8197bdc8d807a46e7c760405160405180910390a280610f9d81611f15565b915050610e22565b5060368790556040518781527fa3f1ee9126a074d9326c682f561767f710e927faa811f7a99829d49dc421797a9060200160405180910390a1610fe786611763565b610ff08461180e565b8015611002576000805461ff00191690555b5050505050505050565b3360009081526037602052604090205460ff166110675760405162461bcd60e51b81526020600482015260196024820152782332b232b930ba34b7b71d102737ba102332b232b930ba37b960391b6044820152606401610503565b336001600160a01b03167f934f4c1414be2c01272d8a8bdfc953b56a351f9f04b637f2aa5ec2d81be7eb9a8989898989898989466040516110b099989796959493929190612015565b60405180910390a25050505050505050565b6033546001600160a01b031633146110ec5760405162461bcd60e51b815260040161050390611e9d565b603554818181118015906110ff57508015155b801561110a57508115155b6111565760405162461bcd60e51b815260206004820181905260248201527f46656465726174696f6e3a20496e76616c696420726571756972656d656e74736044820152606401610503565b60028310156111a75760405162461bcd60e51b815260206004820152601f60248201527f46656465726174696f6e3a205265717569726573206174206c656173742032006044820152606401610503565b60368390556040518381527fa3f1ee9126a074d9326c682f561767f710e927faa811f7a99829d49dc421797a9060200160405180910390a1505050565b600054610100900460ff16806111fd575060005460ff16155b6112195760405162461bcd60e51b815260040161050390611fa4565b600054610100900460ff1615801561123b576000805461ffff19166101011790555b603380546001600160a01b0319166001600160a01b0384169081179091556040516000907f8be0079c531659141344cd1fd0a4f28419497f9722a3daafe3b4186f6b6457e0908290a38015611296576000805461ff00191690555b5050565b6033546001600160a01b031633146112c45760405162461bcd60e51b815260040161050390611e9d565b6001600160a01b0381166113155760405162461bcd60e51b81526020600482015260186024820152772332b232b930ba34b7b71d1022b6b83a3c9036b2b6b132b960411b6044820152606401610503565b6001600160a01b03811660009081526037602052604090205460ff16156113885760405162461bcd60e51b815260206004820152602160248201527f46656465726174696f6e3a204d656d62657220616c72656164792065786973746044820152607360f81b6064820152608401610503565b6035546032116113da5760405162461bcd60e51b815260206004820152601f60248201527f46656465726174696f6e3a204d6178206d656d626572732072656163686564006044820152606401610503565b6001600160a01b038116600081815260376020526040808220805460ff1916600190811790915560358054918201815583527fcfa4bec1d3298408bb5afcfcd9c430549c5b31f8aa5c5848151c0a55f473c34d0180546001600160a01b03191684179055517f72114e270de66b9d2710ecf140403e5e99b1574767d6a8197bdc8d807a46e7c79190a250565b6033546001600160a01b031633146114905760405162461bcd60e51b815260040161050390611e9d565b610bd0816118b2565b6000806114a461196f565b90506000805b6035548110156115ad57600085815260386020526040812060358054919291849081106114d9576114d9611eff565b60009182526020808320909101546001600160a01b0316835282019290925260400190205460ff161561151857611511600183611f8c565b9150611578565b6000868152603860205260408120603580549192918490811061153d5761153d611eff565b60009182526020808320909101546001600160a01b0316835282019290925260400190205460ff161561157857611575600183611f8c565b91505b82821015801561158a57506036548210155b1561159b57600193505050506104d3565b806115a581611f15565b9150506114aa565b50600095945050505050565b60018260018111156115cd576115cd612074565b14156116c057603a546001600160a01b031661162b5760405162461bcd60e51b815260206004820152601b60248201527f46656465726174696f6e3a20456d707479204e465442726964676500000000006044820152606401610503565b603a54604051636a86319160e01b81526001600160a01b038b811660048301528a811660248301528981166044830152606482018990526084820188905260a4820187905263ffffffff861660c483015290911690636a8631919060e401600060405180830381600087803b1580156116a357600080fd5b505af11580156116b7573d6000803e3d6000fd5b50505050610a44565b603454604051635953bbe160e11b81526001600160a01b038b811660048301528a811660248301528981166044830152606482018990526084820188905260a4820187905263ffffffff861660c483015260e482018490529091169063b2a777c29061010401600060405180830381600087803b15801561174057600080fd5b505af1158015611754573d6000803e3d6000fd5b50505050505050505050505050565b6001600160a01b0381166117b95760405162461bcd60e51b815260206004820152601860248201527f46656465726174696f6e3a20456d7074792062726964676500000000000000006044820152606401610503565b603480546001600160a01b0319166001600160a01b0383169081179091556040519081527f9775531310b2880b61484ed85cbb0b491c8fde3a07f289c63b92551782794497906020015b60405180910390a150565b6001600160a01b0381166118645760405162461bcd60e51b815260206004820152601c60248201527f46656465726174696f6e3a20456d707479204e465420627269646765000000006044820152606401610503565b603a80546001600160a01b0319166001600160a01b0383169081179091556040519081527f41d363b5ede55d38b1fa8f7ba6188f9c20e353bc71e4a93de8938a20b27b6bc290602001611803565b6001600160a01b0381166119135760405162461bcd60e51b815260206004820152602260248201527f4f776e61626c653a206e6577206f776e6572206973207a65726f206164647265604482015261737360f01b6064820152608401610503565b6033546040516001600160a01b038084169216907f8be0079c531659141344cd1fd0a4f28419497f9722a3daafe3b4186f6b6457e090600090a3603380546001600160a01b0319166001600160a01b0392909216919091179055565b6035546000906119819060029061208a565b61198c906001611f8c565b905090565b8280548282559060005260206000209081019282156119e6579160200282015b828111156119e657825182546001600160a01b0319166001600160a01b039091161782556020909201916001909101906119b1565b506119f29291506119f6565b5090565b5b808211156119f257600081556001016119f7565b60008060408385031215611a1e57600080fd5b50508035926020909101359150565b6001600160a01b0381168114610bd057600080fd5b8035611a4d81611a2d565b919050565b600060208284031215611a6457600080fd5b8135611a6f81611a2d565b9392505050565b600060208284031215611a8857600080fd5b5035919050565b803563ffffffff81168114611a4d57600080fd5b60008060008060008060008060006101208a8c031215611ac257600080fd5b8935611acd81611a2d565b985060208a0135611add81611a2d565b975060408a0135611aed81611a2d565b965060608a0135955060808a0135945060a08a01359350611b1060c08b01611a8f565b925060e08a013560028110611b2457600080fd5b809250506101008a013590509295985092959850929598565b600060208083528351808285015260005b81811015611b6a57858101830151858201604001528201611b4e565b81811115611b7c576000604083870101525b50601f01601f1916929092016040019392505050565b600080600080600080600080610100898b031215611baf57600080fd5b8835611bba81611a2d565b97506020890135611bca81611a2d565b96506040890135611bda81611a2d565b9550606089013594506080890135935060a08901359250611bfd60c08a01611a8f565b915060e089013590509295985092959890939650565b60008060408385031215611c2657600080fd5b823591506020830135611c3881611a2d565b809150509250929050565b6020808252825182820181905260009190848201906040850190845b81811015611c845783516001600160a01b031683529284019291840191600101611c5f565b50909695505050505050565b634e487b7160e01b600052604160045260246000fd5b600080600080600060a08688031215611cbe57600080fd5b853567ffffffffffffffff80821115611cd657600080fd5b818801915088601f830112611cea57600080fd5b8135602082821115611cfe57611cfe611c90565b8160051b604051601f19603f83011681018181108682111715611d2357611d23611c90565b60405292835281830193508481018201928c841115611d4157600080fd5b948201945b83861015611d6657611d5786611a42565b85529482019493820193611d46565b9950508901359650611d7f925050604088019050611a42565b9250611d8d60608701611a42565b9150611d9b60808701611a42565b90509295509295909350565b60008083601f840112611db957600080fd5b50813567ffffffffffffffff811115611dd157600080fd5b602083019150836020828501011115611de957600080fd5b9250929050565b60008060008060008060008060a0898b031215611e0c57600080fd5b8835975060208901359650604089013567ffffffffffffffff80821115611e3257600080fd5b611e3e8c838d01611da7565b909850965060608b0135915080821115611e5757600080fd5b611e638c838d01611da7565b909650945060808b0135915080821115611e7c57600080fd5b50611e898b828c01611da7565b999c989b5096995094979396929594505050565b6020808252818101527f4f776e61626c653a2063616c6c6572206973206e6f7420746865206f776e6572604082015260600190565b634e487b7160e01b600052601160045260246000fd5b600082821015611efa57611efa611ed2565b500390565b634e487b7160e01b600052603260045260246000fd5b6000600019821415611f2957611f29611ed2565b5060010190565b634e487b7160e01b600052603160045260246000fd5b6001600160a01b03978816815295871660208701529390951660408501526060840191909152608083015263ffffffff90921660a082015260c081019190915260e00190565b60008219821115611f9f57611f9f611ed2565b500190565b60208082526028908201527f436f6e747261637420696e7374616e636520697320616c726561647920696e696040820152671d1a585b1a5e995960c21b606082015260800190565b81835281816020850137506000828201602090810191909152601f909101601f19169091010190565b89815288602082015260c06040820152600061203560c08301898b611fec565b828103606084015261204881888a611fec565b9050828103608084015261205d818688611fec565b9150508260a08301529a9950505050505050505050565b634e487b7160e01b600052602160045260246000fd5b6000826120a757634e487b7160e01b600052601260045260246000fd5b50049056fea2646970667358221220e494c374efa92b49d12d20945ec75308495c0b28bf1ae654b3d1720930fb097c64736f6c63430008090033",
    "sourcePath": "/home/rafilx/projects/github.com/rsksmart/tokenbridge/bridge/contracts/Federation/Federation.sol",
    "compiler": {
        "name": "solc",
        "version": "0.8.9+commit.e5eed63a"
    },
    "functionHashes": {
        "MAX_MEMBER_COUNT()": "681fc921",
        "addMember(address)": "ca6d56dc",
        "bridge()": "e78cea92",
        "bridgeNFT()": "ef1093a7",
        "changeRequirement(uint256)": "ba51a6df",
        "emitHeartbeat(uint256,uint256,string,string,string)": "b9a3b9dc",
        "getMembers()": "9eab5253",
        "getTransactionCount(bytes32)": "a1fb4acb",
        "getTransactionId(address,address,address,uint256,bytes32,bytes32,uint32,uint256)": "7b116b5e",
        "hasVoted(bytes32)": "1b4613cb",
        "initialize(address)": "c4d66de8",
        "initialize(address[],uint256,address,address,address)": "a8e12e4c",
        "isMember(address)": "a230c524",
        "isOwner()": "8f32d59b",
        "isProcessed(bytes32,bytes32)": "7b6d343a",
        "isVoted(bytes32,bytes32)": "09c69cfa",
        "members(uint256)": "5daf08ca",
        "owner()": "8da5cb5b",
        "processed(bytes32)": "c1f0808a",
        "removeMember(address)": "0b1ca49a",
        "renounceOwnership()": "715018a6",
        "required()": "dc8452cd",
        "setBridge(address)": "8dd14802",
        "setNFTBridge(address)": "a481d59b",
        "transactionWasProcessed(bytes32)": "a93585f0",
        "transferOwnership(address)": "f2fde38b",
        "version()": "54fd4d50",
        "voteTransaction(address,address,address,uint256,bytes32,bytes32,uint32,uint8,uint256)": "21e901ab",
        "votes(bytes32,address)": "9386775a"
    },
    "gasEstimates": {
        "creation": {
            "codeDepositCost": "1683600",
            "executionCost": "1771",
            "totalCost": "1685371"
        },
        "external": {
            "MAX_MEMBER_COUNT()": "307",
            "addMember(address)": "80843",
            "bridge()": "2403",
            "bridgeNFT()": "2425",
            "changeRequirement(uint256)": "27798",
            "emitHeartbeat(uint256,uint256,string,string,string)": "infinite",
            "getMembers()": "infinite",
            "getTransactionCount(bytes32)": "infinite",
            "getTransactionId(address,address,address,uint256,bytes32,bytes32,uint32,uint256)": "infinite",
            "hasVoted(bytes32)": "2601",
            "initialize(address)": "81046",
            "initialize(address[],uint256,address,address,address)": "infinite",
            "isMember(address)": "2604",
            "isOwner()": "2399",
            "isProcessed(bytes32,bytes32)": "4761",
            "isVoted(bytes32,bytes32)": "4870",
            "members(uint256)": "4704",
            "owner()": "2376",
            "processed(bytes32)": "2506",
            "removeMember(address)": "infinite",
            "renounceOwnership()": "30208",
            "required()": "2339",
            "setBridge(address)": "infinite",
            "setNFTBridge(address)": "infinite",
            "transactionWasProcessed(bytes32)": "2528",
            "transferOwnership(address)": "infinite",
            "version()": "infinite",
            "voteTransaction(address,address,address,uint256,bytes32,bytes32,uint32,uint8,uint256)": "infinite",
            "votes(bytes32,address)": "2728"
        },
        "internal": {
            "_setBridge(address)": "infinite",
            "_setNFTBridge(address)": "infinite",
            "acceptTransfer(address,address payable,address payable,uint256,bytes32,bytes32,uint32,enum IFederation.TokenType,uint256)": "infinite",
            "getMinimalNumberOfVotes()": "2276",
            "validateTransaction(bytes32,bytes32)": "infinite"
        }
    }
}