{
    "contractName": "Federation",
    "abi": [
        {
            "anonymous": false,
            "inputs": [
                {
                    "indexed": false,
                    "internalType": "address",
                    "name": "bridge",
                    "type": "address"
                }
            ],
            "name": "BridgeChanged",
            "type": "event"
        },
        {
            "anonymous": false,
            "inputs": [
                {
                    "indexed": true,
                    "internalType": "address",
                    "name": "federator",
                    "type": "address"
                },
                {
                    "indexed": true,
                    "internalType": "bytes32",
                    "name": "transactionHash",
                    "type": "bytes32"
                },
                {
                    "indexed": true,
                    "internalType": "bytes32",
                    "name": "transactionId",
                    "type": "bytes32"
                },
                {
                    "indexed": false,
                    "internalType": "address",
                    "name": "originalTokenAddress",
                    "type": "address"
                },
                {
                    "indexed": false,
                    "internalType": "address",
                    "name": "sender",
                    "type": "address"
                },
                {
                    "indexed": false,
                    "internalType": "address",
                    "name": "receiver",
                    "type": "address"
                },
                {
                    "indexed": false,
                    "internalType": "uint256",
                    "name": "amount",
                    "type": "uint256"
                },
                {
                    "indexed": false,
                    "internalType": "bytes32",
                    "name": "blockHash",
                    "type": "bytes32"
                },
                {
                    "indexed": false,
                    "internalType": "uint32",
                    "name": "logIndex",
                    "type": "uint32"
                },
                {
                    "indexed": false,
                    "internalType": "uint256",
                    "name": "chainId",
                    "type": "uint256"
                }
            ],
            "name": "Executed",
            "type": "event"
        },
        {
            "anonymous": false,
            "inputs": [
                {
                    "indexed": true,
                    "internalType": "address",
                    "name": "sender",
                    "type": "address"
                },
                {
                    "indexed": false,
                    "internalType": "uint256",
                    "name": "fedRskBlock",
                    "type": "uint256"
                },
                {
                    "indexed": false,
                    "internalType": "uint256",
                    "name": "fedEthBlock",
                    "type": "uint256"
                },
                {
                    "indexed": false,
                    "internalType": "string",
                    "name": "federatorVersion",
                    "type": "string"
                },
                {
                    "indexed": false,
                    "internalType": "string",
                    "name": "nodeRskInfo",
                    "type": "string"
                },
                {
                    "indexed": false,
                    "internalType": "string",
                    "name": "nodeEthInfo",
                    "type": "string"
                }
            ],
            "name": "HeartBeat",
            "type": "event"
        },
        {
            "anonymous": false,
            "inputs": [
                {
                    "indexed": true,
                    "internalType": "address",
                    "name": "member",
                    "type": "address"
                }
            ],
            "name": "MemberAddition",
            "type": "event"
        },
        {
            "anonymous": false,
            "inputs": [
                {
                    "indexed": true,
                    "internalType": "address",
                    "name": "member",
                    "type": "address"
                }
            ],
            "name": "MemberRemoval",
            "type": "event"
        },
        {
            "anonymous": false,
            "inputs": [
                {
                    "indexed": false,
                    "internalType": "address",
                    "name": "bridgeNFT",
                    "type": "address"
                }
            ],
            "name": "NFTBridgeChanged",
            "type": "event"
        },
        {
            "anonymous": false,
            "inputs": [
                {
                    "indexed": true,
                    "internalType": "address",
                    "name": "previousOwner",
                    "type": "address"
                },
                {
                    "indexed": true,
                    "internalType": "address",
                    "name": "newOwner",
                    "type": "address"
                }
            ],
            "name": "OwnershipTransferred",
            "type": "event"
        },
        {
            "anonymous": false,
            "inputs": [
                {
                    "indexed": false,
                    "internalType": "uint256",
                    "name": "required",
                    "type": "uint256"
                }
            ],
            "name": "RequirementChange",
            "type": "event"
        },
        {
            "anonymous": false,
            "inputs": [
                {
                    "indexed": true,
                    "internalType": "address",
                    "name": "federator",
                    "type": "address"
                },
                {
                    "indexed": true,
                    "internalType": "bytes32",
                    "name": "transactionHash",
                    "type": "bytes32"
                },
                {
                    "indexed": true,
                    "internalType": "bytes32",
                    "name": "transactionId",
                    "type": "bytes32"
                },
                {
                    "indexed": false,
                    "internalType": "address",
                    "name": "originalTokenAddress",
                    "type": "address"
                },
                {
                    "indexed": false,
                    "internalType": "address",
                    "name": "sender",
                    "type": "address"
                },
                {
                    "indexed": false,
                    "internalType": "address",
                    "name": "receiver",
                    "type": "address"
                },
                {
                    "indexed": false,
                    "internalType": "uint256",
                    "name": "amount",
                    "type": "uint256"
                },
                {
                    "indexed": false,
                    "internalType": "bytes32",
                    "name": "blockHash",
                    "type": "bytes32"
                },
                {
                    "indexed": false,
                    "internalType": "uint32",
                    "name": "logIndex",
                    "type": "uint32"
                },
                {
                    "indexed": false,
                    "internalType": "uint256",
                    "name": "chainId",
                    "type": "uint256"
                }
            ],
            "name": "Voted",
            "type": "event"
        },
        {
            "inputs": [],
            "name": "MAX_MEMBER_COUNT",
            "outputs": [
                {
                    "internalType": "uint256",
                    "name": "",
                    "type": "uint256"
                }
            ],
            "stateMutability": "view",
            "type": "function"
        },
        {
            "inputs": [
                {
                    "internalType": "address",
                    "name": "originalTokenAddress",
                    "type": "address"
                },
                {
                    "internalType": "address payable",
                    "name": "sender",
                    "type": "address"
                },
                {
                    "internalType": "address payable",
                    "name": "receiver",
                    "type": "address"
                },
                {
                    "internalType": "uint256",
                    "name": "value",
                    "type": "uint256"
                },
                {
                    "internalType": "bytes32",
                    "name": "blockHash",
                    "type": "bytes32"
                },
                {
                    "internalType": "bytes32",
                    "name": "transactionHash",
                    "type": "bytes32"
                },
                {
                    "internalType": "uint32",
                    "name": "logIndex",
                    "type": "uint32"
                },
                {
                    "internalType": "enum IFederation.TokenType",
                    "name": "tokenType",
                    "type": "uint8"
                },
                {
                    "internalType": "uint256",
                    "name": "chainId",
                    "type": "uint256"
                }
            ],
            "name": "_voteTransaction",
            "outputs": [],
            "stateMutability": "nonpayable",
            "type": "function"
        },
        {
            "inputs": [
                {
                    "internalType": "address",
                    "name": "_newMember",
                    "type": "address"
                }
            ],
            "name": "addMember",
            "outputs": [],
            "stateMutability": "nonpayable",
            "type": "function"
        },
        {
            "inputs": [],
            "name": "bridge",
            "outputs": [
                {
                    "internalType": "contract IBridge",
                    "name": "",
                    "type": "address"
                }
            ],
            "stateMutability": "view",
            "type": "function"
        },
        {
            "inputs": [],
            "name": "bridgeNFT",
            "outputs": [
                {
                    "internalType": "contract INFTBridge",
                    "name": "",
                    "type": "address"
                }
            ],
            "stateMutability": "view",
            "type": "function"
        },
        {
            "inputs": [
                {
                    "internalType": "uint256",
                    "name": "_required",
                    "type": "uint256"
                }
            ],
            "name": "changeRequirement",
            "outputs": [],
            "stateMutability": "nonpayable",
            "type": "function"
        },
        {
            "inputs": [
                {
                    "internalType": "uint256",
                    "name": "fedRskBlock",
                    "type": "uint256"
                },
                {
                    "internalType": "uint256",
                    "name": "fedEthBlock",
                    "type": "uint256"
                },
                {
                    "internalType": "string",
                    "name": "federatorVersion",
                    "type": "string"
                },
                {
                    "internalType": "string",
                    "name": "nodeRskInfo",
                    "type": "string"
                },
                {
                    "internalType": "string",
                    "name": "nodeEthInfo",
                    "type": "string"
                }
            ],
            "name": "emitHeartbeat",
            "outputs": [],
            "stateMutability": "nonpayable",
            "type": "function"
        },
        {
            "inputs": [],
            "name": "getMembers",
            "outputs": [
                {
                    "internalType": "address[]",
                    "name": "",
                    "type": "address[]"
                }
            ],
            "stateMutability": "view",
            "type": "function"
        },
        {
            "inputs": [
                {
                    "internalType": "bytes32",
                    "name": "transactionId",
                    "type": "bytes32"
                }
            ],
            "name": "getTransactionCount",
            "outputs": [
                {
                    "internalType": "uint256",
                    "name": "",
                    "type": "uint256"
                }
            ],
            "stateMutability": "view",
            "type": "function"
        },
        {
            "inputs": [
                {
                    "internalType": "address",
                    "name": "originalTokenAddress",
                    "type": "address"
                },
                {
                    "internalType": "address",
                    "name": "sender",
                    "type": "address"
                },
                {
                    "internalType": "address",
                    "name": "receiver",
                    "type": "address"
                },
                {
                    "internalType": "uint256",
                    "name": "amount",
                    "type": "uint256"
                },
                {
                    "internalType": "bytes32",
                    "name": "blockHash",
                    "type": "bytes32"
                },
                {
                    "internalType": "bytes32",
                    "name": "transactionHash",
                    "type": "bytes32"
                },
                {
                    "internalType": "uint32",
                    "name": "logIndex",
                    "type": "uint32"
                },
                {
                    "internalType": "uint256",
                    "name": "chainId",
                    "type": "uint256"
                }
            ],
            "name": "getTransactionId",
            "outputs": [
                {
                    "internalType": "bytes32",
                    "name": "",
                    "type": "bytes32"
                }
            ],
            "stateMutability": "pure",
            "type": "function"
        },
        {
            "inputs": [
                {
                    "internalType": "address",
                    "name": "originalTokenAddress",
                    "type": "address"
                },
                {
                    "internalType": "address",
                    "name": "sender",
                    "type": "address"
                },
                {
                    "internalType": "address",
                    "name": "receiver",
                    "type": "address"
                },
                {
                    "internalType": "uint256",
                    "name": "amount",
                    "type": "uint256"
                },
                {
                    "internalType": "bytes32",
                    "name": "blockHash",
                    "type": "bytes32"
                },
                {
                    "internalType": "bytes32",
                    "name": "transactionHash",
                    "type": "bytes32"
                },
                {
                    "internalType": "uint32",
                    "name": "logIndex",
                    "type": "uint32"
                }
            ],
            "name": "getTransactionId",
            "outputs": [
                {
                    "internalType": "bytes32",
                    "name": "",
                    "type": "bytes32"
                }
            ],
            "stateMutability": "pure",
            "type": "function"
        },
        {
            "inputs": [
                {
                    "internalType": "bytes32",
                    "name": "transactionId",
                    "type": "bytes32"
                }
            ],
            "name": "hasVoted",
            "outputs": [
                {
                    "internalType": "bool",
                    "name": "",
                    "type": "bool"
                }
            ],
            "stateMutability": "view",
            "type": "function"
        },
        {
            "inputs": [
                {
                    "internalType": "address[]",
                    "name": "_members",
                    "type": "address[]"
                },
                {
                    "internalType": "uint256",
                    "name": "_required",
                    "type": "uint256"
                },
                {
                    "internalType": "address",
                    "name": "_bridge",
                    "type": "address"
                },
                {
                    "internalType": "address",
                    "name": "owner",
                    "type": "address"
                },
                {
                    "internalType": "address",
                    "name": "_bridgeNFT",
                    "type": "address"
                }
            ],
            "name": "initialize",
            "outputs": [],
            "stateMutability": "nonpayable",
            "type": "function"
        },
        {
            "inputs": [
                {
                    "internalType": "address",
                    "name": "sender",
                    "type": "address"
                }
            ],
            "name": "initialize",
            "outputs": [],
            "stateMutability": "nonpayable",
            "type": "function"
        },
        {
            "inputs": [
                {
                    "internalType": "address",
                    "name": "",
                    "type": "address"
                }
            ],
            "name": "isMember",
            "outputs": [
                {
                    "internalType": "bool",
                    "name": "",
                    "type": "bool"
                }
            ],
            "stateMutability": "view",
            "type": "function"
        },
        {
            "inputs": [],
            "name": "isOwner",
            "outputs": [
                {
                    "internalType": "bool",
                    "name": "",
                    "type": "bool"
                }
            ],
            "stateMutability": "view",
            "type": "function"
        },
        {
            "inputs": [
                {
                    "internalType": "bytes32",
                    "name": "transactionId",
                    "type": "bytes32"
                },
                {
                    "internalType": "bytes32",
                    "name": "transactionIdMultichain",
                    "type": "bytes32"
                }
            ],
            "name": "isProcessed",
            "outputs": [
                {
                    "internalType": "bool",
                    "name": "",
                    "type": "bool"
                }
            ],
            "stateMutability": "view",
            "type": "function"
        },
        {
            "inputs": [
                {
                    "internalType": "bytes32",
                    "name": "transactionId",
                    "type": "bytes32"
                },
                {
                    "internalType": "bytes32",
                    "name": "transactionIdMultichain",
                    "type": "bytes32"
                }
            ],
            "name": "isVoted",
            "outputs": [
                {
                    "internalType": "bool",
                    "name": "",
                    "type": "bool"
                }
            ],
            "stateMutability": "view",
            "type": "function"
        },
        {
            "inputs": [
                {
                    "internalType": "uint256",
                    "name": "",
                    "type": "uint256"
                }
            ],
            "name": "members",
            "outputs": [
                {
                    "internalType": "address",
                    "name": "",
                    "type": "address"
                }
            ],
            "stateMutability": "view",
            "type": "function"
        },
        {
            "inputs": [],
            "name": "owner",
            "outputs": [
                {
                    "internalType": "address",
                    "name": "",
                    "type": "address"
                }
            ],
            "stateMutability": "view",
            "type": "function"
        },
        {
            "inputs": [
                {
                    "internalType": "bytes32",
                    "name": "",
                    "type": "bytes32"
                }
            ],
            "name": "processed",
            "outputs": [
                {
                    "internalType": "bool",
                    "name": "",
                    "type": "bool"
                }
            ],
            "stateMutability": "view",
            "type": "function"
        },
        {
            "inputs": [
                {
                    "internalType": "address",
                    "name": "_oldMember",
                    "type": "address"
                }
            ],
            "name": "removeMember",
            "outputs": [],
            "stateMutability": "nonpayable",
            "type": "function"
        },
        {
            "inputs": [],
            "name": "renounceOwnership",
            "outputs": [],
            "stateMutability": "nonpayable",
            "type": "function"
        },
        {
            "inputs": [],
            "name": "required",
            "outputs": [
                {
                    "internalType": "uint256",
                    "name": "",
                    "type": "uint256"
                }
            ],
            "stateMutability": "view",
            "type": "function"
        },
        {
            "inputs": [
                {
                    "internalType": "address",
                    "name": "_bridge",
                    "type": "address"
                }
            ],
            "name": "setBridge",
            "outputs": [],
            "stateMutability": "nonpayable",
            "type": "function"
        },
        {
            "inputs": [
                {
                    "internalType": "address",
                    "name": "_bridgeNFT",
                    "type": "address"
                }
            ],
            "name": "setNFTBridge",
            "outputs": [],
            "stateMutability": "nonpayable",
            "type": "function"
        },
        {
            "inputs": [
                {
                    "internalType": "bytes32",
                    "name": "transactionId",
                    "type": "bytes32"
                }
            ],
            "name": "transactionWasProcessed",
            "outputs": [
                {
                    "internalType": "bool",
                    "name": "",
                    "type": "bool"
                }
            ],
            "stateMutability": "view",
            "type": "function"
        },
        {
            "inputs": [
                {
                    "internalType": "address",
                    "name": "newOwner",
                    "type": "address"
                }
            ],
            "name": "transferOwnership",
            "outputs": [],
            "stateMutability": "nonpayable",
            "type": "function"
        },
        {
            "inputs": [],
            "name": "version",
            "outputs": [
                {
                    "internalType": "string",
                    "name": "",
                    "type": "string"
                }
            ],
            "stateMutability": "pure",
            "type": "function"
        },
        {
            "inputs": [
                {
                    "internalType": "address",
                    "name": "originalTokenAddress",
                    "type": "address"
                },
                {
                    "internalType": "address payable",
                    "name": "sender",
                    "type": "address"
                },
                {
                    "internalType": "address payable",
                    "name": "receiver",
                    "type": "address"
                },
                {
                    "internalType": "uint256",
                    "name": "value",
                    "type": "uint256"
                },
                {
                    "internalType": "bytes32",
                    "name": "blockHash",
                    "type": "bytes32"
                },
                {
                    "internalType": "bytes32",
                    "name": "transactionHash",
                    "type": "bytes32"
                },
                {
                    "internalType": "uint32",
                    "name": "logIndex",
                    "type": "uint32"
                },
                {
                    "internalType": "enum IFederation.TokenType",
                    "name": "tokenType",
                    "type": "uint8"
                },
                {
                    "internalType": "uint256",
                    "name": "chainId",
                    "type": "uint256"
                }
            ],
            "name": "voteTransaction",
            "outputs": [],
            "stateMutability": "nonpayable",
            "type": "function"
        },
        {
            "inputs": [
                {
                    "internalType": "bytes32",
                    "name": "",
                    "type": "bytes32"
                },
                {
                    "internalType": "address",
                    "name": "",
                    "type": "address"
                }
            ],
            "name": "votes",
            "outputs": [
                {
                    "internalType": "bool",
                    "name": "",
                    "type": "bool"
                }
            ],
            "stateMutability": "view",
            "type": "function"
        }
    ],
    "bytecode": "608060405234801561001057600080fd5b506121ca806100206000396000f3fe608060405234801561001057600080fd5b50600436106101e55760003560e01c8063a1fb4acb1161010f578063c4d66de8116100a2578063e78cea9211610071578063e78cea921461047f578063ef1093a714610492578063f2fde38b146104a5578063fa6297ba146104b857600080fd5b8063c4d66de81461043d578063ca6d56dc14610450578063dc8452cd14610463578063e5a36d641461046c57600080fd5b8063a93585f0116100de578063a93585f0146103d1578063b9a3b9dc146103f4578063ba51a6df14610407578063c1f0808a1461041a57600080fd5b8063a1fb4acb14610375578063a230c52414610388578063a481d59b146103ab578063a8e12e4c146103be57600080fd5b8063715018a6116101875780638dd14802116101565780638dd148021461030c5780638f32d59b1461031f5780639386775a146103325780639eab52531461036057600080fd5b8063715018a6146102cd5780637b116b5e146102d55780637b6d343a146102e85780638da5cb5b146102fb57600080fd5b806321e901ab116101c357806321e901ab1461025557806354fd4d50146102685780635daf08ca1461028c578063681fc921146102b757600080fd5b806309c69cfa146101ea5780630b1ca49a146102125780631b4613cb14610227575b600080fd5b6101fd6101f8366004611a4d565b6104cb565b60405190151581526020015b60405180910390f35b610225610220366004611a94565b610515565b005b6101fd610235366004611ab8565b600090815260386020908152604080832033845290915290205460ff1690565b610225610263366004611ae5565b610853565b6040805180820182526002815261763360f01b602082015290516102099190611b7f565b61029f61029a366004611ab8565b61089e565b6040516001600160a01b039091168152602001610209565b6102bf603281565b604051908152602001610209565b6102256108c8565b6102bf6102e3366004611bd4565b61093c565b6101fd6102f6366004611a4d565b6109bd565b6033546001600160a01b031661029f565b61022561031a366004611a94565b6109ed565b6033546001600160a01b031633146101fd565b6101fd610340366004611c55565b603860209081526000928352604080842090915290825290205460ff1681565b610368610a23565b6040516102099190611c85565b6102bf610383366004611ab8565b610a85565b6101fd610396366004611a94565b60376020526000908152604090205460ff1681565b6102256103b9366004611a94565b610b0d565b6102256103cc366004611ce8565b610b40565b6101fd6103df366004611ab8565b60009081526039602052604090205460ff1690565b610225610402366004611e32565b610e5c565b610225610415366004611ab8565b610ee4565b6101fd610428366004611ab8565b60396020526000908152604090205460ff1681565b61022561044b366004611a94565b611006565b61022561045e366004611a94565b6110bc565b6102bf60365481565b61022561047a366004611ae5565b611288565b60345461029f906001600160a01b031681565b603a5461029f906001600160a01b031681565b6102256104b3366004611a94565b61142f565b6102bf6104c6366004611edf565b611462565b600082815260386020908152604080832033845290915281205460ff168061050c5750600082815260386020908152604080832033845290915290205460ff165b90505b92915050565b6033546001600160a01b031633146105485760405162461bcd60e51b815260040161053f90611f56565b60405180910390fd5b6001600160a01b0381166105995760405162461bcd60e51b81526020600482015260186024820152772332b232b930ba34b7b71d1022b6b83a3c9036b2b6b132b960411b604482015260640161053f565b6001600160a01b03811660009081526037602052604090205460ff1661060b5760405162461bcd60e51b815260206004820152602160248201527f46656465726174696f6e3a204d656d62657220646f65736e27742065786973746044820152607360f81b606482015260840161053f565b60355460011061066e5760405162461bcd60e51b815260206004820152602860248201527f46656465726174696f6e3a2043616e27742072656d6f766520616c6c20746865604482015267206d656d6265727360c01b606482015260840161053f565b60365460355461068090600190611fa1565b10156106e85760405162461bcd60e51b815260206004820152603160248201527f46656465726174696f6e3a2043616e27742068617665206c657373207468616e604482015270207265717569726564206d656d6265727360781b606482015260840161053f565b6001600160a01b0381166000908152603760205260408120805460ff191690555b60355461071890600190611fa1565b8110156107e857816001600160a01b03166035828154811061073c5761073c611fb8565b6000918252602090912001546001600160a01b031614156107d6576035805461076790600190611fa1565b8154811061077757610777611fb8565b600091825260209091200154603580546001600160a01b0390921691839081106107a3576107a3611fb8565b9060005260206000200160006101000a8154816001600160a01b0302191690836001600160a01b031602179055506107e8565b806107e081611fce565b915050610709565b5060358054806107fa576107fa611fe9565b600082815260208120820160001990810180546001600160a01b03191690559091019091556040516001600160a01b038316917f270bfc616dd36d5cb6b35aac93e6ef22b089c34e6f6ad6f0892797424840897b91a250565b3360009081526037602052604090205460ff166108825760405162461bcd60e51b815260040161053f90611fff565b610893898989898989898989611288565b505050505050505050565b603581815481106108ae57600080fd5b6000918252602090912001546001600160a01b0316905081565b6033546001600160a01b031633146108f25760405162461bcd60e51b815260040161053f90611f56565b6033546040516000916001600160a01b0316907f8be0079c531659141344cd1fd0a4f28419497f9722a3daafe3b4186f6b6457e0908390a3603380546001600160a01b0319169055565b604080516bffffffffffffffffffffffff1960609a8b1b8116602080840191909152998b1b811660348301529790991b9096166048890152605c880194909452607c870192909252609c8601526001600160e01b031960e091821b1660bc86015260c080860192909252825180860390920182529093019052815191012090565b60008281526039602052604081205460ff168061050c57505060009081526039602052604090205460ff16919050565b6033546001600160a01b03163314610a175760405162461bcd60e51b815260040161053f90611f56565b610a20816114db565b50565b60606035805480602002602001604051908101604052809291908181526020018280548015610a7b57602002820191906000526020600020905b81546001600160a01b03168152600190910190602001808311610a5d575b5050505050905090565b600080805b603554811015610b065760008481526038602052604081206035805491929184908110610ab957610ab9611fb8565b60009182526020808320909101546001600160a01b0316835282019290925260400190205460ff1615610af457610af1600183612036565b91505b80610afe81611fce565b915050610a8a565b5092915050565b6033546001600160a01b03163314610b375760405162461bcd60e51b815260040161053f90611f56565b610a2081611586565b845184818111158015610b5257508015155b8015610b5d57508115155b610ba95760405162461bcd60e51b815260206004820181905260248201527f46656465726174696f6e3a20496e76616c696420726571756972656d656e7473604482015260640161053f565b600054610100900460ff1680610bc2575060005460ff16155b610bde5760405162461bcd60e51b815260040161053f9061204e565b600054610100900460ff16158015610c00576000805461ffff19166101011790555b610c0985611006565b603288511115610c5b5760405162461bcd60e51b815260206004820152601c60248201527f46656465726174696f6e3a20546f6f206d616e79206d656d6265727300000000604482015260640161053f565b8751610c6e9060359060208b01906119d3565b5060005b8851811015610df557603760008a8381518110610c9157610c91611fb8565b6020908102919091018101516001600160a01b031682528101919091526040016000205460ff16158015610cf1575060006001600160a01b0316898281518110610cdd57610cdd611fb8565b60200260200101516001600160a01b031614155b610d3d5760405162461bcd60e51b815260206004820152601b60248201527f46656465726174696f6e3a20496e76616c6964206d656d626572730000000000604482015260640161053f565b6001603760008b8481518110610d5557610d55611fb8565b60200260200101516001600160a01b03166001600160a01b0316815260200190815260200160002060006101000a81548160ff021916908315150217905550888181518110610da657610da6611fb8565b60200260200101516001600160a01b03167f72114e270de66b9d2710ecf140403e5e99b1574767d6a8197bdc8d807a46e7c760405160405180910390a280610ded81611fce565b915050610c72565b5060368790556040518781527fa3f1ee9126a074d9326c682f561767f710e927faa811f7a99829d49dc421797a9060200160405180910390a1610e37866114db565b610e4084611586565b8015610e52576000805461ff00191690555b5050505050505050565b3360009081526037602052604090205460ff16610e8b5760405162461bcd60e51b815260040161053f90611fff565b336001600160a01b03167fbb00e6cbdccbb5b7549e189335249187223d88583604555326aa1d7ccbcad4428989898989898989604051610ed29897969594939291906120bf565b60405180910390a25050505050505050565b6033546001600160a01b03163314610f0e5760405162461bcd60e51b815260040161053f90611f56565b60355481818111801590610f2157508015155b8015610f2c57508115155b610f785760405162461bcd60e51b815260206004820181905260248201527f46656465726174696f6e3a20496e76616c696420726571756972656d656e7473604482015260640161053f565b6002831015610fc95760405162461bcd60e51b815260206004820152601f60248201527f46656465726174696f6e3a205265717569726573206174206c65617374203200604482015260640161053f565b60368390556040518381527fa3f1ee9126a074d9326c682f561767f710e927faa811f7a99829d49dc421797a9060200160405180910390a1505050565b600054610100900460ff168061101f575060005460ff16155b61103b5760405162461bcd60e51b815260040161053f9061204e565b600054610100900460ff1615801561105d576000805461ffff19166101011790555b603380546001600160a01b0319166001600160a01b0384169081179091556040516000907f8be0079c531659141344cd1fd0a4f28419497f9722a3daafe3b4186f6b6457e0908290a380156110b8576000805461ff00191690555b5050565b6033546001600160a01b031633146110e65760405162461bcd60e51b815260040161053f90611f56565b6001600160a01b0381166111375760405162461bcd60e51b81526020600482015260186024820152772332b232b930ba34b7b71d1022b6b83a3c9036b2b6b132b960411b604482015260640161053f565b6001600160a01b03811660009081526037602052604090205460ff16156111aa5760405162461bcd60e51b815260206004820152602160248201527f46656465726174696f6e3a204d656d62657220616c72656164792065786973746044820152607360f81b606482015260840161053f565b6035546032116111fc5760405162461bcd60e51b815260206004820152601f60248201527f46656465726174696f6e3a204d6178206d656d62657273207265616368656400604482015260640161053f565b6001600160a01b038116600081815260376020526040808220805460ff1916600190811790915560358054918201815583527fcfa4bec1d3298408bb5afcfcd9c430549c5b31f8aa5c5848151c0a55f473c34d0180546001600160a01b03191684179055517f72114e270de66b9d2710ecf140403e5e99b1574767d6a8197bdc8d807a46e7c79190a250565b3360009081526037602052604090205460ff166112b75760405162461bcd60e51b815260040161053f90611fff565b60006112c88a8a8a8a8a8a8a611462565b905060006112dc8b8b8b8b8b8b8b8a61093c565b90506112e882826109bd565b156112f4575050610893565b6112fe82826104cb565b1561130a575050610893565b6000818152603860205260408120600191336001600160a01b031681526020810191909152604001600020805460ff19169115159190911790558086336001600160a01b03167fec884e1e903430ae3d281ed69049e9cbf54371d0914a20e765222ab6ac5de3a58e8e8e8e8e8d8c60405161138b9796959493929190612116565b60405180910390a461139d828261162a565b15611422576000818152603960205260409020805460ff191660011790556113cc8b8b8b8b8b8b8b8b8b61174a565b8186336001600160a01b03167f298086229fbcb8f2cfb7b99a0c9c4f426c02acc4f49337d5a01d991067585fcb8e8e8e8e8e8d8c6040516114139796959493929190612116565b60405180910390a45050610893565b5050505050505050505050565b6033546001600160a01b031633146114595760405162461bcd60e51b815260040161053f90611f56565b610a20816118f4565b60408051606098891b6bffffffffffffffffffffffff19908116602080840191909152988a1b811660348301529690981b9095166048880152605c870193909352607c860191909152609c85015260e01b6001600160e01b03191660bc840152805160a081850301815260c09093019052815191012090565b6001600160a01b0381166115315760405162461bcd60e51b815260206004820152601860248201527f46656465726174696f6e3a20456d707479206272696467650000000000000000604482015260640161053f565b603480546001600160a01b0319166001600160a01b0383169081179091556040519081527f9775531310b2880b61484ed85cbb0b491c8fde3a07f289c63b92551782794497906020015b60405180910390a150565b6001600160a01b0381166115dc5760405162461bcd60e51b815260206004820152601c60248201527f46656465726174696f6e3a20456d707479204e46542062726964676500000000604482015260640161053f565b603a80546001600160a01b0319166001600160a01b0383169081179091556040519081527f41d363b5ede55d38b1fa8f7ba6188f9c20e353bc71e4a93de8938a20b27b6bc29060200161157b565b6000806116356119b1565b90506000805b60355481101561173e576000858152603860205260408120603580549192918490811061166a5761166a611fb8565b60009182526020808320909101546001600160a01b0316835282019290925260400190205460ff16156116a9576116a2600183612036565b9150611709565b600086815260386020526040812060358054919291849081106116ce576116ce611fb8565b60009182526020808320909101546001600160a01b0316835282019290925260400190205460ff161561170957611706600183612036565b91505b82821015801561171b57506036548210155b1561172c576001935050505061050f565b8061173681611fce565b91505061163b565b50600095945050505050565b600182600181111561175e5761175e61215c565b141561185157603a546001600160a01b03166117bc5760405162461bcd60e51b815260206004820152601b60248201527f46656465726174696f6e3a20456d707479204e46544272696467650000000000604482015260640161053f565b603a54604051636a86319160e01b81526001600160a01b038b811660048301528a811660248301528981166044830152606482018990526084820188905260a4820187905263ffffffff861660c483015290911690636a8631919060e401600060405180830381600087803b15801561183457600080fd5b505af1158015611848573d6000803e3d6000fd5b50505050610893565b603454604051635953bbe160e11b81526001600160a01b038b811660048301528a811660248301528981166044830152606482018990526084820188905260a4820187905263ffffffff861660c483015260e482018490529091169063b2a777c29061010401600060405180830381600087803b1580156118d157600080fd5b505af11580156118e5573d6000803e3d6000fd5b50505050505050505050505050565b6001600160a01b0381166119555760405162461bcd60e51b815260206004820152602260248201527f4f776e61626c653a206e6577206f776e6572206973207a65726f206164647265604482015261737360f01b606482015260840161053f565b6033546040516001600160a01b038084169216907f8be0079c531659141344cd1fd0a4f28419497f9722a3daafe3b4186f6b6457e090600090a3603380546001600160a01b0319166001600160a01b0392909216919091179055565b6035546000906119c390600290612172565b6119ce906001612036565b905090565b828054828255906000526020600020908101928215611a28579160200282015b82811115611a2857825182546001600160a01b0319166001600160a01b039091161782556020909201916001909101906119f3565b50611a34929150611a38565b5090565b5b80821115611a345760008155600101611a39565b60008060408385031215611a6057600080fd5b50508035926020909101359150565b6001600160a01b0381168114610a2057600080fd5b8035611a8f81611a6f565b919050565b600060208284031215611aa657600080fd5b8135611ab181611a6f565b9392505050565b600060208284031215611aca57600080fd5b5035919050565b803563ffffffff81168114611a8f57600080fd5b60008060008060008060008060006101208a8c031215611b0457600080fd5b8935611b0f81611a6f565b985060208a0135611b1f81611a6f565b975060408a0135611b2f81611a6f565b965060608a0135955060808a0135945060a08a01359350611b5260c08b01611ad1565b925060e08a013560028110611b6657600080fd5b809250506101008a013590509295985092959850929598565b600060208083528351808285015260005b81811015611bac57858101830151858201604001528201611b90565b81811115611bbe576000604083870101525b50601f01601f1916929092016040019392505050565b600080600080600080600080610100898b031215611bf157600080fd5b8835611bfc81611a6f565b97506020890135611c0c81611a6f565b96506040890135611c1c81611a6f565b9550606089013594506080890135935060a08901359250611c3f60c08a01611ad1565b915060e089013590509295985092959890939650565b60008060408385031215611c6857600080fd5b823591506020830135611c7a81611a6f565b809150509250929050565b6020808252825182820181905260009190848201906040850190845b81811015611cc65783516001600160a01b031683529284019291840191600101611ca1565b50909695505050505050565b634e487b7160e01b600052604160045260246000fd5b600080600080600060a08688031215611d0057600080fd5b853567ffffffffffffffff80821115611d1857600080fd5b818801915088601f830112611d2c57600080fd5b8135602082821115611d4057611d40611cd2565b8160051b604051601f19603f83011681018181108682111715611d6557611d65611cd2565b60405292835281830193508481018201928c841115611d8357600080fd5b948201945b83861015611da857611d9986611a84565b85529482019493820193611d88565b9950508901359650611dc1925050604088019050611a84565b9250611dcf60608701611a84565b9150611ddd60808701611a84565b90509295509295909350565b60008083601f840112611dfb57600080fd5b50813567ffffffffffffffff811115611e1357600080fd5b602083019150836020828501011115611e2b57600080fd5b9250929050565b60008060008060008060008060a0898b031215611e4e57600080fd5b8835975060208901359650604089013567ffffffffffffffff80821115611e7457600080fd5b611e808c838d01611de9565b909850965060608b0135915080821115611e9957600080fd5b611ea58c838d01611de9565b909650945060808b0135915080821115611ebe57600080fd5b50611ecb8b828c01611de9565b999c989b5096995094979396929594505050565b600080600080600080600060e0888a031215611efa57600080fd5b8735611f0581611a6f565b96506020880135611f1581611a6f565b95506040880135611f2581611a6f565b9450606088013593506080880135925060a08801359150611f4860c08901611ad1565b905092959891949750929550565b6020808252818101527f4f776e61626c653a2063616c6c6572206973206e6f7420746865206f776e6572604082015260600190565b634e487b7160e01b600052601160045260246000fd5b600082821015611fb357611fb3611f8b565b500390565b634e487b7160e01b600052603260045260246000fd5b6000600019821415611fe257611fe2611f8b565b5060010190565b634e487b7160e01b600052603160045260246000fd5b60208082526019908201527f46656465726174696f6e3a204e6f7420466564657261746f7200000000000000604082015260600190565b6000821982111561204957612049611f8b565b500190565b60208082526028908201527f436f6e747261637420696e7374616e636520697320616c726561647920696e696040820152671d1a585b1a5e995960c21b606082015260800190565b81835281816020850137506000828201602090810191909152601f909101601f19169091010190565b88815287602082015260a0604082015260006120df60a08301888a612096565b82810360608401526120f2818789612096565b90508281036080840152612107818587612096565b9b9a5050505050505050505050565b6001600160a01b03978816815295871660208701529390951660408501526060840191909152608083015263ffffffff90921660a082015260c081019190915260e00190565b634e487b7160e01b600052602160045260246000fd5b60008261218f57634e487b7160e01b600052601260045260246000fd5b50049056fea2646970667358221220056809a2391817a3f244ae7dc3f536370fc83624c765d9c48d5e728cf85e316864736f6c63430008090033",
    "sourcePath": "/home/rafilx/projects/github.com/rsksmart/tokenbridge/bridge/contracts/Federation/Federation.sol",
    "compiler": {
        "name": "solc",
        "version": "0.8.9+commit.e5eed63a"
    },
    "functionHashes": {
        "MAX_MEMBER_COUNT()": "681fc921",
        "_voteTransaction(address,address,address,uint256,bytes32,bytes32,uint32,uint8,uint256)": "e5a36d64",
        "addMember(address)": "ca6d56dc",
        "bridge()": "e78cea92",
        "bridgeNFT()": "ef1093a7",
        "changeRequirement(uint256)": "ba51a6df",
        "emitHeartbeat(uint256,uint256,string,string,string)": "b9a3b9dc",
        "getMembers()": "9eab5253",
        "getTransactionCount(bytes32)": "a1fb4acb",
        "getTransactionId(address,address,address,uint256,bytes32,bytes32,uint32)": "fa6297ba",
        "getTransactionId(address,address,address,uint256,bytes32,bytes32,uint32,uint256)": "7b116b5e",
        "hasVoted(bytes32)": "1b4613cb",
        "initialize(address)": "c4d66de8",
        "initialize(address[],uint256,address,address,address)": "a8e12e4c",
        "isMember(address)": "a230c524",
        "isOwner()": "8f32d59b",
        "isProcessed(bytes32,bytes32)": "7b6d343a",
        "isVoted(bytes32,bytes32)": "09c69cfa",
        "members(uint256)": "5daf08ca",
        "owner()": "8da5cb5b",
        "processed(bytes32)": "c1f0808a",
        "removeMember(address)": "0b1ca49a",
        "renounceOwnership()": "715018a6",
        "required()": "dc8452cd",
        "setBridge(address)": "8dd14802",
        "setNFTBridge(address)": "a481d59b",
        "transactionWasProcessed(bytes32)": "a93585f0",
        "transferOwnership(address)": "f2fde38b",
        "version()": "54fd4d50",
        "voteTransaction(address,address,address,uint256,bytes32,bytes32,uint32,uint8,uint256)": "21e901ab",
        "votes(bytes32,address)": "9386775a"
    },
    "gasEstimates": {
        "creation": {
            "codeDepositCost": "1730000",
            "executionCost": "1820",
            "totalCost": "1731820"
        },
        "external": {
            "MAX_MEMBER_COUNT()": "307",
            "_voteTransaction(address,address,address,uint256,bytes32,bytes32,uint32,uint8,uint256)": "infinite",
            "addMember(address)": "80799",
            "bridge()": "2381",
            "bridgeNFT()": "2403",
            "changeRequirement(uint256)": "27842",
            "emitHeartbeat(uint256,uint256,string,string,string)": "infinite",
            "getMembers()": "infinite",
            "getTransactionCount(bytes32)": "infinite",
            "getTransactionId(address,address,address,uint256,bytes32,bytes32,uint32)": "infinite",
            "getTransactionId(address,address,address,uint256,bytes32,bytes32,uint32,uint256)": "infinite",
            "hasVoted(bytes32)": "2601",
            "initialize(address)": "81002",
            "initialize(address[],uint256,address,address,address)": "infinite",
            "isMember(address)": "2582",
            "isOwner()": "2377",
            "isProcessed(bytes32,bytes32)": "4764",
            "isVoted(bytes32,bytes32)": "4870",
            "members(uint256)": "4704",
            "owner()": "2443",
            "processed(bytes32)": "2550",
            "removeMember(address)": "infinite",
            "renounceOwnership()": "30208",
            "required()": "2384",
            "setBridge(address)": "infinite",
            "setNFTBridge(address)": "infinite",
            "transactionWasProcessed(bytes32)": "2484",
            "transferOwnership(address)": "infinite",
            "version()": "infinite",
            "voteTransaction(address,address,address,uint256,bytes32,bytes32,uint32,uint8,uint256)": "infinite",
            "votes(bytes32,address)": "2706"
        },
        "internal": {
            "_setBridge(address)": "infinite",
            "_setNFTBridge(address)": "infinite",
            "acceptTransfer(address,address payable,address payable,uint256,bytes32,bytes32,uint32,enum IFederation.TokenType,uint256)": "infinite",
            "getMinimalNumberOfVotes()": "2276",
            "validateTransaction(bytes32,bytes32)": "infinite"
        }
    }
}